{
  "contractName": "Sanaaj",
  "abi": [
    {
      "inputs": [],
      "payable": false,
      "stateMutability": "nonpayable",
      "type": "constructor"
    },
    {
      "constant": true,
      "inputs": [
        {
          "internalType": "string",
          "name": "",
          "type": "string"
        },
        {
          "internalType": "string",
          "name": "",
          "type": "string"
        }
      ],
      "name": "allowanceList",
      "outputs": [
        {
          "internalType": "uint256",
          "name": "",
          "type": "uint256"
        }
      ],
      "payable": false,
      "stateMutability": "view",
      "type": "function"
    },
    {
      "constant": true,
      "inputs": [
        {
          "internalType": "uint256",
          "name": "",
          "type": "uint256"
        }
      ],
      "name": "complaintList",
      "outputs": [
        {
          "internalType": "string",
          "name": "ration_id",
          "type": "string"
        },
        {
          "internalType": "uint256",
          "name": "vendor_id",
          "type": "uint256"
        },
        {
          "internalType": "string",
          "name": "complaint_content",
          "type": "string"
        },
        {
          "internalType": "string",
          "name": "time",
          "type": "string"
        }
      ],
      "payable": false,
      "stateMutability": "view",
      "type": "function"
    },
    {
      "constant": true,
      "inputs": [
        {
          "internalType": "string",
          "name": "",
          "type": "string"
        }
      ],
      "name": "consumerList",
      "outputs": [
        {
          "internalType": "string",
          "name": "ration_card",
          "type": "string"
        },
        {
          "internalType": "uint256",
          "name": "ration_card_type",
          "type": "uint256"
        },
        {
          "internalType": "string",
          "name": "first_name",
          "type": "string"
        },
        {
          "internalType": "string",
          "name": "last_name",
          "type": "string"
        },
        {
          "internalType": "string",
          "name": "phone",
          "type": "string"
        },
        {
          "internalType": "string",
          "name": "location",
          "type": "string"
        },
        {
          "internalType": "uint256",
          "name": "vendor_id",
          "type": "uint256"
        },
        {
          "internalType": "string",
          "name": "password",
          "type": "string"
        },
        {
          "internalType": "address",
          "name": "wallet_addr",
          "type": "address"
        }
      ],
      "payable": false,
      "stateMutability": "view",
      "type": "function"
    },
    {
      "constant": true,
      "inputs": [
        {
          "internalType": "string",
          "name": "",
          "type": "string"
        },
        {
          "internalType": "uint256",
          "name": "",
          "type": "uint256"
        }
      ],
      "name": "pendingTransactionList",
      "outputs": [
        {
          "internalType": "string",
          "name": "consumer_ration_id",
          "type": "string"
        },
        {
          "internalType": "uint256",
          "name": "vendor_id",
          "type": "uint256"
        },
        {
          "internalType": "string",
          "name": "timestamp",
          "type": "string"
        }
      ],
      "payable": false,
      "stateMutability": "view",
      "type": "function"
    },
    {
      "constant": true,
      "inputs": [
        {
          "internalType": "uint256",
          "name": "",
          "type": "uint256"
        },
        {
          "internalType": "string",
          "name": "",
          "type": "string"
        }
      ],
      "name": "stockList",
      "outputs": [
        {
          "internalType": "uint256",
          "name": "",
          "type": "uint256"
        }
      ],
      "payable": false,
      "stateMutability": "view",
      "type": "function"
    },
    {
      "constant": true,
      "inputs": [
        {
          "internalType": "string",
          "name": "",
          "type": "string"
        },
        {
          "internalType": "uint256",
          "name": "",
          "type": "uint256"
        }
      ],
      "name": "transactionList",
      "outputs": [
        {
          "internalType": "string",
          "name": "consumer_ration_id",
          "type": "string"
        },
        {
          "internalType": "uint256",
          "name": "vendor_id",
          "type": "uint256"
        },
        {
          "internalType": "string",
          "name": "timestamp",
          "type": "string"
        }
      ],
      "payable": false,
      "stateMutability": "view",
      "type": "function"
    },
    {
      "constant": true,
      "inputs": [
        {
          "internalType": "uint256",
          "name": "",
          "type": "uint256"
        }
      ],
      "name": "vendorList",
      "outputs": [
        {
          "internalType": "uint256",
          "name": "vendor_id",
          "type": "uint256"
        },
        {
          "internalType": "string",
          "name": "first_name",
          "type": "string"
        },
        {
          "internalType": "string",
          "name": "last_name",
          "type": "string"
        },
        {
          "internalType": "string",
          "name": "phone",
          "type": "string"
        },
        {
          "internalType": "string",
          "name": "location",
          "type": "string"
        },
        {
          "internalType": "string",
          "name": "password",
          "type": "string"
        },
        {
          "internalType": "bool",
          "name": "isBlacklisted",
          "type": "bool"
        },
        {
          "internalType": "address",
          "name": "wallet_addr",
          "type": "address"
        }
      ],
      "payable": false,
      "stateMutability": "view",
      "type": "function"
    },
    {
      "constant": true,
      "inputs": [],
      "name": "getAdminPassword",
      "outputs": [
        {
          "internalType": "string",
          "name": "",
          "type": "string"
        }
      ],
      "payable": false,
      "stateMutability": "view",
      "type": "function"
    },
    {
      "constant": true,
      "inputs": [
        {
          "internalType": "string",
          "name": "_ration",
          "type": "string"
        }
      ],
      "name": "getConsumer",
      "outputs": [
        {
          "components": [
            {
              "internalType": "string",
              "name": "ration_card",
              "type": "string"
            },
            {
              "internalType": "uint256",
              "name": "ration_card_type",
              "type": "uint256"
            },
            {
              "internalType": "string",
              "name": "first_name",
              "type": "string"
            },
            {
              "internalType": "string",
              "name": "last_name",
              "type": "string"
            },
            {
              "internalType": "string",
              "name": "phone",
              "type": "string"
            },
            {
              "internalType": "string",
              "name": "location",
              "type": "string"
            },
            {
              "internalType": "uint256",
              "name": "vendor_id",
              "type": "uint256"
            },
            {
              "internalType": "string",
              "name": "password",
              "type": "string"
            },
            {
              "internalType": "address",
              "name": "wallet_addr",
              "type": "address"
            }
          ],
          "internalType": "struct AssetLibrary.Consumer",
          "name": "",
          "type": "tuple"
        }
      ],
      "payable": false,
      "stateMutability": "view",
      "type": "function"
    },
    {
      "constant": true,
      "inputs": [
        {
          "internalType": "uint256",
          "name": "_id",
          "type": "uint256"
        }
      ],
      "name": "getVendor",
      "outputs": [
        {
          "components": [
            {
              "internalType": "uint256",
              "name": "vendor_id",
              "type": "uint256"
            },
            {
              "internalType": "string",
              "name": "first_name",
              "type": "string"
            },
            {
              "internalType": "string",
              "name": "last_name",
              "type": "string"
            },
            {
              "internalType": "string",
              "name": "phone",
              "type": "string"
            },
            {
              "internalType": "string",
              "name": "location",
              "type": "string"
            },
            {
              "internalType": "string",
              "name": "password",
              "type": "string"
            },
            {
              "internalType": "bool",
              "name": "isBlacklisted",
              "type": "bool"
            },
            {
              "internalType": "address",
              "name": "wallet_addr",
              "type": "address"
            }
          ],
          "internalType": "struct AssetLibrary.Vendor",
          "name": "",
          "type": "tuple"
        }
      ],
      "payable": false,
      "stateMutability": "view",
      "type": "function"
    },
    {
      "constant": true,
      "inputs": [],
      "name": "getAllConsumers",
      "outputs": [
        {
          "internalType": "string[]",
          "name": "",
          "type": "string[]"
        }
      ],
      "payable": false,
      "stateMutability": "view",
      "type": "function"
    },
    {
      "constant": true,
      "inputs": [],
      "name": "getAllVendors",
      "outputs": [
        {
          "internalType": "uint256[]",
          "name": "",
          "type": "uint256[]"
        }
      ],
      "payable": false,
      "stateMutability": "view",
      "type": "function"
    },
    {
      "constant": true,
      "inputs": [
        {
          "internalType": "string",
          "name": "_ration",
          "type": "string"
        }
      ],
      "name": "getAllowance",
      "outputs": [
        {
          "internalType": "uint256",
          "name": "",
          "type": "uint256"
        },
        {
          "internalType": "uint256",
          "name": "",
          "type": "uint256"
        },
        {
          "internalType": "uint256",
          "name": "",
          "type": "uint256"
        },
        {
          "internalType": "uint256",
          "name": "",
          "type": "uint256"
        }
      ],
      "payable": false,
      "stateMutability": "view",
      "type": "function"
    },
    {
      "constant": true,
      "inputs": [
        {
          "internalType": "uint256",
          "name": "_id",
          "type": "uint256"
        }
      ],
      "name": "getStock",
      "outputs": [
        {
          "internalType": "uint256",
          "name": "",
          "type": "uint256"
        },
        {
          "internalType": "uint256",
          "name": "",
          "type": "uint256"
        },
        {
          "internalType": "uint256",
          "name": "",
          "type": "uint256"
        },
        {
          "internalType": "uint256",
          "name": "",
          "type": "uint256"
        }
      ],
      "payable": false,
      "stateMutability": "view",
      "type": "function"
    },
    {
      "constant": false,
      "inputs": [
        {
          "internalType": "string",
          "name": "_ration",
          "type": "string"
        },
        {
          "internalType": "uint256",
          "name": "_vendorID",
          "type": "uint256"
        },
        {
          "internalType": "uint256[]",
          "name": "quantity_commodity",
          "type": "uint256[]"
        },
        {
          "internalType": "string",
          "name": "timestamp",
          "type": "string"
        }
      ],
      "name": "updateAllowance",
      "outputs": [],
      "payable": false,
      "stateMutability": "nonpayable",
      "type": "function"
    },
    {
      "constant": true,
      "inputs": [
        {
          "internalType": "string",
          "name": "_ration",
          "type": "string"
        }
      ],
      "name": "getTransactions",
      "outputs": [
        {
          "components": [
            {
              "internalType": "string",
              "name": "consumer_ration_id",
              "type": "string"
            },
            {
              "internalType": "uint256",
              "name": "vendor_id",
              "type": "uint256"
            },
            {
              "internalType": "uint256[]",
              "name": "quantity",
              "type": "uint256[]"
            },
            {
              "internalType": "string",
              "name": "timestamp",
              "type": "string"
            }
          ],
          "internalType": "struct AssetLibrary.Transaction[]",
          "name": "",
          "type": "tuple[]"
        }
      ],
      "payable": false,
      "stateMutability": "view",
      "type": "function"
    },
    {
      "constant": false,
      "inputs": [
        {
          "internalType": "string",
          "name": "_ration",
          "type": "string"
        }
      ],
      "name": "refillAllowance",
      "outputs": [],
      "payable": false,
      "stateMutability": "nonpayable",
      "type": "function"
    },
    {
      "constant": false,
      "inputs": [
        {
          "internalType": "uint256",
          "name": "_vendorID",
          "type": "uint256"
        }
      ],
      "name": "refillStock",
      "outputs": [],
      "payable": false,
      "stateMutability": "nonpayable",
      "type": "function"
    },
    {
      "constant": false,
      "inputs": [
        {
          "internalType": "uint256",
          "name": "_id",
          "type": "uint256"
        }
      ],
      "name": "blacklist",
      "outputs": [],
      "payable": false,
      "stateMutability": "nonpayable",
      "type": "function"
    },
    {
      "constant": false,
      "inputs": [
        {
          "internalType": "string",
          "name": "_ration",
          "type": "string"
        },
        {
          "internalType": "uint256",
          "name": "card_type",
          "type": "uint256"
        }
      ],
      "name": "updateCardType",
      "outputs": [],
      "payable": false,
      "stateMutability": "nonpayable",
      "type": "function"
    },
    {
      "constant": false,
      "inputs": [
        {
          "internalType": "string",
          "name": "ration_card",
          "type": "string"
        },
        {
          "internalType": "uint256",
          "name": "ration_card_type",
          "type": "uint256"
        },
        {
          "internalType": "string",
          "name": "first_name",
          "type": "string"
        },
        {
          "internalType": "string",
          "name": "last_name",
          "type": "string"
        },
        {
          "internalType": "string",
          "name": "phone",
          "type": "string"
        },
        {
          "internalType": "string",
          "name": "location",
          "type": "string"
        },
        {
          "internalType": "uint256",
          "name": "vendor_id",
          "type": "uint256"
        },
        {
          "internalType": "string",
          "name": "password",
          "type": "string"
        },
        {
          "internalType": "address",
          "name": "wallet_addr",
          "type": "address"
        }
      ],
      "name": "addConsumer",
      "outputs": [],
      "payable": false,
      "stateMutability": "nonpayable",
      "type": "function"
    },
    {
      "constant": false,
      "inputs": [
        {
          "internalType": "uint256",
          "name": "vendor_id",
          "type": "uint256"
        },
        {
          "internalType": "string",
          "name": "first_name",
          "type": "string"
        },
        {
          "internalType": "string",
          "name": "last_name",
          "type": "string"
        },
        {
          "internalType": "string",
          "name": "phone",
          "type": "string"
        },
        {
          "internalType": "string",
          "name": "location",
          "type": "string"
        },
        {
          "internalType": "string",
          "name": "password",
          "type": "string"
        },
        {
          "internalType": "bool",
          "name": "isBlacklisted",
          "type": "bool"
        },
        {
          "internalType": "address",
          "name": "wallet_addr",
          "type": "address"
        }
      ],
      "name": "addVendor",
      "outputs": [],
      "payable": false,
      "stateMutability": "nonpayable",
      "type": "function"
    },
    {
      "constant": false,
      "inputs": [
        {
          "internalType": "string",
          "name": "ration_id",
          "type": "string"
        },
        {
          "internalType": "uint256",
          "name": "vendor_id",
          "type": "uint256"
        },
        {
          "internalType": "string",
          "name": "complaint_content",
          "type": "string"
        },
        {
          "internalType": "string",
          "name": "time",
          "type": "string"
        }
      ],
      "name": "addComplaint",
      "outputs": [],
      "payable": false,
      "stateMutability": "nonpayable",
      "type": "function"
    },
    {
      "constant": true,
      "inputs": [],
      "name": "getAllComplaints",
      "outputs": [
        {
          "components": [
            {
              "internalType": "string",
              "name": "ration_id",
              "type": "string"
            },
            {
              "internalType": "uint256",
              "name": "vendor_id",
              "type": "uint256"
            },
            {
              "internalType": "string",
              "name": "complaint_content",
              "type": "string"
            },
            {
              "internalType": "string",
              "name": "time",
              "type": "string"
            }
          ],
          "internalType": "struct AssetLibrary.Complaint[]",
          "name": "",
          "type": "tuple[]"
        }
      ],
      "payable": false,
      "stateMutability": "view",
      "type": "function"
    },
    {
      "constant": false,
      "inputs": [
        {
          "internalType": "string",
          "name": "ration_id",
          "type": "string"
        },
        {
          "internalType": "string",
          "name": "new_password",
          "type": "string"
        }
      ],
      "name": "resetConsumerPassword",
      "outputs": [],
      "payable": false,
      "stateMutability": "nonpayable",
      "type": "function"
    },
    {
      "constant": false,
      "inputs": [
        {
          "internalType": "uint256",
          "name": "vendor_id",
          "type": "uint256"
        },
        {
          "internalType": "string",
          "name": "new_password",
          "type": "string"
        }
      ],
      "name": "resetVendorPassword",
      "outputs": [],
      "payable": false,
      "stateMutability": "nonpayable",
      "type": "function"
    },
    {
      "constant": true,
      "inputs": [
        {
          "internalType": "string",
          "name": "ration_id",
          "type": "string"
        },
        {
          "internalType": "string",
          "name": "password",
          "type": "string"
        }
      ],
      "name": "checkConsumerCredentials",
      "outputs": [
        {
          "internalType": "bool",
          "name": "",
          "type": "bool"
        }
      ],
      "payable": false,
      "stateMutability": "view",
      "type": "function"
    },
    {
      "constant": true,
      "inputs": [
        {
          "internalType": "uint256",
          "name": "vendor_id",
          "type": "uint256"
        },
        {
          "internalType": "string",
          "name": "password",
          "type": "string"
        }
      ],
      "name": "checkVendorCredentials",
      "outputs": [
        {
          "internalType": "bool",
          "name": "",
          "type": "bool"
        }
      ],
      "payable": false,
      "stateMutability": "view",
      "type": "function"
    },
    {
      "constant": true,
      "inputs": [
        {
          "internalType": "string",
          "name": "password",
          "type": "string"
        }
      ],
      "name": "checkAdminCredentials",
      "outputs": [
        {
          "internalType": "bool",
          "name": "",
          "type": "bool"
        }
      ],
      "payable": false,
      "stateMutability": "view",
      "type": "function"
    },
    {
      "constant": true,
      "inputs": [
        {
          "internalType": "bytes32",
          "name": "data",
          "type": "bytes32"
        }
      ],
      "name": "toHex",
      "outputs": [
        {
          "internalType": "string",
          "name": "",
          "type": "string"
        }
      ],
      "payable": false,
      "stateMutability": "pure",
      "type": "function"
    }
  ],
  "bytecode": "0x60806040523480156200001157600080fd5b506040518061012001604052806040518060400160405280600c81526020016b04d48313233343536373839360a41b8152508152602001600181526020016040518060400160405280600381526020016252616d60e81b81525081526020016040518060400160405280600881526020016747686f727061646560c01b81525081526020016040518060400160405280600a8152602001690313233343536373839360b41b8152508152602001604051806040016040528060068152602001654d756d62616960d01b81525081526020016001815260200160405180608001604052806042815260200162005aab604291398152739345baf04a62f6a91d20aa08121a16eb39308b70602090910152604051600190620001319062001286565b908152602001604051809103902060008201518160000190805190602001906200015d92919062000ff9565b5060208281015160018301556040830151805162000182926002850192019062000ff9565b5060608201518051620001a091600384019160209091019062000ff9565b5060808201518051620001be91600484019160209091019062000ff9565b5060a08201518051620001dc91600584019160209091019062000ff9565b5060c0820151600682015560e082015180516200020491600784019160209091019062000ff9565b506101008201518160080160006101000a8154816001600160a01b0302191690836001600160a01b031602179055509050506040518061012001604052806040518060400160405280600c81526020016b26a41899199a1a981c9b1b1b60a11b81525081526020016002815260200160405180604001604052806005815260200164536879616d60d81b81525081526020016040518060400160405280600881526020016747686f727061646560c01b81525081526020016040518060400160405280600a8152602001691899199a1a981c9c1b9b60b11b8152508152602001604051806040016040528060068152602001654d756d62616960d01b81525081526020016001815260200160405180608001604052806042815260200162005aed60429139815273b793c1d9c9d5050859864dbd321fc873e7942e546020909101526040516001906200035790620012c0565b908152602001604051809103902060008201518160000190805190602001906200038392919062000ff9565b50602082810151600183015560408301518051620003a8926002850192019062000ff9565b5060608201518051620003c691600384019160209091019062000ff9565b5060808201518051620003e491600484019160209091019062000ff9565b5060a082015180516200040291600584019160209091019062000ff9565b5060c0820151600682015560e082015180516200042a91600784019160209091019062000ff9565b506101008201518160080160006101000a8154816001600160a01b0302191690836001600160a01b031602179055509050506040518061012001604052806040518060400160405280600c81526020016b26a41899199a1a981c9c1b9b60a11b8152508152602001600281526020016040518060400160405280600a8152602001694768616e61736879616d60b01b8152508152602001604051806040016040528060098152602001684465736870616e646560b81b81525081526020016040518060400160405280600a8152602001691899199a1a981c9c1b9b60b11b8152508152602001604051806040016040528060068152602001654d756d62616960d01b815250815260200160018152602001604051806080016040528060428152602001620059a360429139815273b7c6562bf283534a775d5198195bfd8d47d226476020909101526040516001906200058390620012a6565b90815260200160405180910390206000820151816000019080519060200190620005af92919062000ff9565b50602082810151600183015560408301518051620005d4926002850192019062000ff9565b5060608201518051620005f291600384019160209091019062000ff9565b50608082015180516200061091600484019160209091019062000ff9565b5060a082015180516200062e91600584019160209091019062000ff9565b5060c0820151600682015560e082015180516200065691600784019160209091019062000ff9565b506101008201518160080160006101000a8154816001600160a01b0302191690836001600160a01b031602179055509050506040518061012001604052806040518060400160405280600c81526020016b04d48393837363534313233360a41b81525081526020016001815260200160405180604001604052806005815260200164446167647560d81b8152508152602001604051806040016040528060058152602001642830b930b160d91b81525081526020016040518060400160405280600a8152602001690393837363534313233360b41b8152508152602001604051806040016040528060068152602001654d756d62616960d01b81525081526020016002815260200160405180608001604052806042815260200162005a6960429139815273b6444a785bc6d27d3facb648dc0714c39f569b24602090910152604051600190620007a69062001299565b90815260200160405180910390206000820151816000019080519060200190620007d292919062000ff9565b50602082810151600183015560408301518051620007f7926002850192019062000ff9565b50606082015180516200081591600384019160209091019062000ff9565b50608082015180516200083391600484019160209091019062000ff9565b5060a082015180516200085191600584019160209091019062000ff9565b5060c0820151600682015560e082015180516200087991600784019160209091019062000ff9565b506101009190910151600890910180546001600160a01b0319166001600160a01b039092169190911790556040805161016081018252600c61012082019081526b4d483938373635303433323160a01b610140830152815260036020808301829052835180850185528281526241424360e81b818301528385015283518085018552918252622c2cad60e91b8282015260608084019290925283518085018552600a8152693938373635303433323160b01b8183015260808401528351808501855260068152654d756d62616960d01b8183015260a0840152600260c084015283519182018452838252919260e084019262005b2f9083013981527397b814cdcd7f542f413e2cfef8af97c6633fff3d602090910152604051600190620009a090620012b3565b90815260200160405180910390206000820151816000019080519060200190620009cc92919062000ff9565b50602082810151600183015560408301518051620009f1926002850192019062000ff9565b506060820151805162000a0f91600384019160209091019062000ff9565b506080820151805162000a2d91600484019160209091019062000ff9565b5060a0820151805162000a4b91600584019160209091019062000ff9565b5060c0820151600682015560e0820151805162000a7391600784019160209091019062000ff9565b506101008201518160080160006101000a8154816001600160a01b0302191690836001600160a01b0316021790555090505060405180610100016040528060018152602001604051806040016040528060088152602001670a6d2c8c8d0cae6d60c31b815250815260200160405180604001604052806005815260200164426167776560d81b81525081526020016040518060400160405280600a8152602001691898191c999c1a1b9a9b60b11b8152508152602001604051806040016040528060068152602001654d756d62616960d01b8152508152602001604051806080016040528060428152602001620059e56042913981526000602080830182905273675a7359e0d96b9a25dca5d08e1f1ee85b9cd24f604090930192909252600190526002815281517fe90b7bceb6e7df5418fb78d8ee546e97c83a08bbccc01a0644d599ccd2a7c2e0908155828201518051919262000bf8927fe90b7bceb6e7df5418fb78d8ee546e97c83a08bbccc01a0644d599ccd2a7c2e1929091019062000ff9565b506040820151805162000c1691600284019160209091019062000ff9565b506060820151805162000c3491600384019160209091019062000ff9565b506080820151805162000c5291600484019160209091019062000ff9565b5060a0820151805162000c7091600584019160209091019062000ff9565b5060c08201516006918201805460e09094015160ff1990941691151591909117610100600160a81b0319166101006001600160a01b03909416840217905560408051928301815260028352805180820182526005815264506f6f6a6160d81b6020808301919091528085019190915281518083018352600781526612d85d5b19dd5960ca1b818301528483015281518083018352600a8152691c981c1b9a9b1a18999960b11b8183015260608086019190915282518084018452938452654d756d62616960d01b8483015260808501939093528151928301825281835260a08401929190620059639083013981526000602080830182905273295b6ae0efe05de0011e9316e27b560ccdcd3ddb604090930192909252600290819052815281517f679795a0195a1b76cdebb7c51d74e058aee92919b8c3389af86ef24535e8a28c908155828201518051919262000ded927f679795a0195a1b76cdebb7c51d74e058aee92919b8c3389af86ef24535e8a28d929091019062000ff9565b506040820151805162000e0b91600284019160209091019062000ff9565b506060820151805162000e2991600384019160209091019062000ff9565b506080820151805162000e4791600484019160209091019062000ff9565b5060a0820151805162000e6591600584019160209091019062000ff9565b5060c08201516006909101805460e0909301516001600160a01b031661010002610100600160a81b031992151560ff1990941693909317919091169190911790556040805160808101909152604280825262005a276020830139805162000ed591600b9160209091019062000ff9565b506040805160e081018252600c60a082018181526b04d48313233343536373839360a41b60c08401528252825180840184528181526b26a41899199a1a981c9b1b1b60a11b60208281019190915280840191909152835180850185528281526b26a41899199a1a981c9c1b9b60a11b8183015283850152835180850185528281526b04d48393837363534313233360a41b81830152606084015283518085019094529083526b4d483938373635303433323160a01b90830152608081019190915262000fa69060089060056200107e565b50604080518082019091526001815260026020820181905262000fcc91600991620010de565b50600a80546001600160a01b031916731964f1519ff7acaa5e6b2462070cb0d6817fba4e179055620012d2565b828054600181600116156101000203166002900490600052602060002090601f016020900481019282601f106200103c57805160ff19168380011785556200106c565b828001600101855582156200106c579182015b828111156200106c5782518255916020019190600101906200104f565b506200107a92915062001121565b5090565b828054828255906000526020600020908101928215620010d0579160200282015b82811115620010d05782518051620010bf91849160209091019062000ff9565b50916020019190600101906200109f565b506200107a92915062001141565b8280548282559060005260206000209081019282156200106c579160200282015b828111156200106c578251829060ff16905591602001919060010190620010ff565b6200113e91905b808211156200107a576000815560010162001128565b90565b6200113e91905b808211156200107a5760006200115f828262001169565b5060010162001148565b50805460018160011615610100020316600290046000825580601f10620011915750620011b1565b601f016020900490600052602060002090810190620011b1919062001121565b50565b6000620011c3600c83620012cd565b6b04d48313233343536373839360a41b8152600c0192915050565b6000620011ed600c83620012cd565b6b04d48393837363534313233360a41b8152600c0192915050565b600062001217600c83620012cd565b6b26a41899199a1a981c9c1b9b60a11b8152600c0192915050565b600062001241600c83620012cd565b6b4d483938373635303433323160a01b8152600c0192915050565b60006200126b600c83620012cd565b6b26a41899199a1a981c9b1b1b60a11b8152600c0192915050565b60006200129382620011b4565b92915050565b60006200129382620011de565b6000620012938262001208565b6000620012938262001232565b600062001293826200125c565b919050565b61468180620012e26000396000f3fe608060405234801561001057600080fd5b50600436106101da5760003560e01c80635146da221161010457806384090734116100a2578063bff499f211610071578063bff499f214610464578063c2898c3c14610477578063f20443e81461049f578063ff3dca65146104b2576101da565b806384090734146103ff5780638f9c469114610426578063a71b78e414610449578063a99859381461045c576101da565b80635e0b421e116100de5780635e0b421e146103a45780636453e876146103b957806365de1eb3146103cc5780637a763997146103ec576101da565b80635146da221461035e57806353b676e7146103715780635484967214610391576101da565b806329ed6f511161017c5780633ab7d09a1161014b5780633ab7d09a1461030557806349e894d8146103185780634ac3751c1461033857806350cbb1541461034b576101da565b806329ed6f51146102aa5780632b18160b146102ca5780633318bca1146102dd578063364dfb74146102f0576101da565b80630f2a0919116101b85780630f2a09191461023557806313830e041461024857806316fc08341461026a57806326ba9eed1461028a576101da565b806301cbbd31146101df5780630a8b4823146101f45780630dac953914610220575b600080fd5b6101f26101ed3660046138fe565b6104c5565b005b610207610202366004613778565b61058b565b60405161021794939291906144f4565b60405180910390f35b610228610697565b60405161021791906142a8565b6101f2610243366004613734565b6108c6565b61025b610256366004613813565b6108e9565b604051610217939291906142fa565b61027d6102783660046137ac565b610a58565b604051610217919061444c565b61029d610298366004613778565b610a92565b604051610217919061442a565b6102bd6102b8366004613778565b610e71565b60405161021791906142db565b6101f26102d8366004613abc565b610f3f565b6101f26102eb36600461396f565b610f85565b6102f8611140565b6040516102179190614297565b610207610313366004613734565b61120f565b61032b610326366004613734565b6112cc565b60405161021791906142e9565b6101f2610346366004613859565b61130b565b61025b610359366004613813565b611652565b6102bd61036c3660046137ac565b61167a565b61038461037f366004613778565b611ad1565b60405161021791906142b9565b6101f261039f3660046137ac565b611cd3565b6103ac611d22565b60405161021791906142ca565b6101f26103c7366004613778565b611d7a565b6103df6103da366004613734565b61208e565b604051610217919061443b565b6101f26103fa366004613734565b6123c2565b61041261040d366004613734565b612480565b60405161021798979695949392919061445a565b610439610434366004613734565b612781565b604051610217949392919061432c565b6101f2610457366004613adb565b612965565b61032b612aec565b61027d610472366004613abc565b612b79565b61048a610485366004613778565b612ba7565b6040516102179998979695949392919061437c565b6102bd6104ad366004613abc565b612f4a565b6101f26104c0366004613813565b6132b1565b6104cd61349b565b506040805160808101825285815260208082018690529181018490526060810183905260078054600181018083556000929092528251805193949293859360049093027fa66cc928b5edb82af9bd49922954155ab7b0942694bea4ce44661d9a8736c68801926105419284929101906134c3565b5060208281015160018301556040830151805161056492600285019201906134c3565b50606082015180516105809160038401916020909101906134c3565b505050505050505050565b60008060008060006003866040516105a39190614222565b90815260200160405180910390206040516105bd90614276565b908152602001604051809103902054905060006003876040516105e09190614222565b90815260200160405180910390206040516105fa9061428c565b9081526020016040518091039020549050600060038860405161061d9190614222565b908152602001604051809103902060405161063790614281565b9081526020016040518091039020549050600060038960405161065a9190614222565b90815260200160405180910390206040516106749061423a565b908152604051908190036020019020549397509195509350909150509193509193565b60606007805480602002602001604051908101604052809291908181526020016000905b828210156108bc5760008481526020908190206040805160048602909201805460026001821615610100026000190190911604601f8101859004909402830160a090810190925260808301848152929390928492909184918401828280156107645780601f1061073957610100808354040283529160200191610764565b820191906000526020600020905b81548152906001019060200180831161074757829003601f168201915b5050505050815260200160018201548152602001600282018054600181600116156101000203166002900480601f0160208091040260200160405190810160405280929190818152602001828054600181600116156101000203166002900480156108105780601f106107e557610100808354040283529160200191610810565b820191906000526020600020905b8154815290600101906020018083116107f357829003601f168201915b505050918352505060038201805460408051602060026001851615610100026000190190941693909304601f81018490048402820184019092528181529382019392918301828280156108a45780601f10610879576101008083540402835291602001916108a4565b820191906000526020600020905b81548152906001019060200180831161088757829003601f168201915b505050505081525050815260200190600101906106bb565b5050505090505b90565b6000908152600260205260409020600601805460ff19811660ff90911615179055565b8151602081840181018051600582529282019185019190912091905280548290811061091157fe5b60009182526020918290206004919091020180546040805160026001841615610100026000190190931692909204601f8101859004850283018501909152808252919450925083918301828280156109aa5780601f1061097f576101008083540402835291602001916109aa565b820191906000526020600020905b81548152906001019060200180831161098d57829003601f168201915b505050505090806001015490806003018054600181600116156101000203166002900480601f016020809104026020016040519081016040528092919081815260200182805460018160011615610100020316600290048015610a4e5780601f10610a2357610100808354040283529160200191610a4e565b820191906000526020600020905b815481529060010190602001808311610a3157829003601f168201915b5050505050905083565b8151602081840181018051600382529282019482019490942091909352815180830184018051928152908401929093019190912091525481565b610a9a613541565b600182604051610aaa9190614222565b9081526040805160209281900383018120805460026001821615610100026000190190911604601f810185900490940282016101409081019093526101208201848152919390928492918491840182828015610b475780601f10610b1c57610100808354040283529160200191610b47565b820191906000526020600020905b815481529060010190602001808311610b2a57829003601f168201915b5050505050815260200160018201548152602001600282018054600181600116156101000203166002900480601f016020809104026020016040519081016040528092919081815260200182805460018160011615610100020316600290048015610bf35780601f10610bc857610100808354040283529160200191610bf3565b820191906000526020600020905b815481529060010190602001808311610bd657829003601f168201915b505050918352505060038201805460408051602060026001851615610100026000190190941693909304601f8101849004840282018401909252818152938201939291830182828015610c875780601f10610c5c57610100808354040283529160200191610c87565b820191906000526020600020905b815481529060010190602001808311610c6a57829003601f168201915b505050918352505060048201805460408051602060026001851615610100026000190190941693909304601f8101849004840282018401909252818152938201939291830182828015610d1b5780601f10610cf057610100808354040283529160200191610d1b565b820191906000526020600020905b815481529060010190602001808311610cfe57829003601f168201915b505050918352505060058201805460408051602060026001851615610100026000190190941693909304601f8101849004840282018401909252818152938201939291830182828015610daf5780601f10610d8457610100808354040283529160200191610daf565b820191906000526020600020905b815481529060010190602001808311610d9257829003601f168201915b5050509183525050600682015460208083019190915260078301805460408051601f60026000196101006001871615020190941693909304928301859004850281018501825282815294019392830182828015610e4d5780601f10610e2257610100808354040283529160200191610e4d565b820191906000526020600020905b815481529060010190602001808311610e3057829003601f168201915b5050509183525050600891909101546001600160a01b031660209091015292915050565b60006060610ee5600284604051602001610e8b9190614222565b60408051601f1981840301815290829052610ea591614222565b602060405180830381855afa158015610ec2573d6000803e3d6000fd5b5050506040513d601f19601f82011682018060405250610326919081019061375a565b9050600b604051602001610ef9919061422e565b6040516020818303038152906040528051906020012081604051602001610f209190614222565b6040516020818303038152906040528051906020012014915050919050565b6060610f57600283604051602001610e8b9190614222565b60008481526002602090815260409091208251929350610f7f926005909101918401906134c3565b50505050565b610f8d613541565b6040518061012001604052808b81526020018a8152602001898152602001888152602001878152602001868152602001858152602001610fd9600286604051602001610e8b9190614222565b8152602001836001600160a01b031681525090508060018b604051610ffe9190614222565b908152602001604051809103902060008201518160000190805190602001906110289291906134c3565b5060208281015160018301556040830151805161104b92600285019201906134c3565b50606082015180516110679160038401916020909101906134c3565b50608082015180516110839160048401916020909101906134c3565b5060a0820151805161109f9160058401916020909101906134c3565b5060c0820151600682015560e082015180516110c59160078401916020909101906134c3565b506101009190910151600891820180546001600160a01b0319166001600160a01b039092169190911790558054600181018083556000929092528b51611132917ff3f7a9fe364faab93b216da50a3214154f22a0a2b415b23a84c8169e8b636ee3019060208e01906134c3565b505050505050505050505050565b60606008805480602002602001604051908101604052809291908181526020016000905b828210156108bc5760008481526020908190208301805460408051601f60026000196101006001871615020190941693909304928301859004850281018501909152818152928301828280156111fb5780601f106111d0576101008083540402835291602001916111fb565b820191906000526020600020905b8154815290600101906020018083116111de57829003601f168201915b505050505081526020019060010190611164565b60008060008060006004600087815260200190815260200160002060405161123690614276565b90815260200160405180910390205490506000600460008881526020019081526020016000206040516112689061428c565b908152602001604051809103902054905060006004600089815260200190815260200160002060405161129a90614281565b90815260200160405180910390205490506000600460008a81526020019081526020016000206040516106749061423a565b60606112d7826132d9565b6112e4608084901b6132d9565b6040516020016112f5929190614245565b6040516020818303038152906040529050919050565b8160008151811061131857fe5b60200260200101516003856040516113309190614222565b908152602001604051809103902060405161134a90614276565b908152604051908190036020019020805491909103905581518290600190811061137057fe5b60200260200101516003856040516113889190614222565b90815260200160405180910390206040516113a29061428c565b90815260405190819003602001902080549190910390558151829060029081106113c857fe5b60200260200101516003856040516113e09190614222565b90815260200160405180910390206040516113fa90614281565b908152604051908190036020019020805491909103905581518290600390811061142057fe5b60200260200101516003856040516114389190614222565b90815260200160405180910390206040516114529061423a565b90815260405190819003602001902080549190910390558151829060009061147657fe5b60200260200101516004600085815260200190815260200160002060405161149d90614276565b90815260405190819003602001902080549190910390558151829060019081106114c357fe5b6020026020010151600460008581526020019081526020016000206040516114ea9061428c565b908152604051908190036020019020805491909103905581518290600290811061151057fe5b60200260200101516004600085815260200190815260200160002060405161153790614281565b908152604051908190036020019020805491909103905581518290600390811061155d57fe5b6020026020010151600460008581526020019081526020016000206040516115849061423a565b9081526040519081900360200181208054929092039091556005906115aa908690614222565b9081526040805191829003602090810183206080840183528784528382018790529183018590526060830184905281546001810180845560009384529282902084518051949594600490930290910192611609928492909101906134c3565b5060208281015160018301556040830151805161162c9260028501920190613596565b50606082015180516116489160038401916020909101906134c3565b5050505050505050565b8151602081840181018051600682529282019185019190912091905280548290811061091157fe5b6000611684613541565b6001846040516116949190614222565b9081526040805160209281900383018120805460026001821615610100026000190190911604601f8101859004909402820161014090810190935261012082018481529193909284929184918401828280156117315780601f1061170657610100808354040283529160200191611731565b820191906000526020600020905b81548152906001019060200180831161171457829003601f168201915b5050505050815260200160018201548152602001600282018054600181600116156101000203166002900480601f0160208091040260200160405190810160405280929190818152602001828054600181600116156101000203166002900480156117dd5780601f106117b2576101008083540402835291602001916117dd565b820191906000526020600020905b8154815290600101906020018083116117c057829003601f168201915b505050918352505060038201805460408051602060026001851615610100026000190190941693909304601f81018490048402820184019092528181529382019392918301828280156118715780601f1061184657610100808354040283529160200191611871565b820191906000526020600020905b81548152906001019060200180831161185457829003601f168201915b505050918352505060048201805460408051602060026001851615610100026000190190941693909304601f81018490048402820184019092528181529382019392918301828280156119055780601f106118da57610100808354040283529160200191611905565b820191906000526020600020905b8154815290600101906020018083116118e857829003601f168201915b505050918352505060058201805460408051602060026001851615610100026000190190941693909304601f81018490048402820184019092528181529382019392918301828280156119995780601f1061196e57610100808354040283529160200191611999565b820191906000526020600020905b81548152906001019060200180831161197c57829003601f168201915b5050509183525050600682015460208083019190915260078301805460408051601f60026000196101006001871615020190941693909304928301859004850281018501825282815294019392830182828015611a375780601f10611a0c57610100808354040283529160200191611a37565b820191906000526020600020905b815481529060010190602001808311611a1a57829003601f168201915b5050509183525050600891909101546001600160a01b0316602091820152604051919250606091611a7191600291610e8b91889101614222565b90508160e00151604051602001611a889190614222565b6040516020818303038152906040528051906020012081604051602001611aaf9190614222565b6040516020818303038152906040528051906020012014925050505b92915050565b6060600582604051611ae39190614222565b9081526020016040518091039020805480602002602001604051908101604052809291908181526020016000905b82821015611cc85760008481526020908190206040805160048602909201805460026001821615610100026000190190911604601f8101859004909402830160a09081019092526080830184815292939092849290918491840182828015611bba5780601f10611b8f57610100808354040283529160200191611bba565b820191906000526020600020905b815481529060010190602001808311611b9d57829003601f168201915b505050505081526020016001820154815260200160028201805480602002602001604051908101604052809291908181526020018280548015611c1c57602002820191906000526020600020905b815481526020019060010190808311611c08575b505050918352505060038201805460408051602060026001851615610100026000190190941693909304601f8101849004840282018401909252818152938201939291830182828015611cb05780601f10611c8557610100808354040283529160200191611cb0565b820191906000526020600020905b815481529060010190602001808311611c9357829003601f168201915b50505050508152505081526020019060010190611b11565b505050509050919050565b6060611ceb600283604051602001610e8b9190614222565b905080600184604051611cfe9190614222565b90815260200160405180910390206007019080519060200190610f7f9291906134c3565b60606009805480602002602001604051908101604052809291908181526020018280548015611d7057602002820191906000526020600020905b815481526020019060010190808311611d5c575b5050505050905090565b600181604051611d8a9190614222565b90815260200160405180910390206001015460011415611e9f576005600382604051611db69190614222565b9081526020016040518091039020604051611dd090614276565b908152602001604051809103902081905550600a600382604051611df49190614222565b9081526020016040518091039020604051611e0e9061428c565b9081526020016040518091039020819055506001600382604051611e329190614222565b9081526020016040518091039020604051611e4c90614281565b9081526020016040518091039020819055506005600382604051611e709190614222565b9081526020016040518091039020604051611e8a9061423a565b9081526040519081900360200190205561208b565b600181604051611eaf9190614222565b90815260200160405180910390206001015460021415611f9557600a600382604051611edb9190614222565b9081526020016040518091039020604051611ef590614276565b908152602001604051809103902081905550600f600382604051611f199190614222565b9081526020016040518091039020604051611f339061428c565b9081526020016040518091039020819055506002600382604051611f579190614222565b9081526020016040518091039020604051611f7190614281565b9081526020016040518091039020819055506007600382604051611e709190614222565b600c600382604051611fa79190614222565b9081526020016040518091039020604051611fc190614276565b9081526020016040518091039020819055506011600382604051611fe59190614222565b9081526020016040518091039020604051611fff9061428c565b908152602001604051809103902081905550600380826040516120229190614222565b908152602001604051809103902060405161203c90614281565b908152602001604051809103902081905550600a6003826040516120609190614222565b908152602001604051809103902060405161207a9061423a565b908152604051908190036020019020555b50565b6120966135d0565b6000828152600260208181526040928390208351610100808201865282548252600180840180548851928116159093026000190190921695909504601f810185900485028601850190965285855290949193858401939092908301828280156121405780601f1061211557610100808354040283529160200191612140565b820191906000526020600020905b81548152906001019060200180831161212357829003601f168201915b5050509183525050600282810180546040805160206001841615610100026000190190931694909404601f810183900483028501830190915280845293810193908301828280156121d25780601f106121a7576101008083540402835291602001916121d2565b820191906000526020600020905b8154815290600101906020018083116121b557829003601f168201915b505050918352505060038201805460408051602060026001851615610100026000190190941693909304601f81018490048402820184019092528181529382019392918301828280156122665780601f1061223b57610100808354040283529160200191612266565b820191906000526020600020905b81548152906001019060200180831161224957829003601f168201915b505050918352505060048201805460408051602060026001851615610100026000190190941693909304601f81018490048402820184019092528181529382019392918301828280156122fa5780601f106122cf576101008083540402835291602001916122fa565b820191906000526020600020905b8154815290600101906020018083116122dd57829003601f168201915b505050918352505060058201805460408051602060026001851615610100026000190190941693909304601f810184900484028201840190925281815293820193929183018282801561238e5780601f106123635761010080835404028352916020019161238e565b820191906000526020600020905b81548152906001019060200180831161237157829003601f168201915b50505091835250506006919091015460ff81161515602083015261010090046001600160a01b031660409091015292915050565b6101f4600460008381526020019081526020016000206040516123e490614276565b9081526020016040518091039020819055506103e8600460008381526020019081526020016000206040516124189061428c565b9081526020016040518091039020819055506101f46004600083815260200190815260200160002060405161244c90614281565b9081526020016040518091039020819055506101f46004600083815260200190815260200160002060405161207a9061423a565b60026020818152600092835260409283902080546001808301805487519281161561010002600019011695909504601f810185900485028201850190965285815290949193909290919083018282801561251b5780601f106124f05761010080835404028352916020019161251b565b820191906000526020600020905b8154815290600101906020018083116124fe57829003601f168201915b50505060028085018054604080516020601f60001961010060018716150201909416959095049283018590048502810185019091528181529596959450909250908301828280156125ad5780601f10612582576101008083540402835291602001916125ad565b820191906000526020600020905b81548152906001019060200180831161259057829003601f168201915b5050505060038301805460408051602060026001851615610100026000190190941693909304601f810184900484028201840190925281815294959493509083018282801561263d5780601f106126125761010080835404028352916020019161263d565b820191906000526020600020905b81548152906001019060200180831161262057829003601f168201915b5050505060048301805460408051602060026001851615610100026000190190941693909304601f81018490048402820184019092528181529495949350908301828280156126cd5780601f106126a2576101008083540402835291602001916126cd565b820191906000526020600020905b8154815290600101906020018083116126b057829003601f168201915b5050505060058301805460408051602060026001851615610100026000190190941693909304601f810184900484028201840190925281815294959493509083018282801561275d5780601f106127325761010080835404028352916020019161275d565b820191906000526020600020905b81548152906001019060200180831161274057829003601f168201915b5050506006909301549192505060ff8116906001600160a01b036101009091041688565b6007818154811061278e57fe5b60009182526020918290206004919091020180546040805160026001841615610100026000190190931692909204601f8101859004850283018501909152808252919350918391908301828280156128275780601f106127fc57610100808354040283529160200191612827565b820191906000526020600020905b81548152906001019060200180831161280a57829003601f168201915b505050505090806001015490806002018054600181600116156101000203166002900480601f0160208091040260200160405190810160405280929190818152602001828054600181600116156101000203166002900480156128cb5780601f106128a0576101008083540402835291602001916128cb565b820191906000526020600020905b8154815290600101906020018083116128ae57829003601f168201915b5050505060038301805460408051602060026001851615610100026000190190941693909304601f810184900484028201840190925281815294959493509083018282801561295b5780601f106129305761010080835404028352916020019161295b565b820191906000526020600020905b81548152906001019060200180831161293e57829003601f168201915b5050505050905084565b61296d6135d0565b6040518061010001604052808a81526020018981526020018881526020018781526020018681526020016129ad600287604051602001610e8b9190614222565b81528415156020808301919091526001600160a01b03851660409283015260008c8152600282529190912082518155828201518051939450849391926129fb926001850192909101906134c3565b5060408201518051612a179160028401916020909101906134c3565b5060608201518051612a339160038401916020909101906134c3565b5060808201518051612a4f9160048401916020909101906134c3565b5060a08201518051612a6b9160058401916020909101906134c3565b5060c08201516006909101805460e0909301516001600160a01b031661010002610100600160a81b031992151560ff1990941693909317919091169190911790555050600980546001810182556000919091527f6e1540171b6c0c960b71a7020d9f60077f6af931a8bbf590da0223dacf75c7af0196909655505050505050565b600b8054604080516020601f6002600019610100600188161502019095169490940493840181900481028201810190925282815260609390929091830182828015611d705780601f10612b4d57610100808354040283529160200191611d70565b820191906000526020600020905b815481529060010190602001808311612b5b57509395945050505050565b6004602090815260009283526040909220815180830184018051928152908401929093019190912091525481565b8051602081830181018051600180835293830194830194909420939052825460408051600294831615610100026000190190921693909304601f8101839004830282018301909352828152918391830182828015612c465780601f10612c1b57610100808354040283529160200191612c46565b820191906000526020600020905b815481529060010190602001808311612c2957829003601f168201915b505050505090806001015490806002018054600181600116156101000203166002900480601f016020809104026020016040519081016040528092919081815260200182805460018160011615610100020316600290048015612cea5780601f10612cbf57610100808354040283529160200191612cea565b820191906000526020600020905b815481529060010190602001808311612ccd57829003601f168201915b5050505060038301805460408051602060026001851615610100026000190190941693909304601f8101849004840282018401909252818152949594935090830182828015612d7a5780601f10612d4f57610100808354040283529160200191612d7a565b820191906000526020600020905b815481529060010190602001808311612d5d57829003601f168201915b5050505060048301805460408051602060026001851615610100026000190190941693909304601f8101849004840282018401909252818152949594935090830182828015612e0a5780601f10612ddf57610100808354040283529160200191612e0a565b820191906000526020600020905b815481529060010190602001808311612ded57829003601f168201915b5050505060058301805460408051602060026001851615610100026000190190941693909304601f8101849004840282018401909252818152949594935090830182828015612e9a5780601f10612e6f57610100808354040283529160200191612e9a565b820191906000526020600020905b815481529060010190602001808311612e7d57829003601f168201915b50505050600683015460078401805460408051602060026001851615610100026000190190941693909304601f81018490048402820184019092528181529596939593945090830182828015612f315780601f10612f0657610100808354040283529160200191612f31565b820191906000526020600020905b815481529060010190602001808311612f1457829003601f168201915b505050600890930154919250506001600160a01b031689565b6000612f546135d0565b6000848152600260208181526040928390208351610100808201865282548252600180840180548851928116159093026000190190921695909504601f81018590048502860185019096528585529094919385840193909290830182828015612ffe5780601f10612fd357610100808354040283529160200191612ffe565b820191906000526020600020905b815481529060010190602001808311612fe157829003601f168201915b5050509183525050600282810180546040805160206001841615610100026000190190931694909404601f810183900483028501830190915280845293810193908301828280156130905780601f1061306557610100808354040283529160200191613090565b820191906000526020600020905b81548152906001019060200180831161307357829003601f168201915b505050918352505060038201805460408051602060026001851615610100026000190190941693909304601f81018490048402820184019092528181529382019392918301828280156131245780601f106130f957610100808354040283529160200191613124565b820191906000526020600020905b81548152906001019060200180831161310757829003601f168201915b505050918352505060048201805460408051602060026001851615610100026000190190941693909304601f81018490048402820184019092528181529382019392918301828280156131b85780601f1061318d576101008083540402835291602001916131b8565b820191906000526020600020905b81548152906001019060200180831161319b57829003601f168201915b505050918352505060058201805460408051602060026001851615610100026000190190941693909304601f810184900484028201840190925281815293820193929183018282801561324c5780601f106132215761010080835404028352916020019161324c565b820191906000526020600020905b81548152906001019060200180831161322f57829003601f168201915b50505091835250506006919091015460ff811615156020808401919091526101009091046001600160a01b0316604092830152905191925060609161329a91600291610e8b91889101614222565b90508160a00151604051602001611a889190614222565b806001836040516132c29190614222565b908152604051908190036020019020600101555050565b7f3030303030303030303030303030303030303030303030303030303030303030604082901c6fffffffffffffffff0000000000000000166001600160c01b03199290921691909117602081901c77ffffffff000000000000000000000000ffffffff00000000167fffffffff000000000000000000000000ffffffff0000000000000000000000009190911617601081901c7bffff000000000000ffff000000000000ffff000000000000ffff0000167fffff000000000000ffff000000000000ffff000000000000ffff0000000000009190911617600881811c7dff000000ff000000ff000000ff000000ff000000ff000000ff000000ff00167fff000000ff000000ff000000ff000000ff000000ff000000ff000000ff00000092909216919091179081901c7e0f000f000f000f000f000f000f000f000f000f000f000f000f000f000f000f167f0f000f000f000f000f000f000f000f000f000f000f000f000f000f000f000f00600492831c16177f0606060606060606060606060606060606060606060606060606060606060606810190911c7f0f0f0f0f0f0f0f0f0f0f0f0f0f0f0f0f0f0f0f0f0f0f0f0f0f0f0f0f0f0f0f0f16602702010190565b6040518060800160405280606081526020016000815260200160608152602001606081525090565b828054600181600116156101000203166002900490600052602060002090601f016020900481019282601f1061350457805160ff1916838001178555613531565b82800160010185558215613531579182015b82811115613531578251825591602001919060010190613516565b5061353d929150613620565b5090565b604051806101200160405280606081526020016000815260200160608152602001606081526020016060815260200160608152602001600081526020016060815260200160006001600160a01b031681525090565b8280548282559060005260206000209081019282156135315791602002820182811115613531578251825591602001919060010190613516565b60405180610100016040528060008152602001606081526020016060815260200160608152602001606081526020016060815260200160001515815260200160006001600160a01b031681525090565b6108c391905b8082111561353d5760008155600101613626565b8035611acb81614618565b600082601f83011261365657600080fd5b81356136696136648261454f565b614529565b9150818183526020840193506020810190508385602084028201111561368e57600080fd5b60005b838110156136ba57816136a488826136cf565b8452506020928301929190910190600101613691565b5050505092915050565b8035611acb8161462c565b8035611acb81614635565b8051611acb81614635565b600082601f8301126136f657600080fd5b81356137046136648261456f565b9150808252602083016020830185838301111561372057600080fd5b61372b8382846145d6565b50505092915050565b60006020828403121561374657600080fd5b600061375284846136cf565b949350505050565b60006020828403121561376c57600080fd5b600061375284846136da565b60006020828403121561378a57600080fd5b81356001600160401b038111156137a057600080fd5b613752848285016136e5565b600080604083850312156137bf57600080fd5b82356001600160401b038111156137d557600080fd5b6137e1858286016136e5565b92505060208301356001600160401b038111156137fd57600080fd5b613809858286016136e5565b9150509250929050565b6000806040838503121561382657600080fd5b82356001600160401b0381111561383c57600080fd5b613848858286016136e5565b9250506020613809858286016136cf565b6000806000806080858703121561386f57600080fd5b84356001600160401b0381111561388557600080fd5b613891878288016136e5565b94505060206138a2878288016136cf565b93505060408501356001600160401b038111156138be57600080fd5b6138ca87828801613645565b92505060608501356001600160401b038111156138e657600080fd5b6138f2878288016136e5565b91505092959194509250565b6000806000806080858703121561391457600080fd5b84356001600160401b0381111561392a57600080fd5b613936878288016136e5565b9450506020613947878288016136cf565b93505060408501356001600160401b0381111561396357600080fd5b6138ca878288016136e5565b60008060008060008060008060006101208a8c03121561398e57600080fd5b89356001600160401b038111156139a457600080fd5b6139b08c828d016136e5565b99505060206139c18c828d016136cf565b98505060408a01356001600160401b038111156139dd57600080fd5b6139e98c828d016136e5565b97505060608a01356001600160401b03811115613a0557600080fd5b613a118c828d016136e5565b96505060808a01356001600160401b03811115613a2d57600080fd5b613a398c828d016136e5565b95505060a08a01356001600160401b03811115613a5557600080fd5b613a618c828d016136e5565b94505060c0613a728c828d016136cf565b93505060e08a01356001600160401b03811115613a8e57600080fd5b613a9a8c828d016136e5565b925050610100613aac8c828d0161363a565b9150509295985092959850929598565b60008060408385031215613acf57600080fd5b60006137e185856136cf565b600080600080600080600080610100898b031215613af857600080fd5b6000613b048b8b6136cf565b98505060208901356001600160401b03811115613b2057600080fd5b613b2c8b828c016136e5565b97505060408901356001600160401b03811115613b4857600080fd5b613b548b828c016136e5565b96505060608901356001600160401b03811115613b7057600080fd5b613b7c8b828c016136e5565b95505060808901356001600160401b03811115613b9857600080fd5b613ba48b828c016136e5565b94505060a08901356001600160401b03811115613bc057600080fd5b613bcc8b828c016136e5565b93505060c0613bdd8b828c016136c4565b92505060e0613bee8b828c0161363a565b9150509295985092959890939650565b6000613c0a8383613e6c565b9392505050565b6000613c0a8383613fcf565b6000613c0a8383614117565b6000613c358383614219565b505060200190565b613c46816145ba565b82525050565b6000613c57826145a8565b613c6181856145ac565b935083602082028501613c7385614596565b8060005b85811015613cad5784840389528151613c908582613bfe565b9450613c9b83614596565b60209a909a0199925050600101613c77565b5091979650505050505050565b6000613cc5826145a8565b613ccf81856145ac565b935083602082028501613ce185614596565b8060005b85811015613cad5784840389528151613cfe8582613c11565b9450613d0983614596565b60209a909a0199925050600101613ce5565b6000613d26826145a8565b613d3081856145ac565b935083602082028501613d4285614596565b8060005b85811015613cad5784840389528151613d5f8582613c1d565b9450613d6a83614596565b60209a909a0199925050600101613d46565b6000613d87826145a8565b613d9181856145ac565b9350613d9c83614596565b8060005b83811015613dca578151613db48882613c29565b9750613dbf83614596565b925050600101613da0565b509495945050505050565b6000613de0826145a8565b613dea81856145ac565b9350613df583614596565b8060005b83811015613dca578151613e0d8882613c29565b9750613e1883614596565b925050600101613df9565b613c46816145c5565b613c46613e38826108c3565b6108c3565b6000613e48826145a8565b613e5281856145b5565b9350613e628185602086016145e2565b9290920192915050565b6000613e77826145a8565b613e8181856145ac565b9350613e918185602086016145e2565b613e9a8161460e565b9093019392505050565b600081546001811660008114613ec15760018114613ee457613f23565b607f6002830416613ed281876145b5565b60ff1984168152955085019250613f23565b60028204613ef281876145b5565b9550613efd8561459c565b60005b82811015613f1c57815488820152600190910190602001613f00565b5050850192505b505092915050565b6000613f386008836145b5565b674b65726f73656e6560c01b815260080192915050565b6000613f5c6002836145b5565b61060f60f31b815260020192915050565b6000613f7a6004836145b5565b635269636560e01b815260040192915050565b6000613f9a6005836145b5565b6429bab3b0b960d91b815260050192915050565b6000613fbb6005836145b5565b6415da19585d60da1b815260050192915050565b8051608080845260009190840190613fe78282613e6c565b9150506020830151613ffc6020860182614219565b50604083015184820360408601526140148282613e6c565b9150506060830151848203606086015261402e8282613e6c565b95945050505050565b8051610120808452600091908401906140508282613e6c565b91505060208301516140656020860182614219565b506040830151848203604086015261407d8282613e6c565b915050606083015184820360608601526140978282613e6c565b915050608083015184820360808601526140b18282613e6c565b91505060a083015184820360a08601526140cb8282613e6c565b91505060c08301516140e060c0860182614219565b5060e083015184820360e08601526140f88282613e6c565b91505061010083015161410f610100860182613c3d565b509392505050565b805160808084526000919084019061412f8282613e6c565b91505060208301516141446020860182614219565b50604083015184820360408601526140148282613dd5565b80516000906101008401906141718582614219565b50602083015184820360208601526141898282613e6c565b915050604083015184820360408601526141a38282613e6c565b915050606083015184820360608601526141bd8282613e6c565b915050608083015184820360808601526141d78282613e6c565b91505060a083015184820360a08601526141f18282613e6c565b91505060c083015161420660c0860182613e23565b5060e083015161410f60e0860182613c3d565b613c46816108c3565b6000613c0a8284613e3d565b6000613c0a8284613ea4565b6000611acb82613f2b565b600061425082613f4f565b915061425c8285613e2c565b60208201915061426c8284613e2c565b5060200192915050565b6000611acb82613f6d565b6000611acb82613f8d565b6000611acb82613fae565b60208082528101613c0a8184613c4c565b60208082528101613c0a8184613cba565b60208082528101613c0a8184613d1b565b60208082528101613c0a8184613d7c565b60208101611acb8284613e23565b60208082528101613c0a8184613e6c565b6060808252810161430b8186613e6c565b905061431a6020830185614219565b818103604083015261402e8184613e6c565b6080808252810161433d8187613e6c565b905061434c6020830186614219565b818103604083015261435e8185613e6c565b905081810360608301526143728184613e6c565b9695505050505050565b610120808252810161438e818c613e6c565b905061439d602083018b614219565b81810360408301526143af818a613e6c565b905081810360608301526143c38189613e6c565b905081810360808301526143d78188613e6c565b905081810360a08301526143eb8187613e6c565b90506143fa60c0830186614219565b81810360e083015261440c8185613e6c565b905061441c610100830184613c3d565b9a9950505050505050505050565b60208082528101613c0a8184614037565b60208082528101613c0a818461415c565b60208101611acb8284614219565b6101008101614469828b614219565b818103602083015261447b818a613e6c565b9050818103604083015261448f8189613e6c565b905081810360608301526144a38188613e6c565b905081810360808301526144b78187613e6c565b905081810360a08301526144cb8186613e6c565b90506144da60c0830185613e23565b6144e760e0830184613c3d565b9998505050505050505050565b608081016145028287614219565b61450f6020830186614219565b61451c6040830185614219565b61402e6060830184614219565b6040518181016001600160401b038111828210171561454757600080fd5b604052919050565b60006001600160401b0382111561456557600080fd5b5060209081020190565b60006001600160401b0382111561458557600080fd5b506020601f91909101601f19160190565b60200190565b60009081526020902090565b5190565b90815260200190565b919050565b6000611acb826145ca565b151590565b6001600160a01b031690565b82818337506000910152565b60005b838110156145fd5781810151838201526020016145e5565b83811115610f7f5750506000910152565b601f01601f191690565b614621816145ba565b811461208b57600080fd5b614621816145c5565b614621816108c356fea365627a7a723158205fe3e021292305f9e75986e20d428f2e8ba9eca27db1b7cb538a9d93b43ef0fa6c6578706572696d656e74616cf564736f6c634300051000403135616636303761646564343838656435666436643934633134636334343132626435383234356630363463653864613238623438363835376565636636303730786261613034383762653762323066306137633230383034613338373731363236656331623034343736613961633764376235356261316238306263326164326630783966363664633734636237376531363230393761333664646338343537393962363966376437323165343134366237663639633837336564396339363639376530786163393638396532323732343237303835653335623964336533653862656438386362333433343832386234336238366663303539366361643463366532373030786139646633376332643635636564393533363938626162376137326439613331623465376532356532646535363164316431323761386230366236643730663330783133343536336434653434306630653431386230663338326632336132636633303161663664376636343863636661653938393530313833343564373739613330783735636131626165633366333338323938396166666334636164623063633933663437653934366232343765336136353563366233366434336536346464326166616364376233666639373432323330663732303238363436383664343234323530643730393537626439396438343735323336663736643161396537383862",
  "source": "// SPDX-License-Identifier: MIT\r\npragma solidity >=0.4.21 <8.10.0;\r\npragma experimental ABIEncoderV2;\r\n\r\n// Saffron -- 1, white - 2, yellow -3\r\n// Rice - 4kg, sugar - 0.5kg, wheat - 10kg\r\n\r\nlibrary AssetLibrary {\r\n    struct Consumer {\r\n        string ration_card;\r\n        uint256 ration_card_type;\r\n        string first_name;\r\n        string last_name;\r\n        string phone;\r\n        string location;\r\n        uint256 vendor_id;\r\n        string password;\r\n        address wallet_addr;\r\n    }\r\n\r\n    struct Vendor {\r\n        uint256 vendor_id;\r\n        string first_name;\r\n        string last_name;\r\n        string phone;\r\n        string location;\r\n        string password;\r\n        bool isBlacklisted;\r\n        address wallet_addr;\r\n    }\r\n\r\n    struct Transaction {\r\n        string consumer_ration_id;\r\n        uint256 vendor_id;\r\n        uint256[] quantity;\r\n        string timestamp;\r\n    }\r\n\r\n    struct Complaint {\r\n        string ration_id;\r\n        uint256 vendor_id;\r\n        string complaint_content;\r\n        string time;\r\n    }\r\n}\r\n\r\ncontract Sanaaj {\r\n    uint256 transactionCount;\r\n    mapping(string => AssetLibrary.Consumer) public consumerList;\r\n    mapping(uint256 => AssetLibrary.Vendor) public vendorList;\r\n    mapping(string => mapping(string => uint256)) public allowanceList;\r\n    mapping(uint256 => mapping(string => uint256)) public stockList;\r\n    mapping(string => AssetLibrary.Transaction[]) public transactionList;\r\n    mapping(string => AssetLibrary.Transaction[]) public pendingTransactionList;\r\n    AssetLibrary.Complaint[] public complaintList;\r\n    string[] rationCardList;\r\n    uint256[] vendorIDList;\r\n    address adminAddress;\r\n    string adminPassword;\r\n\r\n    constructor() public {\r\n        consumerList[\"MH1234567890\"] = AssetLibrary.Consumer(\r\n            \"MH1234567890\",\r\n            1,\r\n            \"Ram\",\r\n            \"Ghorpade\",\r\n            \"1234567890\",\r\n            \"Mumbai\",\r\n            1,\r\n            \"0x134563d4e440f0e418b0f382f23a2cf301af6d7f648ccfae9895018345d779a3\", //\"Hello123\"\r\n            0x9345BaF04A62F6A91d20aa08121a16eB39308b70\r\n        );\r\n        consumerList[\"MH1234509666\"] = AssetLibrary.Consumer(\r\n            \"MH1234509666\",\r\n            2,\r\n            \"Shyam\",\r\n            \"Ghorpade\",\r\n            \"1234509876\",\r\n            \"Mumbai\",\r\n            1,\r\n            \"0x75ca1baec3f3382989affc4cadb0cc93f47e946b247e3a655c6b36d43e64dd2a\", //\"Hello1234\"\r\n            0xB793c1d9c9D5050859864DbD321Fc873e7942e54\r\n        );\r\n        consumerList[\"MH1234509876\"] = AssetLibrary.Consumer(\r\n            \"MH1234509876\",\r\n            2,\r\n            \"Ghanashyam\",\r\n            \"Deshpande\",\r\n            \"1234509876\",\r\n            \"Mumbai\",\r\n            1,\r\n            \"0xbaa0487be7b20f0a7c20804a38771626ec1b04476a9ac7d7b55ba1b80bc2ad2f\", //\"Hello1235\"\r\n            0xb7C6562BF283534A775d5198195bfD8d47D22647\r\n        );\r\n        consumerList[\"MH9876541230\"] = AssetLibrary.Consumer(\r\n            \"MH9876541230\",\r\n            1,\r\n            \"Dagdu\",\r\n            \"Parab\",\r\n            \"9876541230\",\r\n            \"Mumbai\",\r\n            2,\r\n            \"0xa9df37c2d65ced953698bab7a72d9a31b4e7e25e2de561d1d127a8b06b6d70f3\", //\"Hello1236\"\r\n            0xb6444A785Bc6d27d3fAcb648dc0714C39F569B24\r\n        );\r\n        consumerList[\"MH9876504321\"] = AssetLibrary.Consumer(\r\n            \"MH9876504321\",\r\n            3,\r\n            \"ABC\",\r\n            \"XYZ\",\r\n            \"9876504321\",\r\n            \"Mumbai\",\r\n            2,\r\n            \"facd7b3ff9742230f7202864686d424250d70957bd99d8475236f76d1a9e788b\", //\"Hello1237\"\r\n            0x97b814cdcD7F542f413E2CFef8AF97c6633ffF3D\r\n        );\r\n\r\n        vendorList[1] = AssetLibrary.Vendor(\r\n            1,\r\n            \"Siddhesh\",\r\n            \"Bagwe\",\r\n            \"1029384756\",\r\n            \"Mumbai\",\r\n            \"0x9f66dc74cb77e162097a36ddc845799b69f7d721e4146b7f69c873ed9c96697e\", //\"hello987\"\r\n            false,\r\n            0x675A7359e0d96b9A25DCA5d08e1f1Ee85B9cD24f\r\n        );\r\n        vendorList[2] = AssetLibrary.Vendor(\r\n            2,\r\n            \"Pooja\",\r\n            \"Kaulgud\",\r\n            \"9087564132\",\r\n            \"Mumbai\",\r\n            \"15af607aded488ed5fd6d94c14cc4412bd58245f064ce8da28b486857eecf607\", //\"hello9876\"\r\n            false,\r\n            0x295b6AE0Efe05de0011E9316E27B560cCdCD3DDb\r\n        );\r\n\r\n        adminPassword = \"0xac9689e2272427085e35b9d3e3e8bed88cb3434828b43b86fc0596cad4c6e270\"; //\"admin1234\";\r\n        rationCardList = [\r\n            \"MH1234567890\",\r\n            \"MH1234509666\",\r\n            \"MH1234509876\",\r\n            \"MH9876541230\",\r\n            \"MH9876504321\"\r\n        ];\r\n        vendorIDList = [1, 2];\r\n        adminAddress = 0x1964F1519FF7ACAa5E6b2462070cB0d6817FbA4E;\r\n    }\r\n\r\n    function getAdminPassword() public view returns (string memory) {\r\n        return adminPassword;\r\n    }\r\n\r\n    function getConsumer(string memory _ration)\r\n        public\r\n        view\r\n        returns (AssetLibrary.Consumer memory)\r\n    {\r\n        return consumerList[_ration];\r\n    }\r\n\r\n    function getVendor(uint256 _id)\r\n        public\r\n        view\r\n        returns (AssetLibrary.Vendor memory)\r\n    {\r\n        return vendorList[_id];\r\n    }\r\n\r\n    function getAllConsumers() public view returns (string[] memory) {\r\n        // if (byVendor) {\r\n        //     string[] memory consumers;\r\n        //     uint256 count = 0;\r\n        //     for (uint256 i = 0; i < rationCardList.length; i++) {\r\n        //         if (consumerList[rationCardList[i]].vendor_id == _id) {\r\n        //             consumers[count] = rationCardList[i];\r\n        //             count++;\r\n        //         }\r\n        //     }\r\n        //     return consumers;\r\n        // }\r\n\r\n        return rationCardList;\r\n    }\r\n\r\n    function getAllVendors() public view returns (uint256[] memory) {\r\n        return vendorIDList;\r\n    }\r\n\r\n    function getAllowance(string memory _ration)\r\n        public\r\n        view\r\n        returns (\r\n            uint256,\r\n            uint256,\r\n            uint256,\r\n            uint256\r\n        )\r\n    {\r\n        uint256 rice = allowanceList[_ration][\"Rice\"];\r\n        uint256 wheat = allowanceList[_ration][\"Wheat\"];\r\n        uint256 sugar = allowanceList[_ration][\"Sugar\"];\r\n        uint256 kerosene = allowanceList[_ration][\"Kerosene\"];\r\n\r\n        return (rice, wheat, sugar, kerosene);\r\n    }\r\n\r\n    function getStock(uint256 _id)\r\n        public\r\n        view\r\n        returns (\r\n            uint256,\r\n            uint256,\r\n            uint256,\r\n            uint256\r\n        )\r\n    {\r\n        uint256 rice = stockList[_id][\"Rice\"];\r\n        uint256 wheat = stockList[_id][\"Wheat\"];\r\n        uint256 sugar = stockList[_id][\"Sugar\"];\r\n        uint256 kerosene = stockList[_id][\"Kerosene\"];\r\n\r\n        return (rice, wheat, sugar, kerosene);\r\n    }\r\n\r\n    // (ration, 2, [5, 10, 5, 2] )\r\n\r\n    function updateAllowance(\r\n        string memory _ration,\r\n        uint256 _vendorID,\r\n        uint256[] memory quantity_commodity,\r\n        string memory timestamp\r\n    ) public {\r\n        allowanceList[_ration][\"Rice\"] -= quantity_commodity[0];\r\n        allowanceList[_ration][\"Wheat\"] -= quantity_commodity[1];\r\n        allowanceList[_ration][\"Sugar\"] -= quantity_commodity[2];\r\n        allowanceList[_ration][\"Kerosene\"] -= quantity_commodity[3];\r\n\r\n        stockList[_vendorID][\"Rice\"] -= quantity_commodity[0];\r\n        stockList[_vendorID][\"Wheat\"] -= quantity_commodity[1];\r\n        stockList[_vendorID][\"Sugar\"] -= quantity_commodity[2];\r\n        stockList[_vendorID][\"Kerosene\"] -= quantity_commodity[3];\r\n\r\n        transactionList[_ration].push(\r\n            AssetLibrary.Transaction(\r\n                _ration,\r\n                _vendorID,\r\n                quantity_commodity,\r\n                timestamp\r\n            )\r\n        );\r\n    }\r\n\r\n    function getTransactions(string memory _ration)\r\n        public\r\n        view\r\n        returns (AssetLibrary.Transaction[] memory)\r\n    {\r\n        return transactionList[_ration];\r\n    }\r\n\r\n    function refillAllowance(string memory _ration) public {\r\n        if (consumerList[_ration].ration_card_type == 1) {\r\n            allowanceList[_ration][\"Rice\"] = 5;\r\n            allowanceList[_ration][\"Wheat\"] = 10;\r\n            allowanceList[_ration][\"Sugar\"] = 1;\r\n            allowanceList[_ration][\"Kerosene\"] = 5;\r\n        } else if (consumerList[_ration].ration_card_type == 2) {\r\n            allowanceList[_ration][\"Rice\"] = 10;\r\n            allowanceList[_ration][\"Wheat\"] = 15;\r\n            allowanceList[_ration][\"Sugar\"] = 2;\r\n            allowanceList[_ration][\"Kerosene\"] = 7;\r\n        } else {\r\n            allowanceList[_ration][\"Rice\"] = 12;\r\n            allowanceList[_ration][\"Wheat\"] = 17;\r\n            allowanceList[_ration][\"Sugar\"] = 3;\r\n            allowanceList[_ration][\"Kerosene\"] = 10;\r\n        }\r\n    }\r\n\r\n    function refillStock(uint256 _vendorID) public {\r\n        stockList[_vendorID][\"Rice\"] = 500;\r\n        stockList[_vendorID][\"Wheat\"] = 1000;\r\n        stockList[_vendorID][\"Sugar\"] = 500;\r\n        stockList[_vendorID][\"Kerosene\"] = 500;\r\n    }\r\n\r\n    function blacklist(uint256 _id) public {\r\n        vendorList[_id].isBlacklisted = !vendorList[_id].isBlacklisted;\r\n    }\r\n\r\n    function updateCardType(string memory _ration, uint256 card_type) public {\r\n        consumerList[_ration].ration_card_type = card_type;\r\n    }\r\n\r\n    function addConsumer(\r\n        string memory ration_card,\r\n        uint256 ration_card_type,\r\n        string memory first_name,\r\n        string memory last_name,\r\n        string memory phone,\r\n        string memory location,\r\n        uint256 vendor_id,\r\n        string memory password,\r\n        address wallet_addr\r\n    ) public {\r\n        // require(sha256(abi.encodePacked()) == sha256(abi.encodePacked()));\r\n        AssetLibrary.Consumer memory consumer = AssetLibrary.Consumer(\r\n            ration_card,\r\n            ration_card_type,\r\n            first_name,\r\n            last_name,\r\n            phone,\r\n            location,\r\n            vendor_id,\r\n            toHex(sha256(abi.encodePacked(password))),\r\n            wallet_addr\r\n        );\r\n\r\n        consumerList[ration_card] = consumer;\r\n        rationCardList.push(ration_card);\r\n    }\r\n\r\n    function addVendor(\r\n        uint256 vendor_id,\r\n        string memory first_name,\r\n        string memory last_name,\r\n        string memory phone,\r\n        string memory location,\r\n        string memory password,\r\n        bool isBlacklisted,\r\n        address wallet_addr\r\n    ) public {\r\n        AssetLibrary.Vendor memory vendor = AssetLibrary.Vendor(\r\n            vendor_id,\r\n            first_name,\r\n            last_name,\r\n            phone,\r\n            location,\r\n            toHex(sha256(abi.encodePacked(password))),\r\n            isBlacklisted,\r\n            wallet_addr\r\n        );\r\n\r\n        vendorList[vendor_id] = vendor;\r\n        vendorIDList.push(vendor_id);\r\n    }\r\n\r\n    function addComplaint(\r\n        string memory ration_id,\r\n        uint256 vendor_id,\r\n        string memory complaint_content,\r\n        string memory time\r\n    ) public {\r\n        AssetLibrary.Complaint memory complaint = AssetLibrary.Complaint(\r\n            ration_id,\r\n            vendor_id,\r\n            complaint_content,\r\n            time\r\n        );\r\n\r\n        complaintList.push(complaint);\r\n    }\r\n\r\n    function getAllComplaints()\r\n        public\r\n        view\r\n        returns (AssetLibrary.Complaint[] memory)\r\n    {\r\n        return complaintList;\r\n    }\r\n\r\n    function resetConsumerPassword(\r\n        string memory ration_id,\r\n        string memory new_password\r\n    ) public {\r\n        string memory password1 = toHex(sha256(abi.encodePacked(new_password)));\r\n        consumerList[ration_id].password = password1;\r\n    }\r\n\r\n    function resetVendorPassword(uint256 vendor_id, string memory new_password)\r\n        public\r\n    {\r\n        string memory password1 = toHex(sha256(abi.encodePacked(new_password)));\r\n        vendorList[vendor_id].password = password1;\r\n    }\r\n\r\n    function checkConsumerCredentials(\r\n        string memory ration_id,\r\n        string memory password\r\n    ) public view returns (bool) {\r\n        AssetLibrary.Consumer memory consumer = consumerList[ration_id];\r\n\r\n        string memory hashed_password = toHex(\r\n            sha256(abi.encodePacked(password))\r\n        );\r\n        return (keccak256(abi.encodePacked((hashed_password))) ==\r\n            keccak256(abi.encodePacked((consumer.password))));\r\n    }\r\n\r\n    function checkVendorCredentials(uint256 vendor_id, string memory password)\r\n        public\r\n        view\r\n        returns (bool)\r\n    {\r\n        AssetLibrary.Vendor memory vendor = vendorList[vendor_id];\r\n\r\n        string memory hashed_password = toHex(\r\n            sha256(abi.encodePacked(password))\r\n        );\r\n        return (keccak256(abi.encodePacked((hashed_password))) ==\r\n            keccak256(abi.encodePacked((vendor.password))));\r\n    }\r\n\r\n    function checkAdminCredentials(string memory password)\r\n        public\r\n        view\r\n        returns (bool)\r\n    {\r\n        string memory hashed_password = toHex(\r\n            sha256(abi.encodePacked(password))\r\n        );\r\n        return (keccak256(abi.encodePacked((hashed_password))) ==\r\n            keccak256(abi.encodePacked((adminPassword))));\r\n    }\r\n\r\n    function toHex(bytes32 data) public pure returns (string memory) {\r\n        return\r\n            string(\r\n                abi.encodePacked(\r\n                    \"0x\",\r\n                    toHex16(bytes16(data)),\r\n                    toHex16(bytes16(data << 128))\r\n                )\r\n            );\r\n    }\r\n\r\n    function toHex16(bytes16 data) internal pure returns (bytes32 result) {\r\n        result =\r\n            (bytes32(data) &\r\n                0xFFFFFFFFFFFFFFFF000000000000000000000000000000000000000000000000) |\r\n            ((bytes32(data) &\r\n                0x0000000000000000FFFFFFFFFFFFFFFF00000000000000000000000000000000) >>\r\n                64);\r\n        result =\r\n            (result &\r\n                0xFFFFFFFF000000000000000000000000FFFFFFFF000000000000000000000000) |\r\n            ((result &\r\n                0x00000000FFFFFFFF000000000000000000000000FFFFFFFF0000000000000000) >>\r\n                32);\r\n        result =\r\n            (result &\r\n                0xFFFF000000000000FFFF000000000000FFFF000000000000FFFF000000000000) |\r\n            ((result &\r\n                0x0000FFFF000000000000FFFF000000000000FFFF000000000000FFFF00000000) >>\r\n                16);\r\n        result =\r\n            (result &\r\n                0xFF000000FF000000FF000000FF000000FF000000FF000000FF000000FF000000) |\r\n            ((result &\r\n                0x00FF000000FF000000FF000000FF000000FF000000FF000000FF000000FF0000) >>\r\n                8);\r\n        result =\r\n            ((result &\r\n                0xF000F000F000F000F000F000F000F000F000F000F000F000F000F000F000F000) >>\r\n                4) |\r\n            ((result &\r\n                0x0F000F000F000F000F000F000F000F000F000F000F000F000F000F000F000F00) >>\r\n                8);\r\n        result = bytes32(\r\n            0x3030303030303030303030303030303030303030303030303030303030303030 +\r\n                uint256(result) +\r\n                (((uint256(result) +\r\n                    0x0606060606060606060606060606060606060606060606060606060606060606) >>\r\n                    4) &\r\n                    0x0F0F0F0F0F0F0F0F0F0F0F0F0F0F0F0F0F0F0F0F0F0F0F0F0F0F0F0F0F0F0F0F) *\r\n                39\r\n        );\r\n    }\r\n}\r\n",
  "sourcePath": "C:\\Users\\Chaitanya\\Personal\\Sem 6\\Mini Project\\SaNaaj\\contracts\\Sanaaj.sol",
  "compiler": {
    "name": "solc",
    "version": "0.5.16+commit.9c3226ce.Emscripten.clang"
  },
  "schemaVersion": "3.4.6",
  "updatedAt": "2022-04-23T07:51:05.553Z",
  "networkType": "ethereum",
  "devdoc": {
    "methods": {}
  },
  "userdoc": {
    "methods": {}
  }
}