{
  "contractName": "Sanaaj",
  "abi": [
    {
      "inputs": [],
      "payable": false,
      "stateMutability": "nonpayable",
      "type": "constructor"
    },
    {
      "constant": true,
      "inputs": [
        {
          "internalType": "string",
          "name": "",
          "type": "string"
        },
        {
          "internalType": "string",
          "name": "",
          "type": "string"
        }
      ],
      "name": "allowanceList",
      "outputs": [
        {
          "internalType": "uint256",
          "name": "",
          "type": "uint256"
        }
      ],
      "payable": false,
      "stateMutability": "view",
      "type": "function"
    },
    {
      "constant": true,
      "inputs": [
        {
          "internalType": "uint256",
          "name": "",
          "type": "uint256"
        }
      ],
      "name": "complaintList",
      "outputs": [
        {
          "internalType": "string",
          "name": "ration_id",
          "type": "string"
        },
        {
          "internalType": "uint256",
          "name": "vendor_id",
          "type": "uint256"
        },
        {
          "internalType": "string",
          "name": "complaint_content",
          "type": "string"
        },
        {
          "internalType": "string",
          "name": "time",
          "type": "string"
        }
      ],
      "payable": false,
      "stateMutability": "view",
      "type": "function"
    },
    {
      "constant": true,
      "inputs": [
        {
          "internalType": "string",
          "name": "",
          "type": "string"
        }
      ],
      "name": "consumerList",
      "outputs": [
        {
          "internalType": "string",
          "name": "ration_card",
          "type": "string"
        },
        {
          "internalType": "uint256",
          "name": "ration_card_type",
          "type": "uint256"
        },
        {
          "internalType": "string",
          "name": "first_name",
          "type": "string"
        },
        {
          "internalType": "string",
          "name": "last_name",
          "type": "string"
        },
        {
          "internalType": "string",
          "name": "phone",
          "type": "string"
        },
        {
          "internalType": "string",
          "name": "location",
          "type": "string"
        },
        {
          "internalType": "uint256",
          "name": "vendor_id",
          "type": "uint256"
        },
        {
          "internalType": "string",
          "name": "password",
          "type": "string"
        },
        {
          "internalType": "address",
          "name": "wallet_addr",
          "type": "address"
        }
      ],
      "payable": false,
      "stateMutability": "view",
      "type": "function"
    },
    {
      "constant": true,
      "inputs": [
        {
          "internalType": "string",
          "name": "",
          "type": "string"
        },
        {
          "internalType": "uint256",
          "name": "",
          "type": "uint256"
        }
      ],
      "name": "pendingTransactionList",
      "outputs": [
        {
          "internalType": "string",
          "name": "consumer_ration_id",
          "type": "string"
        },
        {
          "internalType": "uint256",
          "name": "vendor_id",
          "type": "uint256"
        },
        {
          "internalType": "string",
          "name": "timestamp",
          "type": "string"
        }
      ],
      "payable": false,
      "stateMutability": "view",
      "type": "function"
    },
    {
      "constant": true,
      "inputs": [
        {
          "internalType": "uint256",
          "name": "",
          "type": "uint256"
        },
        {
          "internalType": "string",
          "name": "",
          "type": "string"
        }
      ],
      "name": "stockList",
      "outputs": [
        {
          "internalType": "uint256",
          "name": "",
          "type": "uint256"
        }
      ],
      "payable": false,
      "stateMutability": "view",
      "type": "function"
    },
    {
      "constant": true,
      "inputs": [
        {
          "internalType": "string",
          "name": "",
          "type": "string"
        },
        {
          "internalType": "uint256",
          "name": "",
          "type": "uint256"
        }
      ],
      "name": "transactionList",
      "outputs": [
        {
          "internalType": "string",
          "name": "consumer_ration_id",
          "type": "string"
        },
        {
          "internalType": "uint256",
          "name": "vendor_id",
          "type": "uint256"
        },
        {
          "internalType": "string",
          "name": "timestamp",
          "type": "string"
        }
      ],
      "payable": false,
      "stateMutability": "view",
      "type": "function"
    },
    {
      "constant": true,
      "inputs": [
        {
          "internalType": "uint256",
          "name": "",
          "type": "uint256"
        }
      ],
      "name": "vendorList",
      "outputs": [
        {
          "internalType": "uint256",
          "name": "vendor_id",
          "type": "uint256"
        },
        {
          "internalType": "string",
          "name": "first_name",
          "type": "string"
        },
        {
          "internalType": "string",
          "name": "last_name",
          "type": "string"
        },
        {
          "internalType": "string",
          "name": "phone",
          "type": "string"
        },
        {
          "internalType": "string",
          "name": "location",
          "type": "string"
        },
        {
          "internalType": "string",
          "name": "password",
          "type": "string"
        },
        {
          "internalType": "bool",
          "name": "isBlacklisted",
          "type": "bool"
        },
        {
          "internalType": "address",
          "name": "wallet_addr",
          "type": "address"
        }
      ],
      "payable": false,
      "stateMutability": "view",
      "type": "function"
    },
    {
      "constant": true,
      "inputs": [
        {
          "internalType": "string",
          "name": "_ration",
          "type": "string"
        }
      ],
      "name": "getConsumer",
      "outputs": [
        {
          "components": [
            {
              "internalType": "string",
              "name": "ration_card",
              "type": "string"
            },
            {
              "internalType": "uint256",
              "name": "ration_card_type",
              "type": "uint256"
            },
            {
              "internalType": "string",
              "name": "first_name",
              "type": "string"
            },
            {
              "internalType": "string",
              "name": "last_name",
              "type": "string"
            },
            {
              "internalType": "string",
              "name": "phone",
              "type": "string"
            },
            {
              "internalType": "string",
              "name": "location",
              "type": "string"
            },
            {
              "internalType": "uint256",
              "name": "vendor_id",
              "type": "uint256"
            },
            {
              "internalType": "string",
              "name": "password",
              "type": "string"
            },
            {
              "internalType": "address",
              "name": "wallet_addr",
              "type": "address"
            }
          ],
          "internalType": "struct AssetLibrary.Consumer",
          "name": "",
          "type": "tuple"
        }
      ],
      "payable": false,
      "stateMutability": "view",
      "type": "function"
    },
    {
      "constant": true,
      "inputs": [
        {
          "internalType": "uint256",
          "name": "_id",
          "type": "uint256"
        }
      ],
      "name": "getVendor",
      "outputs": [
        {
          "components": [
            {
              "internalType": "uint256",
              "name": "vendor_id",
              "type": "uint256"
            },
            {
              "internalType": "string",
              "name": "first_name",
              "type": "string"
            },
            {
              "internalType": "string",
              "name": "last_name",
              "type": "string"
            },
            {
              "internalType": "string",
              "name": "phone",
              "type": "string"
            },
            {
              "internalType": "string",
              "name": "location",
              "type": "string"
            },
            {
              "internalType": "string",
              "name": "password",
              "type": "string"
            },
            {
              "internalType": "bool",
              "name": "isBlacklisted",
              "type": "bool"
            },
            {
              "internalType": "address",
              "name": "wallet_addr",
              "type": "address"
            }
          ],
          "internalType": "struct AssetLibrary.Vendor",
          "name": "",
          "type": "tuple"
        }
      ],
      "payable": false,
      "stateMutability": "view",
      "type": "function"
    },
    {
      "constant": true,
      "inputs": [],
      "name": "getAllConsumers",
      "outputs": [
        {
          "internalType": "string[]",
          "name": "",
          "type": "string[]"
        }
      ],
      "payable": false,
      "stateMutability": "view",
      "type": "function"
    },
    {
      "constant": true,
      "inputs": [],
      "name": "getAllVendors",
      "outputs": [
        {
          "internalType": "uint256[]",
          "name": "",
          "type": "uint256[]"
        }
      ],
      "payable": false,
      "stateMutability": "view",
      "type": "function"
    },
    {
      "constant": true,
      "inputs": [
        {
          "internalType": "string",
          "name": "_ration",
          "type": "string"
        }
      ],
      "name": "getAllowance",
      "outputs": [
        {
          "internalType": "uint256",
          "name": "",
          "type": "uint256"
        },
        {
          "internalType": "uint256",
          "name": "",
          "type": "uint256"
        },
        {
          "internalType": "uint256",
          "name": "",
          "type": "uint256"
        },
        {
          "internalType": "uint256",
          "name": "",
          "type": "uint256"
        }
      ],
      "payable": false,
      "stateMutability": "view",
      "type": "function"
    },
    {
      "constant": true,
      "inputs": [
        {
          "internalType": "uint256",
          "name": "_id",
          "type": "uint256"
        }
      ],
      "name": "getStock",
      "outputs": [
        {
          "internalType": "uint256",
          "name": "",
          "type": "uint256"
        },
        {
          "internalType": "uint256",
          "name": "",
          "type": "uint256"
        },
        {
          "internalType": "uint256",
          "name": "",
          "type": "uint256"
        },
        {
          "internalType": "uint256",
          "name": "",
          "type": "uint256"
        }
      ],
      "payable": false,
      "stateMutability": "view",
      "type": "function"
    },
    {
      "constant": false,
      "inputs": [
        {
          "internalType": "string",
          "name": "_ration",
          "type": "string"
        },
        {
          "internalType": "uint256",
          "name": "_vendorID",
          "type": "uint256"
        },
        {
          "internalType": "uint256[]",
          "name": "quantity_commodity",
          "type": "uint256[]"
        },
        {
          "internalType": "string",
          "name": "timestamp",
          "type": "string"
        }
      ],
      "name": "updateAllowance",
      "outputs": [],
      "payable": false,
      "stateMutability": "nonpayable",
      "type": "function"
    },
    {
      "constant": true,
      "inputs": [
        {
          "internalType": "string",
          "name": "_ration",
          "type": "string"
        }
      ],
      "name": "getTransactions",
      "outputs": [
        {
          "components": [
            {
              "internalType": "string",
              "name": "consumer_ration_id",
              "type": "string"
            },
            {
              "internalType": "uint256",
              "name": "vendor_id",
              "type": "uint256"
            },
            {
              "internalType": "uint256[]",
              "name": "quantity",
              "type": "uint256[]"
            },
            {
              "internalType": "string",
              "name": "timestamp",
              "type": "string"
            }
          ],
          "internalType": "struct AssetLibrary.Transaction[]",
          "name": "",
          "type": "tuple[]"
        }
      ],
      "payable": false,
      "stateMutability": "view",
      "type": "function"
    },
    {
      "constant": false,
      "inputs": [
        {
          "internalType": "string",
          "name": "_ration",
          "type": "string"
        }
      ],
      "name": "refillAllowance",
      "outputs": [],
      "payable": false,
      "stateMutability": "nonpayable",
      "type": "function"
    },
    {
      "constant": false,
      "inputs": [
        {
          "internalType": "uint256",
          "name": "_vendorID",
          "type": "uint256"
        }
      ],
      "name": "refillStock",
      "outputs": [],
      "payable": false,
      "stateMutability": "nonpayable",
      "type": "function"
    },
    {
      "constant": false,
      "inputs": [
        {
          "internalType": "uint256",
          "name": "_id",
          "type": "uint256"
        }
      ],
      "name": "blacklist",
      "outputs": [],
      "payable": false,
      "stateMutability": "nonpayable",
      "type": "function"
    },
    {
      "constant": false,
      "inputs": [
        {
          "internalType": "string",
          "name": "_ration",
          "type": "string"
        },
        {
          "internalType": "uint256",
          "name": "card_type",
          "type": "uint256"
        }
      ],
      "name": "updateCardType",
      "outputs": [],
      "payable": false,
      "stateMutability": "nonpayable",
      "type": "function"
    },
    {
      "constant": false,
      "inputs": [
        {
          "internalType": "string",
          "name": "ration_card",
          "type": "string"
        },
        {
          "internalType": "uint256",
          "name": "ration_card_type",
          "type": "uint256"
        },
        {
          "internalType": "string",
          "name": "first_name",
          "type": "string"
        },
        {
          "internalType": "string",
          "name": "last_name",
          "type": "string"
        },
        {
          "internalType": "string",
          "name": "phone",
          "type": "string"
        },
        {
          "internalType": "string",
          "name": "location",
          "type": "string"
        },
        {
          "internalType": "uint256",
          "name": "vendor_id",
          "type": "uint256"
        },
        {
          "internalType": "string",
          "name": "password",
          "type": "string"
        },
        {
          "internalType": "address",
          "name": "wallet_addr",
          "type": "address"
        }
      ],
      "name": "addConsumer",
      "outputs": [],
      "payable": false,
      "stateMutability": "nonpayable",
      "type": "function"
    },
    {
      "constant": false,
      "inputs": [
        {
          "internalType": "uint256",
          "name": "vendor_id",
          "type": "uint256"
        },
        {
          "internalType": "string",
          "name": "first_name",
          "type": "string"
        },
        {
          "internalType": "string",
          "name": "last_name",
          "type": "string"
        },
        {
          "internalType": "string",
          "name": "phone",
          "type": "string"
        },
        {
          "internalType": "string",
          "name": "location",
          "type": "string"
        },
        {
          "internalType": "string",
          "name": "password",
          "type": "string"
        },
        {
          "internalType": "bool",
          "name": "isBlacklisted",
          "type": "bool"
        },
        {
          "internalType": "address",
          "name": "wallet_addr",
          "type": "address"
        }
      ],
      "name": "addVendor",
      "outputs": [],
      "payable": false,
      "stateMutability": "nonpayable",
      "type": "function"
    },
    {
      "constant": false,
      "inputs": [
        {
          "internalType": "string",
          "name": "ration_id",
          "type": "string"
        },
        {
          "internalType": "uint256",
          "name": "vendor_id",
          "type": "uint256"
        },
        {
          "internalType": "string",
          "name": "complaint_content",
          "type": "string"
        },
        {
          "internalType": "string",
          "name": "time",
          "type": "string"
        }
      ],
      "name": "addComplaint",
      "outputs": [],
      "payable": false,
      "stateMutability": "nonpayable",
      "type": "function"
    },
    {
      "constant": true,
      "inputs": [],
      "name": "getAllComplaints",
      "outputs": [
        {
          "components": [
            {
              "internalType": "string",
              "name": "ration_id",
              "type": "string"
            },
            {
              "internalType": "uint256",
              "name": "vendor_id",
              "type": "uint256"
            },
            {
              "internalType": "string",
              "name": "complaint_content",
              "type": "string"
            },
            {
              "internalType": "string",
              "name": "time",
              "type": "string"
            }
          ],
          "internalType": "struct AssetLibrary.Complaint[]",
          "name": "",
          "type": "tuple[]"
        }
      ],
      "payable": false,
      "stateMutability": "view",
      "type": "function"
    }
  ],
  "bytecode": "0x60806040523480156200001157600080fd5b506040518061012001604052806040518060400160405280600c81526020017f4d483132333435363738393000000000000000000000000000000000000000008152508152602001600181526020016040518060400160405280600381526020017f52616d000000000000000000000000000000000000000000000000000000000081525081526020016040518060400160405280600881526020017f47686f727061646500000000000000000000000000000000000000000000000081525081526020016040518060400160405280600a81526020017f313233343536373839300000000000000000000000000000000000000000000081525081526020016040518060400160405280600681526020017f4d756d62616900000000000000000000000000000000000000000000000000008152508152602001600181526020016040518060400160405280600881526020017f48656c6c6f3132330000000000000000000000000000000000000000000000008152508152602001739345baf04a62f6a91d20aa08121a16eb39308b7073ffffffffffffffffffffffffffffffffffffffff168152506001604051620001cc9062001934565b90815260200160405180910390206000820151816000019080519060200190620001f8929190620015bb565b5060208201518160010155604082015181600201908051906020019062000221929190620015bb565b50606082015181600301908051906020019062000240929190620015bb565b5060808201518160040190805190602001906200025f929190620015bb565b5060a08201518160050190805190602001906200027e929190620015bb565b5060c0820151816006015560e0820151816007019080519060200190620002a7929190620015bb565b506101008201518160080160006101000a81548173ffffffffffffffffffffffffffffffffffffffff021916908373ffffffffffffffffffffffffffffffffffffffff1602179055509050506040518061012001604052806040518060400160405280600c81526020017f4d483132333435303938373600000000000000000000000000000000000000008152508152602001600281526020016040518060400160405280600581526020017f536879616d00000000000000000000000000000000000000000000000000000081525081526020016040518060400160405280600881526020017f47686f727061646500000000000000000000000000000000000000000000000081525081526020016040518060400160405280600a81526020017f313233343530393837360000000000000000000000000000000000000000000081525081526020016040518060400160405280600681526020017f4d756d62616900000000000000000000000000000000000000000000000000008152508152602001600181526020016040518060400160405280600981526020017f48656c6c6f313233340000000000000000000000000000000000000000000000815250815260200173b793c1d9c9d5050859864dbd321fc873e7942e5473ffffffffffffffffffffffffffffffffffffffff168152506001604051620004ad9062001962565b90815260200160405180910390206000820151816000019080519060200190620004d9929190620015bb565b5060208201518160010155604082015181600201908051906020019062000502929190620015bb565b50606082015181600301908051906020019062000521929190620015bb565b50608082015181600401908051906020019062000540929190620015bb565b5060a08201518160050190805190602001906200055f929190620015bb565b5060c0820151816006015560e082015181600701908051906020019062000588929190620015bb565b506101008201518160080160006101000a81548173ffffffffffffffffffffffffffffffffffffffff021916908373ffffffffffffffffffffffffffffffffffffffff1602179055509050506040518061012001604052806040518060400160405280600c81526020017f4d483132333435303938373600000000000000000000000000000000000000008152508152602001600281526020016040518060400160405280600a81526020017f4768616e61736879616d0000000000000000000000000000000000000000000081525081526020016040518060400160405280600981526020017f4465736870616e6465000000000000000000000000000000000000000000000081525081526020016040518060400160405280600a81526020017f313233343530393837360000000000000000000000000000000000000000000081525081526020016040518060400160405280600681526020017f4d756d62616900000000000000000000000000000000000000000000000000008152508152602001600181526020016040518060400160405280600981526020017f48656c6c6f313233350000000000000000000000000000000000000000000000815250815260200173b7c6562bf283534a775d5198195bfd8d47d2264773ffffffffffffffffffffffffffffffffffffffff1681525060016040516200078e9062001962565b90815260200160405180910390206000820151816000019080519060200190620007ba929190620015bb565b50602082015181600101556040820151816002019080519060200190620007e3929190620015bb565b50606082015181600301908051906020019062000802929190620015bb565b50608082015181600401908051906020019062000821929190620015bb565b5060a082015181600501908051906020019062000840929190620015bb565b5060c0820151816006015560e082015181600701908051906020019062000869929190620015bb565b506101008201518160080160006101000a81548173ffffffffffffffffffffffffffffffffffffffff021916908373ffffffffffffffffffffffffffffffffffffffff1602179055509050506040518061012001604052806040518060400160405280600c81526020017f4d483938373635343132333000000000000000000000000000000000000000008152508152602001600181526020016040518060400160405280600581526020017f446167647500000000000000000000000000000000000000000000000000000081525081526020016040518060400160405280600581526020017f506172616200000000000000000000000000000000000000000000000000000081525081526020016040518060400160405280600a81526020017f393837363534313233300000000000000000000000000000000000000000000081525081526020016040518060400160405280600681526020017f4d756d62616900000000000000000000000000000000000000000000000000008152508152602001600281526020016040518060400160405280600981526020017f48656c6c6f313233360000000000000000000000000000000000000000000000815250815260200173b6444a785bc6d27d3facb648dc0714c39f569b2473ffffffffffffffffffffffffffffffffffffffff16815250600160405162000a6f906200194b565b9081526020016040518091039020600082015181600001908051906020019062000a9b929190620015bb565b5060208201518160010155604082015181600201908051906020019062000ac4929190620015bb565b50606082015181600301908051906020019062000ae3929190620015bb565b50608082015181600401908051906020019062000b02929190620015bb565b5060a082015181600501908051906020019062000b21929190620015bb565b5060c0820151816006015560e082015181600701908051906020019062000b4a929190620015bb565b506101008201518160080160006101000a81548173ffffffffffffffffffffffffffffffffffffffff021916908373ffffffffffffffffffffffffffffffffffffffff1602179055509050506040518061012001604052806040518060400160405280600c81526020017f4d483938373635303433323100000000000000000000000000000000000000008152508152602001600381526020016040518060400160405280600381526020017f414243000000000000000000000000000000000000000000000000000000000081525081526020016040518060400160405280600381526020017f58595a000000000000000000000000000000000000000000000000000000000081525081526020016040518060400160405280600a81526020017f393837363530343332310000000000000000000000000000000000000000000081525081526020016040518060400160405280600681526020017f4d756d62616900000000000000000000000000000000000000000000000000008152508152602001600281526020016040518060400160405280600981526020017f48656c6c6f31323337000000000000000000000000000000000000000000000081525081526020017397b814cdcd7f542f413e2cfef8af97c6633fff3d73ffffffffffffffffffffffffffffffffffffffff16815250600160405162000d509062001979565b9081526020016040518091039020600082015181600001908051906020019062000d7c929190620015bb565b5060208201518160010155604082015181600201908051906020019062000da5929190620015bb565b50606082015181600301908051906020019062000dc4929190620015bb565b50608082015181600401908051906020019062000de3929190620015bb565b5060a082015181600501908051906020019062000e02929190620015bb565b5060c0820151816006015560e082015181600701908051906020019062000e2b929190620015bb565b506101008201518160080160006101000a81548173ffffffffffffffffffffffffffffffffffffffff021916908373ffffffffffffffffffffffffffffffffffffffff160217905550905050604051806101000160405280600181526020016040518060400160405280600881526020017f536964646865736800000000000000000000000000000000000000000000000081525081526020016040518060400160405280600581526020017f426167776500000000000000000000000000000000000000000000000000000081525081526020016040518060400160405280600a81526020017f313032393338343735360000000000000000000000000000000000000000000081525081526020016040518060400160405280600681526020017f4d756d626169000000000000000000000000000000000000000000000000000081525081526020016040518060400160405280600881526020017f68656c6c6f393837000000000000000000000000000000000000000000000000815250815260200160001515815260200173675a7359e0d96b9a25dca5d08e1f1ee85b9cd24f73ffffffffffffffffffffffffffffffffffffffff16815250600260006001815260200190815260200160002060008201518160000155602082015181600101908051906020019062001024929190620015bb565b50604082015181600201908051906020019062001043929190620015bb565b50606082015181600301908051906020019062001062929190620015bb565b50608082015181600401908051906020019062001081929190620015bb565b5060a0820151816005019080519060200190620010a0929190620015bb565b5060c08201518160060160006101000a81548160ff02191690831515021790555060e08201518160060160016101000a81548173ffffffffffffffffffffffffffffffffffffffff021916908373ffffffffffffffffffffffffffffffffffffffff160217905550905050604051806101000160405280600281526020016040518060400160405280600581526020017f506f6f6a6100000000000000000000000000000000000000000000000000000081525081526020016040518060400160405280600781526020017f4b61756c6775640000000000000000000000000000000000000000000000000081525081526020016040518060400160405280600a81526020017f393038373536343133320000000000000000000000000000000000000000000081525081526020016040518060400160405280600681526020017f4d756d626169000000000000000000000000000000000000000000000000000081525081526020016040518060400160405280600981526020017f68656c6c6f393837360000000000000000000000000000000000000000000000815250815260200160001515815260200173295b6ae0efe05de0011e9316e27b560ccdcd3ddb73ffffffffffffffffffffffffffffffffffffffff168152506002600060028152602001908152602001600020600082015181600001556020820151816001019080519060200190620012b8929190620015bb565b506040820151816002019080519060200190620012d7929190620015bb565b506060820151816003019080519060200190620012f6929190620015bb565b50608082015181600401908051906020019062001315929190620015bb565b5060a082015181600501908051906020019062001334929190620015bb565b5060c08201518160060160006101000a81548160ff02191690831515021790555060e08201518160060160016101000a81548173ffffffffffffffffffffffffffffffffffffffff021916908373ffffffffffffffffffffffffffffffffffffffff1602179055509050506040518060400160405280600981526020017f61646d696e313233340000000000000000000000000000000000000000000000815250600b9080519060200190620013ec92919062001642565b506040518060a001604052806040518060400160405280600c81526020017f4d4831323334353637383930000000000000000000000000000000000000000081525081526020016040518060400160405280600c81526020017f4d4831323334353039383736000000000000000000000000000000000000000081525081526020016040518060400160405280600c81526020017f4d4831323334353039383736000000000000000000000000000000000000000081525081526020016040518060400160405280600c81526020017f4d4839383736353431323330000000000000000000000000000000000000000081525081526020016040518060400160405280600c81526020017f4d4839383736353034333231000000000000000000000000000000000000000081525081525060089060056200152f929190620016c9565b506040518060400160405280600160ff168152602001600260ff1681525060099060026200155f92919062001730565b50731964f1519ff7acaa5e6b2462070cb0d6817fba4e600a60006101000a81548173ffffffffffffffffffffffffffffffffffffffff021916908373ffffffffffffffffffffffffffffffffffffffff1602179055506200199b565b828054600181600116156101000203166002900490600052602060002090601f016020900481019282601f10620015fe57805160ff19168380011785556200162f565b828001600101855582156200162f579182015b828111156200162e57825182559160200191906001019062001611565b5b5090506200163e919062001787565b5090565b828054600181600116156101000203166002900490600052602060002090601f016020900481019282601f106200168557805160ff1916838001178555620016b6565b82800160010185558215620016b6579182015b82811115620016b557825182559160200191906001019062001698565b5b509050620016c5919062001787565b5090565b8280548282559060005260206000209081019282156200171d579160200282015b828111156200171c5782518290805190602001906200170b929190620015bb565b5091602001919060010190620016ea565b5b5090506200172c9190620017af565b5090565b82805482825590600052602060002090810192821562001774579160200282015b8281111562001773578251829060ff1690559160200191906001019062001751565b5b50905062001783919062001787565b5090565b620017ac91905b80821115620017a85760008160009055506001016200178e565b5090565b90565b620017dd91905b80821115620017d95760008181620017cf9190620017e0565b50600101620017b6565b5090565b90565b50805460018160011615610100020316600290046000825580601f1062001808575062001829565b601f01602090049060005260206000209081019062001828919062001787565b5b50565b60006200183b600c8362001990565b91507f4d483132333435363738393000000000000000000000000000000000000000006000830152600c82019050919050565b60006200187d600c8362001990565b91507f4d483938373635343132333000000000000000000000000000000000000000006000830152600c82019050919050565b6000620018bf600c8362001990565b91507f4d483132333435303938373600000000000000000000000000000000000000006000830152600c82019050919050565b600062001901600c8362001990565b91507f4d483938373635303433323100000000000000000000000000000000000000006000830152600c82019050919050565b600062001941826200182c565b9150819050919050565b600062001958826200186e565b9150819050919050565b60006200196f82620018b0565b9150819050919050565b60006200198682620018f2565b9150819050919050565b600081905092915050565b6144d480620019ab6000396000f3fe608060405234801561001057600080fd5b506004361061014d5760003560e01c806350cbb154116100c3578063840907341161007c57806384090734146103de5780638f9c469114610415578063a71b78e414610448578063bff499f214610464578063c2898c3c14610494578063ff3dca65146104cc5761014d565b806350cbb154146102f657806353b676e7146103285780635e0b421e146103585780636453e8761461037657806365de1eb3146103925780637a763997146103c25761014d565b806316fc08341161011557806316fc08341461020d57806326ba9eed1461023d5780633318bca11461026d578063364dfb74146102895780633ab7d09a146102a75780634ac3751c146102da5761014d565b806301cbbd31146101525780630a8b48231461016e5780630dac9539146101a15780630f2a0919146101bf57806313830e04146101db575b600080fd5b61016c600480360361016791908101906132ac565b6104e8565b005b6101886004803603610183919081019061316c565b6105ac565b604051610198949392919061415f565b60405180910390f35b6101a96106bd565b6040516101b69190613ea3565b60405180910390f35b6101d960048036036101d4919081019061356d565b61090c565b005b6101f560048036036101f09190810190613519565b610961565b60405161020493929190613f09565b60405180910390f35b610227600480360361022291908101906134ad565b610aeb565b60405161023491906140a3565b60405180910390f35b6102576004803603610252919081019061316c565b610b3c565b604051610264919061405f565b60405180910390f35b61028760048036036102829190810190613357565b610fab565b005b610291611143565b60405161029e9190613e81565b60405180910390f35b6102c160048036036102bc919081019061356d565b61122c565b6040516102d1949392919061415f565b60405180910390f35b6102f460048036036102ef9190810190613201565b611311565b005b610310600480360361030b9190810190613519565b611689565b60405161031f93929190613f09565b60405180910390f35b610342600480360361033d919081019061316c565b611813565b60405161034f9190613ec5565b60405180910390f35b610360611a36565b60405161036d9190613ee7565b60405180910390f35b610390600480360361038b919081019061316c565b611a8e565b005b6103ac60048036036103a7919081019061356d565b611dd7565b6040516103b99190614081565b60405180910390f35b6103dc60048036036103d7919081019061356d565b6121aa565b005b6103f860048036036103f3919081019061356d565b61227d565b60405161040c9897969594939291906140be565b60405180910390f35b61042f600480360361042a919081019061356d565b6125ea565b60405161043f9493929190613f4e565b60405180910390f35b610462600480360361045d91908101906135ea565b6127ef565b005b61047e60048036036104799190810190613596565b61296f565b60405161048b91906140a3565b60405180910390f35b6104ae60048036036104a9919081019061312b565b6129aa565b6040516104c399989796959493929190613fa8565b60405180910390f35b6104e660048036036104e191908101906131ad565b612dbe565b005b6104f0612de8565b604051806080016040528086815260200185815260200184815260200183815250905060078190806001815401808255809150509060018203906000526020600020906004020160009091929091909150600082015181600001908051906020019061055d929190612e10565b50602082015181600101556040820151816002019080519060200190610584929190612e10565b5060608201518160030190805190602001906105a1929190612e10565b505050505050505050565b60008060008060006003866040516105c49190613e16565b90815260200160405180910390206040516105de90613e42565b908152602001604051809103902054905060006003876040516106019190613e16565b908152602001604051809103902060405161061b90613e6c565b9081526020016040518091039020549050600060038860405161063e9190613e16565b908152602001604051809103902060405161065890613e57565b9081526020016040518091039020549050600060038960405161067b9190613e16565b908152602001604051809103902060405161069590613e2d565b9081526020016040518091039020549050838383839750975097509750505050509193509193565b60606007805480602002602001604051908101604052809291908181526020016000905b828210156109035783829060005260206000209060040201604051806080016040529081600082018054600181600116156101000203166002900480601f01602080910402602001604051908101604052809291908181526020018280546001816001161561010002031660029004801561079d5780601f106107725761010080835404028352916020019161079d565b820191906000526020600020905b81548152906001019060200180831161078057829003601f168201915b5050505050815260200160018201548152602001600282018054600181600116156101000203166002900480601f0160208091040260200160405190810160405280929190818152602001828054600181600116156101000203166002900480156108495780601f1061081e57610100808354040283529160200191610849565b820191906000526020600020905b81548152906001019060200180831161082c57829003601f168201915b50505050508152602001600382018054600181600116156101000203166002900480601f0160208091040260200160405190810160405280929190818152602001828054600181600116156101000203166002900480156108eb5780601f106108c0576101008083540402835291602001916108eb565b820191906000526020600020905b8154815290600101906020018083116108ce57829003601f168201915b505050505081525050815260200190600101906106e1565b50505050905090565b6002600082815260200190815260200160002060060160009054906101000a900460ff16156002600083815260200190815260200160002060060160006101000a81548160ff02191690831515021790555050565b600582805160208101820180518482526020830160208501208183528095505050505050818154811061099057fe5b906000526020600020906004020160009150915050806000018054600181600116156101000203166002900480601f016020809104026020016040519081016040528092919081815260200182805460018160011615610100020316600290048015610a3d5780601f10610a1257610100808354040283529160200191610a3d565b820191906000526020600020905b815481529060010190602001808311610a2057829003601f168201915b505050505090806001015490806003018054600181600116156101000203166002900480601f016020809104026020016040519081016040528092919081815260200182805460018160011615610100020316600290048015610ae15780601f10610ab657610100808354040283529160200191610ae1565b820191906000526020600020905b815481529060010190602001808311610ac457829003601f168201915b5050505050905083565b60038280516020810182018051848252602083016020850120818352809550505050505081805160208101820180518482526020830160208501208183528095505050505050600091509150505481565b610b44612e90565b600182604051610b549190613e16565b908152602001604051809103902060405180610120016040529081600082018054600181600116156101000203166002900480601f016020809104026020016040519081016040528092919081815260200182805460018160011615610100020316600290048015610c075780601f10610bdc57610100808354040283529160200191610c07565b820191906000526020600020905b815481529060010190602001808311610bea57829003601f168201915b5050505050815260200160018201548152602001600282018054600181600116156101000203166002900480601f016020809104026020016040519081016040528092919081815260200182805460018160011615610100020316600290048015610cb35780601f10610c8857610100808354040283529160200191610cb3565b820191906000526020600020905b815481529060010190602001808311610c9657829003601f168201915b50505050508152602001600382018054600181600116156101000203166002900480601f016020809104026020016040519081016040528092919081815260200182805460018160011615610100020316600290048015610d555780601f10610d2a57610100808354040283529160200191610d55565b820191906000526020600020905b815481529060010190602001808311610d3857829003601f168201915b50505050508152602001600482018054600181600116156101000203166002900480601f016020809104026020016040519081016040528092919081815260200182805460018160011615610100020316600290048015610df75780601f10610dcc57610100808354040283529160200191610df7565b820191906000526020600020905b815481529060010190602001808311610dda57829003601f168201915b50505050508152602001600582018054600181600116156101000203166002900480601f016020809104026020016040519081016040528092919081815260200182805460018160011615610100020316600290048015610e995780601f10610e6e57610100808354040283529160200191610e99565b820191906000526020600020905b815481529060010190602001808311610e7c57829003601f168201915b5050505050815260200160068201548152602001600782018054600181600116156101000203166002900480601f016020809104026020016040519081016040528092919081815260200182805460018160011615610100020316600290048015610f455780601f10610f1a57610100808354040283529160200191610f45565b820191906000526020600020905b815481529060010190602001808311610f2857829003601f168201915b505050505081526020016008820160009054906101000a900473ffffffffffffffffffffffffffffffffffffffff1673ffffffffffffffffffffffffffffffffffffffff1673ffffffffffffffffffffffffffffffffffffffff16815250509050919050565b610fb3612e90565b6040518061012001604052808b81526020018a81526020018981526020018881526020018781526020018681526020018581526020018481526020018373ffffffffffffffffffffffffffffffffffffffff1681525090508060018b60405161101c9190613e16565b90815260200160405180910390206000820151816000019080519060200190611046929190612e10565b5060208201518160010155604082015181600201908051906020019061106d929190612e10565b50606082015181600301908051906020019061108a929190612e10565b5060808201518160040190805190602001906110a7929190612e10565b5060a08201518160050190805190602001906110c4929190612e10565b5060c0820151816006015560e08201518160070190805190602001906110eb929190612e10565b506101008201518160080160006101000a81548173ffffffffffffffffffffffffffffffffffffffff021916908373ffffffffffffffffffffffffffffffffffffffff16021790555090505050505050505050505050565b60606008805480602002602001604051908101604052809291908181526020016000905b82821015611223578382906000526020600020018054600181600116156101000203166002900480601f01602080910402602001604051908101604052809291908181526020018280546001816001161561010002031660029004801561120f5780601f106111e45761010080835404028352916020019161120f565b820191906000526020600020905b8154815290600101906020018083116111f257829003601f168201915b505050505081526020019060010190611167565b50505050905090565b60008060008060006004600087815260200190815260200160002060405161125390613e42565b908152602001604051809103902054905060006004600088815260200190815260200160002060405161128590613e6c565b90815260200160405180910390205490506000600460008981526020019081526020016000206040516112b790613e57565b90815260200160405180910390205490506000600460008a81526020019081526020016000206040516112e990613e2d565b9081526020016040518091039020549050838383839750975097509750505050509193509193565b8160008151811061131e57fe5b60200260200101516003856040516113369190613e16565b908152602001604051809103902060405161135090613e42565b9081526020016040518091039020600082825403925050819055508160018151811061137857fe5b60200260200101516003856040516113909190613e16565b90815260200160405180910390206040516113aa90613e6c565b908152602001604051809103902060008282540392505081905550816002815181106113d257fe5b60200260200101516003856040516113ea9190613e16565b908152602001604051809103902060405161140490613e57565b9081526020016040518091039020600082825403925050819055508160038151811061142c57fe5b60200260200101516003856040516114449190613e16565b908152602001604051809103902060405161145e90613e2d565b9081526020016040518091039020600082825403925050819055508160008151811061148657fe5b6020026020010151600460008581526020019081526020016000206040516114ad90613e42565b908152602001604051809103902060008282540392505081905550816001815181106114d557fe5b6020026020010151600460008581526020019081526020016000206040516114fc90613e6c565b9081526020016040518091039020600082825403925050819055508160028151811061152457fe5b60200260200101516004600085815260200190815260200160002060405161154b90613e57565b9081526020016040518091039020600082825403925050819055508160038151811061157357fe5b60200260200101516004600085815260200190815260200160002060405161159a90613e2d565b9081526020016040518091039020600082825403925050819055506005846040516115c59190613e16565b908152602001604051809103902060405180608001604052808681526020018581526020018481526020018381525090806001815401808255809150509060018203906000526020600020906004020160009091929091909150600082015181600001908051906020019061163b929190612e10565b50602082015181600101556040820151816002019080519060200190611662929190612ef2565b50606082015181600301908051906020019061167f929190612e10565b5050505050505050565b60068280516020810182018051848252602083016020850120818352809550505050505081815481106116b857fe5b906000526020600020906004020160009150915050806000018054600181600116156101000203166002900480601f0160208091040260200160405190810160405280929190818152602001828054600181600116156101000203166002900480156117655780601f1061173a57610100808354040283529160200191611765565b820191906000526020600020905b81548152906001019060200180831161174857829003601f168201915b505050505090806001015490806003018054600181600116156101000203166002900480601f0160208091040260200160405190810160405280929190818152602001828054600181600116156101000203166002900480156118095780601f106117de57610100808354040283529160200191611809565b820191906000526020600020905b8154815290600101906020018083116117ec57829003601f168201915b5050505050905083565b60606005826040516118259190613e16565b9081526020016040518091039020805480602002602001604051908101604052809291908181526020016000905b82821015611a2b5783829060005260206000209060040201604051806080016040529081600082018054600181600116156101000203166002900480601f01602080910402602001604051908101604052809291908181526020018280546001816001161561010002031660029004801561190f5780601f106118e45761010080835404028352916020019161190f565b820191906000526020600020905b8154815290600101906020018083116118f257829003601f168201915b50505050508152602001600182015481526020016002820180548060200260200160405190810160405280929190818152602001828054801561197157602002820191906000526020600020905b81548152602001906001019080831161195d575b50505050508152602001600382018054600181600116156101000203166002900480601f016020809104026020016040519081016040528092919081815260200182805460018160011615610100020316600290048015611a135780601f106119e857610100808354040283529160200191611a13565b820191906000526020600020905b8154815290600101906020018083116119f657829003601f168201915b50505050508152505081526020019060010190611853565b505050509050919050565b60606009805480602002602001604051908101604052809291908181526020018280548015611a8457602002820191906000526020600020905b815481526020019060010190808311611a70575b5050505050905090565b60018082604051611a9f9190613e16565b9081526020016040518091039020600101541415611bb4576005600382604051611ac99190613e16565b9081526020016040518091039020604051611ae390613e42565b908152602001604051809103902081905550600a600382604051611b079190613e16565b9081526020016040518091039020604051611b2190613e6c565b9081526020016040518091039020819055506001600382604051611b459190613e16565b9081526020016040518091039020604051611b5f90613e57565b9081526020016040518091039020819055506005600382604051611b839190613e16565b9081526020016040518091039020604051611b9d90613e2d565b908152602001604051809103902081905550611dd4565b6002600182604051611bc69190613e16565b9081526020016040518091039020600101541415611cdb57600a600382604051611bf09190613e16565b9081526020016040518091039020604051611c0a90613e42565b908152602001604051809103902081905550600f600382604051611c2e9190613e16565b9081526020016040518091039020604051611c4890613e6c565b9081526020016040518091039020819055506002600382604051611c6c9190613e16565b9081526020016040518091039020604051611c8690613e57565b9081526020016040518091039020819055506007600382604051611caa9190613e16565b9081526020016040518091039020604051611cc490613e2d565b908152602001604051809103902081905550611dd3565b600c600382604051611ced9190613e16565b9081526020016040518091039020604051611d0790613e42565b9081526020016040518091039020819055506011600382604051611d2b9190613e16565b9081526020016040518091039020604051611d4590613e6c565b90815260200160405180910390208190555060038082604051611d689190613e16565b9081526020016040518091039020604051611d8290613e57565b908152602001604051809103902081905550600a600382604051611da69190613e16565b9081526020016040518091039020604051611dc090613e2d565b9081526020016040518091039020819055505b5b50565b611ddf612f3f565b600260008381526020019081526020016000206040518061010001604052908160008201548152602001600182018054600181600116156101000203166002900480601f016020809104026020016040519081016040528092919081815260200182805460018160011615610100020316600290048015611ea15780601f10611e7657610100808354040283529160200191611ea1565b820191906000526020600020905b815481529060010190602001808311611e8457829003601f168201915b50505050508152602001600282018054600181600116156101000203166002900480601f016020809104026020016040519081016040528092919081815260200182805460018160011615610100020316600290048015611f435780601f10611f1857610100808354040283529160200191611f43565b820191906000526020600020905b815481529060010190602001808311611f2657829003601f168201915b50505050508152602001600382018054600181600116156101000203166002900480601f016020809104026020016040519081016040528092919081815260200182805460018160011615610100020316600290048015611fe55780601f10611fba57610100808354040283529160200191611fe5565b820191906000526020600020905b815481529060010190602001808311611fc857829003601f168201915b50505050508152602001600482018054600181600116156101000203166002900480601f0160208091040260200160405190810160405280929190818152602001828054600181600116156101000203166002900480156120875780601f1061205c57610100808354040283529160200191612087565b820191906000526020600020905b81548152906001019060200180831161206a57829003601f168201915b50505050508152602001600582018054600181600116156101000203166002900480601f0160208091040260200160405190810160405280929190818152602001828054600181600116156101000203166002900480156121295780601f106120fe57610100808354040283529160200191612129565b820191906000526020600020905b81548152906001019060200180831161210c57829003601f168201915b505050505081526020016006820160009054906101000a900460ff161515151581526020016006820160019054906101000a900473ffffffffffffffffffffffffffffffffffffffff1673ffffffffffffffffffffffffffffffffffffffff1673ffffffffffffffffffffffffffffffffffffffff16815250509050919050565b6101f4600460008381526020019081526020016000206040516121cc90613e42565b9081526020016040518091039020819055506103e86004600083815260200190815260200160002060405161220090613e6c565b9081526020016040518091039020819055506101f46004600083815260200190815260200160002060405161223490613e57565b9081526020016040518091039020819055506101f46004600083815260200190815260200160002060405161226890613e2d565b90815260200160405180910390208190555050565b6002602052806000526040600020600091509050806000015490806001018054600181600116156101000203166002900480601f01602080910402602001604051908101604052809291908181526020018280546001816001161561010002031660029004801561232f5780601f106123045761010080835404028352916020019161232f565b820191906000526020600020905b81548152906001019060200180831161231257829003601f168201915b505050505090806002018054600181600116156101000203166002900480601f0160208091040260200160405190810160405280929190818152602001828054600181600116156101000203166002900480156123cd5780601f106123a2576101008083540402835291602001916123cd565b820191906000526020600020905b8154815290600101906020018083116123b057829003601f168201915b505050505090806003018054600181600116156101000203166002900480601f01602080910402602001604051908101604052809291908181526020018280546001816001161561010002031660029004801561246b5780601f106124405761010080835404028352916020019161246b565b820191906000526020600020905b81548152906001019060200180831161244e57829003601f168201915b505050505090806004018054600181600116156101000203166002900480601f0160208091040260200160405190810160405280929190818152602001828054600181600116156101000203166002900480156125095780601f106124de57610100808354040283529160200191612509565b820191906000526020600020905b8154815290600101906020018083116124ec57829003601f168201915b505050505090806005018054600181600116156101000203166002900480601f0160208091040260200160405190810160405280929190818152602001828054600181600116156101000203166002900480156125a75780601f1061257c576101008083540402835291602001916125a7565b820191906000526020600020905b81548152906001019060200180831161258a57829003601f168201915b5050505050908060060160009054906101000a900460ff16908060060160019054906101000a900473ffffffffffffffffffffffffffffffffffffffff16905088565b600781815481106125f757fe5b9060005260206000209060040201600091509050806000018054600181600116156101000203166002900480601f0160208091040260200160405190810160405280929190818152602001828054600181600116156101000203166002900480156126a35780601f10612678576101008083540402835291602001916126a3565b820191906000526020600020905b81548152906001019060200180831161268657829003601f168201915b505050505090806001015490806002018054600181600116156101000203166002900480601f0160208091040260200160405190810160405280929190818152602001828054600181600116156101000203166002900480156127475780601f1061271c57610100808354040283529160200191612747565b820191906000526020600020905b81548152906001019060200180831161272a57829003601f168201915b505050505090806003018054600181600116156101000203166002900480601f0160208091040260200160405190810160405280929190818152602001828054600181600116156101000203166002900480156127e55780601f106127ba576101008083540402835291602001916127e5565b820191906000526020600020905b8154815290600101906020018083116127c857829003601f168201915b5050505050905084565b6127f7612f3f565b6040518061010001604052808a815260200189815260200188815260200187815260200186815260200185815260200184151581526020018373ffffffffffffffffffffffffffffffffffffffff16815250905080600260008b8152602001908152602001600020600082015181600001556020820151816001019080519060200190612885929190612e10565b5060408201518160020190805190602001906128a2929190612e10565b5060608201518160030190805190602001906128bf929190612e10565b5060808201518160040190805190602001906128dc929190612e10565b5060a08201518160050190805190602001906128f9929190612e10565b5060c08201518160060160006101000a81548160ff02191690831515021790555060e08201518160060160016101000a81548173ffffffffffffffffffffffffffffffffffffffff021916908373ffffffffffffffffffffffffffffffffffffffff160217905550905050505050505050505050565b600460205281600052604060002081805160208101820180518482526020830160208501208183528095505050505050600091509150505481565b600181805160208101820180518482526020830160208501208183528095505050505050600091509050806000018054600181600116156101000203166002900480601f016020809104026020016040519081016040528092919081815260200182805460018160011615610100020316600290048015612a6c5780601f10612a4157610100808354040283529160200191612a6c565b820191906000526020600020905b815481529060010190602001808311612a4f57829003601f168201915b505050505090806001015490806002018054600181600116156101000203166002900480601f016020809104026020016040519081016040528092919081815260200182805460018160011615610100020316600290048015612b105780601f10612ae557610100808354040283529160200191612b10565b820191906000526020600020905b815481529060010190602001808311612af357829003601f168201915b505050505090806003018054600181600116156101000203166002900480601f016020809104026020016040519081016040528092919081815260200182805460018160011615610100020316600290048015612bae5780601f10612b8357610100808354040283529160200191612bae565b820191906000526020600020905b815481529060010190602001808311612b9157829003601f168201915b505050505090806004018054600181600116156101000203166002900480601f016020809104026020016040519081016040528092919081815260200182805460018160011615610100020316600290048015612c4c5780601f10612c2157610100808354040283529160200191612c4c565b820191906000526020600020905b815481529060010190602001808311612c2f57829003601f168201915b505050505090806005018054600181600116156101000203166002900480601f016020809104026020016040519081016040528092919081815260200182805460018160011615610100020316600290048015612cea5780601f10612cbf57610100808354040283529160200191612cea565b820191906000526020600020905b815481529060010190602001808311612ccd57829003601f168201915b505050505090806006015490806007018054600181600116156101000203166002900480601f016020809104026020016040519081016040528092919081815260200182805460018160011615610100020316600290048015612d8e5780601f10612d6357610100808354040283529160200191612d8e565b820191906000526020600020905b815481529060010190602001808311612d7157829003601f168201915b5050505050908060080160009054906101000a900473ffffffffffffffffffffffffffffffffffffffff16905089565b80600183604051612dcf9190613e16565b9081526020016040518091039020600101819055505050565b6040518060800160405280606081526020016000815260200160608152602001606081525090565b828054600181600116156101000203166002900490600052602060002090601f016020900481019282601f10612e5157805160ff1916838001178555612e7f565b82800160010185558215612e7f579182015b82811115612e7e578251825591602001919060010190612e63565b5b509050612e8c9190612f9c565b5090565b6040518061012001604052806060815260200160008152602001606081526020016060815260200160608152602001606081526020016000815260200160608152602001600073ffffffffffffffffffffffffffffffffffffffff1681525090565b828054828255906000526020600020908101928215612f2e579160200282015b82811115612f2d578251825591602001919060010190612f12565b5b509050612f3b9190612f9c565b5090565b604051806101000160405280600081526020016060815260200160608152602001606081526020016060815260200160608152602001600015158152602001600073ffffffffffffffffffffffffffffffffffffffff1681525090565b612fbe91905b80821115612fba576000816000905550600101612fa2565b5090565b90565b600081359050612fd08161444c565b92915050565b600082601f830112612fe757600080fd5b8135612ffa612ff5826141d1565b6141a4565b9150818183526020840193506020810190508385602084028201111561301f57600080fd5b60005b8381101561304f57816130358882613116565b845260208401935060208301925050600181019050613022565b5050505092915050565b60008135905061306881614463565b92915050565b600082601f83011261307f57600080fd5b813561309261308d826141f9565b6141a4565b915080825260208301602083018583830111156130ae57600080fd5b6130b98382846143f9565b50505092915050565b600082601f8301126130d357600080fd5b81356130e66130e182614225565b6141a4565b9150808252602083016020830185838301111561310257600080fd5b61310d8382846143f9565b50505092915050565b6000813590506131258161447a565b92915050565b60006020828403121561313d57600080fd5b600082013567ffffffffffffffff81111561315757600080fd5b6131638482850161306e565b91505092915050565b60006020828403121561317e57600080fd5b600082013567ffffffffffffffff81111561319857600080fd5b6131a4848285016130c2565b91505092915050565b600080604083850312156131c057600080fd5b600083013567ffffffffffffffff8111156131da57600080fd5b6131e6858286016130c2565b92505060206131f785828601613116565b9150509250929050565b6000806000806080858703121561321757600080fd5b600085013567ffffffffffffffff81111561323157600080fd5b61323d878288016130c2565b945050602061324e87828801613116565b935050604085013567ffffffffffffffff81111561326b57600080fd5b61327787828801612fd6565b925050606085013567ffffffffffffffff81111561329457600080fd5b6132a0878288016130c2565b91505092959194509250565b600080600080608085870312156132c257600080fd5b600085013567ffffffffffffffff8111156132dc57600080fd5b6132e8878288016130c2565b94505060206132f987828801613116565b935050604085013567ffffffffffffffff81111561331657600080fd5b613322878288016130c2565b925050606085013567ffffffffffffffff81111561333f57600080fd5b61334b878288016130c2565b91505092959194509250565b60008060008060008060008060006101208a8c03121561337657600080fd5b60008a013567ffffffffffffffff81111561339057600080fd5b61339c8c828d016130c2565b99505060206133ad8c828d01613116565b98505060408a013567ffffffffffffffff8111156133ca57600080fd5b6133d68c828d016130c2565b97505060608a013567ffffffffffffffff8111156133f357600080fd5b6133ff8c828d016130c2565b96505060808a013567ffffffffffffffff81111561341c57600080fd5b6134288c828d016130c2565b95505060a08a013567ffffffffffffffff81111561344557600080fd5b6134518c828d016130c2565b94505060c06134628c828d01613116565b93505060e08a013567ffffffffffffffff81111561347f57600080fd5b61348b8c828d016130c2565b92505061010061349d8c828d01612fc1565b9150509295985092959850929598565b600080604083850312156134c057600080fd5b600083013567ffffffffffffffff8111156134da57600080fd5b6134e68582860161306e565b925050602083013567ffffffffffffffff81111561350357600080fd5b61350f8582860161306e565b9150509250929050565b6000806040838503121561352c57600080fd5b600083013567ffffffffffffffff81111561354657600080fd5b6135528582860161306e565b925050602061356385828601613116565b9150509250929050565b60006020828403121561357f57600080fd5b600061358d84828501613116565b91505092915050565b600080604083850312156135a957600080fd5b60006135b785828601613116565b925050602083013567ffffffffffffffff8111156135d457600080fd5b6135e08582860161306e565b9150509250929050565b600080600080600080600080610100898b03121561360757600080fd5b60006136158b828c01613116565b985050602089013567ffffffffffffffff81111561363257600080fd5b61363e8b828c016130c2565b975050604089013567ffffffffffffffff81111561365b57600080fd5b6136678b828c016130c2565b965050606089013567ffffffffffffffff81111561368457600080fd5b6136908b828c016130c2565b955050608089013567ffffffffffffffff8111156136ad57600080fd5b6136b98b828c016130c2565b94505060a089013567ffffffffffffffff8111156136d657600080fd5b6136e28b828c016130c2565b93505060c06136f38b828c01613059565b92505060e06137048b828c01612fc1565b9150509295985092959890939650565b600061372083836139f0565b905092915050565b60006137348383613b62565b905092915050565b60006137488383613cbb565b905092915050565b600061375c8383613df8565b60208301905092915050565b613771816143b1565b82525050565b613780816143b1565b82525050565b6000613791826142a1565b61379b818561432f565b9350836020820285016137ad85614251565b8060005b858110156137e957848403895281516137ca8582613714565b94506137d5836142ee565b925060208a019950506001810190506137b1565b50829750879550505050505092915050565b6000613806826142ac565b6138108185614340565b93508360208202850161382285614261565b8060005b8581101561385e578484038952815161383f8582613728565b945061384a836142fb565b925060208a01995050600181019050613826565b50829750879550505050505092915050565b600061387b826142b7565b6138858185614351565b93508360208202850161389785614271565b8060005b858110156138d357848403895281516138b4858261373c565b94506138bf83614308565b925060208a0199505060018101905061389b565b50829750879550505050505092915050565b60006138f0826142cd565b6138fa8185614373565b935061390583614291565b8060005b8381101561393657815161391d8882613750565b975061392883614322565b925050600181019050613909565b5085935050505092915050565b600061394e826142c2565b6139588185614362565b935061396383614281565b8060005b8381101561399457815161397b8882613750565b975061398683614315565b925050600181019050613967565b5085935050505092915050565b6139aa816143c3565b82525050565b6139b9816143c3565b82525050565b60006139ca826142e3565b6139d481856143a6565b93506139e4818560208601614408565b80840191505092915050565b60006139fb826142d8565b613a058185614384565b9350613a15818560208601614408565b613a1e8161443b565b840191505092915050565b6000613a34826142d8565b613a3e8185614395565b9350613a4e818560208601614408565b613a578161443b565b840191505092915050565b6000613a6f6008836143a6565b91507f4b65726f73656e650000000000000000000000000000000000000000000000006000830152600882019050919050565b6000613aaf6004836143a6565b91507f52696365000000000000000000000000000000000000000000000000000000006000830152600482019050919050565b6000613aef6005836143a6565b91507f53756761720000000000000000000000000000000000000000000000000000006000830152600582019050919050565b6000613b2f6005836143a6565b91507f57686561740000000000000000000000000000000000000000000000000000006000830152600582019050919050565b60006080830160008301518482036000860152613b7f82826139f0565b9150506020830151613b946020860182613df8565b5060408301518482036040860152613bac82826139f0565b91505060608301518482036060860152613bc682826139f0565b9150508091505092915050565b6000610120830160008301518482036000860152613bf182826139f0565b9150506020830151613c066020860182613df8565b5060408301518482036040860152613c1e82826139f0565b91505060608301518482036060860152613c3882826139f0565b91505060808301518482036080860152613c5282826139f0565b91505060a083015184820360a0860152613c6c82826139f0565b91505060c0830151613c8160c0860182613df8565b5060e083015184820360e0860152613c9982826139f0565b915050610100830151613cb0610100860182613768565b508091505092915050565b60006080830160008301518482036000860152613cd882826139f0565b9150506020830151613ced6020860182613df8565b5060408301518482036040860152613d058282613943565b91505060608301518482036060860152613d1f82826139f0565b9150508091505092915050565b600061010083016000830151613d456000860182613df8565b5060208301518482036020860152613d5d82826139f0565b91505060408301518482036040860152613d7782826139f0565b91505060608301518482036060860152613d9182826139f0565b91505060808301518482036080860152613dab82826139f0565b91505060a083015184820360a0860152613dc582826139f0565b91505060c0830151613dda60c08601826139a1565b5060e0830151613ded60e0860182613768565b508091505092915050565b613e01816143ef565b82525050565b613e10816143ef565b82525050565b6000613e2282846139bf565b915081905092915050565b6000613e3882613a62565b9150819050919050565b6000613e4d82613aa2565b9150819050919050565b6000613e6282613ae2565b9150819050919050565b6000613e7782613b22565b9150819050919050565b60006020820190508181036000830152613e9b8184613786565b905092915050565b60006020820190508181036000830152613ebd81846137fb565b905092915050565b60006020820190508181036000830152613edf8184613870565b905092915050565b60006020820190508181036000830152613f0181846138e5565b905092915050565b60006060820190508181036000830152613f238186613a29565b9050613f326020830185613e07565b8181036040830152613f448184613a29565b9050949350505050565b60006080820190508181036000830152613f688187613a29565b9050613f776020830186613e07565b8181036040830152613f898185613a29565b90508181036060830152613f9d8184613a29565b905095945050505050565b6000610120820190508181036000830152613fc3818c613a29565b9050613fd2602083018b613e07565b8181036040830152613fe4818a613a29565b90508181036060830152613ff88189613a29565b9050818103608083015261400c8188613a29565b905081810360a08301526140208187613a29565b905061402f60c0830186613e07565b81810360e08301526140418185613a29565b9050614051610100830184613777565b9a9950505050505050505050565b600060208201905081810360008301526140798184613bd3565b905092915050565b6000602082019050818103600083015261409b8184613d2c565b905092915050565b60006020820190506140b86000830184613e07565b92915050565b6000610100820190506140d4600083018b613e07565b81810360208301526140e6818a613a29565b905081810360408301526140fa8189613a29565b9050818103606083015261410e8188613a29565b905081810360808301526141228187613a29565b905081810360a08301526141368186613a29565b905061414560c08301856139b0565b61415260e0830184613777565b9998505050505050505050565b60006080820190506141746000830187613e07565b6141816020830186613e07565b61418e6040830185613e07565b61419b6060830184613e07565b95945050505050565b6000604051905081810181811067ffffffffffffffff821117156141c757600080fd5b8060405250919050565b600067ffffffffffffffff8211156141e857600080fd5b602082029050602081019050919050565b600067ffffffffffffffff82111561421057600080fd5b601f19601f8301169050602081019050919050565b600067ffffffffffffffff82111561423c57600080fd5b601f19601f8301169050602081019050919050565b6000819050602082019050919050565b6000819050602082019050919050565b6000819050602082019050919050565b6000819050602082019050919050565b6000819050602082019050919050565b600081519050919050565b600081519050919050565b600081519050919050565b600081519050919050565b600081519050919050565b600081519050919050565b600081519050919050565b6000602082019050919050565b6000602082019050919050565b6000602082019050919050565b6000602082019050919050565b6000602082019050919050565b600082825260208201905092915050565b600082825260208201905092915050565b600082825260208201905092915050565b600082825260208201905092915050565b600082825260208201905092915050565b600082825260208201905092915050565b600082825260208201905092915050565b600081905092915050565b60006143bc826143cf565b9050919050565b60008115159050919050565b600073ffffffffffffffffffffffffffffffffffffffff82169050919050565b6000819050919050565b82818337600083830152505050565b60005b8381101561442657808201518184015260208101905061440b565b83811115614435576000848401525b50505050565b6000601f19601f8301169050919050565b614455816143b1565b811461446057600080fd5b50565b61446c816143c3565b811461447757600080fd5b50565b614483816143ef565b811461448e57600080fd5b5056fea365627a7a7231582072a870e80b326641d7b87b5a4d6e9fa016d95f43eb3dfbd4941524b9b4a176966c6578706572696d656e74616cf564736f6c63430005100040",
  "source": "// SPDX-License-Identifier: MIT\r\npragma solidity >=0.4.21 <8.10.0;\r\npragma experimental ABIEncoderV2;\r\n\r\n// Saffron -- 1, white - 2, yellow -3\r\n// Rice - 4kg, sugar - 0.5kg, wheat - 10kg\r\n\r\nlibrary AssetLibrary {\r\n    struct Consumer {\r\n        string ration_card;\r\n        uint256 ration_card_type;\r\n        string first_name;\r\n        string last_name;\r\n        string phone;\r\n        string location;\r\n        uint256 vendor_id;\r\n        string password;\r\n        address wallet_addr;\r\n    }\r\n\r\n    struct Vendor {\r\n        uint256 vendor_id;\r\n        string first_name;\r\n        string last_name;\r\n        string phone;\r\n        string location;\r\n        string password;\r\n        bool isBlacklisted;\r\n        address wallet_addr;\r\n    }\r\n\r\n    struct Transaction {\r\n        string consumer_ration_id;\r\n        uint256 vendor_id;\r\n        uint256[] quantity;\r\n        string timestamp;\r\n    }\r\n\r\n    struct Complaint {\r\n        string ration_id;\r\n        uint256 vendor_id;\r\n        string complaint_content;\r\n        string time;\r\n    }\r\n}\r\n\r\ncontract Sanaaj {\r\n    uint256 transactionCount;\r\n    mapping(string => AssetLibrary.Consumer) public consumerList;\r\n    mapping(uint256 => AssetLibrary.Vendor) public vendorList;\r\n    mapping(string => mapping(string => uint256)) public allowanceList;\r\n    mapping(uint256 => mapping(string => uint256)) public stockList;\r\n    mapping(string => AssetLibrary.Transaction[]) public transactionList;\r\n    mapping(string => AssetLibrary.Transaction[]) public pendingTransactionList;\r\n    AssetLibrary.Complaint[] public complaintList;\r\n    string[] rationCardList;\r\n    uint256[] vendorIDList;\r\n    address adminAddress;\r\n    string adminPassword;\r\n\r\n    constructor() public {\r\n        consumerList[\"MH1234567890\"] = AssetLibrary.Consumer(\r\n            \"MH1234567890\",\r\n            1,\r\n            \"Ram\",\r\n            \"Ghorpade\",\r\n            \"1234567890\",\r\n            \"Mumbai\",\r\n            1,\r\n            \"Hello123\",\r\n            0x9345BaF04A62F6A91d20aa08121a16eB39308b70\r\n        );\r\n        consumerList[\"MH1234509876\"] = AssetLibrary.Consumer(\r\n            \"MH1234509876\",\r\n            2,\r\n            \"Shyam\",\r\n            \"Ghorpade\",\r\n            \"1234509876\",\r\n            \"Mumbai\",\r\n            1,\r\n            \"Hello1234\",\r\n            0xB793c1d9c9D5050859864DbD321Fc873e7942e54\r\n        );\r\n        consumerList[\"MH1234509876\"] = AssetLibrary.Consumer(\r\n            \"MH1234509876\",\r\n            2,\r\n            \"Ghanashyam\",\r\n            \"Deshpande\",\r\n            \"1234509876\",\r\n            \"Mumbai\",\r\n            1,\r\n            \"Hello1235\",\r\n            0xb7C6562BF283534A775d5198195bfD8d47D22647\r\n        );\r\n        consumerList[\"MH9876541230\"] = AssetLibrary.Consumer(\r\n            \"MH9876541230\",\r\n            1,\r\n            \"Dagdu\",\r\n            \"Parab\",\r\n            \"9876541230\",\r\n            \"Mumbai\",\r\n            2,\r\n            \"Hello1236\",\r\n            0xb6444A785Bc6d27d3fAcb648dc0714C39F569B24\r\n        );\r\n        consumerList[\"MH9876504321\"] = AssetLibrary.Consumer(\r\n            \"MH9876504321\",\r\n            3,\r\n            \"ABC\",\r\n            \"XYZ\",\r\n            \"9876504321\",\r\n            \"Mumbai\",\r\n            2,\r\n            \"Hello1237\",\r\n            0x97b814cdcD7F542f413E2CFef8AF97c6633ffF3D\r\n        );\r\n\r\n        vendorList[1] = AssetLibrary.Vendor(\r\n            1,\r\n            \"Siddhesh\",\r\n            \"Bagwe\",\r\n            \"1029384756\",\r\n            \"Mumbai\",\r\n            \"hello987\",\r\n            false,\r\n            0x675A7359e0d96b9A25DCA5d08e1f1Ee85B9cD24f\r\n        );\r\n        vendorList[2] = AssetLibrary.Vendor(\r\n            2,\r\n            \"Pooja\",\r\n            \"Kaulgud\",\r\n            \"9087564132\",\r\n            \"Mumbai\",\r\n            \"hello9876\",\r\n            false,\r\n            0x295b6AE0Efe05de0011E9316E27B560cCdCD3DDb\r\n        );\r\n\r\n        adminPassword = \"admin1234\";\r\n        rationCardList = [\r\n            \"MH1234567890\",\r\n            \"MH1234509876\",\r\n            \"MH1234509876\",\r\n            \"MH9876541230\",\r\n            \"MH9876504321\"\r\n        ];\r\n        vendorIDList = [1, 2];\r\n        adminAddress = 0x1964F1519FF7ACAa5E6b2462070cB0d6817FbA4E;\r\n    }\r\n\r\n    function getConsumer(string memory _ration)\r\n        public\r\n        view\r\n        returns (AssetLibrary.Consumer memory)\r\n    {\r\n        return consumerList[_ration];\r\n    }\r\n\r\n    function getVendor(uint256 _id)\r\n        public\r\n        view\r\n        returns (AssetLibrary.Vendor memory)\r\n    {\r\n        return vendorList[_id];\r\n    }\r\n\r\n    function getAllConsumers() public view returns (string[] memory) {\r\n        // if (byVendor) {\r\n        //     string[] memory consumers;\r\n        //     uint256 count = 0;\r\n        //     for (uint256 i = 0; i < rationCardList.length; i++) {\r\n        //         if (consumerList[rationCardList[i]].vendor_id == _id) {\r\n        //             consumers[count] = rationCardList[i];\r\n        //             count++;\r\n        //         }\r\n        //     }\r\n        //     return consumers;\r\n        // }\r\n\r\n        return rationCardList;\r\n    }\r\n\r\n    function getAllVendors() public view returns (uint256[] memory) {\r\n        return vendorIDList;\r\n    }\r\n\r\n    function getAllowance(string memory _ration)\r\n        public\r\n        view\r\n        returns (\r\n            uint256,\r\n            uint256,\r\n            uint256,\r\n            uint256\r\n        )\r\n    {\r\n        uint256 rice = allowanceList[_ration][\"Rice\"];\r\n        uint256 wheat = allowanceList[_ration][\"Wheat\"];\r\n        uint256 sugar = allowanceList[_ration][\"Sugar\"];\r\n        uint256 kerosene = allowanceList[_ration][\"Kerosene\"];\r\n\r\n        return (rice, wheat, sugar, kerosene);\r\n    }\r\n\r\n    function getStock(uint256 _id)\r\n        public\r\n        view\r\n        returns (\r\n            uint256,\r\n            uint256,\r\n            uint256,\r\n            uint256\r\n        )\r\n    {\r\n        uint256 rice = stockList[_id][\"Rice\"];\r\n        uint256 wheat = stockList[_id][\"Wheat\"];\r\n        uint256 sugar = stockList[_id][\"Sugar\"];\r\n        uint256 kerosene = stockList[_id][\"Kerosene\"];\r\n\r\n        return (rice, wheat, sugar, kerosene);\r\n    }\r\n\r\n    // (ration, 2, [5, 10, 5, 2] )\r\n\r\n    function updateAllowance(\r\n        string memory _ration,\r\n        uint256 _vendorID,\r\n        uint256[] memory quantity_commodity,\r\n        string memory timestamp\r\n    ) public {\r\n        allowanceList[_ration][\"Rice\"] -= quantity_commodity[0];\r\n        allowanceList[_ration][\"Wheat\"] -= quantity_commodity[1];\r\n        allowanceList[_ration][\"Sugar\"] -= quantity_commodity[2];\r\n        allowanceList[_ration][\"Kerosene\"] -= quantity_commodity[3];\r\n\r\n        stockList[_vendorID][\"Rice\"] -= quantity_commodity[0];\r\n        stockList[_vendorID][\"Wheat\"] -= quantity_commodity[1];\r\n        stockList[_vendorID][\"Sugar\"] -= quantity_commodity[2];\r\n        stockList[_vendorID][\"Kerosene\"] -= quantity_commodity[3];\r\n\r\n        transactionList[_ration].push(\r\n            AssetLibrary.Transaction(\r\n                _ration,\r\n                _vendorID,\r\n                quantity_commodity,\r\n                timestamp\r\n            )\r\n        );\r\n    }\r\n\r\n    function getTransactions(string memory _ration)\r\n        public\r\n        view\r\n        returns (AssetLibrary.Transaction[] memory)\r\n    {\r\n        return transactionList[_ration];\r\n    }\r\n\r\n    function refillAllowance(string memory _ration) public {\r\n        if (consumerList[_ration].ration_card_type == 1) {\r\n            allowanceList[_ration][\"Rice\"] = 5;\r\n            allowanceList[_ration][\"Wheat\"] = 10;\r\n            allowanceList[_ration][\"Sugar\"] = 1;\r\n            allowanceList[_ration][\"Kerosene\"] = 5;\r\n        } else if (consumerList[_ration].ration_card_type == 2) {\r\n            allowanceList[_ration][\"Rice\"] = 10;\r\n            allowanceList[_ration][\"Wheat\"] = 15;\r\n            allowanceList[_ration][\"Sugar\"] = 2;\r\n            allowanceList[_ration][\"Kerosene\"] = 7;\r\n        } else {\r\n            allowanceList[_ration][\"Rice\"] = 12;\r\n            allowanceList[_ration][\"Wheat\"] = 17;\r\n            allowanceList[_ration][\"Sugar\"] = 3;\r\n            allowanceList[_ration][\"Kerosene\"] = 10;\r\n        }\r\n    }\r\n\r\n    function refillStock(uint256 _vendorID) public {\r\n        stockList[_vendorID][\"Rice\"] = 500;\r\n        stockList[_vendorID][\"Wheat\"] = 1000;\r\n        stockList[_vendorID][\"Sugar\"] = 500;\r\n        stockList[_vendorID][\"Kerosene\"] = 500;\r\n    }\r\n\r\n    function blacklist(uint256 _id) public {\r\n        vendorList[_id].isBlacklisted = !vendorList[_id].isBlacklisted;\r\n    }\r\n\r\n    function updateCardType(string memory _ration, uint256 card_type) public {\r\n        consumerList[_ration].ration_card_type = card_type;\r\n    }\r\n\r\n    function addConsumer(\r\n        string memory ration_card,\r\n        uint256 ration_card_type,\r\n        string memory first_name,\r\n        string memory last_name,\r\n        string memory phone,\r\n        string memory location,\r\n        uint256 vendor_id,\r\n        string memory password,\r\n        address wallet_addr\r\n    ) public {\r\n        AssetLibrary.Consumer memory consumer = AssetLibrary.Consumer(\r\n            ration_card,\r\n            ration_card_type,\r\n            first_name,\r\n            last_name,\r\n            phone,\r\n            location,\r\n            vendor_id,\r\n            password,\r\n            wallet_addr\r\n        );\r\n\r\n        consumerList[ration_card] = consumer;\r\n    }\r\n\r\n    function addVendor(\r\n        uint256 vendor_id,\r\n        string memory first_name,\r\n        string memory last_name,\r\n        string memory phone,\r\n        string memory location,\r\n        string memory password,\r\n        bool isBlacklisted,\r\n        address wallet_addr\r\n    ) public {\r\n        AssetLibrary.Vendor memory vendor = AssetLibrary.Vendor(\r\n            vendor_id,\r\n            first_name,\r\n            last_name,\r\n            phone,\r\n            location,\r\n            password,\r\n            isBlacklisted,\r\n            wallet_addr\r\n        );\r\n\r\n        vendorList[vendor_id] = vendor;\r\n    }\r\n\r\n    function addComplaint(\r\n        string memory ration_id,\r\n        uint256 vendor_id,\r\n        string memory complaint_content,\r\n        string memory time\r\n    ) public {\r\n        AssetLibrary.Complaint memory complaint = AssetLibrary.Complaint(\r\n            ration_id,\r\n            vendor_id,\r\n            complaint_content,\r\n            time\r\n        );\r\n\r\n        complaintList.push(complaint);\r\n    }\r\n\r\n    function getAllComplaints()\r\n        public\r\n        view\r\n        returns (AssetLibrary.Complaint[] memory)\r\n    {\r\n        return complaintList;\r\n    }\r\n}\r\n",
  "sourcePath": "C:\\Users\\Chaitanya\\Personal\\Sem 6\\Mini Project\\SaNaaj\\contracts\\Sanaaj.sol",
  "compiler": {
    "name": "solc",
    "version": "0.5.16+commit.9c3226ce.Emscripten.clang"
  },
  "schemaVersion": "3.4.6",
  "updatedAt": "2022-04-20T10:17:06.626Z",
  "networkType": "ethereum",
  "devdoc": {
    "methods": {}
  },
  "userdoc": {
    "methods": {}
  }
}