{
  "contractName": "Sanaaj",
  "abi": [
    {
      "inputs": [],
      "payable": false,
      "stateMutability": "nonpayable",
      "type": "constructor"
    },
    {
      "constant": true,
      "inputs": [
        {
          "internalType": "string",
          "name": "",
          "type": "string"
        },
        {
          "internalType": "string",
          "name": "",
          "type": "string"
        }
      ],
      "name": "allowanceList",
      "outputs": [
        {
          "internalType": "uint256",
          "name": "",
          "type": "uint256"
        }
      ],
      "payable": false,
      "stateMutability": "view",
      "type": "function"
    },
    {
      "constant": true,
      "inputs": [
        {
          "internalType": "string",
          "name": "",
          "type": "string"
        }
      ],
      "name": "consumerList",
      "outputs": [
        {
          "internalType": "string",
          "name": "ration_card",
          "type": "string"
        },
        {
          "internalType": "uint256",
          "name": "ration_card_type",
          "type": "uint256"
        },
        {
          "internalType": "string",
          "name": "first_name",
          "type": "string"
        },
        {
          "internalType": "string",
          "name": "last_name",
          "type": "string"
        },
        {
          "internalType": "string",
          "name": "phone",
          "type": "string"
        },
        {
          "internalType": "string",
          "name": "location",
          "type": "string"
        },
        {
          "internalType": "uint256",
          "name": "vendor_id",
          "type": "uint256"
        },
        {
          "internalType": "string",
          "name": "password",
          "type": "string"
        },
        {
          "internalType": "address",
          "name": "wallet_addr",
          "type": "address"
        }
      ],
      "payable": false,
      "stateMutability": "view",
      "type": "function"
    },
    {
      "constant": true,
      "inputs": [
        {
          "internalType": "uint256",
          "name": "",
          "type": "uint256"
        },
        {
          "internalType": "string",
          "name": "",
          "type": "string"
        }
      ],
      "name": "stockList",
      "outputs": [
        {
          "internalType": "uint256",
          "name": "",
          "type": "uint256"
        }
      ],
      "payable": false,
      "stateMutability": "view",
      "type": "function"
    },
    {
      "constant": true,
      "inputs": [
        {
          "internalType": "string",
          "name": "",
          "type": "string"
        },
        {
          "internalType": "uint256",
          "name": "",
          "type": "uint256"
        }
      ],
      "name": "transactionList",
      "outputs": [
        {
          "internalType": "string",
          "name": "consumer_ration_id",
          "type": "string"
        },
        {
          "internalType": "uint256",
          "name": "vendor_id",
          "type": "uint256"
        },
        {
          "internalType": "string",
          "name": "timestamp",
          "type": "string"
        }
      ],
      "payable": false,
      "stateMutability": "view",
      "type": "function"
    },
    {
      "constant": true,
      "inputs": [
        {
          "internalType": "uint256",
          "name": "",
          "type": "uint256"
        }
      ],
      "name": "vendorList",
      "outputs": [
        {
          "internalType": "uint256",
          "name": "vendor_id",
          "type": "uint256"
        },
        {
          "internalType": "string",
          "name": "first_name",
          "type": "string"
        },
        {
          "internalType": "string",
          "name": "last_name",
          "type": "string"
        },
        {
          "internalType": "string",
          "name": "phone",
          "type": "string"
        },
        {
          "internalType": "string",
          "name": "location",
          "type": "string"
        },
        {
          "internalType": "string",
          "name": "password",
          "type": "string"
        },
        {
          "internalType": "bool",
          "name": "isBlacklisted",
          "type": "bool"
        },
        {
          "internalType": "address",
          "name": "wallet_addr",
          "type": "address"
        }
      ],
      "payable": false,
      "stateMutability": "view",
      "type": "function"
    },
    {
      "constant": true,
      "inputs": [
        {
          "internalType": "string",
          "name": "_ration",
          "type": "string"
        }
      ],
      "name": "getConsumer",
      "outputs": [
        {
          "components": [
            {
              "internalType": "string",
              "name": "ration_card",
              "type": "string"
            },
            {
              "internalType": "uint256",
              "name": "ration_card_type",
              "type": "uint256"
            },
            {
              "internalType": "string",
              "name": "first_name",
              "type": "string"
            },
            {
              "internalType": "string",
              "name": "last_name",
              "type": "string"
            },
            {
              "internalType": "string",
              "name": "phone",
              "type": "string"
            },
            {
              "internalType": "string",
              "name": "location",
              "type": "string"
            },
            {
              "internalType": "uint256",
              "name": "vendor_id",
              "type": "uint256"
            },
            {
              "internalType": "string",
              "name": "password",
              "type": "string"
            },
            {
              "internalType": "address",
              "name": "wallet_addr",
              "type": "address"
            }
          ],
          "internalType": "struct AssetLibrary.Consumer",
          "name": "",
          "type": "tuple"
        }
      ],
      "payable": false,
      "stateMutability": "view",
      "type": "function"
    },
    {
      "constant": true,
      "inputs": [
        {
          "internalType": "uint256",
          "name": "_id",
          "type": "uint256"
        }
      ],
      "name": "getVendor",
      "outputs": [
        {
          "components": [
            {
              "internalType": "uint256",
              "name": "vendor_id",
              "type": "uint256"
            },
            {
              "internalType": "string",
              "name": "first_name",
              "type": "string"
            },
            {
              "internalType": "string",
              "name": "last_name",
              "type": "string"
            },
            {
              "internalType": "string",
              "name": "phone",
              "type": "string"
            },
            {
              "internalType": "string",
              "name": "location",
              "type": "string"
            },
            {
              "internalType": "string",
              "name": "password",
              "type": "string"
            },
            {
              "internalType": "bool",
              "name": "isBlacklisted",
              "type": "bool"
            },
            {
              "internalType": "address",
              "name": "wallet_addr",
              "type": "address"
            }
          ],
          "internalType": "struct AssetLibrary.Vendor",
          "name": "",
          "type": "tuple"
        }
      ],
      "payable": false,
      "stateMutability": "view",
      "type": "function"
    },
    {
      "constant": true,
      "inputs": [],
      "name": "getAllConsumers",
      "outputs": [
        {
          "internalType": "string[]",
          "name": "",
          "type": "string[]"
        }
      ],
      "payable": false,
      "stateMutability": "view",
      "type": "function"
    },
    {
      "constant": true,
      "inputs": [],
      "name": "getAllVendors",
      "outputs": [
        {
          "internalType": "uint256[]",
          "name": "",
          "type": "uint256[]"
        }
      ],
      "payable": false,
      "stateMutability": "view",
      "type": "function"
    },
    {
      "constant": true,
      "inputs": [
        {
          "internalType": "string",
          "name": "_ration",
          "type": "string"
        }
      ],
      "name": "getAllowance",
      "outputs": [
        {
          "internalType": "uint256",
          "name": "",
          "type": "uint256"
        },
        {
          "internalType": "uint256",
          "name": "",
          "type": "uint256"
        },
        {
          "internalType": "uint256",
          "name": "",
          "type": "uint256"
        },
        {
          "internalType": "uint256",
          "name": "",
          "type": "uint256"
        }
      ],
      "payable": false,
      "stateMutability": "view",
      "type": "function"
    },
    {
      "constant": true,
      "inputs": [
        {
          "internalType": "uint256",
          "name": "_id",
          "type": "uint256"
        }
      ],
      "name": "getStock",
      "outputs": [
        {
          "internalType": "uint256",
          "name": "",
          "type": "uint256"
        },
        {
          "internalType": "uint256",
          "name": "",
          "type": "uint256"
        },
        {
          "internalType": "uint256",
          "name": "",
          "type": "uint256"
        },
        {
          "internalType": "uint256",
          "name": "",
          "type": "uint256"
        }
      ],
      "payable": false,
      "stateMutability": "view",
      "type": "function"
    },
    {
      "constant": false,
      "inputs": [
        {
          "internalType": "string",
          "name": "_ration",
          "type": "string"
        },
        {
          "internalType": "uint256",
          "name": "_vendorID",
          "type": "uint256"
        },
        {
          "internalType": "uint256[]",
          "name": "quantity_commodity",
          "type": "uint256[]"
        },
        {
          "internalType": "string",
          "name": "timestamp",
          "type": "string"
        }
      ],
      "name": "updateAllowance",
      "outputs": [],
      "payable": false,
      "stateMutability": "nonpayable",
      "type": "function"
    },
    {
      "constant": true,
      "inputs": [
        {
          "internalType": "string",
          "name": "_ration",
          "type": "string"
        }
      ],
      "name": "getTransactions",
      "outputs": [
        {
          "components": [
            {
              "internalType": "string",
              "name": "consumer_ration_id",
              "type": "string"
            },
            {
              "internalType": "uint256",
              "name": "vendor_id",
              "type": "uint256"
            },
            {
              "internalType": "uint256[]",
              "name": "quantity",
              "type": "uint256[]"
            },
            {
              "internalType": "string",
              "name": "timestamp",
              "type": "string"
            }
          ],
          "internalType": "struct AssetLibrary.Transaction[]",
          "name": "",
          "type": "tuple[]"
        }
      ],
      "payable": false,
      "stateMutability": "view",
      "type": "function"
    },
    {
      "constant": false,
      "inputs": [
        {
          "internalType": "string",
          "name": "_ration",
          "type": "string"
        }
      ],
      "name": "refillAllowance",
      "outputs": [],
      "payable": false,
      "stateMutability": "nonpayable",
      "type": "function"
    },
    {
      "constant": false,
      "inputs": [
        {
          "internalType": "uint256",
          "name": "_vendorID",
          "type": "uint256"
        }
      ],
      "name": "refillStock",
      "outputs": [],
      "payable": false,
      "stateMutability": "nonpayable",
      "type": "function"
    },
    {
      "constant": false,
      "inputs": [
        {
          "internalType": "uint256",
          "name": "_id",
          "type": "uint256"
        }
      ],
      "name": "blacklist",
      "outputs": [],
      "payable": false,
      "stateMutability": "nonpayable",
      "type": "function"
    },
    {
      "constant": false,
      "inputs": [
        {
          "internalType": "string",
          "name": "_ration",
          "type": "string"
        },
        {
          "internalType": "uint256",
          "name": "card_type",
          "type": "uint256"
        }
      ],
      "name": "updateCardType",
      "outputs": [],
      "payable": false,
      "stateMutability": "nonpayable",
      "type": "function"
    }
  ],
  "bytecode": "0x60806040523480156200001157600080fd5b506040518061012001604052806040518060400160405280600c81526020017f4d483132333435363738393000000000000000000000000000000000000000008152508152602001600181526020016040518060400160405280600381526020017f52616d000000000000000000000000000000000000000000000000000000000081525081526020016040518060400160405280600881526020017f47686f727061646500000000000000000000000000000000000000000000000081525081526020016040518060400160405280600a81526020017f313233343536373839300000000000000000000000000000000000000000000081525081526020016040518060400160405280600681526020017f4d756d62616900000000000000000000000000000000000000000000000000008152508152602001600181526020016040518060400160405280600881526020017f48656c6c6f3132330000000000000000000000000000000000000000000000008152508152602001739345baf04a62f6a91d20aa08121a16eb39308b7073ffffffffffffffffffffffffffffffffffffffff168152506001604051620001cc9062001934565b90815260200160405180910390206000820151816000019080519060200190620001f8929190620015bb565b5060208201518160010155604082015181600201908051906020019062000221929190620015bb565b50606082015181600301908051906020019062000240929190620015bb565b5060808201518160040190805190602001906200025f929190620015bb565b5060a08201518160050190805190602001906200027e929190620015bb565b5060c0820151816006015560e0820151816007019080519060200190620002a7929190620015bb565b506101008201518160080160006101000a81548173ffffffffffffffffffffffffffffffffffffffff021916908373ffffffffffffffffffffffffffffffffffffffff1602179055509050506040518061012001604052806040518060400160405280600c81526020017f4d483132333435303938373600000000000000000000000000000000000000008152508152602001600281526020016040518060400160405280600581526020017f536879616d00000000000000000000000000000000000000000000000000000081525081526020016040518060400160405280600881526020017f47686f727061646500000000000000000000000000000000000000000000000081525081526020016040518060400160405280600a81526020017f313233343530393837360000000000000000000000000000000000000000000081525081526020016040518060400160405280600681526020017f4d756d62616900000000000000000000000000000000000000000000000000008152508152602001600181526020016040518060400160405280600981526020017f48656c6c6f313233340000000000000000000000000000000000000000000000815250815260200173b793c1d9c9d5050859864dbd321fc873e7942e5473ffffffffffffffffffffffffffffffffffffffff168152506001604051620004ad9062001962565b90815260200160405180910390206000820151816000019080519060200190620004d9929190620015bb565b5060208201518160010155604082015181600201908051906020019062000502929190620015bb565b50606082015181600301908051906020019062000521929190620015bb565b50608082015181600401908051906020019062000540929190620015bb565b5060a08201518160050190805190602001906200055f929190620015bb565b5060c0820151816006015560e082015181600701908051906020019062000588929190620015bb565b506101008201518160080160006101000a81548173ffffffffffffffffffffffffffffffffffffffff021916908373ffffffffffffffffffffffffffffffffffffffff1602179055509050506040518061012001604052806040518060400160405280600c81526020017f4d483132333435303938373600000000000000000000000000000000000000008152508152602001600281526020016040518060400160405280600a81526020017f4768616e61736879616d0000000000000000000000000000000000000000000081525081526020016040518060400160405280600981526020017f4465736870616e6465000000000000000000000000000000000000000000000081525081526020016040518060400160405280600a81526020017f313233343530393837360000000000000000000000000000000000000000000081525081526020016040518060400160405280600681526020017f4d756d62616900000000000000000000000000000000000000000000000000008152508152602001600181526020016040518060400160405280600981526020017f48656c6c6f313233350000000000000000000000000000000000000000000000815250815260200173b7c6562bf283534a775d5198195bfd8d47d2264773ffffffffffffffffffffffffffffffffffffffff1681525060016040516200078e9062001962565b90815260200160405180910390206000820151816000019080519060200190620007ba929190620015bb565b50602082015181600101556040820151816002019080519060200190620007e3929190620015bb565b50606082015181600301908051906020019062000802929190620015bb565b50608082015181600401908051906020019062000821929190620015bb565b5060a082015181600501908051906020019062000840929190620015bb565b5060c0820151816006015560e082015181600701908051906020019062000869929190620015bb565b506101008201518160080160006101000a81548173ffffffffffffffffffffffffffffffffffffffff021916908373ffffffffffffffffffffffffffffffffffffffff1602179055509050506040518061012001604052806040518060400160405280600c81526020017f4d483938373635343132333000000000000000000000000000000000000000008152508152602001600181526020016040518060400160405280600581526020017f446167647500000000000000000000000000000000000000000000000000000081525081526020016040518060400160405280600581526020017f506172616200000000000000000000000000000000000000000000000000000081525081526020016040518060400160405280600a81526020017f393837363534313233300000000000000000000000000000000000000000000081525081526020016040518060400160405280600681526020017f4d756d62616900000000000000000000000000000000000000000000000000008152508152602001600281526020016040518060400160405280600981526020017f48656c6c6f313233360000000000000000000000000000000000000000000000815250815260200173b6444a785bc6d27d3facb648dc0714c39f569b2473ffffffffffffffffffffffffffffffffffffffff16815250600160405162000a6f906200194b565b9081526020016040518091039020600082015181600001908051906020019062000a9b929190620015bb565b5060208201518160010155604082015181600201908051906020019062000ac4929190620015bb565b50606082015181600301908051906020019062000ae3929190620015bb565b50608082015181600401908051906020019062000b02929190620015bb565b5060a082015181600501908051906020019062000b21929190620015bb565b5060c0820151816006015560e082015181600701908051906020019062000b4a929190620015bb565b506101008201518160080160006101000a81548173ffffffffffffffffffffffffffffffffffffffff021916908373ffffffffffffffffffffffffffffffffffffffff1602179055509050506040518061012001604052806040518060400160405280600c81526020017f4d483938373635303433323100000000000000000000000000000000000000008152508152602001600381526020016040518060400160405280600381526020017f414243000000000000000000000000000000000000000000000000000000000081525081526020016040518060400160405280600381526020017f58595a000000000000000000000000000000000000000000000000000000000081525081526020016040518060400160405280600a81526020017f393837363530343332310000000000000000000000000000000000000000000081525081526020016040518060400160405280600681526020017f4d756d62616900000000000000000000000000000000000000000000000000008152508152602001600281526020016040518060400160405280600981526020017f48656c6c6f31323337000000000000000000000000000000000000000000000081525081526020017397b814cdcd7f542f413e2cfef8af97c6633fff3d73ffffffffffffffffffffffffffffffffffffffff16815250600160405162000d509062001979565b9081526020016040518091039020600082015181600001908051906020019062000d7c929190620015bb565b5060208201518160010155604082015181600201908051906020019062000da5929190620015bb565b50606082015181600301908051906020019062000dc4929190620015bb565b50608082015181600401908051906020019062000de3929190620015bb565b5060a082015181600501908051906020019062000e02929190620015bb565b5060c0820151816006015560e082015181600701908051906020019062000e2b929190620015bb565b506101008201518160080160006101000a81548173ffffffffffffffffffffffffffffffffffffffff021916908373ffffffffffffffffffffffffffffffffffffffff160217905550905050604051806101000160405280600181526020016040518060400160405280600881526020017f536964646865736800000000000000000000000000000000000000000000000081525081526020016040518060400160405280600581526020017f426167776500000000000000000000000000000000000000000000000000000081525081526020016040518060400160405280600a81526020017f313032393338343735360000000000000000000000000000000000000000000081525081526020016040518060400160405280600681526020017f4d756d626169000000000000000000000000000000000000000000000000000081525081526020016040518060400160405280600881526020017f68656c6c6f393837000000000000000000000000000000000000000000000000815250815260200160001515815260200173675a7359e0d96b9a25dca5d08e1f1ee85b9cd24f73ffffffffffffffffffffffffffffffffffffffff16815250600260006001815260200190815260200160002060008201518160000155602082015181600101908051906020019062001024929190620015bb565b50604082015181600201908051906020019062001043929190620015bb565b50606082015181600301908051906020019062001062929190620015bb565b50608082015181600401908051906020019062001081929190620015bb565b5060a0820151816005019080519060200190620010a0929190620015bb565b5060c08201518160060160006101000a81548160ff02191690831515021790555060e08201518160060160016101000a81548173ffffffffffffffffffffffffffffffffffffffff021916908373ffffffffffffffffffffffffffffffffffffffff160217905550905050604051806101000160405280600281526020016040518060400160405280600581526020017f506f6f6a6100000000000000000000000000000000000000000000000000000081525081526020016040518060400160405280600781526020017f4b61756c6775640000000000000000000000000000000000000000000000000081525081526020016040518060400160405280600a81526020017f393038373536343133320000000000000000000000000000000000000000000081525081526020016040518060400160405280600681526020017f4d756d626169000000000000000000000000000000000000000000000000000081525081526020016040518060400160405280600981526020017f68656c6c6f393837360000000000000000000000000000000000000000000000815250815260200160001515815260200173295b6ae0efe05de0011e9316e27b560ccdcd3ddb73ffffffffffffffffffffffffffffffffffffffff168152506002600060028152602001908152602001600020600082015181600001556020820151816001019080519060200190620012b8929190620015bb565b506040820151816002019080519060200190620012d7929190620015bb565b506060820151816003019080519060200190620012f6929190620015bb565b50608082015181600401908051906020019062001315929190620015bb565b5060a082015181600501908051906020019062001334929190620015bb565b5060c08201518160060160006101000a81548160ff02191690831515021790555060e08201518160060160016101000a81548173ffffffffffffffffffffffffffffffffffffffff021916908373ffffffffffffffffffffffffffffffffffffffff1602179055509050506040518060400160405280600981526020017f61646d696e31323334000000000000000000000000000000000000000000000081525060099080519060200190620013ec92919062001642565b506040518060a001604052806040518060400160405280600c81526020017f4d4831323334353637383930000000000000000000000000000000000000000081525081526020016040518060400160405280600c81526020017f4d4831323334353039383736000000000000000000000000000000000000000081525081526020016040518060400160405280600c81526020017f4d4831323334353039383736000000000000000000000000000000000000000081525081526020016040518060400160405280600c81526020017f4d4839383736353431323330000000000000000000000000000000000000000081525081526020016040518060400160405280600c81526020017f4d4839383736353034333231000000000000000000000000000000000000000081525081525060069060056200152f929190620016c9565b506040518060400160405280600160ff168152602001600260ff1681525060079060026200155f92919062001730565b50731964f1519ff7acaa5e6b2462070cb0d6817fba4e600860006101000a81548173ffffffffffffffffffffffffffffffffffffffff021916908373ffffffffffffffffffffffffffffffffffffffff1602179055506200199b565b828054600181600116156101000203166002900490600052602060002090601f016020900481019282601f10620015fe57805160ff19168380011785556200162f565b828001600101855582156200162f579182015b828111156200162e57825182559160200191906001019062001611565b5b5090506200163e919062001787565b5090565b828054600181600116156101000203166002900490600052602060002090601f016020900481019282601f106200168557805160ff1916838001178555620016b6565b82800160010185558215620016b6579182015b82811115620016b557825182559160200191906001019062001698565b5b509050620016c5919062001787565b5090565b8280548282559060005260206000209081019282156200171d579160200282015b828111156200171c5782518290805190602001906200170b929190620015bb565b5091602001919060010190620016ea565b5b5090506200172c9190620017af565b5090565b82805482825590600052602060002090810192821562001774579160200282015b8281111562001773578251829060ff1690559160200191906001019062001751565b5b50905062001783919062001787565b5090565b620017ac91905b80821115620017a85760008160009055506001016200178e565b5090565b90565b620017dd91905b80821115620017d95760008181620017cf9190620017e0565b50600101620017b6565b5090565b90565b50805460018160011615610100020316600290046000825580601f1062001808575062001829565b601f01602090049060005260206000209081019062001828919062001787565b5b50565b60006200183b600c8362001990565b91507f4d483132333435363738393000000000000000000000000000000000000000006000830152600c82019050919050565b60006200187d600c8362001990565b91507f4d483938373635343132333000000000000000000000000000000000000000006000830152600c82019050919050565b6000620018bf600c8362001990565b91507f4d483132333435303938373600000000000000000000000000000000000000006000830152600c82019050919050565b600062001901600c8362001990565b91507f4d483938373635303433323100000000000000000000000000000000000000006000830152600c82019050919050565b600062001941826200182c565b9150819050919050565b600062001958826200186e565b9150819050919050565b60006200196f82620018b0565b9150819050919050565b60006200198682620018f2565b9150819050919050565b600081905092915050565b6134a780620019ab6000396000f3fe608060405234801561001057600080fd5b506004361061010b5760003560e01c806353b676e7116100a25780637a763997116100715780637a763997146102f85780638409073414610314578063bff499f21461034b578063c2898c3c1461037b578063ff3dca65146103b35761010b565b806353b676e71461025e5780635e0b421e1461028e5780636453e876146102ac57806365de1eb3146102c85761010b565b806326ba9eed116100de57806326ba9eed146101c1578063364dfb74146101f15780633ab7d09a1461020f5780634ac3751c146102425761010b565b80630a8b4823146101105780630f2a09191461014357806313830e041461015f57806316fc083414610191575b600080fd5b61012a60048036036101259190810190612647565b6103cf565b60405161013a9493929190613199565b60405180910390f35b61015d60048036036101589190810190612847565b6104e0565b005b610179600480360361017491908101906127f3565b610535565b60405161018893929190612f9d565b60405180910390f35b6101ab60048036036101a69190810190612787565b6106bf565b6040516101b891906130dd565b60405180910390f35b6101db60048036036101d69190810190612647565b610710565b6040516101e89190613099565b60405180910390f35b6101f9610b7f565b6040516102069190612f37565b60405180910390f35b61022960048036036102249190810190612847565b610c68565b6040516102399493929190613199565b60405180910390f35b61025c600480360361025791908101906126dc565b610d4d565b005b61027860048036036102739190810190612647565b6110c5565b6040516102859190612f59565b60405180910390f35b6102966112e8565b6040516102a39190612f7b565b60405180910390f35b6102c660048036036102c19190810190612647565b611340565b005b6102e260048036036102dd9190810190612847565b611689565b6040516102ef91906130bb565b60405180910390f35b610312600480360361030d9190810190612847565b611a5c565b005b61032e60048036036103299190810190612847565b611b2f565b6040516103429897969594939291906130f8565b60405180910390f35b61036560048036036103609190810190612870565b611e9c565b60405161037291906130dd565b60405180910390f35b61039560048036036103909190810190612606565b611ed7565b6040516103aa99989796959493929190612fe2565b60405180910390f35b6103cd60048036036103c89190810190612688565b6122eb565b005b60008060008060006003866040516103e79190612ecc565b908152602001604051809103902060405161040190612ef8565b908152602001604051809103902054905060006003876040516104249190612ecc565b908152602001604051809103902060405161043e90612f22565b908152602001604051809103902054905060006003886040516104619190612ecc565b908152602001604051809103902060405161047b90612f0d565b9081526020016040518091039020549050600060038960405161049e9190612ecc565b90815260200160405180910390206040516104b890612ee3565b9081526020016040518091039020549050838383839750975097509750505050509193509193565b6002600082815260200190815260200160002060060160009054906101000a900460ff16156002600083815260200190815260200160002060060160006101000a81548160ff02191690831515021790555050565b600582805160208101820180518482526020830160208501208183528095505050505050818154811061056457fe5b906000526020600020906004020160009150915050806000018054600181600116156101000203166002900480601f0160208091040260200160405190810160405280929190818152602001828054600181600116156101000203166002900480156106115780601f106105e657610100808354040283529160200191610611565b820191906000526020600020905b8154815290600101906020018083116105f457829003601f168201915b505050505090806001015490806003018054600181600116156101000203166002900480601f0160208091040260200160405190810160405280929190818152602001828054600181600116156101000203166002900480156106b55780601f1061068a576101008083540402835291602001916106b5565b820191906000526020600020905b81548152906001019060200180831161069857829003601f168201915b5050505050905083565b60038280516020810182018051848252602083016020850120818352809550505050505081805160208101820180518482526020830160208501208183528095505050505050600091509150505481565b610718612315565b6001826040516107289190612ecc565b908152602001604051809103902060405180610120016040529081600082018054600181600116156101000203166002900480601f0160208091040260200160405190810160405280929190818152602001828054600181600116156101000203166002900480156107db5780601f106107b0576101008083540402835291602001916107db565b820191906000526020600020905b8154815290600101906020018083116107be57829003601f168201915b5050505050815260200160018201548152602001600282018054600181600116156101000203166002900480601f0160208091040260200160405190810160405280929190818152602001828054600181600116156101000203166002900480156108875780601f1061085c57610100808354040283529160200191610887565b820191906000526020600020905b81548152906001019060200180831161086a57829003601f168201915b50505050508152602001600382018054600181600116156101000203166002900480601f0160208091040260200160405190810160405280929190818152602001828054600181600116156101000203166002900480156109295780601f106108fe57610100808354040283529160200191610929565b820191906000526020600020905b81548152906001019060200180831161090c57829003601f168201915b50505050508152602001600482018054600181600116156101000203166002900480601f0160208091040260200160405190810160405280929190818152602001828054600181600116156101000203166002900480156109cb5780601f106109a0576101008083540402835291602001916109cb565b820191906000526020600020905b8154815290600101906020018083116109ae57829003601f168201915b50505050508152602001600582018054600181600116156101000203166002900480601f016020809104026020016040519081016040528092919081815260200182805460018160011615610100020316600290048015610a6d5780601f10610a4257610100808354040283529160200191610a6d565b820191906000526020600020905b815481529060010190602001808311610a5057829003601f168201915b5050505050815260200160068201548152602001600782018054600181600116156101000203166002900480601f016020809104026020016040519081016040528092919081815260200182805460018160011615610100020316600290048015610b195780601f10610aee57610100808354040283529160200191610b19565b820191906000526020600020905b815481529060010190602001808311610afc57829003601f168201915b505050505081526020016008820160009054906101000a900473ffffffffffffffffffffffffffffffffffffffff1673ffffffffffffffffffffffffffffffffffffffff1673ffffffffffffffffffffffffffffffffffffffff16815250509050919050565b60606006805480602002602001604051908101604052809291908181526020016000905b82821015610c5f578382906000526020600020018054600181600116156101000203166002900480601f016020809104026020016040519081016040528092919081815260200182805460018160011615610100020316600290048015610c4b5780601f10610c2057610100808354040283529160200191610c4b565b820191906000526020600020905b815481529060010190602001808311610c2e57829003601f168201915b505050505081526020019060010190610ba3565b50505050905090565b600080600080600060046000878152602001908152602001600020604051610c8f90612ef8565b9081526020016040518091039020549050600060046000888152602001908152602001600020604051610cc190612f22565b9081526020016040518091039020549050600060046000898152602001908152602001600020604051610cf390612f0d565b90815260200160405180910390205490506000600460008a8152602001908152602001600020604051610d2590612ee3565b9081526020016040518091039020549050838383839750975097509750505050509193509193565b81600081518110610d5a57fe5b6020026020010151600385604051610d729190612ecc565b9081526020016040518091039020604051610d8c90612ef8565b90815260200160405180910390206000828254039250508190555081600181518110610db457fe5b6020026020010151600385604051610dcc9190612ecc565b9081526020016040518091039020604051610de690612f22565b90815260200160405180910390206000828254039250508190555081600281518110610e0e57fe5b6020026020010151600385604051610e269190612ecc565b9081526020016040518091039020604051610e4090612f0d565b90815260200160405180910390206000828254039250508190555081600381518110610e6857fe5b6020026020010151600385604051610e809190612ecc565b9081526020016040518091039020604051610e9a90612ee3565b90815260200160405180910390206000828254039250508190555081600081518110610ec257fe5b602002602001015160046000858152602001908152602001600020604051610ee990612ef8565b90815260200160405180910390206000828254039250508190555081600181518110610f1157fe5b602002602001015160046000858152602001908152602001600020604051610f3890612f22565b90815260200160405180910390206000828254039250508190555081600281518110610f6057fe5b602002602001015160046000858152602001908152602001600020604051610f8790612f0d565b90815260200160405180910390206000828254039250508190555081600381518110610faf57fe5b602002602001015160046000858152602001908152602001600020604051610fd690612ee3565b9081526020016040518091039020600082825403925050819055506005846040516110019190612ecc565b9081526020016040518091039020604051806080016040528086815260200185815260200184815260200183815250908060018154018082558091505090600182039060005260206000209060040201600090919290919091506000820151816000019080519060200190611077929190612377565b5060208201518160010155604082015181600201908051906020019061109e9291906123f7565b5060608201518160030190805190602001906110bb929190612377565b5050505050505050565b60606005826040516110d79190612ecc565b9081526020016040518091039020805480602002602001604051908101604052809291908181526020016000905b828210156112dd5783829060005260206000209060040201604051806080016040529081600082018054600181600116156101000203166002900480601f0160208091040260200160405190810160405280929190818152602001828054600181600116156101000203166002900480156111c15780601f10611196576101008083540402835291602001916111c1565b820191906000526020600020905b8154815290600101906020018083116111a457829003601f168201915b50505050508152602001600182015481526020016002820180548060200260200160405190810160405280929190818152602001828054801561122357602002820191906000526020600020905b81548152602001906001019080831161120f575b50505050508152602001600382018054600181600116156101000203166002900480601f0160208091040260200160405190810160405280929190818152602001828054600181600116156101000203166002900480156112c55780601f1061129a576101008083540402835291602001916112c5565b820191906000526020600020905b8154815290600101906020018083116112a857829003601f168201915b50505050508152505081526020019060010190611105565b505050509050919050565b6060600780548060200260200160405190810160405280929190818152602001828054801561133657602002820191906000526020600020905b815481526020019060010190808311611322575b5050505050905090565b600180826040516113519190612ecc565b908152602001604051809103902060010154141561146657600560038260405161137b9190612ecc565b908152602001604051809103902060405161139590612ef8565b908152602001604051809103902081905550600a6003826040516113b99190612ecc565b90815260200160405180910390206040516113d390612f22565b90815260200160405180910390208190555060016003826040516113f79190612ecc565b908152602001604051809103902060405161141190612f0d565b90815260200160405180910390208190555060056003826040516114359190612ecc565b908152602001604051809103902060405161144f90612ee3565b908152602001604051809103902081905550611686565b60026001826040516114789190612ecc565b908152602001604051809103902060010154141561158d57600a6003826040516114a29190612ecc565b90815260200160405180910390206040516114bc90612ef8565b908152602001604051809103902081905550600f6003826040516114e09190612ecc565b90815260200160405180910390206040516114fa90612f22565b908152602001604051809103902081905550600260038260405161151e9190612ecc565b908152602001604051809103902060405161153890612f0d565b908152602001604051809103902081905550600760038260405161155c9190612ecc565b908152602001604051809103902060405161157690612ee3565b908152602001604051809103902081905550611685565b600c60038260405161159f9190612ecc565b90815260200160405180910390206040516115b990612ef8565b90815260200160405180910390208190555060116003826040516115dd9190612ecc565b90815260200160405180910390206040516115f790612f22565b9081526020016040518091039020819055506003808260405161161a9190612ecc565b908152602001604051809103902060405161163490612f0d565b908152602001604051809103902081905550600a6003826040516116589190612ecc565b908152602001604051809103902060405161167290612ee3565b9081526020016040518091039020819055505b5b50565b611691612444565b600260008381526020019081526020016000206040518061010001604052908160008201548152602001600182018054600181600116156101000203166002900480601f0160208091040260200160405190810160405280929190818152602001828054600181600116156101000203166002900480156117535780601f1061172857610100808354040283529160200191611753565b820191906000526020600020905b81548152906001019060200180831161173657829003601f168201915b50505050508152602001600282018054600181600116156101000203166002900480601f0160208091040260200160405190810160405280929190818152602001828054600181600116156101000203166002900480156117f55780601f106117ca576101008083540402835291602001916117f5565b820191906000526020600020905b8154815290600101906020018083116117d857829003601f168201915b50505050508152602001600382018054600181600116156101000203166002900480601f0160208091040260200160405190810160405280929190818152602001828054600181600116156101000203166002900480156118975780601f1061186c57610100808354040283529160200191611897565b820191906000526020600020905b81548152906001019060200180831161187a57829003601f168201915b50505050508152602001600482018054600181600116156101000203166002900480601f0160208091040260200160405190810160405280929190818152602001828054600181600116156101000203166002900480156119395780601f1061190e57610100808354040283529160200191611939565b820191906000526020600020905b81548152906001019060200180831161191c57829003601f168201915b50505050508152602001600582018054600181600116156101000203166002900480601f0160208091040260200160405190810160405280929190818152602001828054600181600116156101000203166002900480156119db5780601f106119b0576101008083540402835291602001916119db565b820191906000526020600020905b8154815290600101906020018083116119be57829003601f168201915b505050505081526020016006820160009054906101000a900460ff161515151581526020016006820160019054906101000a900473ffffffffffffffffffffffffffffffffffffffff1673ffffffffffffffffffffffffffffffffffffffff1673ffffffffffffffffffffffffffffffffffffffff16815250509050919050565b6101f460046000838152602001908152602001600020604051611a7e90612ef8565b9081526020016040518091039020819055506103e860046000838152602001908152602001600020604051611ab290612f22565b9081526020016040518091039020819055506101f460046000838152602001908152602001600020604051611ae690612f0d565b9081526020016040518091039020819055506101f460046000838152602001908152602001600020604051611b1a90612ee3565b90815260200160405180910390208190555050565b6002602052806000526040600020600091509050806000015490806001018054600181600116156101000203166002900480601f016020809104026020016040519081016040528092919081815260200182805460018160011615610100020316600290048015611be15780601f10611bb657610100808354040283529160200191611be1565b820191906000526020600020905b815481529060010190602001808311611bc457829003601f168201915b505050505090806002018054600181600116156101000203166002900480601f016020809104026020016040519081016040528092919081815260200182805460018160011615610100020316600290048015611c7f5780601f10611c5457610100808354040283529160200191611c7f565b820191906000526020600020905b815481529060010190602001808311611c6257829003601f168201915b505050505090806003018054600181600116156101000203166002900480601f016020809104026020016040519081016040528092919081815260200182805460018160011615610100020316600290048015611d1d5780601f10611cf257610100808354040283529160200191611d1d565b820191906000526020600020905b815481529060010190602001808311611d0057829003601f168201915b505050505090806004018054600181600116156101000203166002900480601f016020809104026020016040519081016040528092919081815260200182805460018160011615610100020316600290048015611dbb5780601f10611d9057610100808354040283529160200191611dbb565b820191906000526020600020905b815481529060010190602001808311611d9e57829003601f168201915b505050505090806005018054600181600116156101000203166002900480601f016020809104026020016040519081016040528092919081815260200182805460018160011615610100020316600290048015611e595780601f10611e2e57610100808354040283529160200191611e59565b820191906000526020600020905b815481529060010190602001808311611e3c57829003601f168201915b5050505050908060060160009054906101000a900460ff16908060060160019054906101000a900473ffffffffffffffffffffffffffffffffffffffff16905088565b600460205281600052604060002081805160208101820180518482526020830160208501208183528095505050505050600091509150505481565b600181805160208101820180518482526020830160208501208183528095505050505050600091509050806000018054600181600116156101000203166002900480601f016020809104026020016040519081016040528092919081815260200182805460018160011615610100020316600290048015611f995780601f10611f6e57610100808354040283529160200191611f99565b820191906000526020600020905b815481529060010190602001808311611f7c57829003601f168201915b505050505090806001015490806002018054600181600116156101000203166002900480601f01602080910402602001604051908101604052809291908181526020018280546001816001161561010002031660029004801561203d5780601f106120125761010080835404028352916020019161203d565b820191906000526020600020905b81548152906001019060200180831161202057829003601f168201915b505050505090806003018054600181600116156101000203166002900480601f0160208091040260200160405190810160405280929190818152602001828054600181600116156101000203166002900480156120db5780601f106120b0576101008083540402835291602001916120db565b820191906000526020600020905b8154815290600101906020018083116120be57829003601f168201915b505050505090806004018054600181600116156101000203166002900480601f0160208091040260200160405190810160405280929190818152602001828054600181600116156101000203166002900480156121795780601f1061214e57610100808354040283529160200191612179565b820191906000526020600020905b81548152906001019060200180831161215c57829003601f168201915b505050505090806005018054600181600116156101000203166002900480601f0160208091040260200160405190810160405280929190818152602001828054600181600116156101000203166002900480156122175780601f106121ec57610100808354040283529160200191612217565b820191906000526020600020905b8154815290600101906020018083116121fa57829003601f168201915b505050505090806006015490806007018054600181600116156101000203166002900480601f0160208091040260200160405190810160405280929190818152602001828054600181600116156101000203166002900480156122bb5780601f10612290576101008083540402835291602001916122bb565b820191906000526020600020905b81548152906001019060200180831161229e57829003601f168201915b5050505050908060080160009054906101000a900473ffffffffffffffffffffffffffffffffffffffff16905089565b806001836040516122fc9190612ecc565b9081526020016040518091039020600101819055505050565b6040518061012001604052806060815260200160008152602001606081526020016060815260200160608152602001606081526020016000815260200160608152602001600073ffffffffffffffffffffffffffffffffffffffff1681525090565b828054600181600116156101000203166002900490600052602060002090601f016020900481019282601f106123b857805160ff19168380011785556123e6565b828001600101855582156123e6579182015b828111156123e55782518255916020019190600101906123ca565b5b5090506123f391906124a1565b5090565b828054828255906000526020600020908101928215612433579160200282015b82811115612432578251825591602001919060010190612417565b5b50905061244091906124a1565b5090565b604051806101000160405280600081526020016060815260200160608152602001606081526020016060815260200160608152602001600015158152602001600073ffffffffffffffffffffffffffffffffffffffff1681525090565b6124c391905b808211156124bf5760008160009055506001016124a7565b5090565b90565b600082601f8301126124d757600080fd5b81356124ea6124e58261320b565b6131de565b9150818183526020840193506020810190508385602084028201111561250f57600080fd5b60005b8381101561253f578161252588826125f1565b845260208401935060208301925050600181019050612512565b5050505092915050565b600082601f83011261255a57600080fd5b813561256d61256882613233565b6131de565b9150808252602083016020830185838301111561258957600080fd5b6125948382846133fa565b50505092915050565b600082601f8301126125ae57600080fd5b81356125c16125bc8261325f565b6131de565b915080825260208301602083018583830111156125dd57600080fd5b6125e88382846133fa565b50505092915050565b6000813590506126008161344d565b92915050565b60006020828403121561261857600080fd5b600082013567ffffffffffffffff81111561263257600080fd5b61263e84828501612549565b91505092915050565b60006020828403121561265957600080fd5b600082013567ffffffffffffffff81111561267357600080fd5b61267f8482850161259d565b91505092915050565b6000806040838503121561269b57600080fd5b600083013567ffffffffffffffff8111156126b557600080fd5b6126c18582860161259d565b92505060206126d2858286016125f1565b9150509250929050565b600080600080608085870312156126f257600080fd5b600085013567ffffffffffffffff81111561270c57600080fd5b6127188782880161259d565b9450506020612729878288016125f1565b935050604085013567ffffffffffffffff81111561274657600080fd5b612752878288016124c6565b925050606085013567ffffffffffffffff81111561276f57600080fd5b61277b8782880161259d565b91505092959194509250565b6000806040838503121561279a57600080fd5b600083013567ffffffffffffffff8111156127b457600080fd5b6127c085828601612549565b925050602083013567ffffffffffffffff8111156127dd57600080fd5b6127e985828601612549565b9150509250929050565b6000806040838503121561280657600080fd5b600083013567ffffffffffffffff81111561282057600080fd5b61282c85828601612549565b925050602061283d858286016125f1565b9150509250929050565b60006020828403121561285957600080fd5b6000612867848285016125f1565b91505092915050565b6000806040838503121561288357600080fd5b6000612891858286016125f1565b925050602083013567ffffffffffffffff8111156128ae57600080fd5b6128ba85828601612549565b9150509250929050565b60006128d08383612b17565b905092915050565b60006128e48383612d71565b905092915050565b60006128f88383612eae565b60208301905092915050565b61290d816133b2565b82525050565b61291c816133b2565b82525050565b600061292d826132cb565b6129378185613341565b9350836020820285016129498561328b565b8060005b85811015612985578484038952815161296685826128c4565b94506129718361330d565b925060208a0199505060018101905061294d565b50829750879550505050505092915050565b60006129a2826132d6565b6129ac8185613352565b9350836020820285016129be8561329b565b8060005b858110156129fa57848403895281516129db85826128d8565b94506129e68361331a565b925060208a019950506001810190506129c2565b50829750879550505050505092915050565b6000612a17826132ec565b612a218185613374565b9350612a2c836132bb565b8060005b83811015612a5d578151612a4488826128ec565b9750612a4f83613334565b925050600181019050612a30565b5085935050505092915050565b6000612a75826132e1565b612a7f8185613363565b9350612a8a836132ab565b8060005b83811015612abb578151612aa288826128ec565b9750612aad83613327565b925050600181019050612a8e565b5085935050505092915050565b612ad1816133c4565b82525050565b612ae0816133c4565b82525050565b6000612af182613302565b612afb81856133a7565b9350612b0b818560208601613409565b80840191505092915050565b6000612b22826132f7565b612b2c8185613385565b9350612b3c818560208601613409565b612b458161343c565b840191505092915050565b6000612b5b826132f7565b612b658185613396565b9350612b75818560208601613409565b612b7e8161343c565b840191505092915050565b6000612b966008836133a7565b91507f4b65726f73656e650000000000000000000000000000000000000000000000006000830152600882019050919050565b6000612bd66004836133a7565b91507f52696365000000000000000000000000000000000000000000000000000000006000830152600482019050919050565b6000612c166005836133a7565b91507f53756761720000000000000000000000000000000000000000000000000000006000830152600582019050919050565b6000612c566005836133a7565b91507f57686561740000000000000000000000000000000000000000000000000000006000830152600582019050919050565b6000610120830160008301518482036000860152612ca78282612b17565b9150506020830151612cbc6020860182612eae565b5060408301518482036040860152612cd48282612b17565b91505060608301518482036060860152612cee8282612b17565b91505060808301518482036080860152612d088282612b17565b91505060a083015184820360a0860152612d228282612b17565b91505060c0830151612d3760c0860182612eae565b5060e083015184820360e0860152612d4f8282612b17565b915050610100830151612d66610100860182612904565b508091505092915050565b60006080830160008301518482036000860152612d8e8282612b17565b9150506020830151612da36020860182612eae565b5060408301518482036040860152612dbb8282612a6a565b91505060608301518482036060860152612dd58282612b17565b9150508091505092915050565b600061010083016000830151612dfb6000860182612eae565b5060208301518482036020860152612e138282612b17565b91505060408301518482036040860152612e2d8282612b17565b91505060608301518482036060860152612e478282612b17565b91505060808301518482036080860152612e618282612b17565b91505060a083015184820360a0860152612e7b8282612b17565b91505060c0830151612e9060c0860182612ac8565b5060e0830151612ea360e0860182612904565b508091505092915050565b612eb7816133f0565b82525050565b612ec6816133f0565b82525050565b6000612ed88284612ae6565b915081905092915050565b6000612eee82612b89565b9150819050919050565b6000612f0382612bc9565b9150819050919050565b6000612f1882612c09565b9150819050919050565b6000612f2d82612c49565b9150819050919050565b60006020820190508181036000830152612f518184612922565b905092915050565b60006020820190508181036000830152612f738184612997565b905092915050565b60006020820190508181036000830152612f958184612a0c565b905092915050565b60006060820190508181036000830152612fb78186612b50565b9050612fc66020830185612ebd565b8181036040830152612fd88184612b50565b9050949350505050565b6000610120820190508181036000830152612ffd818c612b50565b905061300c602083018b612ebd565b818103604083015261301e818a612b50565b905081810360608301526130328189612b50565b905081810360808301526130468188612b50565b905081810360a083015261305a8187612b50565b905061306960c0830186612ebd565b81810360e083015261307b8185612b50565b905061308b610100830184612913565b9a9950505050505050505050565b600060208201905081810360008301526130b38184612c89565b905092915050565b600060208201905081810360008301526130d58184612de2565b905092915050565b60006020820190506130f26000830184612ebd565b92915050565b60006101008201905061310e600083018b612ebd565b8181036020830152613120818a612b50565b905081810360408301526131348189612b50565b905081810360608301526131488188612b50565b9050818103608083015261315c8187612b50565b905081810360a08301526131708186612b50565b905061317f60c0830185612ad7565b61318c60e0830184612913565b9998505050505050505050565b60006080820190506131ae6000830187612ebd565b6131bb6020830186612ebd565b6131c86040830185612ebd565b6131d56060830184612ebd565b95945050505050565b6000604051905081810181811067ffffffffffffffff8211171561320157600080fd5b8060405250919050565b600067ffffffffffffffff82111561322257600080fd5b602082029050602081019050919050565b600067ffffffffffffffff82111561324a57600080fd5b601f19601f8301169050602081019050919050565b600067ffffffffffffffff82111561327657600080fd5b601f19601f8301169050602081019050919050565b6000819050602082019050919050565b6000819050602082019050919050565b6000819050602082019050919050565b6000819050602082019050919050565b600081519050919050565b600081519050919050565b600081519050919050565b600081519050919050565b600081519050919050565b600081519050919050565b6000602082019050919050565b6000602082019050919050565b6000602082019050919050565b6000602082019050919050565b600082825260208201905092915050565b600082825260208201905092915050565b600082825260208201905092915050565b600082825260208201905092915050565b600082825260208201905092915050565b600082825260208201905092915050565b600081905092915050565b60006133bd826133d0565b9050919050565b60008115159050919050565b600073ffffffffffffffffffffffffffffffffffffffff82169050919050565b6000819050919050565b82818337600083830152505050565b60005b8381101561342757808201518184015260208101905061340c565b83811115613436576000848401525b50505050565b6000601f19601f8301169050919050565b613456816133f0565b811461346157600080fd5b5056fea365627a7a72315820cae4c91918cf59490f58e214e2cd26a85ebd541948631027c4dfad3c5742814e6c6578706572696d656e74616cf564736f6c63430005100040",
  "source": "// SPDX-License-Identifier: MIT\r\npragma solidity >=0.4.21 <8.10.0;\r\npragma experimental ABIEncoderV2;\r\n\r\n// Saffron -- 1, white - 2, yellow -3\r\n// Rice - 4kg, sugar - 0.5kg, wheat - 10kg\r\n\r\nlibrary AssetLibrary {\r\n    struct Consumer {\r\n        string ration_card;\r\n        uint256 ration_card_type;\r\n        string first_name;\r\n        string last_name;\r\n        string phone;\r\n        string location;\r\n        uint256 vendor_id;\r\n        string password;\r\n        address wallet_addr;\r\n    }\r\n\r\n    struct Vendor {\r\n        uint256 vendor_id;\r\n        string first_name;\r\n        string last_name;\r\n        string phone;\r\n        string location;\r\n        string password;\r\n        bool isBlacklisted;\r\n        address wallet_addr;\r\n    }\r\n\r\n    struct Transaction {\r\n        string consumer_ration_id;\r\n        uint256 vendor_id;\r\n        uint256[] quantity;\r\n        string timestamp;\r\n    }\r\n}\r\n\r\ncontract Sanaaj {\r\n    uint256 transactionCount;\r\n    mapping(string => AssetLibrary.Consumer) public consumerList;\r\n    mapping(uint256 => AssetLibrary.Vendor) public vendorList;\r\n    mapping(string => mapping(string => uint256)) public allowanceList;\r\n    mapping(uint256 => mapping(string => uint256)) public stockList;\r\n    mapping(string => AssetLibrary.Transaction[]) public transactionList;\r\n    string[] rationCardList;\r\n    uint256[] vendorIDList;\r\n    address adminAddress;\r\n    string adminPassword;\r\n\r\n    constructor() public {\r\n        consumerList[\"MH1234567890\"] = AssetLibrary.Consumer(\r\n            \"MH1234567890\",\r\n            1,\r\n            \"Ram\",\r\n            \"Ghorpade\",\r\n            \"1234567890\",\r\n            \"Mumbai\",\r\n            1,\r\n            \"Hello123\",\r\n            0x9345BaF04A62F6A91d20aa08121a16eB39308b70\r\n        );\r\n        consumerList[\"MH1234509876\"] = AssetLibrary.Consumer(\r\n            \"MH1234509876\",\r\n            2,\r\n            \"Shyam\",\r\n            \"Ghorpade\",\r\n            \"1234509876\",\r\n            \"Mumbai\",\r\n            1,\r\n            \"Hello1234\",\r\n            0xB793c1d9c9D5050859864DbD321Fc873e7942e54\r\n        );\r\n        consumerList[\"MH1234509876\"] = AssetLibrary.Consumer(\r\n            \"MH1234509876\",\r\n            2,\r\n            \"Ghanashyam\",\r\n            \"Deshpande\",\r\n            \"1234509876\",\r\n            \"Mumbai\",\r\n            1,\r\n            \"Hello1235\",\r\n            0xb7C6562BF283534A775d5198195bfD8d47D22647\r\n        );\r\n        consumerList[\"MH9876541230\"] = AssetLibrary.Consumer(\r\n            \"MH9876541230\",\r\n            1,\r\n            \"Dagdu\",\r\n            \"Parab\",\r\n            \"9876541230\",\r\n            \"Mumbai\",\r\n            2,\r\n            \"Hello1236\",\r\n            0xb6444A785Bc6d27d3fAcb648dc0714C39F569B24\r\n        );\r\n        consumerList[\"MH9876504321\"] = AssetLibrary.Consumer(\r\n            \"MH9876504321\",\r\n            3,\r\n            \"ABC\",\r\n            \"XYZ\",\r\n            \"9876504321\",\r\n            \"Mumbai\",\r\n            2,\r\n            \"Hello1237\",\r\n            0x97b814cdcD7F542f413E2CFef8AF97c6633ffF3D\r\n        );\r\n\r\n        vendorList[1] = AssetLibrary.Vendor(\r\n            1,\r\n            \"Siddhesh\",\r\n            \"Bagwe\",\r\n            \"1029384756\",\r\n            \"Mumbai\",\r\n            \"hello987\",\r\n            false,\r\n            0x675A7359e0d96b9A25DCA5d08e1f1Ee85B9cD24f\r\n        );\r\n        vendorList[2] = AssetLibrary.Vendor(\r\n            2,\r\n            \"Pooja\",\r\n            \"Kaulgud\",\r\n            \"9087564132\",\r\n            \"Mumbai\",\r\n            \"hello9876\",\r\n            false,\r\n            0x295b6AE0Efe05de0011E9316E27B560cCdCD3DDb\r\n        );\r\n\r\n        adminPassword = \"admin1234\";\r\n        rationCardList = [\r\n            \"MH1234567890\",\r\n            \"MH1234509876\",\r\n            \"MH1234509876\",\r\n            \"MH9876541230\",\r\n            \"MH9876504321\"\r\n        ];\r\n        vendorIDList = [1, 2];\r\n        adminAddress = 0x1964F1519FF7ACAa5E6b2462070cB0d6817FbA4E;\r\n    }\r\n\r\n    function getConsumer(string memory _ration)\r\n        public\r\n        view\r\n        returns (AssetLibrary.Consumer memory)\r\n    {\r\n        return consumerList[_ration];\r\n    }\r\n\r\n    function getVendor(uint256 _id)\r\n        public\r\n        view\r\n        returns (AssetLibrary.Vendor memory)\r\n    {\r\n        return vendorList[_id];\r\n    }\r\n\r\n    function getAllConsumers() public view returns (string[] memory) {\r\n        // if (byVendor) {\r\n        //     string[] memory consumers;\r\n        //     uint256 count = 0;\r\n        //     for (uint256 i = 0; i < rationCardList.length; i++) {\r\n        //         if (consumerList[rationCardList[i]].vendor_id == _id) {\r\n        //             consumers[count] = rationCardList[i];\r\n        //             count++;\r\n        //         }\r\n        //     }\r\n        //     return consumers;\r\n        // }\r\n\r\n        return rationCardList;\r\n    }\r\n\r\n    function getAllVendors() public view returns (uint256[] memory) {\r\n        return vendorIDList;\r\n    }\r\n\r\n    function getAllowance(string memory _ration)\r\n        public\r\n        view\r\n        returns (\r\n            uint256,\r\n            uint256,\r\n            uint256,\r\n            uint256\r\n        )\r\n    {\r\n        uint256 rice = allowanceList[_ration][\"Rice\"];\r\n        uint256 wheat = allowanceList[_ration][\"Wheat\"];\r\n        uint256 sugar = allowanceList[_ration][\"Sugar\"];\r\n        uint256 kerosene = allowanceList[_ration][\"Kerosene\"];\r\n\r\n        return (rice, wheat, sugar, kerosene);\r\n    }\r\n\r\n    function getStock(uint256 _id)\r\n        public\r\n        view\r\n        returns (\r\n            uint256,\r\n            uint256,\r\n            uint256,\r\n            uint256\r\n        )\r\n    {\r\n        uint256 rice = stockList[_id][\"Rice\"];\r\n        uint256 wheat = stockList[_id][\"Wheat\"];\r\n        uint256 sugar = stockList[_id][\"Sugar\"];\r\n        uint256 kerosene = stockList[_id][\"Kerosene\"];\r\n\r\n        return (rice, wheat, sugar, kerosene);\r\n    }\r\n\r\n    // (ration, 2, [5, 10, 5, 2] )\r\n\r\n    function updateAllowance(\r\n        string memory _ration,\r\n        uint256 _vendorID,\r\n        uint256[] memory quantity_commodity,\r\n        string memory timestamp\r\n    ) public {\r\n        allowanceList[_ration][\"Rice\"] -= quantity_commodity[0];\r\n        allowanceList[_ration][\"Wheat\"] -= quantity_commodity[1];\r\n        allowanceList[_ration][\"Sugar\"] -= quantity_commodity[2];\r\n        allowanceList[_ration][\"Kerosene\"] -= quantity_commodity[3];\r\n\r\n        stockList[_vendorID][\"Rice\"] -= quantity_commodity[0];\r\n        stockList[_vendorID][\"Wheat\"] -= quantity_commodity[1];\r\n        stockList[_vendorID][\"Sugar\"] -= quantity_commodity[2];\r\n        stockList[_vendorID][\"Kerosene\"] -= quantity_commodity[3];\r\n\r\n        transactionList[_ration].push(\r\n            AssetLibrary.Transaction(\r\n                _ration,\r\n                _vendorID,\r\n                quantity_commodity,\r\n                timestamp\r\n            )\r\n        );\r\n    }\r\n\r\n    function getTransactions(string memory _ration)\r\n        public\r\n        view\r\n        returns (AssetLibrary.Transaction[] memory)\r\n    {\r\n        return transactionList[_ration];\r\n    }\r\n\r\n    function refillAllowance(string memory _ration) public {\r\n        if (consumerList[_ration].ration_card_type == 1) {\r\n            allowanceList[_ration][\"Rice\"] = 5;\r\n            allowanceList[_ration][\"Wheat\"] = 10;\r\n            allowanceList[_ration][\"Sugar\"] = 1;\r\n            allowanceList[_ration][\"Kerosene\"] = 5;\r\n        } else if (consumerList[_ration].ration_card_type == 2) {\r\n            allowanceList[_ration][\"Rice\"] = 10;\r\n            allowanceList[_ration][\"Wheat\"] = 15;\r\n            allowanceList[_ration][\"Sugar\"] = 2;\r\n            allowanceList[_ration][\"Kerosene\"] = 7;\r\n        } else {\r\n            allowanceList[_ration][\"Rice\"] = 12;\r\n            allowanceList[_ration][\"Wheat\"] = 17;\r\n            allowanceList[_ration][\"Sugar\"] = 3;\r\n            allowanceList[_ration][\"Kerosene\"] = 10;\r\n        }\r\n    }\r\n\r\n    function refillStock(uint256 _vendorID) public {\r\n        stockList[_vendorID][\"Rice\"] = 500;\r\n        stockList[_vendorID][\"Wheat\"] = 1000;\r\n        stockList[_vendorID][\"Sugar\"] = 500;\r\n        stockList[_vendorID][\"Kerosene\"] = 500;\r\n    }\r\n\r\n    function blacklist(uint256 _id) public {\r\n        vendorList[_id].isBlacklisted = !vendorList[_id].isBlacklisted;\r\n    }\r\n\r\n    function updateCardType(string memory _ration, uint256 card_type) public {\r\n        consumerList[_ration].ration_card_type = card_type;\r\n    }\r\n}\r\n",
  "sourcePath": "C:\\Users\\Chaitanya\\Personal\\Sem 6\\Mini Project\\SaNaaj\\contracts\\Sanaaj.sol",
  "compiler": {
    "name": "solc",
    "version": "0.5.16+commit.9c3226ce.Emscripten.clang"
  },
  "schemaVersion": "3.4.6",
  "updatedAt": "2022-04-16T15:35:10.348Z",
  "networkType": "ethereum",
  "devdoc": {
    "methods": {}
  },
  "userdoc": {
    "methods": {}
  }
}