{
  "contractName": "Sanaaj",
  "abi": [
    {
      "inputs": [],
      "payable": false,
      "stateMutability": "nonpayable",
      "type": "constructor"
    },
    {
      "constant": true,
      "inputs": [
        {
          "internalType": "string",
          "name": "",
          "type": "string"
        },
        {
          "internalType": "string",
          "name": "",
          "type": "string"
        }
      ],
      "name": "allowanceList",
      "outputs": [
        {
          "internalType": "uint256",
          "name": "",
          "type": "uint256"
        }
      ],
      "payable": false,
      "stateMutability": "view",
      "type": "function"
    },
    {
      "constant": true,
      "inputs": [
        {
          "internalType": "string",
          "name": "",
          "type": "string"
        }
      ],
      "name": "consumerList",
      "outputs": [
        {
          "internalType": "string",
          "name": "ration_card",
          "type": "string"
        },
        {
          "internalType": "uint256",
          "name": "ration_card_type",
          "type": "uint256"
        },
        {
          "internalType": "string",
          "name": "first_name",
          "type": "string"
        },
        {
          "internalType": "string",
          "name": "last_name",
          "type": "string"
        },
        {
          "internalType": "string",
          "name": "phone",
          "type": "string"
        },
        {
          "internalType": "string",
          "name": "location",
          "type": "string"
        },
        {
          "internalType": "uint256",
          "name": "vendor_id",
          "type": "uint256"
        },
        {
          "internalType": "string",
          "name": "password",
          "type": "string"
        },
        {
          "internalType": "address",
          "name": "wallet_addr",
          "type": "address"
        }
      ],
      "payable": false,
      "stateMutability": "view",
      "type": "function"
    },
    {
      "constant": true,
      "inputs": [
        {
          "internalType": "uint256",
          "name": "",
          "type": "uint256"
        },
        {
          "internalType": "string",
          "name": "",
          "type": "string"
        }
      ],
      "name": "stockList",
      "outputs": [
        {
          "internalType": "uint256",
          "name": "",
          "type": "uint256"
        }
      ],
      "payable": false,
      "stateMutability": "view",
      "type": "function"
    },
    {
      "constant": true,
      "inputs": [
        {
          "internalType": "uint256",
          "name": "",
          "type": "uint256"
        }
      ],
      "name": "vendorList",
      "outputs": [
        {
          "internalType": "uint256",
          "name": "vendor_id",
          "type": "uint256"
        },
        {
          "internalType": "string",
          "name": "first_name",
          "type": "string"
        },
        {
          "internalType": "string",
          "name": "last_name",
          "type": "string"
        },
        {
          "internalType": "string",
          "name": "phone",
          "type": "string"
        },
        {
          "internalType": "string",
          "name": "location",
          "type": "string"
        },
        {
          "internalType": "string",
          "name": "password",
          "type": "string"
        },
        {
          "internalType": "bool",
          "name": "isBlacklisted",
          "type": "bool"
        }
      ],
      "payable": false,
      "stateMutability": "view",
      "type": "function"
    },
    {
      "constant": true,
      "inputs": [
        {
          "internalType": "string",
          "name": "_ration",
          "type": "string"
        }
      ],
      "name": "getConsumer",
      "outputs": [
        {
          "components": [
            {
              "internalType": "string",
              "name": "ration_card",
              "type": "string"
            },
            {
              "internalType": "uint256",
              "name": "ration_card_type",
              "type": "uint256"
            },
            {
              "internalType": "string",
              "name": "first_name",
              "type": "string"
            },
            {
              "internalType": "string",
              "name": "last_name",
              "type": "string"
            },
            {
              "internalType": "string",
              "name": "phone",
              "type": "string"
            },
            {
              "internalType": "string",
              "name": "location",
              "type": "string"
            },
            {
              "internalType": "uint256",
              "name": "vendor_id",
              "type": "uint256"
            },
            {
              "internalType": "string",
              "name": "password",
              "type": "string"
            },
            {
              "internalType": "address",
              "name": "wallet_addr",
              "type": "address"
            }
          ],
          "internalType": "struct AssetLibrary.Consumer",
          "name": "",
          "type": "tuple"
        }
      ],
      "payable": false,
      "stateMutability": "view",
      "type": "function"
    },
    {
      "constant": true,
      "inputs": [
        {
          "internalType": "uint256",
          "name": "_id",
          "type": "uint256"
        }
      ],
      "name": "getVendor",
      "outputs": [
        {
          "components": [
            {
              "internalType": "uint256",
              "name": "vendor_id",
              "type": "uint256"
            },
            {
              "internalType": "string",
              "name": "first_name",
              "type": "string"
            },
            {
              "internalType": "string",
              "name": "last_name",
              "type": "string"
            },
            {
              "internalType": "string",
              "name": "phone",
              "type": "string"
            },
            {
              "internalType": "string",
              "name": "location",
              "type": "string"
            },
            {
              "internalType": "string",
              "name": "password",
              "type": "string"
            },
            {
              "internalType": "bool",
              "name": "isBlacklisted",
              "type": "bool"
            }
          ],
          "internalType": "struct AssetLibrary.Vendor",
          "name": "",
          "type": "tuple"
        }
      ],
      "payable": false,
      "stateMutability": "view",
      "type": "function"
    },
    {
      "constant": true,
      "inputs": [
        {
          "internalType": "uint256",
          "name": "_id",
          "type": "uint256"
        },
        {
          "internalType": "bool",
          "name": "byVendor",
          "type": "bool"
        }
      ],
      "name": "getAllConsumers",
      "outputs": [
        {
          "internalType": "string[]",
          "name": "",
          "type": "string[]"
        }
      ],
      "payable": false,
      "stateMutability": "view",
      "type": "function"
    },
    {
      "constant": true,
      "inputs": [],
      "name": "getAllVendors",
      "outputs": [
        {
          "internalType": "uint256[]",
          "name": "",
          "type": "uint256[]"
        }
      ],
      "payable": false,
      "stateMutability": "view",
      "type": "function"
    },
    {
      "constant": true,
      "inputs": [
        {
          "internalType": "string",
          "name": "_ration",
          "type": "string"
        }
      ],
      "name": "getAllowance",
      "outputs": [
        {
          "internalType": "uint256",
          "name": "",
          "type": "uint256"
        },
        {
          "internalType": "uint256",
          "name": "",
          "type": "uint256"
        },
        {
          "internalType": "uint256",
          "name": "",
          "type": "uint256"
        },
        {
          "internalType": "uint256",
          "name": "",
          "type": "uint256"
        }
      ],
      "payable": false,
      "stateMutability": "view",
      "type": "function"
    },
    {
      "constant": true,
      "inputs": [
        {
          "internalType": "uint256",
          "name": "_id",
          "type": "uint256"
        }
      ],
      "name": "getStock",
      "outputs": [
        {
          "internalType": "uint256",
          "name": "",
          "type": "uint256"
        },
        {
          "internalType": "uint256",
          "name": "",
          "type": "uint256"
        },
        {
          "internalType": "uint256",
          "name": "",
          "type": "uint256"
        },
        {
          "internalType": "uint256",
          "name": "",
          "type": "uint256"
        }
      ],
      "payable": false,
      "stateMutability": "view",
      "type": "function"
    },
    {
      "constant": false,
      "inputs": [
        {
          "internalType": "string",
          "name": "_ration",
          "type": "string"
        },
        {
          "internalType": "uint256",
          "name": "_vendorID",
          "type": "uint256"
        },
        {
          "internalType": "string",
          "name": "commodity",
          "type": "string"
        },
        {
          "internalType": "uint256",
          "name": "amount",
          "type": "uint256"
        }
      ],
      "name": "updateAllowance",
      "outputs": [],
      "payable": false,
      "stateMutability": "nonpayable",
      "type": "function"
    },
    {
      "constant": false,
      "inputs": [
        {
          "internalType": "string",
          "name": "_ration",
          "type": "string"
        }
      ],
      "name": "refillAllowance",
      "outputs": [],
      "payable": false,
      "stateMutability": "nonpayable",
      "type": "function"
    },
    {
      "constant": false,
      "inputs": [
        {
          "internalType": "uint256",
          "name": "_vendorID",
          "type": "uint256"
        }
      ],
      "name": "refillStock",
      "outputs": [],
      "payable": false,
      "stateMutability": "nonpayable",
      "type": "function"
    },
    {
      "constant": false,
      "inputs": [
        {
          "internalType": "uint256",
          "name": "_id",
          "type": "uint256"
        }
      ],
      "name": "blacklist",
      "outputs": [],
      "payable": false,
      "stateMutability": "nonpayable",
      "type": "function"
    },
    {
      "constant": false,
      "inputs": [
        {
          "internalType": "string",
          "name": "_ration",
          "type": "string"
        },
        {
          "internalType": "uint256",
          "name": "card_type",
          "type": "uint256"
        }
      ],
      "name": "updateCardType",
      "outputs": [],
      "payable": false,
      "stateMutability": "nonpayable",
      "type": "function"
    }
  ],
  "bytecode": "0x60806040523480156200001157600080fd5b506040518061012001604052806040518060400160405280600c81526020017f4d483132333435363738393000000000000000000000000000000000000000008152508152602001600181526020016040518060400160405280600381526020017f52616d000000000000000000000000000000000000000000000000000000000081525081526020016040518060400160405280600881526020017f47686f727061646500000000000000000000000000000000000000000000000081525081526020016040518060400160405280600a81526020017f313233343536373839300000000000000000000000000000000000000000000081525081526020016040518060400160405280600681526020017f4d756d62616900000000000000000000000000000000000000000000000000008152508152602001600181526020016040518060400160405280600881526020017f48656c6c6f3132330000000000000000000000000000000000000000000000008152508152602001739345baf04a62f6a91d20aa08121a16eb39308b7073ffffffffffffffffffffffffffffffffffffffff168152506000604051620001cc90620017ef565b90815260200160405180910390206000820151816000019080519060200190620001f892919062001476565b506020820151816001015560408201518160020190805190602001906200022192919062001476565b5060608201518160030190805190602001906200024092919062001476565b5060808201518160040190805190602001906200025f92919062001476565b5060a08201518160050190805190602001906200027e92919062001476565b5060c0820151816006015560e0820151816007019080519060200190620002a792919062001476565b506101008201518160080160006101000a81548173ffffffffffffffffffffffffffffffffffffffff021916908373ffffffffffffffffffffffffffffffffffffffff1602179055509050506040518061012001604052806040518060400160405280600c81526020017f4d483132333435303938373600000000000000000000000000000000000000008152508152602001600281526020016040518060400160405280600581526020017f536879616d00000000000000000000000000000000000000000000000000000081525081526020016040518060400160405280600881526020017f47686f727061646500000000000000000000000000000000000000000000000081525081526020016040518060400160405280600a81526020017f313233343530393837360000000000000000000000000000000000000000000081525081526020016040518060400160405280600681526020017f4d756d62616900000000000000000000000000000000000000000000000000008152508152602001600181526020016040518060400160405280600981526020017f48656c6c6f313233340000000000000000000000000000000000000000000000815250815260200173b793c1d9c9d5050859864dbd321fc873e7942e5473ffffffffffffffffffffffffffffffffffffffff168152506000604051620004ad906200181d565b90815260200160405180910390206000820151816000019080519060200190620004d992919062001476565b506020820151816001015560408201518160020190805190602001906200050292919062001476565b5060608201518160030190805190602001906200052192919062001476565b5060808201518160040190805190602001906200054092919062001476565b5060a08201518160050190805190602001906200055f92919062001476565b5060c0820151816006015560e08201518160070190805190602001906200058892919062001476565b506101008201518160080160006101000a81548173ffffffffffffffffffffffffffffffffffffffff021916908373ffffffffffffffffffffffffffffffffffffffff1602179055509050506040518061012001604052806040518060400160405280600c81526020017f4d483132333435303938373600000000000000000000000000000000000000008152508152602001600281526020016040518060400160405280600a81526020017f4768616e61736879616d0000000000000000000000000000000000000000000081525081526020016040518060400160405280600981526020017f4465736870616e6465000000000000000000000000000000000000000000000081525081526020016040518060400160405280600a81526020017f313233343530393837360000000000000000000000000000000000000000000081525081526020016040518060400160405280600681526020017f4d756d62616900000000000000000000000000000000000000000000000000008152508152602001600181526020016040518060400160405280600981526020017f48656c6c6f313233350000000000000000000000000000000000000000000000815250815260200173b7c6562bf283534a775d5198195bfd8d47d2264773ffffffffffffffffffffffffffffffffffffffff1681525060006040516200078e906200181d565b90815260200160405180910390206000820151816000019080519060200190620007ba92919062001476565b50602082015181600101556040820151816002019080519060200190620007e392919062001476565b5060608201518160030190805190602001906200080292919062001476565b5060808201518160040190805190602001906200082192919062001476565b5060a08201518160050190805190602001906200084092919062001476565b5060c0820151816006015560e08201518160070190805190602001906200086992919062001476565b506101008201518160080160006101000a81548173ffffffffffffffffffffffffffffffffffffffff021916908373ffffffffffffffffffffffffffffffffffffffff1602179055509050506040518061012001604052806040518060400160405280600c81526020017f4d483938373635343132333000000000000000000000000000000000000000008152508152602001600181526020016040518060400160405280600581526020017f446167647500000000000000000000000000000000000000000000000000000081525081526020016040518060400160405280600581526020017f506172616200000000000000000000000000000000000000000000000000000081525081526020016040518060400160405280600a81526020017f393837363534313233300000000000000000000000000000000000000000000081525081526020016040518060400160405280600681526020017f4d756d62616900000000000000000000000000000000000000000000000000008152508152602001600281526020016040518060400160405280600981526020017f48656c6c6f313233360000000000000000000000000000000000000000000000815250815260200173b6444a785bc6d27d3facb648dc0714c39f569b2473ffffffffffffffffffffffffffffffffffffffff16815250600060405162000a6f9062001806565b9081526020016040518091039020600082015181600001908051906020019062000a9b92919062001476565b5060208201518160010155604082015181600201908051906020019062000ac492919062001476565b50606082015181600301908051906020019062000ae392919062001476565b50608082015181600401908051906020019062000b0292919062001476565b5060a082015181600501908051906020019062000b2192919062001476565b5060c0820151816006015560e082015181600701908051906020019062000b4a92919062001476565b506101008201518160080160006101000a81548173ffffffffffffffffffffffffffffffffffffffff021916908373ffffffffffffffffffffffffffffffffffffffff1602179055509050506040518061012001604052806040518060400160405280600c81526020017f4d483938373635303433323100000000000000000000000000000000000000008152508152602001600381526020016040518060400160405280600381526020017f414243000000000000000000000000000000000000000000000000000000000081525081526020016040518060400160405280600381526020017f58595a000000000000000000000000000000000000000000000000000000000081525081526020016040518060400160405280600a81526020017f393837363530343332310000000000000000000000000000000000000000000081525081526020016040518060400160405280600681526020017f4d756d62616900000000000000000000000000000000000000000000000000008152508152602001600281526020016040518060400160405280600981526020017f48656c6c6f31323337000000000000000000000000000000000000000000000081525081526020017397b814cdcd7f542f413e2cfef8af97c6633fff3d73ffffffffffffffffffffffffffffffffffffffff16815250600060405162000d509062001834565b9081526020016040518091039020600082015181600001908051906020019062000d7c92919062001476565b5060208201518160010155604082015181600201908051906020019062000da592919062001476565b50606082015181600301908051906020019062000dc492919062001476565b50608082015181600401908051906020019062000de392919062001476565b5060a082015181600501908051906020019062000e0292919062001476565b5060c0820151816006015560e082015181600701908051906020019062000e2b92919062001476565b506101008201518160080160006101000a81548173ffffffffffffffffffffffffffffffffffffffff021916908373ffffffffffffffffffffffffffffffffffffffff1602179055509050506040518060e00160405280600181526020016040518060400160405280600881526020017f536964646865736800000000000000000000000000000000000000000000000081525081526020016040518060400160405280600581526020017f426167776500000000000000000000000000000000000000000000000000000081525081526020016040518060400160405280600a81526020017f313032393338343735360000000000000000000000000000000000000000000081525081526020016040518060400160405280600681526020017f4d756d626169000000000000000000000000000000000000000000000000000081525081526020016040518060400160405280600881526020017f68656c6c6f393837000000000000000000000000000000000000000000000000815250815260200160001515815250600160006001815260200190815260200160002060008201518160000155602082015181600101908051906020019062000ff392919062001476565b5060408201518160020190805190602001906200101292919062001476565b5060608201518160030190805190602001906200103192919062001476565b5060808201518160040190805190602001906200105092919062001476565b5060a08201518160050190805190602001906200106f92919062001476565b5060c08201518160060160006101000a81548160ff0219169083151502179055509050506040518060e00160405280600281526020016040518060400160405280600581526020017f506f6f6a6100000000000000000000000000000000000000000000000000000081525081526020016040518060400160405280600781526020017f4b61756c6775640000000000000000000000000000000000000000000000000081525081526020016040518060400160405280600a81526020017f393038373536343133320000000000000000000000000000000000000000000081525081526020016040518060400160405280600681526020017f4d756d626169000000000000000000000000000000000000000000000000000081525081526020016040518060400160405280600981526020017f68656c6c6f39383736000000000000000000000000000000000000000000000081525081526020016000151581525060016000600281526020019081526020016000206000820151816000015560208201518160010190805190602001906200120f92919062001476565b5060408201518160020190805190602001906200122e92919062001476565b5060608201518160030190805190602001906200124d92919062001476565b5060808201518160040190805190602001906200126c92919062001476565b5060a08201518160050190805190602001906200128b92919062001476565b5060c08201518160060160006101000a81548160ff0219169083151502179055509050506040518060400160405280600981526020017f61646d696e31323334000000000000000000000000000000000000000000000081525060069080519060200190620012fc929190620014fd565b506040518060a001604052806040518060400160405280600c81526020017f4d4831323334353637383930000000000000000000000000000000000000000081525081526020016040518060400160405280600c81526020017f4d4831323334353039383736000000000000000000000000000000000000000081525081526020016040518060400160405280600c81526020017f4d4831323334353039383736000000000000000000000000000000000000000081525081526020016040518060400160405280600c81526020017f4d4839383736353431323330000000000000000000000000000000000000000081525081526020016040518060400160405280600c81526020017f4d4839383736353034333231000000000000000000000000000000000000000081525081525060049060056200143f92919062001584565b506040518060400160405280600160ff168152602001600260ff1681525060059060026200146f929190620015eb565b5062001856565b828054600181600116156101000203166002900490600052602060002090601f016020900481019282601f10620014b957805160ff1916838001178555620014ea565b82800160010185558215620014ea579182015b82811115620014e9578251825591602001919060010190620014cc565b5b509050620014f9919062001642565b5090565b828054600181600116156101000203166002900490600052602060002090601f016020900481019282601f106200154057805160ff191683800117855562001571565b8280016001018555821562001571579182015b828111156200157057825182559160200191906001019062001553565b5b50905062001580919062001642565b5090565b828054828255906000526020600020908101928215620015d8579160200282015b82811115620015d7578251829080519060200190620015c692919062001476565b5091602001919060010190620015a5565b5b509050620015e791906200166a565b5090565b8280548282559060005260206000209081019282156200162f579160200282015b828111156200162e578251829060ff169055916020019190600101906200160c565b5b5090506200163e919062001642565b5090565b6200166791905b808211156200166357600081600090555060010162001649565b5090565b90565b6200169891905b808211156200169457600081816200168a91906200169b565b5060010162001671565b5090565b90565b50805460018160011615610100020316600290046000825580601f10620016c35750620016e4565b601f016020900490600052602060002090810190620016e3919062001642565b5b50565b6000620016f6600c836200184b565b91507f4d483132333435363738393000000000000000000000000000000000000000006000830152600c82019050919050565b600062001738600c836200184b565b91507f4d483938373635343132333000000000000000000000000000000000000000006000830152600c82019050919050565b60006200177a600c836200184b565b91507f4d483132333435303938373600000000000000000000000000000000000000006000830152600c82019050919050565b6000620017bc600c836200184b565b91507f4d483938373635303433323100000000000000000000000000000000000000006000830152600c82019050919050565b6000620017fc82620016e7565b9150819050919050565b6000620018138262001729565b9150819050919050565b60006200182a826200176b565b9150819050919050565b60006200184182620017ad565b9150819050919050565b600081905092915050565b612b1c80620018666000396000f3fe608060405234801561001057600080fd5b50600436106100f55760003560e01c80635e0b421e11610097578063840907341161006657806384090734146102ae578063bff499f2146102e4578063c2898c3c14610314578063ff3dca651461034c576100f5565b80635e0b421e146102285780636453e8761461024657806365de1eb3146102625780637a76399714610292576100f5565b806326ba9eed116100d357806326ba9eed146101795780632b4b38fd146101a95780633ab7d09a146101d95780635bf954b71461020c576100f5565b80630a8b4823146100fa5780630f2a09191461012d57806316fc083414610149575b600080fd5b610114600480360361010f9190810190611e97565b610368565b604051610124949392919061287c565b60405180910390f35b6101476004803603610142919081019061202b565b610479565b005b610163600480360361015e9190810190611fbf565b6104ce565b60405161017091906127cf565b60405180910390f35b610193600480360361018e9190810190611e97565b61051f565b6040516101a0919061278b565b60405180910390f35b6101c360048036036101be9190810190612054565b61098e565b6040516101d09190612690565b60405180910390f35b6101f360048036036101ee919081019061202b565b610bc2565b604051610203949392919061287c565b60405180910390f35b61022660048036036102219190810190611f2c565b610ca7565b005b610230610d32565b60405161023d91906126b2565b60405180910390f35b610260600480360361025b9190810190611e97565b610d8a565b005b61027c6004803603610277919081019061202b565b6110d4565b60405161028991906127ad565b60405180910390f35b6102ac60048036036102a7919081019061202b565b611450565b005b6102c860048036036102c3919081019061202b565b611523565b6040516102db97969594939291906127ea565b60405180910390f35b6102fe60048036036102f99190810190612090565b61186a565b60405161030b91906127cf565b60405180910390f35b61032e60048036036103299190810190611e56565b6118a5565b604051610343999897969594939291906126d4565b60405180910390f35b61036660048036036103619190810190611ed8565b611cb9565b005b6000806000806000600286604051610380919061260e565b908152602001604051809103902060405161039a90612651565b908152602001604051809103902054905060006002876040516103bd919061260e565b90815260200160405180910390206040516103d79061267b565b908152602001604051809103902054905060006002886040516103fa919061260e565b908152602001604051809103902060405161041490612666565b90815260200160405180910390205490506000600289604051610437919061260e565b90815260200160405180910390206040516104519061263c565b9081526020016040518091039020549050838383839750975097509750505050509193509193565b6001600082815260200190815260200160002060060160009054906101000a900460ff16156001600083815260200190815260200160002060060160006101000a81548160ff02191690831515021790555050565b60028280516020810182018051848252602083016020850120818352809550505050505081805160208101820180518482526020830160208501208183528095505050505050600091509150505481565b610527611ce3565b600082604051610537919061260e565b908152602001604051809103902060405180610120016040529081600082018054600181600116156101000203166002900480601f0160208091040260200160405190810160405280929190818152602001828054600181600116156101000203166002900480156105ea5780601f106105bf576101008083540402835291602001916105ea565b820191906000526020600020905b8154815290600101906020018083116105cd57829003601f168201915b5050505050815260200160018201548152602001600282018054600181600116156101000203166002900480601f0160208091040260200160405190810160405280929190818152602001828054600181600116156101000203166002900480156106965780601f1061066b57610100808354040283529160200191610696565b820191906000526020600020905b81548152906001019060200180831161067957829003601f168201915b50505050508152602001600382018054600181600116156101000203166002900480601f0160208091040260200160405190810160405280929190818152602001828054600181600116156101000203166002900480156107385780601f1061070d57610100808354040283529160200191610738565b820191906000526020600020905b81548152906001019060200180831161071b57829003601f168201915b50505050508152602001600482018054600181600116156101000203166002900480601f0160208091040260200160405190810160405280929190818152602001828054600181600116156101000203166002900480156107da5780601f106107af576101008083540402835291602001916107da565b820191906000526020600020905b8154815290600101906020018083116107bd57829003601f168201915b50505050508152602001600582018054600181600116156101000203166002900480601f01602080910402602001604051908101604052809291908181526020018280546001816001161561010002031660029004801561087c5780601f106108515761010080835404028352916020019161087c565b820191906000526020600020905b81548152906001019060200180831161085f57829003601f168201915b5050505050815260200160068201548152602001600782018054600181600116156101000203166002900480601f0160208091040260200160405190810160405280929190818152602001828054600181600116156101000203166002900480156109285780601f106108fd57610100808354040283529160200191610928565b820191906000526020600020905b81548152906001019060200180831161090b57829003601f168201915b505050505081526020016008820160009054906101000a900473ffffffffffffffffffffffffffffffffffffffff1673ffffffffffffffffffffffffffffffffffffffff1673ffffffffffffffffffffffffffffffffffffffff16815250509050919050565b60608115610ad7576060600080905060008090505b600480549050811015610acc57856000600483815481106109c057fe5b906000526020600020016040516109d79190612625565b9081526020016040518091039020600601541415610abf57600481815481106109fc57fe5b906000526020600020018054600181600116156101000203166002900480601f016020809104026020016040519081016040528092919081815260200182805460018160011615610100020316600290048015610a9a5780601f10610a6f57610100808354040283529160200191610a9a565b820191906000526020600020905b815481529060010190602001808311610a7d57829003601f168201915b5050505050838381518110610aab57fe5b602002602001018190525081806001019250505b80806001019150506109a3565b508192505050610bbc565b6004805480602002602001604051908101604052809291908181526020016000905b82821015610bb5578382906000526020600020018054600181600116156101000203166002900480601f016020809104026020016040519081016040528092919081815260200182805460018160011615610100020316600290048015610ba15780601f10610b7657610100808354040283529160200191610ba1565b820191906000526020600020905b815481529060010190602001808311610b8457829003601f168201915b505050505081526020019060010190610af9565b5050505090505b92915050565b600080600080600060036000878152602001908152602001600020604051610be990612651565b9081526020016040518091039020549050600060036000888152602001908152602001600020604051610c1b9061267b565b9081526020016040518091039020549050600060036000898152602001908152602001600020604051610c4d90612666565b90815260200160405180910390205490506000600360008a8152602001908152602001600020604051610c7f9061263c565b9081526020016040518091039020549050838383839750975097509750505050509193509193565b80600285604051610cb8919061260e565b908152602001604051809103902083604051610cd4919061260e565b908152602001604051809103902060008282540392505081905550806003600085815260200190815260200160002083604051610d11919061260e565b90815260200160405180910390206000828254039250508190555050505050565b60606005805480602002602001604051908101604052809291908181526020018280548015610d8057602002820191906000526020600020905b815481526020019060010190808311610d6c575b5050505050905090565b6001600082604051610d9c919061260e565b9081526020016040518091039020600101541415610eb1576005600282604051610dc6919061260e565b9081526020016040518091039020604051610de090612651565b908152602001604051809103902081905550600a600282604051610e04919061260e565b9081526020016040518091039020604051610e1e9061267b565b9081526020016040518091039020819055506001600282604051610e42919061260e565b9081526020016040518091039020604051610e5c90612666565b9081526020016040518091039020819055506005600282604051610e80919061260e565b9081526020016040518091039020604051610e9a9061263c565b9081526020016040518091039020819055506110d1565b6002600082604051610ec3919061260e565b9081526020016040518091039020600101541415610fd757600a600282604051610eed919061260e565b9081526020016040518091039020604051610f0790612651565b908152602001604051809103902081905550600f600282604051610f2b919061260e565b9081526020016040518091039020604051610f459061267b565b90815260200160405180910390208190555060028082604051610f68919061260e565b9081526020016040518091039020604051610f8290612666565b9081526020016040518091039020819055506007600282604051610fa6919061260e565b9081526020016040518091039020604051610fc09061263c565b9081526020016040518091039020819055506110d0565b600c600282604051610fe9919061260e565b908152602001604051809103902060405161100390612651565b9081526020016040518091039020819055506011600282604051611027919061260e565b90815260200160405180910390206040516110419061267b565b9081526020016040518091039020819055506003600282604051611065919061260e565b908152602001604051809103902060405161107f90612666565b908152602001604051809103902081905550600a6002826040516110a3919061260e565b90815260200160405180910390206040516110bd9061263c565b9081526020016040518091039020819055505b5b50565b6110dc611d45565b600160008381526020019081526020016000206040518060e001604052908160008201548152602001600182018054600181600116156101000203166002900480601f01602080910402602001604051908101604052809291908181526020018280546001816001161561010002031660029004801561119d5780601f106111725761010080835404028352916020019161119d565b820191906000526020600020905b81548152906001019060200180831161118057829003601f168201915b50505050508152602001600282018054600181600116156101000203166002900480601f01602080910402602001604051908101604052809291908181526020018280546001816001161561010002031660029004801561123f5780601f106112145761010080835404028352916020019161123f565b820191906000526020600020905b81548152906001019060200180831161122257829003601f168201915b50505050508152602001600382018054600181600116156101000203166002900480601f0160208091040260200160405190810160405280929190818152602001828054600181600116156101000203166002900480156112e15780601f106112b6576101008083540402835291602001916112e1565b820191906000526020600020905b8154815290600101906020018083116112c457829003601f168201915b50505050508152602001600482018054600181600116156101000203166002900480601f0160208091040260200160405190810160405280929190818152602001828054600181600116156101000203166002900480156113835780601f1061135857610100808354040283529160200191611383565b820191906000526020600020905b81548152906001019060200180831161136657829003601f168201915b50505050508152602001600582018054600181600116156101000203166002900480601f0160208091040260200160405190810160405280929190818152602001828054600181600116156101000203166002900480156114255780601f106113fa57610100808354040283529160200191611425565b820191906000526020600020905b81548152906001019060200180831161140857829003601f168201915b505050505081526020016006820160009054906101000a900460ff1615151515815250509050919050565b6101f46003600083815260200190815260200160002060405161147290612651565b9081526020016040518091039020819055506103e8600360008381526020019081526020016000206040516114a69061267b565b9081526020016040518091039020819055506101f4600360008381526020019081526020016000206040516114da90612666565b9081526020016040518091039020819055506101f46003600083815260200190815260200160002060405161150e9061263c565b90815260200160405180910390208190555050565b6001602052806000526040600020600091509050806000015490806001018054600181600116156101000203166002900480601f0160208091040260200160405190810160405280929190818152602001828054600181600116156101000203166002900480156115d55780601f106115aa576101008083540402835291602001916115d5565b820191906000526020600020905b8154815290600101906020018083116115b857829003601f168201915b505050505090806002018054600181600116156101000203166002900480601f0160208091040260200160405190810160405280929190818152602001828054600181600116156101000203166002900480156116735780601f1061164857610100808354040283529160200191611673565b820191906000526020600020905b81548152906001019060200180831161165657829003601f168201915b505050505090806003018054600181600116156101000203166002900480601f0160208091040260200160405190810160405280929190818152602001828054600181600116156101000203166002900480156117115780601f106116e657610100808354040283529160200191611711565b820191906000526020600020905b8154815290600101906020018083116116f457829003601f168201915b505050505090806004018054600181600116156101000203166002900480601f0160208091040260200160405190810160405280929190818152602001828054600181600116156101000203166002900480156117af5780601f10611784576101008083540402835291602001916117af565b820191906000526020600020905b81548152906001019060200180831161179257829003601f168201915b505050505090806005018054600181600116156101000203166002900480601f01602080910402602001604051908101604052809291908181526020018280546001816001161561010002031660029004801561184d5780601f106118225761010080835404028352916020019161184d565b820191906000526020600020905b81548152906001019060200180831161183057829003601f168201915b5050505050908060060160009054906101000a900460ff16905087565b600360205281600052604060002081805160208101820180518482526020830160208501208183528095505050505050600091509150505481565b600081805160208101820180518482526020830160208501208183528095505050505050600091509050806000018054600181600116156101000203166002900480601f0160208091040260200160405190810160405280929190818152602001828054600181600116156101000203166002900480156119675780601f1061193c57610100808354040283529160200191611967565b820191906000526020600020905b81548152906001019060200180831161194a57829003601f168201915b505050505090806001015490806002018054600181600116156101000203166002900480601f016020809104026020016040519081016040528092919081815260200182805460018160011615610100020316600290048015611a0b5780601f106119e057610100808354040283529160200191611a0b565b820191906000526020600020905b8154815290600101906020018083116119ee57829003601f168201915b505050505090806003018054600181600116156101000203166002900480601f016020809104026020016040519081016040528092919081815260200182805460018160011615610100020316600290048015611aa95780601f10611a7e57610100808354040283529160200191611aa9565b820191906000526020600020905b815481529060010190602001808311611a8c57829003601f168201915b505050505090806004018054600181600116156101000203166002900480601f016020809104026020016040519081016040528092919081815260200182805460018160011615610100020316600290048015611b475780601f10611b1c57610100808354040283529160200191611b47565b820191906000526020600020905b815481529060010190602001808311611b2a57829003601f168201915b505050505090806005018054600181600116156101000203166002900480601f016020809104026020016040519081016040528092919081815260200182805460018160011615610100020316600290048015611be55780601f10611bba57610100808354040283529160200191611be5565b820191906000526020600020905b815481529060010190602001808311611bc857829003601f168201915b505050505090806006015490806007018054600181600116156101000203166002900480601f016020809104026020016040519081016040528092919081815260200182805460018160011615610100020316600290048015611c895780601f10611c5e57610100808354040283529160200191611c89565b820191906000526020600020905b815481529060010190602001808311611c6c57829003601f168201915b5050505050908060080160009054906101000a900473ffffffffffffffffffffffffffffffffffffffff16905089565b80600083604051611cca919061260e565b9081526020016040518091039020600101819055505050565b6040518061012001604052806060815260200160008152602001606081526020016060815260200160608152602001606081526020016000815260200160608152602001600073ffffffffffffffffffffffffffffffffffffffff1681525090565b6040518060e001604052806000815260200160608152602001606081526020016060815260200160608152602001606081526020016000151581525090565b600081359050611d9381612aab565b92915050565b600082601f830112611daa57600080fd5b8135611dbd611db8826128ee565b6128c1565b91508082526020830160208301858383011115611dd957600080fd5b611de4838284612a58565b50505092915050565b600082601f830112611dfe57600080fd5b8135611e11611e0c8261291a565b6128c1565b91508082526020830160208301858383011115611e2d57600080fd5b611e38838284612a58565b50505092915050565b600081359050611e5081612ac2565b92915050565b600060208284031215611e6857600080fd5b600082013567ffffffffffffffff811115611e8257600080fd5b611e8e84828501611d99565b91505092915050565b600060208284031215611ea957600080fd5b600082013567ffffffffffffffff811115611ec357600080fd5b611ecf84828501611ded565b91505092915050565b60008060408385031215611eeb57600080fd5b600083013567ffffffffffffffff811115611f0557600080fd5b611f1185828601611ded565b9250506020611f2285828601611e41565b9150509250929050565b60008060008060808587031215611f4257600080fd5b600085013567ffffffffffffffff811115611f5c57600080fd5b611f6887828801611ded565b9450506020611f7987828801611e41565b935050604085013567ffffffffffffffff811115611f9657600080fd5b611fa287828801611ded565b9250506060611fb387828801611e41565b91505092959194509250565b60008060408385031215611fd257600080fd5b600083013567ffffffffffffffff811115611fec57600080fd5b611ff885828601611d99565b925050602083013567ffffffffffffffff81111561201557600080fd5b61202185828601611d99565b9150509250929050565b60006020828403121561203d57600080fd5b600061204b84828501611e41565b91505092915050565b6000806040838503121561206757600080fd5b600061207585828601611e41565b925050602061208685828601611d84565b9150509250929050565b600080604083850312156120a357600080fd5b60006120b185828601611e41565b925050602083013567ffffffffffffffff8111156120ce57600080fd5b6120da85828601611d99565b9150509250929050565b60006120f08383612250565b905092915050565b600061210483836125f0565b60208301905092915050565b61211981612a10565b82525050565b61212881612a10565b82525050565b60006121398261297b565b61214381856129c1565b93508360208202850161215585612946565b8060005b85811015612191578484038952815161217285826120e4565b945061217d836129a7565b925060208a01995050600181019050612159565b50829750879550505050505092915050565b60006121ae82612986565b6121b881856129d2565b93506121c383612956565b8060005b838110156121f45781516121db88826120f8565b97506121e6836129b4565b9250506001810190506121c7565b5085935050505092915050565b61220a81612a22565b82525050565b61221981612a22565b82525050565b600061222a8261299c565b6122348185612a05565b9350612244818560208601612a67565b80840191505092915050565b600061225b82612991565b61226581856129e3565b9350612275818560208601612a67565b61227e81612a9a565b840191505092915050565b600061229482612991565b61229e81856129f4565b93506122ae818560208601612a67565b6122b781612a9a565b840191505092915050565b6000815460018116600081146122df576001811461230457612348565b607f60028304166122f08187612a05565b955060ff1983168652808601935050612348565b600282046123128187612a05565b955061231d85612966565b60005b8281101561233f57815481890152600182019150602081019050612320565b82880195505050505b505092915050565b600061235d600883612a05565b91507f4b65726f73656e650000000000000000000000000000000000000000000000006000830152600882019050919050565b600061239d600483612a05565b91507f52696365000000000000000000000000000000000000000000000000000000006000830152600482019050919050565b60006123dd600583612a05565b91507f53756761720000000000000000000000000000000000000000000000000000006000830152600582019050919050565b600061241d600583612a05565b91507f57686561740000000000000000000000000000000000000000000000000000006000830152600582019050919050565b600061012083016000830151848203600086015261246e8282612250565b915050602083015161248360208601826125f0565b506040830151848203604086015261249b8282612250565b915050606083015184820360608601526124b58282612250565b915050608083015184820360808601526124cf8282612250565b91505060a083015184820360a08601526124e98282612250565b91505060c08301516124fe60c08601826125f0565b5060e083015184820360e08601526125168282612250565b91505061010083015161252d610100860182612110565b508091505092915050565b600060e08301600083015161255060008601826125f0565b50602083015184820360208601526125688282612250565b915050604083015184820360408601526125828282612250565b9150506060830151848203606086015261259c8282612250565b915050608083015184820360808601526125b68282612250565b91505060a083015184820360a08601526125d08282612250565b91505060c08301516125e560c0860182612201565b508091505092915050565b6125f981612a4e565b82525050565b61260881612a4e565b82525050565b600061261a828461221f565b915081905092915050565b600061263182846122c2565b915081905092915050565b600061264782612350565b9150819050919050565b600061265c82612390565b9150819050919050565b6000612671826123d0565b9150819050919050565b600061268682612410565b9150819050919050565b600060208201905081810360008301526126aa818461212e565b905092915050565b600060208201905081810360008301526126cc81846121a3565b905092915050565b60006101208201905081810360008301526126ef818c612289565b90506126fe602083018b6125ff565b8181036040830152612710818a612289565b905081810360608301526127248189612289565b905081810360808301526127388188612289565b905081810360a083015261274c8187612289565b905061275b60c08301866125ff565b81810360e083015261276d8185612289565b905061277d61010083018461211f565b9a9950505050505050505050565b600060208201905081810360008301526127a58184612450565b905092915050565b600060208201905081810360008301526127c78184612538565b905092915050565b60006020820190506127e460008301846125ff565b92915050565b600060e0820190506127ff600083018a6125ff565b81810360208301526128118189612289565b905081810360408301526128258188612289565b905081810360608301526128398187612289565b9050818103608083015261284d8186612289565b905081810360a08301526128618185612289565b905061287060c0830184612210565b98975050505050505050565b600060808201905061289160008301876125ff565b61289e60208301866125ff565b6128ab60408301856125ff565b6128b860608301846125ff565b95945050505050565b6000604051905081810181811067ffffffffffffffff821117156128e457600080fd5b8060405250919050565b600067ffffffffffffffff82111561290557600080fd5b601f19601f8301169050602081019050919050565b600067ffffffffffffffff82111561293157600080fd5b601f19601f8301169050602081019050919050565b6000819050602082019050919050565b6000819050602082019050919050565b60008190508160005260206000209050919050565b600081519050919050565b600081519050919050565b600081519050919050565b600081519050919050565b6000602082019050919050565b6000602082019050919050565b600082825260208201905092915050565b600082825260208201905092915050565b600082825260208201905092915050565b600082825260208201905092915050565b600081905092915050565b6000612a1b82612a2e565b9050919050565b60008115159050919050565b600073ffffffffffffffffffffffffffffffffffffffff82169050919050565b6000819050919050565b82818337600083830152505050565b60005b83811015612a85578082015181840152602081019050612a6a565b83811115612a94576000848401525b50505050565b6000601f19601f8301169050919050565b612ab481612a22565b8114612abf57600080fd5b50565b612acb81612a4e565b8114612ad657600080fd5b5056fea365627a7a7231582091d8095cbf44cc87e171fbfe9d3497be058088784eb0901f9b30ad0edf5ac9fa6c6578706572696d656e74616cf564736f6c63430005100040",
  "source": "// SPDX-License-Identifier: MIT\r\npragma solidity >=0.4.21 <8.10.0;\r\npragma experimental ABIEncoderV2;\r\n\r\n// Saffron -- 1, white - 2, yellow -3\r\n// Rice - 4kg, sugar - 0.5kg, wheat - 10kg\r\n\r\nlibrary AssetLibrary {\r\n    struct Consumer {\r\n        string ration_card;\r\n        uint256 ration_card_type;\r\n        string first_name;\r\n        string last_name;\r\n        string phone;\r\n        string location;\r\n        uint256 vendor_id;\r\n        string password;\r\n        address wallet_addr;\r\n    }\r\n\r\n    struct Vendor {\r\n        uint256 vendor_id;\r\n        string first_name;\r\n        string last_name;\r\n        string phone;\r\n        string location;\r\n        string password;\r\n        bool isBlacklisted;\r\n    }\r\n}\r\n\r\ncontract Sanaaj {\r\n    mapping(string => AssetLibrary.Consumer) public consumerList;\r\n    mapping(uint256 => AssetLibrary.Vendor) public vendorList;\r\n    mapping(string => mapping(string => uint256)) public allowanceList;\r\n    mapping(uint256 => mapping(string => uint256)) public stockList;\r\n    string[] rationCardList;\r\n    uint256[] vendorIDList;\r\n    string adminPassword;\r\n\r\n    constructor() public {\r\n        consumerList[\"MH1234567890\"] = AssetLibrary.Consumer(\r\n            \"MH1234567890\",\r\n            1,\r\n            \"Ram\",\r\n            \"Ghorpade\",\r\n            \"1234567890\",\r\n            \"Mumbai\",\r\n            1,\r\n            \"Hello123\",\r\n            0x9345BaF04A62F6A91d20aa08121a16eB39308b70\r\n        );\r\n        consumerList[\"MH1234509876\"] = AssetLibrary.Consumer(\r\n            \"MH1234509876\",\r\n            2,\r\n            \"Shyam\",\r\n            \"Ghorpade\",\r\n            \"1234509876\",\r\n            \"Mumbai\",\r\n            1,\r\n            \"Hello1234\",\r\n            0xB793c1d9c9D5050859864DbD321Fc873e7942e54\r\n        );\r\n        consumerList[\"MH1234509876\"] = AssetLibrary.Consumer(\r\n            \"MH1234509876\",\r\n            2,\r\n            \"Ghanashyam\",\r\n            \"Deshpande\",\r\n            \"1234509876\",\r\n            \"Mumbai\",\r\n            1,\r\n            \"Hello1235\",\r\n            0xb7C6562BF283534A775d5198195bfD8d47D22647\r\n        );\r\n        consumerList[\"MH9876541230\"] = AssetLibrary.Consumer(\r\n            \"MH9876541230\",\r\n            1,\r\n            \"Dagdu\",\r\n            \"Parab\",\r\n            \"9876541230\",\r\n            \"Mumbai\",\r\n            2,\r\n            \"Hello1236\",\r\n            0xb6444A785Bc6d27d3fAcb648dc0714C39F569B24\r\n        );\r\n        consumerList[\"MH9876504321\"] = AssetLibrary.Consumer(\r\n            \"MH9876504321\",\r\n            3,\r\n            \"ABC\",\r\n            \"XYZ\",\r\n            \"9876504321\",\r\n            \"Mumbai\",\r\n            2,\r\n            \"Hello1237\",\r\n            0x97b814cdcD7F542f413E2CFef8AF97c6633ffF3D\r\n        );\r\n\r\n        vendorList[1] = AssetLibrary.Vendor(\r\n            1,\r\n            \"Siddhesh\",\r\n            \"Bagwe\",\r\n            \"1029384756\",\r\n            \"Mumbai\",\r\n            \"hello987\",\r\n            false\r\n        );\r\n        vendorList[2] = AssetLibrary.Vendor(\r\n            2,\r\n            \"Pooja\",\r\n            \"Kaulgud\",\r\n            \"9087564132\",\r\n            \"Mumbai\",\r\n            \"hello9876\",\r\n            false\r\n        );\r\n\r\n        adminPassword = \"admin1234\";\r\n        rationCardList = [\r\n            \"MH1234567890\",\r\n            \"MH1234509876\",\r\n            \"MH1234509876\",\r\n            \"MH9876541230\",\r\n            \"MH9876504321\"\r\n        ];\r\n        vendorIDList = [1, 2];\r\n    }\r\n\r\n    function getConsumer(string memory _ration)\r\n        public\r\n        view\r\n        returns (AssetLibrary.Consumer memory)\r\n    {\r\n        return consumerList[_ration];\r\n    }\r\n\r\n    function getVendor(uint256 _id)\r\n        public\r\n        view\r\n        returns (AssetLibrary.Vendor memory)\r\n    {\r\n        return vendorList[_id];\r\n    }\r\n\r\n    function getAllConsumers(uint256 _id, bool byVendor)\r\n        public\r\n        view\r\n        returns (string[] memory)\r\n    {\r\n        if (byVendor) {\r\n            string[] memory consumers;\r\n            uint256 count = 0;\r\n            for (uint256 i = 0; i < rationCardList.length; i++) {\r\n                if (consumerList[rationCardList[i]].vendor_id == _id) {\r\n                    consumers[count] = rationCardList[i];\r\n                    count++;\r\n                }\r\n            }\r\n            return consumers;\r\n        }\r\n\r\n        return rationCardList;\r\n    }\r\n\r\n    function getAllVendors() public view returns (uint256[] memory) {\r\n        return vendorIDList;\r\n    }\r\n\r\n    function getAllowance(string memory _ration)\r\n        public\r\n        view\r\n        returns (\r\n            uint256,\r\n            uint256,\r\n            uint256,\r\n            uint256\r\n        )\r\n    {\r\n        uint256 rice = allowanceList[_ration][\"Rice\"];\r\n        uint256 wheat = allowanceList[_ration][\"Wheat\"];\r\n        uint256 sugar = allowanceList[_ration][\"Sugar\"];\r\n        uint256 kerosene = allowanceList[_ration][\"Kerosene\"];\r\n\r\n        return (rice, wheat, sugar, kerosene);\r\n    }\r\n\r\n    function getStock(uint256 _id)\r\n        public\r\n        view\r\n        returns (\r\n            uint256,\r\n            uint256,\r\n            uint256,\r\n            uint256\r\n        )\r\n    {\r\n        uint256 rice = stockList[_id][\"Rice\"];\r\n        uint256 wheat = stockList[_id][\"Wheat\"];\r\n        uint256 sugar = stockList[_id][\"Sugar\"];\r\n        uint256 kerosene = stockList[_id][\"Kerosene\"];\r\n\r\n        return (rice, wheat, sugar, kerosene);\r\n    }\r\n\r\n    function updateAllowance(\r\n        string memory _ration,\r\n        uint256 _vendorID,\r\n        string memory commodity,\r\n        uint256 amount\r\n    ) public {\r\n        allowanceList[_ration][commodity] -= amount;\r\n        stockList[_vendorID][commodity] -= amount;\r\n    }\r\n\r\n    function refillAllowance(string memory _ration) public {\r\n        if (consumerList[_ration].ration_card_type == 1) {\r\n            allowanceList[_ration][\"Rice\"] = 5;\r\n            allowanceList[_ration][\"Wheat\"] = 10;\r\n            allowanceList[_ration][\"Sugar\"] = 1;\r\n            allowanceList[_ration][\"Kerosene\"] = 5;\r\n        } else if (consumerList[_ration].ration_card_type == 2) {\r\n            allowanceList[_ration][\"Rice\"] = 10;\r\n            allowanceList[_ration][\"Wheat\"] = 15;\r\n            allowanceList[_ration][\"Sugar\"] = 2;\r\n            allowanceList[_ration][\"Kerosene\"] = 7;\r\n        } else {\r\n            allowanceList[_ration][\"Rice\"] = 12;\r\n            allowanceList[_ration][\"Wheat\"] = 17;\r\n            allowanceList[_ration][\"Sugar\"] = 3;\r\n            allowanceList[_ration][\"Kerosene\"] = 10;\r\n        }\r\n    }\r\n\r\n    function refillStock(uint256 _vendorID) public {\r\n        stockList[_vendorID][\"Rice\"] = 500;\r\n        stockList[_vendorID][\"Wheat\"] = 1000;\r\n        stockList[_vendorID][\"Sugar\"] = 500;\r\n        stockList[_vendorID][\"Kerosene\"] = 500;\r\n    }\r\n\r\n    function blacklist(uint256 _id) public {\r\n        vendorList[_id].isBlacklisted = !vendorList[_id].isBlacklisted;\r\n    }\r\n\r\n    function updateCardType(string memory _ration, uint256 card_type) public {\r\n        consumerList[_ration].ration_card_type = card_type;\r\n    }\r\n}\r\n",
  "sourcePath": "C:\\1914029\\SaNaaj\\contracts\\Sanaaj.sol",
  "compiler": {
    "name": "solc",
    "version": "0.5.16+commit.9c3226ce.Emscripten.clang"
  },
  "schemaVersion": "3.4.7",
  "updatedAt": "2022-04-15T11:17:43.079Z",
  "networkType": "ethereum",
  "devdoc": {
    "methods": {}
  },
  "userdoc": {
    "methods": {}
  }
}