{
  "contractName": "Sanaaj",
  "abi": [
    {
      "inputs": [],
      "payable": false,
      "stateMutability": "nonpayable",
      "type": "constructor"
    },
    {
      "constant": true,
      "inputs": [
        {
          "internalType": "string",
          "name": "",
          "type": "string"
        },
        {
          "internalType": "string",
          "name": "",
          "type": "string"
        }
      ],
      "name": "allowanceList",
      "outputs": [
        {
          "internalType": "uint256",
          "name": "",
          "type": "uint256"
        }
      ],
      "payable": false,
      "stateMutability": "view",
      "type": "function"
    },
    {
      "constant": true,
      "inputs": [
        {
          "internalType": "string",
          "name": "",
          "type": "string"
        }
      ],
      "name": "consumerList",
      "outputs": [
        {
          "internalType": "string",
          "name": "ration_card",
          "type": "string"
        },
        {
          "internalType": "uint256",
          "name": "ration_card_type",
          "type": "uint256"
        },
        {
          "internalType": "string",
          "name": "first_name",
          "type": "string"
        },
        {
          "internalType": "string",
          "name": "last_name",
          "type": "string"
        },
        {
          "internalType": "string",
          "name": "phone",
          "type": "string"
        },
        {
          "internalType": "string",
          "name": "location",
          "type": "string"
        },
        {
          "internalType": "uint256",
          "name": "vendor_id",
          "type": "uint256"
        },
        {
          "internalType": "string",
          "name": "password",
          "type": "string"
        },
        {
          "internalType": "address",
          "name": "wallet_addr",
          "type": "address"
        }
      ],
      "payable": false,
      "stateMutability": "view",
      "type": "function"
    },
    {
      "constant": true,
      "inputs": [
        {
          "internalType": "string",
          "name": "",
          "type": "string"
        },
        {
          "internalType": "uint256",
          "name": "",
          "type": "uint256"
        }
      ],
      "name": "pendingTransactionList",
      "outputs": [
        {
          "internalType": "string",
          "name": "consumer_ration_id",
          "type": "string"
        },
        {
          "internalType": "uint256",
          "name": "vendor_id",
          "type": "uint256"
        },
        {
          "internalType": "string",
          "name": "timestamp",
          "type": "string"
        }
      ],
      "payable": false,
      "stateMutability": "view",
      "type": "function"
    },
    {
      "constant": true,
      "inputs": [
        {
          "internalType": "uint256",
          "name": "",
          "type": "uint256"
        },
        {
          "internalType": "string",
          "name": "",
          "type": "string"
        }
      ],
      "name": "stockList",
      "outputs": [
        {
          "internalType": "uint256",
          "name": "",
          "type": "uint256"
        }
      ],
      "payable": false,
      "stateMutability": "view",
      "type": "function"
    },
    {
      "constant": true,
      "inputs": [
        {
          "internalType": "string",
          "name": "",
          "type": "string"
        },
        {
          "internalType": "uint256",
          "name": "",
          "type": "uint256"
        }
      ],
      "name": "transactionList",
      "outputs": [
        {
          "internalType": "string",
          "name": "consumer_ration_id",
          "type": "string"
        },
        {
          "internalType": "uint256",
          "name": "vendor_id",
          "type": "uint256"
        },
        {
          "internalType": "string",
          "name": "timestamp",
          "type": "string"
        }
      ],
      "payable": false,
      "stateMutability": "view",
      "type": "function"
    },
    {
      "constant": true,
      "inputs": [
        {
          "internalType": "uint256",
          "name": "",
          "type": "uint256"
        }
      ],
      "name": "vendorList",
      "outputs": [
        {
          "internalType": "uint256",
          "name": "vendor_id",
          "type": "uint256"
        },
        {
          "internalType": "string",
          "name": "first_name",
          "type": "string"
        },
        {
          "internalType": "string",
          "name": "last_name",
          "type": "string"
        },
        {
          "internalType": "string",
          "name": "phone",
          "type": "string"
        },
        {
          "internalType": "string",
          "name": "location",
          "type": "string"
        },
        {
          "internalType": "string",
          "name": "password",
          "type": "string"
        },
        {
          "internalType": "bool",
          "name": "isBlacklisted",
          "type": "bool"
        },
        {
          "internalType": "address",
          "name": "wallet_addr",
          "type": "address"
        }
      ],
      "payable": false,
      "stateMutability": "view",
      "type": "function"
    },
    {
      "constant": true,
      "inputs": [
        {
          "internalType": "string",
          "name": "_ration",
          "type": "string"
        }
      ],
      "name": "getConsumer",
      "outputs": [
        {
          "components": [
            {
              "internalType": "string",
              "name": "ration_card",
              "type": "string"
            },
            {
              "internalType": "uint256",
              "name": "ration_card_type",
              "type": "uint256"
            },
            {
              "internalType": "string",
              "name": "first_name",
              "type": "string"
            },
            {
              "internalType": "string",
              "name": "last_name",
              "type": "string"
            },
            {
              "internalType": "string",
              "name": "phone",
              "type": "string"
            },
            {
              "internalType": "string",
              "name": "location",
              "type": "string"
            },
            {
              "internalType": "uint256",
              "name": "vendor_id",
              "type": "uint256"
            },
            {
              "internalType": "string",
              "name": "password",
              "type": "string"
            },
            {
              "internalType": "address",
              "name": "wallet_addr",
              "type": "address"
            }
          ],
          "internalType": "struct AssetLibrary.Consumer",
          "name": "",
          "type": "tuple"
        }
      ],
      "payable": false,
      "stateMutability": "view",
      "type": "function"
    },
    {
      "constant": true,
      "inputs": [
        {
          "internalType": "uint256",
          "name": "_id",
          "type": "uint256"
        }
      ],
      "name": "getVendor",
      "outputs": [
        {
          "components": [
            {
              "internalType": "uint256",
              "name": "vendor_id",
              "type": "uint256"
            },
            {
              "internalType": "string",
              "name": "first_name",
              "type": "string"
            },
            {
              "internalType": "string",
              "name": "last_name",
              "type": "string"
            },
            {
              "internalType": "string",
              "name": "phone",
              "type": "string"
            },
            {
              "internalType": "string",
              "name": "location",
              "type": "string"
            },
            {
              "internalType": "string",
              "name": "password",
              "type": "string"
            },
            {
              "internalType": "bool",
              "name": "isBlacklisted",
              "type": "bool"
            },
            {
              "internalType": "address",
              "name": "wallet_addr",
              "type": "address"
            }
          ],
          "internalType": "struct AssetLibrary.Vendor",
          "name": "",
          "type": "tuple"
        }
      ],
      "payable": false,
      "stateMutability": "view",
      "type": "function"
    },
    {
      "constant": true,
      "inputs": [],
      "name": "getAllConsumers",
      "outputs": [
        {
          "internalType": "string[]",
          "name": "",
          "type": "string[]"
        }
      ],
      "payable": false,
      "stateMutability": "view",
      "type": "function"
    },
    {
      "constant": true,
      "inputs": [],
      "name": "getAllVendors",
      "outputs": [
        {
          "internalType": "uint256[]",
          "name": "",
          "type": "uint256[]"
        }
      ],
      "payable": false,
      "stateMutability": "view",
      "type": "function"
    },
    {
      "constant": true,
      "inputs": [
        {
          "internalType": "string",
          "name": "_ration",
          "type": "string"
        }
      ],
      "name": "getAllowance",
      "outputs": [
        {
          "internalType": "uint256",
          "name": "",
          "type": "uint256"
        },
        {
          "internalType": "uint256",
          "name": "",
          "type": "uint256"
        },
        {
          "internalType": "uint256",
          "name": "",
          "type": "uint256"
        },
        {
          "internalType": "uint256",
          "name": "",
          "type": "uint256"
        }
      ],
      "payable": false,
      "stateMutability": "view",
      "type": "function"
    },
    {
      "constant": true,
      "inputs": [
        {
          "internalType": "uint256",
          "name": "_id",
          "type": "uint256"
        }
      ],
      "name": "getStock",
      "outputs": [
        {
          "internalType": "uint256",
          "name": "",
          "type": "uint256"
        },
        {
          "internalType": "uint256",
          "name": "",
          "type": "uint256"
        },
        {
          "internalType": "uint256",
          "name": "",
          "type": "uint256"
        },
        {
          "internalType": "uint256",
          "name": "",
          "type": "uint256"
        }
      ],
      "payable": false,
      "stateMutability": "view",
      "type": "function"
    },
    {
      "constant": false,
      "inputs": [
        {
          "internalType": "string",
          "name": "_ration",
          "type": "string"
        },
        {
          "internalType": "uint256",
          "name": "_vendorID",
          "type": "uint256"
        },
        {
          "internalType": "uint256[]",
          "name": "quantity_commodity",
          "type": "uint256[]"
        },
        {
          "internalType": "string",
          "name": "timestamp",
          "type": "string"
        }
      ],
      "name": "updateAllowance",
      "outputs": [],
      "payable": false,
      "stateMutability": "nonpayable",
      "type": "function"
    },
    {
      "constant": true,
      "inputs": [
        {
          "internalType": "string",
          "name": "_ration",
          "type": "string"
        }
      ],
      "name": "getTransactions",
      "outputs": [
        {
          "components": [
            {
              "internalType": "string",
              "name": "consumer_ration_id",
              "type": "string"
            },
            {
              "internalType": "uint256",
              "name": "vendor_id",
              "type": "uint256"
            },
            {
              "internalType": "uint256[]",
              "name": "quantity",
              "type": "uint256[]"
            },
            {
              "internalType": "string",
              "name": "timestamp",
              "type": "string"
            }
          ],
          "internalType": "struct AssetLibrary.Transaction[]",
          "name": "",
          "type": "tuple[]"
        }
      ],
      "payable": false,
      "stateMutability": "view",
      "type": "function"
    },
    {
      "constant": false,
      "inputs": [
        {
          "internalType": "string",
          "name": "_ration",
          "type": "string"
        }
      ],
      "name": "refillAllowance",
      "outputs": [],
      "payable": false,
      "stateMutability": "nonpayable",
      "type": "function"
    },
    {
      "constant": false,
      "inputs": [
        {
          "internalType": "uint256",
          "name": "_vendorID",
          "type": "uint256"
        }
      ],
      "name": "refillStock",
      "outputs": [],
      "payable": false,
      "stateMutability": "nonpayable",
      "type": "function"
    },
    {
      "constant": false,
      "inputs": [
        {
          "internalType": "uint256",
          "name": "_id",
          "type": "uint256"
        }
      ],
      "name": "blacklist",
      "outputs": [],
      "payable": false,
      "stateMutability": "nonpayable",
      "type": "function"
    },
    {
      "constant": false,
      "inputs": [
        {
          "internalType": "string",
          "name": "_ration",
          "type": "string"
        },
        {
          "internalType": "uint256",
          "name": "card_type",
          "type": "uint256"
        }
      ],
      "name": "updateCardType",
      "outputs": [],
      "payable": false,
      "stateMutability": "nonpayable",
      "type": "function"
    },
    {
      "constant": false,
      "inputs": [
        {
          "internalType": "string",
          "name": "ration_card",
          "type": "string"
        },
        {
          "internalType": "uint256",
          "name": "ration_card_type",
          "type": "uint256"
        },
        {
          "internalType": "string",
          "name": "first_name",
          "type": "string"
        },
        {
          "internalType": "string",
          "name": "last_name",
          "type": "string"
        },
        {
          "internalType": "string",
          "name": "phone",
          "type": "string"
        },
        {
          "internalType": "string",
          "name": "location",
          "type": "string"
        },
        {
          "internalType": "uint256",
          "name": "vendor_id",
          "type": "uint256"
        },
        {
          "internalType": "string",
          "name": "password",
          "type": "string"
        },
        {
          "internalType": "address",
          "name": "wallet_addr",
          "type": "address"
        }
      ],
      "name": "addConsumer",
      "outputs": [],
      "payable": false,
      "stateMutability": "nonpayable",
      "type": "function"
    },
    {
      "constant": false,
      "inputs": [
        {
          "internalType": "uint256",
          "name": "vendor_id",
          "type": "uint256"
        },
        {
          "internalType": "string",
          "name": "first_name",
          "type": "string"
        },
        {
          "internalType": "string",
          "name": "last_name",
          "type": "string"
        },
        {
          "internalType": "string",
          "name": "phone",
          "type": "string"
        },
        {
          "internalType": "string",
          "name": "location",
          "type": "string"
        },
        {
          "internalType": "string",
          "name": "password",
          "type": "string"
        },
        {
          "internalType": "bool",
          "name": "isBlacklisted",
          "type": "bool"
        },
        {
          "internalType": "address",
          "name": "wallet_addr",
          "type": "address"
        }
      ],
      "name": "addVendor",
      "outputs": [],
      "payable": false,
      "stateMutability": "nonpayable",
      "type": "function"
    }
  ],
  "bytecode": "0x60806040523480156200001157600080fd5b506040518061012001604052806040518060400160405280600c81526020017f4d483132333435363738393000000000000000000000000000000000000000008152508152602001600181526020016040518060400160405280600381526020017f52616d000000000000000000000000000000000000000000000000000000000081525081526020016040518060400160405280600881526020017f47686f727061646500000000000000000000000000000000000000000000000081525081526020016040518060400160405280600a81526020017f313233343536373839300000000000000000000000000000000000000000000081525081526020016040518060400160405280600681526020017f4d756d62616900000000000000000000000000000000000000000000000000008152508152602001600181526020016040518060400160405280600881526020017f48656c6c6f313233000000000000000000000000000000000000000000000000815250815260200173d905f36cedffc58c3b16a3dd0759ef8cd3dcea8a73ffffffffffffffffffffffffffffffffffffffff168152506001604051620001cc9062001934565b90815260200160405180910390206000820151816000019080519060200190620001f8929190620015bb565b5060208201518160010155604082015181600201908051906020019062000221929190620015bb565b50606082015181600301908051906020019062000240929190620015bb565b5060808201518160040190805190602001906200025f929190620015bb565b5060a08201518160050190805190602001906200027e929190620015bb565b5060c0820151816006015560e0820151816007019080519060200190620002a7929190620015bb565b506101008201518160080160006101000a81548173ffffffffffffffffffffffffffffffffffffffff021916908373ffffffffffffffffffffffffffffffffffffffff1602179055509050506040518061012001604052806040518060400160405280600c81526020017f4d483132333435303938373600000000000000000000000000000000000000008152508152602001600281526020016040518060400160405280600581526020017f536879616d00000000000000000000000000000000000000000000000000000081525081526020016040518060400160405280600881526020017f47686f727061646500000000000000000000000000000000000000000000000081525081526020016040518060400160405280600a81526020017f313233343530393837360000000000000000000000000000000000000000000081525081526020016040518060400160405280600681526020017f4d756d62616900000000000000000000000000000000000000000000000000008152508152602001600181526020016040518060400160405280600981526020017f48656c6c6f313233340000000000000000000000000000000000000000000000815250815260200173b793c1d9c9d5050859864dbd321fc873e7942e5473ffffffffffffffffffffffffffffffffffffffff168152506001604051620004ad9062001962565b90815260200160405180910390206000820151816000019080519060200190620004d9929190620015bb565b5060208201518160010155604082015181600201908051906020019062000502929190620015bb565b50606082015181600301908051906020019062000521929190620015bb565b50608082015181600401908051906020019062000540929190620015bb565b5060a08201518160050190805190602001906200055f929190620015bb565b5060c0820151816006015560e082015181600701908051906020019062000588929190620015bb565b506101008201518160080160006101000a81548173ffffffffffffffffffffffffffffffffffffffff021916908373ffffffffffffffffffffffffffffffffffffffff1602179055509050506040518061012001604052806040518060400160405280600c81526020017f4d483132333435303938373600000000000000000000000000000000000000008152508152602001600281526020016040518060400160405280600a81526020017f4768616e61736879616d0000000000000000000000000000000000000000000081525081526020016040518060400160405280600981526020017f4465736870616e6465000000000000000000000000000000000000000000000081525081526020016040518060400160405280600a81526020017f313233343530393837360000000000000000000000000000000000000000000081525081526020016040518060400160405280600681526020017f4d756d62616900000000000000000000000000000000000000000000000000008152508152602001600181526020016040518060400160405280600981526020017f48656c6c6f313233350000000000000000000000000000000000000000000000815250815260200173b7c6562bf283534a775d5198195bfd8d47d2264773ffffffffffffffffffffffffffffffffffffffff1681525060016040516200078e9062001962565b90815260200160405180910390206000820151816000019080519060200190620007ba929190620015bb565b50602082015181600101556040820151816002019080519060200190620007e3929190620015bb565b50606082015181600301908051906020019062000802929190620015bb565b50608082015181600401908051906020019062000821929190620015bb565b5060a082015181600501908051906020019062000840929190620015bb565b5060c0820151816006015560e082015181600701908051906020019062000869929190620015bb565b506101008201518160080160006101000a81548173ffffffffffffffffffffffffffffffffffffffff021916908373ffffffffffffffffffffffffffffffffffffffff1602179055509050506040518061012001604052806040518060400160405280600c81526020017f4d483938373635343132333000000000000000000000000000000000000000008152508152602001600181526020016040518060400160405280600581526020017f446167647500000000000000000000000000000000000000000000000000000081525081526020016040518060400160405280600581526020017f506172616200000000000000000000000000000000000000000000000000000081525081526020016040518060400160405280600a81526020017f393837363534313233300000000000000000000000000000000000000000000081525081526020016040518060400160405280600681526020017f4d756d62616900000000000000000000000000000000000000000000000000008152508152602001600281526020016040518060400160405280600981526020017f48656c6c6f313233360000000000000000000000000000000000000000000000815250815260200173b6444a785bc6d27d3facb648dc0714c39f569b2473ffffffffffffffffffffffffffffffffffffffff16815250600160405162000a6f906200194b565b9081526020016040518091039020600082015181600001908051906020019062000a9b929190620015bb565b5060208201518160010155604082015181600201908051906020019062000ac4929190620015bb565b50606082015181600301908051906020019062000ae3929190620015bb565b50608082015181600401908051906020019062000b02929190620015bb565b5060a082015181600501908051906020019062000b21929190620015bb565b5060c0820151816006015560e082015181600701908051906020019062000b4a929190620015bb565b506101008201518160080160006101000a81548173ffffffffffffffffffffffffffffffffffffffff021916908373ffffffffffffffffffffffffffffffffffffffff1602179055509050506040518061012001604052806040518060400160405280600c81526020017f4d483938373635303433323100000000000000000000000000000000000000008152508152602001600381526020016040518060400160405280600381526020017f414243000000000000000000000000000000000000000000000000000000000081525081526020016040518060400160405280600381526020017f58595a000000000000000000000000000000000000000000000000000000000081525081526020016040518060400160405280600a81526020017f393837363530343332310000000000000000000000000000000000000000000081525081526020016040518060400160405280600681526020017f4d756d62616900000000000000000000000000000000000000000000000000008152508152602001600281526020016040518060400160405280600981526020017f48656c6c6f31323337000000000000000000000000000000000000000000000081525081526020017397b814cdcd7f542f413e2cfef8af97c6633fff3d73ffffffffffffffffffffffffffffffffffffffff16815250600160405162000d509062001979565b9081526020016040518091039020600082015181600001908051906020019062000d7c929190620015bb565b5060208201518160010155604082015181600201908051906020019062000da5929190620015bb565b50606082015181600301908051906020019062000dc4929190620015bb565b50608082015181600401908051906020019062000de3929190620015bb565b5060a082015181600501908051906020019062000e02929190620015bb565b5060c0820151816006015560e082015181600701908051906020019062000e2b929190620015bb565b506101008201518160080160006101000a81548173ffffffffffffffffffffffffffffffffffffffff021916908373ffffffffffffffffffffffffffffffffffffffff160217905550905050604051806101000160405280600181526020016040518060400160405280600881526020017f536964646865736800000000000000000000000000000000000000000000000081525081526020016040518060400160405280600581526020017f426167776500000000000000000000000000000000000000000000000000000081525081526020016040518060400160405280600a81526020017f313032393338343735360000000000000000000000000000000000000000000081525081526020016040518060400160405280600681526020017f4d756d626169000000000000000000000000000000000000000000000000000081525081526020016040518060400160405280600881526020017f68656c6c6f393837000000000000000000000000000000000000000000000000815250815260200160001515815260200173675a7359e0d96b9a25dca5d08e1f1ee85b9cd24f73ffffffffffffffffffffffffffffffffffffffff16815250600260006001815260200190815260200160002060008201518160000155602082015181600101908051906020019062001024929190620015bb565b50604082015181600201908051906020019062001043929190620015bb565b50606082015181600301908051906020019062001062929190620015bb565b50608082015181600401908051906020019062001081929190620015bb565b5060a0820151816005019080519060200190620010a0929190620015bb565b5060c08201518160060160006101000a81548160ff02191690831515021790555060e08201518160060160016101000a81548173ffffffffffffffffffffffffffffffffffffffff021916908373ffffffffffffffffffffffffffffffffffffffff160217905550905050604051806101000160405280600281526020016040518060400160405280600581526020017f506f6f6a6100000000000000000000000000000000000000000000000000000081525081526020016040518060400160405280600781526020017f4b61756c6775640000000000000000000000000000000000000000000000000081525081526020016040518060400160405280600a81526020017f393038373536343133320000000000000000000000000000000000000000000081525081526020016040518060400160405280600681526020017f4d756d626169000000000000000000000000000000000000000000000000000081525081526020016040518060400160405280600981526020017f68656c6c6f393837360000000000000000000000000000000000000000000000815250815260200160001515815260200173295b6ae0efe05de0011e9316e27b560ccdcd3ddb73ffffffffffffffffffffffffffffffffffffffff168152506002600060028152602001908152602001600020600082015181600001556020820151816001019080519060200190620012b8929190620015bb565b506040820151816002019080519060200190620012d7929190620015bb565b506060820151816003019080519060200190620012f6929190620015bb565b50608082015181600401908051906020019062001315929190620015bb565b5060a082015181600501908051906020019062001334929190620015bb565b5060c08201518160060160006101000a81548160ff02191690831515021790555060e08201518160060160016101000a81548173ffffffffffffffffffffffffffffffffffffffff021916908373ffffffffffffffffffffffffffffffffffffffff1602179055509050506040518060400160405280600981526020017f61646d696e313233340000000000000000000000000000000000000000000000815250600a9080519060200190620013ec92919062001642565b506040518060a001604052806040518060400160405280600c81526020017f4d4831323334353637383930000000000000000000000000000000000000000081525081526020016040518060400160405280600c81526020017f4d4831323334353039383736000000000000000000000000000000000000000081525081526020016040518060400160405280600c81526020017f4d4831323334353039383736000000000000000000000000000000000000000081525081526020016040518060400160405280600c81526020017f4d4839383736353431323330000000000000000000000000000000000000000081525081526020016040518060400160405280600c81526020017f4d4839383736353034333231000000000000000000000000000000000000000081525081525060079060056200152f929190620016c9565b506040518060400160405280600160ff168152602001600260ff1681525060089060026200155f92919062001730565b50731964f1519ff7acaa5e6b2462070cb0d6817fba4e600960006101000a81548173ffffffffffffffffffffffffffffffffffffffff021916908373ffffffffffffffffffffffffffffffffffffffff1602179055506200199b565b828054600181600116156101000203166002900490600052602060002090601f016020900481019282601f10620015fe57805160ff19168380011785556200162f565b828001600101855582156200162f579182015b828111156200162e57825182559160200191906001019062001611565b5b5090506200163e919062001787565b5090565b828054600181600116156101000203166002900490600052602060002090601f016020900481019282601f106200168557805160ff1916838001178555620016b6565b82800160010185558215620016b6579182015b82811115620016b557825182559160200191906001019062001698565b5b509050620016c5919062001787565b5090565b8280548282559060005260206000209081019282156200171d579160200282015b828111156200171c5782518290805190602001906200170b929190620015bb565b5091602001919060010190620016ea565b5b5090506200172c9190620017af565b5090565b82805482825590600052602060002090810192821562001774579160200282015b8281111562001773578251829060ff1690559160200191906001019062001751565b5b50905062001783919062001787565b5090565b620017ac91905b80821115620017a85760008160009055506001016200178e565b5090565b90565b620017dd91905b80821115620017d95760008181620017cf9190620017e0565b50600101620017b6565b5090565b90565b50805460018160011615610100020316600290046000825580601f1062001808575062001829565b601f01602090049060005260206000209081019062001828919062001787565b5b50565b60006200183b600c8362001990565b91507f4d483132333435363738393000000000000000000000000000000000000000006000830152600c82019050919050565b60006200187d600c8362001990565b91507f4d483938373635343132333000000000000000000000000000000000000000006000830152600c82019050919050565b6000620018bf600c8362001990565b91507f4d483132333435303938373600000000000000000000000000000000000000006000830152600c82019050919050565b600062001901600c8362001990565b91507f4d483938373635303433323100000000000000000000000000000000000000006000830152600c82019050919050565b600062001941826200182c565b9150819050919050565b600062001958826200186e565b9150819050919050565b60006200196f82620018b0565b9150819050919050565b60006200198682620018f2565b9150819050919050565b600081905092915050565b613cac80620019ab6000396000f3fe608060405234801561001057600080fd5b506004361061012c5760003560e01c806353b676e7116100ad57806384090734116100715780638409073414610383578063a71b78e4146103ba578063bff499f2146103d6578063c2898c3c14610406578063ff3dca651461043e5761012c565b806353b676e7146102cd5780635e0b421e146102fd5780636453e8761461031b57806365de1eb3146103375780637a763997146103675761012c565b80633318bca1116100f45780633318bca114610212578063364dfb741461022e5780633ab7d09a1461024c5780634ac3751c1461027f57806350cbb1541461029b5761012c565b80630a8b4823146101315780630f2a09191461016457806313830e041461018057806316fc0834146101b257806326ba9eed146101e2575b600080fd5b61014b60048036036101469190810190612b9e565b61045a565b60405161015b9493929190613970565b60405180910390f35b61017e60048036036101799190810190612ef4565b61056b565b005b61019a60048036036101959190810190612ea0565b6105c0565b6040516101a993929190613774565b60405180910390f35b6101cc60048036036101c79190810190612e34565b61074a565b6040516101d991906138b4565b60405180910390f35b6101fc60048036036101f79190810190612b9e565b61079b565b6040516102099190613870565b60405180910390f35b61022c60048036036102279190810190612cde565b610c0a565b005b610236610da2565b604051610243919061370e565b60405180910390f35b61026660048036036102619190810190612ef4565b610e8b565b6040516102769493929190613970565b60405180910390f35b61029960048036036102949190810190612c33565b610f70565b005b6102b560048036036102b09190810190612ea0565b6112e8565b6040516102c493929190613774565b60405180910390f35b6102e760048036036102e29190810190612b9e565b611472565b6040516102f49190613730565b60405180910390f35b610305611695565b6040516103129190613752565b60405180910390f35b61033560048036036103309190810190612b9e565b6116ed565b005b610351600480360361034c9190810190612ef4565b611a36565b60405161035e9190613892565b60405180910390f35b610381600480360361037c9190810190612ef4565b611e09565b005b61039d60048036036103989190810190612ef4565b611edc565b6040516103b19897969594939291906138cf565b60405180910390f35b6103d460048036036103cf9190810190612f71565b612249565b005b6103f060048036036103eb9190810190612f1d565b6123c9565b6040516103fd91906138b4565b60405180910390f35b610420600480360361041b9190810190612b5d565b612404565b604051610435999897969594939291906137b9565b60405180910390f35b61045860048036036104539190810190612bdf565b612818565b005b600080600080600060038660405161047291906136a3565b908152602001604051809103902060405161048c906136cf565b908152602001604051809103902054905060006003876040516104af91906136a3565b90815260200160405180910390206040516104c9906136f9565b908152602001604051809103902054905060006003886040516104ec91906136a3565b9081526020016040518091039020604051610506906136e4565b9081526020016040518091039020549050600060038960405161052991906136a3565b9081526020016040518091039020604051610543906136ba565b9081526020016040518091039020549050838383839750975097509750505050509193509193565b6002600082815260200190815260200160002060060160009054906101000a900460ff16156002600083815260200190815260200160002060060160006101000a81548160ff02191690831515021790555050565b60058280516020810182018051848252602083016020850120818352809550505050505081815481106105ef57fe5b906000526020600020906004020160009150915050806000018054600181600116156101000203166002900480601f01602080910402602001604051908101604052809291908181526020018280546001816001161561010002031660029004801561069c5780601f106106715761010080835404028352916020019161069c565b820191906000526020600020905b81548152906001019060200180831161067f57829003601f168201915b505050505090806001015490806003018054600181600116156101000203166002900480601f0160208091040260200160405190810160405280929190818152602001828054600181600116156101000203166002900480156107405780601f1061071557610100808354040283529160200191610740565b820191906000526020600020905b81548152906001019060200180831161072357829003601f168201915b5050505050905083565b60038280516020810182018051848252602083016020850120818352809550505050505081805160208101820180518482526020830160208501208183528095505050505050600091509150505481565b6107a3612842565b6001826040516107b391906136a3565b908152602001604051809103902060405180610120016040529081600082018054600181600116156101000203166002900480601f0160208091040260200160405190810160405280929190818152602001828054600181600116156101000203166002900480156108665780601f1061083b57610100808354040283529160200191610866565b820191906000526020600020905b81548152906001019060200180831161084957829003601f168201915b5050505050815260200160018201548152602001600282018054600181600116156101000203166002900480601f0160208091040260200160405190810160405280929190818152602001828054600181600116156101000203166002900480156109125780601f106108e757610100808354040283529160200191610912565b820191906000526020600020905b8154815290600101906020018083116108f557829003601f168201915b50505050508152602001600382018054600181600116156101000203166002900480601f0160208091040260200160405190810160405280929190818152602001828054600181600116156101000203166002900480156109b45780601f10610989576101008083540402835291602001916109b4565b820191906000526020600020905b81548152906001019060200180831161099757829003601f168201915b50505050508152602001600482018054600181600116156101000203166002900480601f016020809104026020016040519081016040528092919081815260200182805460018160011615610100020316600290048015610a565780601f10610a2b57610100808354040283529160200191610a56565b820191906000526020600020905b815481529060010190602001808311610a3957829003601f168201915b50505050508152602001600582018054600181600116156101000203166002900480601f016020809104026020016040519081016040528092919081815260200182805460018160011615610100020316600290048015610af85780601f10610acd57610100808354040283529160200191610af8565b820191906000526020600020905b815481529060010190602001808311610adb57829003601f168201915b5050505050815260200160068201548152602001600782018054600181600116156101000203166002900480601f016020809104026020016040519081016040528092919081815260200182805460018160011615610100020316600290048015610ba45780601f10610b7957610100808354040283529160200191610ba4565b820191906000526020600020905b815481529060010190602001808311610b8757829003601f168201915b505050505081526020016008820160009054906101000a900473ffffffffffffffffffffffffffffffffffffffff1673ffffffffffffffffffffffffffffffffffffffff1673ffffffffffffffffffffffffffffffffffffffff16815250509050919050565b610c12612842565b6040518061012001604052808b81526020018a81526020018981526020018881526020018781526020018681526020018581526020018481526020018373ffffffffffffffffffffffffffffffffffffffff1681525090508060018b604051610c7b91906136a3565b90815260200160405180910390206000820151816000019080519060200190610ca59291906128a4565b50602082015181600101556040820151816002019080519060200190610ccc9291906128a4565b506060820151816003019080519060200190610ce99291906128a4565b506080820151816004019080519060200190610d069291906128a4565b5060a0820151816005019080519060200190610d239291906128a4565b5060c0820151816006015560e0820151816007019080519060200190610d4a9291906128a4565b506101008201518160080160006101000a81548173ffffffffffffffffffffffffffffffffffffffff021916908373ffffffffffffffffffffffffffffffffffffffff16021790555090505050505050505050505050565b60606007805480602002602001604051908101604052809291908181526020016000905b82821015610e82578382906000526020600020018054600181600116156101000203166002900480601f016020809104026020016040519081016040528092919081815260200182805460018160011615610100020316600290048015610e6e5780601f10610e4357610100808354040283529160200191610e6e565b820191906000526020600020905b815481529060010190602001808311610e5157829003601f168201915b505050505081526020019060010190610dc6565b50505050905090565b600080600080600060046000878152602001908152602001600020604051610eb2906136cf565b9081526020016040518091039020549050600060046000888152602001908152602001600020604051610ee4906136f9565b9081526020016040518091039020549050600060046000898152602001908152602001600020604051610f16906136e4565b90815260200160405180910390205490506000600460008a8152602001908152602001600020604051610f48906136ba565b9081526020016040518091039020549050838383839750975097509750505050509193509193565b81600081518110610f7d57fe5b6020026020010151600385604051610f9591906136a3565b9081526020016040518091039020604051610faf906136cf565b90815260200160405180910390206000828254039250508190555081600181518110610fd757fe5b6020026020010151600385604051610fef91906136a3565b9081526020016040518091039020604051611009906136f9565b9081526020016040518091039020600082825403925050819055508160028151811061103157fe5b602002602001015160038560405161104991906136a3565b9081526020016040518091039020604051611063906136e4565b9081526020016040518091039020600082825403925050819055508160038151811061108b57fe5b60200260200101516003856040516110a391906136a3565b90815260200160405180910390206040516110bd906136ba565b908152602001604051809103902060008282540392505081905550816000815181106110e557fe5b60200260200101516004600085815260200190815260200160002060405161110c906136cf565b9081526020016040518091039020600082825403925050819055508160018151811061113457fe5b60200260200101516004600085815260200190815260200160002060405161115b906136f9565b9081526020016040518091039020600082825403925050819055508160028151811061118357fe5b6020026020010151600460008581526020019081526020016000206040516111aa906136e4565b908152602001604051809103902060008282540392505081905550816003815181106111d257fe5b6020026020010151600460008581526020019081526020016000206040516111f9906136ba565b90815260200160405180910390206000828254039250508190555060058460405161122491906136a3565b908152602001604051809103902060405180608001604052808681526020018581526020018481526020018381525090806001815401808255809150509060018203906000526020600020906004020160009091929091909150600082015181600001908051906020019061129a9291906128a4565b506020820151816001015560408201518160020190805190602001906112c1929190612924565b5060608201518160030190805190602001906112de9291906128a4565b5050505050505050565b600682805160208101820180518482526020830160208501208183528095505050505050818154811061131757fe5b906000526020600020906004020160009150915050806000018054600181600116156101000203166002900480601f0160208091040260200160405190810160405280929190818152602001828054600181600116156101000203166002900480156113c45780601f10611399576101008083540402835291602001916113c4565b820191906000526020600020905b8154815290600101906020018083116113a757829003601f168201915b505050505090806001015490806003018054600181600116156101000203166002900480601f0160208091040260200160405190810160405280929190818152602001828054600181600116156101000203166002900480156114685780601f1061143d57610100808354040283529160200191611468565b820191906000526020600020905b81548152906001019060200180831161144b57829003601f168201915b5050505050905083565b606060058260405161148491906136a3565b9081526020016040518091039020805480602002602001604051908101604052809291908181526020016000905b8282101561168a5783829060005260206000209060040201604051806080016040529081600082018054600181600116156101000203166002900480601f01602080910402602001604051908101604052809291908181526020018280546001816001161561010002031660029004801561156e5780601f106115435761010080835404028352916020019161156e565b820191906000526020600020905b81548152906001019060200180831161155157829003601f168201915b5050505050815260200160018201548152602001600282018054806020026020016040519081016040528092919081815260200182805480156115d057602002820191906000526020600020905b8154815260200190600101908083116115bc575b50505050508152602001600382018054600181600116156101000203166002900480601f0160208091040260200160405190810160405280929190818152602001828054600181600116156101000203166002900480156116725780601f1061164757610100808354040283529160200191611672565b820191906000526020600020905b81548152906001019060200180831161165557829003601f168201915b505050505081525050815260200190600101906114b2565b505050509050919050565b606060088054806020026020016040519081016040528092919081815260200182805480156116e357602002820191906000526020600020905b8154815260200190600101908083116116cf575b5050505050905090565b600180826040516116fe91906136a3565b908152602001604051809103902060010154141561181357600560038260405161172891906136a3565b9081526020016040518091039020604051611742906136cf565b908152602001604051809103902081905550600a60038260405161176691906136a3565b9081526020016040518091039020604051611780906136f9565b90815260200160405180910390208190555060016003826040516117a491906136a3565b90815260200160405180910390206040516117be906136e4565b90815260200160405180910390208190555060056003826040516117e291906136a3565b90815260200160405180910390206040516117fc906136ba565b908152602001604051809103902081905550611a33565b600260018260405161182591906136a3565b908152602001604051809103902060010154141561193a57600a60038260405161184f91906136a3565b9081526020016040518091039020604051611869906136cf565b908152602001604051809103902081905550600f60038260405161188d91906136a3565b90815260200160405180910390206040516118a7906136f9565b90815260200160405180910390208190555060026003826040516118cb91906136a3565b90815260200160405180910390206040516118e5906136e4565b908152602001604051809103902081905550600760038260405161190991906136a3565b9081526020016040518091039020604051611923906136ba565b908152602001604051809103902081905550611a32565b600c60038260405161194c91906136a3565b9081526020016040518091039020604051611966906136cf565b908152602001604051809103902081905550601160038260405161198a91906136a3565b90815260200160405180910390206040516119a4906136f9565b908152602001604051809103902081905550600380826040516119c791906136a3565b90815260200160405180910390206040516119e1906136e4565b908152602001604051809103902081905550600a600382604051611a0591906136a3565b9081526020016040518091039020604051611a1f906136ba565b9081526020016040518091039020819055505b5b50565b611a3e612971565b600260008381526020019081526020016000206040518061010001604052908160008201548152602001600182018054600181600116156101000203166002900480601f016020809104026020016040519081016040528092919081815260200182805460018160011615610100020316600290048015611b005780601f10611ad557610100808354040283529160200191611b00565b820191906000526020600020905b815481529060010190602001808311611ae357829003601f168201915b50505050508152602001600282018054600181600116156101000203166002900480601f016020809104026020016040519081016040528092919081815260200182805460018160011615610100020316600290048015611ba25780601f10611b7757610100808354040283529160200191611ba2565b820191906000526020600020905b815481529060010190602001808311611b8557829003601f168201915b50505050508152602001600382018054600181600116156101000203166002900480601f016020809104026020016040519081016040528092919081815260200182805460018160011615610100020316600290048015611c445780601f10611c1957610100808354040283529160200191611c44565b820191906000526020600020905b815481529060010190602001808311611c2757829003601f168201915b50505050508152602001600482018054600181600116156101000203166002900480601f016020809104026020016040519081016040528092919081815260200182805460018160011615610100020316600290048015611ce65780601f10611cbb57610100808354040283529160200191611ce6565b820191906000526020600020905b815481529060010190602001808311611cc957829003601f168201915b50505050508152602001600582018054600181600116156101000203166002900480601f016020809104026020016040519081016040528092919081815260200182805460018160011615610100020316600290048015611d885780601f10611d5d57610100808354040283529160200191611d88565b820191906000526020600020905b815481529060010190602001808311611d6b57829003601f168201915b505050505081526020016006820160009054906101000a900460ff161515151581526020016006820160019054906101000a900473ffffffffffffffffffffffffffffffffffffffff1673ffffffffffffffffffffffffffffffffffffffff1673ffffffffffffffffffffffffffffffffffffffff16815250509050919050565b6101f460046000838152602001908152602001600020604051611e2b906136cf565b9081526020016040518091039020819055506103e860046000838152602001908152602001600020604051611e5f906136f9565b9081526020016040518091039020819055506101f460046000838152602001908152602001600020604051611e93906136e4565b9081526020016040518091039020819055506101f460046000838152602001908152602001600020604051611ec7906136ba565b90815260200160405180910390208190555050565b6002602052806000526040600020600091509050806000015490806001018054600181600116156101000203166002900480601f016020809104026020016040519081016040528092919081815260200182805460018160011615610100020316600290048015611f8e5780601f10611f6357610100808354040283529160200191611f8e565b820191906000526020600020905b815481529060010190602001808311611f7157829003601f168201915b505050505090806002018054600181600116156101000203166002900480601f01602080910402602001604051908101604052809291908181526020018280546001816001161561010002031660029004801561202c5780601f106120015761010080835404028352916020019161202c565b820191906000526020600020905b81548152906001019060200180831161200f57829003601f168201915b505050505090806003018054600181600116156101000203166002900480601f0160208091040260200160405190810160405280929190818152602001828054600181600116156101000203166002900480156120ca5780601f1061209f576101008083540402835291602001916120ca565b820191906000526020600020905b8154815290600101906020018083116120ad57829003601f168201915b505050505090806004018054600181600116156101000203166002900480601f0160208091040260200160405190810160405280929190818152602001828054600181600116156101000203166002900480156121685780601f1061213d57610100808354040283529160200191612168565b820191906000526020600020905b81548152906001019060200180831161214b57829003601f168201915b505050505090806005018054600181600116156101000203166002900480601f0160208091040260200160405190810160405280929190818152602001828054600181600116156101000203166002900480156122065780601f106121db57610100808354040283529160200191612206565b820191906000526020600020905b8154815290600101906020018083116121e957829003601f168201915b5050505050908060060160009054906101000a900460ff16908060060160019054906101000a900473ffffffffffffffffffffffffffffffffffffffff16905088565b612251612971565b6040518061010001604052808a815260200189815260200188815260200187815260200186815260200185815260200184151581526020018373ffffffffffffffffffffffffffffffffffffffff16815250905080600260008b81526020019081526020016000206000820151816000015560208201518160010190805190602001906122df9291906128a4565b5060408201518160020190805190602001906122fc9291906128a4565b5060608201518160030190805190602001906123199291906128a4565b5060808201518160040190805190602001906123369291906128a4565b5060a08201518160050190805190602001906123539291906128a4565b5060c08201518160060160006101000a81548160ff02191690831515021790555060e08201518160060160016101000a81548173ffffffffffffffffffffffffffffffffffffffff021916908373ffffffffffffffffffffffffffffffffffffffff160217905550905050505050505050505050565b600460205281600052604060002081805160208101820180518482526020830160208501208183528095505050505050600091509150505481565b600181805160208101820180518482526020830160208501208183528095505050505050600091509050806000018054600181600116156101000203166002900480601f0160208091040260200160405190810160405280929190818152602001828054600181600116156101000203166002900480156124c65780601f1061249b576101008083540402835291602001916124c6565b820191906000526020600020905b8154815290600101906020018083116124a957829003601f168201915b505050505090806001015490806002018054600181600116156101000203166002900480601f01602080910402602001604051908101604052809291908181526020018280546001816001161561010002031660029004801561256a5780601f1061253f5761010080835404028352916020019161256a565b820191906000526020600020905b81548152906001019060200180831161254d57829003601f168201915b505050505090806003018054600181600116156101000203166002900480601f0160208091040260200160405190810160405280929190818152602001828054600181600116156101000203166002900480156126085780601f106125dd57610100808354040283529160200191612608565b820191906000526020600020905b8154815290600101906020018083116125eb57829003601f168201915b505050505090806004018054600181600116156101000203166002900480601f0160208091040260200160405190810160405280929190818152602001828054600181600116156101000203166002900480156126a65780601f1061267b576101008083540402835291602001916126a6565b820191906000526020600020905b81548152906001019060200180831161268957829003601f168201915b505050505090806005018054600181600116156101000203166002900480601f0160208091040260200160405190810160405280929190818152602001828054600181600116156101000203166002900480156127445780601f1061271957610100808354040283529160200191612744565b820191906000526020600020905b81548152906001019060200180831161272757829003601f168201915b505050505090806006015490806007018054600181600116156101000203166002900480601f0160208091040260200160405190810160405280929190818152602001828054600181600116156101000203166002900480156127e85780601f106127bd576101008083540402835291602001916127e8565b820191906000526020600020905b8154815290600101906020018083116127cb57829003601f168201915b5050505050908060080160009054906101000a900473ffffffffffffffffffffffffffffffffffffffff16905089565b8060018360405161282991906136a3565b9081526020016040518091039020600101819055505050565b6040518061012001604052806060815260200160008152602001606081526020016060815260200160608152602001606081526020016000815260200160608152602001600073ffffffffffffffffffffffffffffffffffffffff1681525090565b828054600181600116156101000203166002900490600052602060002090601f016020900481019282601f106128e557805160ff1916838001178555612913565b82800160010185558215612913579182015b828111156129125782518255916020019190600101906128f7565b5b50905061292091906129ce565b5090565b828054828255906000526020600020908101928215612960579160200282015b8281111561295f578251825591602001919060010190612944565b5b50905061296d91906129ce565b5090565b604051806101000160405280600081526020016060815260200160608152602001606081526020016060815260200160608152602001600015158152602001600073ffffffffffffffffffffffffffffffffffffffff1681525090565b6129f091905b808211156129ec5760008160009055506001016129d4565b5090565b90565b600081359050612a0281613c24565b92915050565b600082601f830112612a1957600080fd5b8135612a2c612a27826139e2565b6139b5565b91508181835260208401935060208101905083856020840282011115612a5157600080fd5b60005b83811015612a815781612a678882612b48565b845260208401935060208301925050600181019050612a54565b5050505092915050565b600081359050612a9a81613c3b565b92915050565b600082601f830112612ab157600080fd5b8135612ac4612abf82613a0a565b6139b5565b91508082526020830160208301858383011115612ae057600080fd5b612aeb838284613bd1565b50505092915050565b600082601f830112612b0557600080fd5b8135612b18612b1382613a36565b6139b5565b91508082526020830160208301858383011115612b3457600080fd5b612b3f838284613bd1565b50505092915050565b600081359050612b5781613c52565b92915050565b600060208284031215612b6f57600080fd5b600082013567ffffffffffffffff811115612b8957600080fd5b612b9584828501612aa0565b91505092915050565b600060208284031215612bb057600080fd5b600082013567ffffffffffffffff811115612bca57600080fd5b612bd684828501612af4565b91505092915050565b60008060408385031215612bf257600080fd5b600083013567ffffffffffffffff811115612c0c57600080fd5b612c1885828601612af4565b9250506020612c2985828601612b48565b9150509250929050565b60008060008060808587031215612c4957600080fd5b600085013567ffffffffffffffff811115612c6357600080fd5b612c6f87828801612af4565b9450506020612c8087828801612b48565b935050604085013567ffffffffffffffff811115612c9d57600080fd5b612ca987828801612a08565b925050606085013567ffffffffffffffff811115612cc657600080fd5b612cd287828801612af4565b91505092959194509250565b60008060008060008060008060006101208a8c031215612cfd57600080fd5b60008a013567ffffffffffffffff811115612d1757600080fd5b612d238c828d01612af4565b9950506020612d348c828d01612b48565b98505060408a013567ffffffffffffffff811115612d5157600080fd5b612d5d8c828d01612af4565b97505060608a013567ffffffffffffffff811115612d7a57600080fd5b612d868c828d01612af4565b96505060808a013567ffffffffffffffff811115612da357600080fd5b612daf8c828d01612af4565b95505060a08a013567ffffffffffffffff811115612dcc57600080fd5b612dd88c828d01612af4565b94505060c0612de98c828d01612b48565b93505060e08a013567ffffffffffffffff811115612e0657600080fd5b612e128c828d01612af4565b925050610100612e248c828d016129f3565b9150509295985092959850929598565b60008060408385031215612e4757600080fd5b600083013567ffffffffffffffff811115612e6157600080fd5b612e6d85828601612aa0565b925050602083013567ffffffffffffffff811115612e8a57600080fd5b612e9685828601612aa0565b9150509250929050565b60008060408385031215612eb357600080fd5b600083013567ffffffffffffffff811115612ecd57600080fd5b612ed985828601612aa0565b9250506020612eea85828601612b48565b9150509250929050565b600060208284031215612f0657600080fd5b6000612f1484828501612b48565b91505092915050565b60008060408385031215612f3057600080fd5b6000612f3e85828601612b48565b925050602083013567ffffffffffffffff811115612f5b57600080fd5b612f6785828601612aa0565b9150509250929050565b600080600080600080600080610100898b031215612f8e57600080fd5b6000612f9c8b828c01612b48565b985050602089013567ffffffffffffffff811115612fb957600080fd5b612fc58b828c01612af4565b975050604089013567ffffffffffffffff811115612fe257600080fd5b612fee8b828c01612af4565b965050606089013567ffffffffffffffff81111561300b57600080fd5b6130178b828c01612af4565b955050608089013567ffffffffffffffff81111561303457600080fd5b6130408b828c01612af4565b94505060a089013567ffffffffffffffff81111561305d57600080fd5b6130698b828c01612af4565b93505060c061307a8b828c01612a8b565b92505060e061308b8b828c016129f3565b9150509295985092959890939650565b60006130a783836132ee565b905092915050565b60006130bb8383613548565b905092915050565b60006130cf8383613685565b60208301905092915050565b6130e481613b89565b82525050565b6130f381613b89565b82525050565b600061310482613aa2565b61310e8185613b18565b93508360208202850161312085613a62565b8060005b8581101561315c578484038952815161313d858261309b565b945061314883613ae4565b925060208a01995050600181019050613124565b50829750879550505050505092915050565b600061317982613aad565b6131838185613b29565b93508360208202850161319585613a72565b8060005b858110156131d157848403895281516131b285826130af565b94506131bd83613af1565b925060208a01995050600181019050613199565b50829750879550505050505092915050565b60006131ee82613ac3565b6131f88185613b4b565b935061320383613a92565b8060005b8381101561323457815161321b88826130c3565b975061322683613b0b565b925050600181019050613207565b5085935050505092915050565b600061324c82613ab8565b6132568185613b3a565b935061326183613a82565b8060005b8381101561329257815161327988826130c3565b975061328483613afe565b925050600181019050613265565b5085935050505092915050565b6132a881613b9b565b82525050565b6132b781613b9b565b82525050565b60006132c882613ad9565b6132d28185613b7e565b93506132e2818560208601613be0565b80840191505092915050565b60006132f982613ace565b6133038185613b5c565b9350613313818560208601613be0565b61331c81613c13565b840191505092915050565b600061333282613ace565b61333c8185613b6d565b935061334c818560208601613be0565b61335581613c13565b840191505092915050565b600061336d600883613b7e565b91507f4b65726f73656e650000000000000000000000000000000000000000000000006000830152600882019050919050565b60006133ad600483613b7e565b91507f52696365000000000000000000000000000000000000000000000000000000006000830152600482019050919050565b60006133ed600583613b7e565b91507f53756761720000000000000000000000000000000000000000000000000000006000830152600582019050919050565b600061342d600583613b7e565b91507f57686561740000000000000000000000000000000000000000000000000000006000830152600582019050919050565b600061012083016000830151848203600086015261347e82826132ee565b91505060208301516134936020860182613685565b50604083015184820360408601526134ab82826132ee565b915050606083015184820360608601526134c582826132ee565b915050608083015184820360808601526134df82826132ee565b91505060a083015184820360a08601526134f982826132ee565b91505060c083015161350e60c0860182613685565b5060e083015184820360e086015261352682826132ee565b91505061010083015161353d6101008601826130db565b508091505092915050565b6000608083016000830151848203600086015261356582826132ee565b915050602083015161357a6020860182613685565b50604083015184820360408601526135928282613241565b915050606083015184820360608601526135ac82826132ee565b9150508091505092915050565b6000610100830160008301516135d26000860182613685565b50602083015184820360208601526135ea82826132ee565b9150506040830151848203604086015261360482826132ee565b9150506060830151848203606086015261361e82826132ee565b9150506080830151848203608086015261363882826132ee565b91505060a083015184820360a086015261365282826132ee565b91505060c083015161366760c086018261329f565b5060e083015161367a60e08601826130db565b508091505092915050565b61368e81613bc7565b82525050565b61369d81613bc7565b82525050565b60006136af82846132bd565b915081905092915050565b60006136c582613360565b9150819050919050565b60006136da826133a0565b9150819050919050565b60006136ef826133e0565b9150819050919050565b600061370482613420565b9150819050919050565b6000602082019050818103600083015261372881846130f9565b905092915050565b6000602082019050818103600083015261374a818461316e565b905092915050565b6000602082019050818103600083015261376c81846131e3565b905092915050565b6000606082019050818103600083015261378e8186613327565b905061379d6020830185613694565b81810360408301526137af8184613327565b9050949350505050565b60006101208201905081810360008301526137d4818c613327565b90506137e3602083018b613694565b81810360408301526137f5818a613327565b905081810360608301526138098189613327565b9050818103608083015261381d8188613327565b905081810360a08301526138318187613327565b905061384060c0830186613694565b81810360e08301526138528185613327565b90506138626101008301846130ea565b9a9950505050505050505050565b6000602082019050818103600083015261388a8184613460565b905092915050565b600060208201905081810360008301526138ac81846135b9565b905092915050565b60006020820190506138c96000830184613694565b92915050565b6000610100820190506138e5600083018b613694565b81810360208301526138f7818a613327565b9050818103604083015261390b8189613327565b9050818103606083015261391f8188613327565b905081810360808301526139338187613327565b905081810360a08301526139478186613327565b905061395660c08301856132ae565b61396360e08301846130ea565b9998505050505050505050565b60006080820190506139856000830187613694565b6139926020830186613694565b61399f6040830185613694565b6139ac6060830184613694565b95945050505050565b6000604051905081810181811067ffffffffffffffff821117156139d857600080fd5b8060405250919050565b600067ffffffffffffffff8211156139f957600080fd5b602082029050602081019050919050565b600067ffffffffffffffff821115613a2157600080fd5b601f19601f8301169050602081019050919050565b600067ffffffffffffffff821115613a4d57600080fd5b601f19601f8301169050602081019050919050565b6000819050602082019050919050565b6000819050602082019050919050565b6000819050602082019050919050565b6000819050602082019050919050565b600081519050919050565b600081519050919050565b600081519050919050565b600081519050919050565b600081519050919050565b600081519050919050565b6000602082019050919050565b6000602082019050919050565b6000602082019050919050565b6000602082019050919050565b600082825260208201905092915050565b600082825260208201905092915050565b600082825260208201905092915050565b600082825260208201905092915050565b600082825260208201905092915050565b600082825260208201905092915050565b600081905092915050565b6000613b9482613ba7565b9050919050565b60008115159050919050565b600073ffffffffffffffffffffffffffffffffffffffff82169050919050565b6000819050919050565b82818337600083830152505050565b60005b83811015613bfe578082015181840152602081019050613be3565b83811115613c0d576000848401525b50505050565b6000601f19601f8301169050919050565b613c2d81613b89565b8114613c3857600080fd5b50565b613c4481613b9b565b8114613c4f57600080fd5b50565b613c5b81613bc7565b8114613c6657600080fd5b5056fea365627a7a72315820ed121bb2bcd0bf865a7d72cf1d40742a63631f0df7b753ba128fc2488fceabf66c6578706572696d656e74616cf564736f6c63430005100040",
  "source": "// SPDX-License-Identifier: MIT\r\npragma solidity >=0.4.21 <8.10.0;\r\npragma experimental ABIEncoderV2;\r\n\r\n// Saffron -- 1, white - 2, yellow -3\r\n// Rice - 4kg, sugar - 0.5kg, wheat - 10kg\r\n\r\nlibrary AssetLibrary {\r\n    struct Consumer {\r\n        string ration_card;\r\n        uint256 ration_card_type;\r\n        string first_name;\r\n        string last_name;\r\n        string phone;\r\n        string location;\r\n        uint256 vendor_id;\r\n        string password;\r\n        address wallet_addr;\r\n    }\r\n\r\n    struct Vendor {\r\n        uint256 vendor_id;\r\n        string first_name;\r\n        string last_name;\r\n        string phone;\r\n        string location;\r\n        string password;\r\n        bool isBlacklisted;\r\n        address wallet_addr;\r\n    }\r\n\r\n    struct Transaction {\r\n        string consumer_ration_id;\r\n        uint256 vendor_id;\r\n        uint256[] quantity;\r\n        string timestamp;\r\n    }\r\n}\r\n\r\ncontract Sanaaj {\r\n    uint256 transactionCount;\r\n    mapping(string => AssetLibrary.Consumer) public consumerList;\r\n    mapping(uint256 => AssetLibrary.Vendor) public vendorList;\r\n    mapping(string => mapping(string => uint256)) public allowanceList;\r\n    mapping(uint256 => mapping(string => uint256)) public stockList;\r\n    mapping(string => AssetLibrary.Transaction[]) public transactionList;\r\n    mapping(string => AssetLibrary.Transaction[]) public pendingTransactionList;\r\n    string[] rationCardList;\r\n    uint256[] vendorIDList;\r\n    address adminAddress;\r\n    string adminPassword;\r\n\r\n    constructor() public {\r\n        consumerList[\"MH1234567890\"] = AssetLibrary.Consumer(\r\n            \"MH1234567890\",\r\n            1,\r\n            \"Ram\",\r\n            \"Ghorpade\",\r\n            \"1234567890\",\r\n            \"Mumbai\",\r\n            1,\r\n            \"Hello123\",\r\n            0xD905f36ceDFfC58c3B16A3Dd0759Ef8cd3DCea8a\r\n        );\r\n        consumerList[\"MH1234509876\"] = AssetLibrary.Consumer(\r\n            \"MH1234509876\",\r\n            2,\r\n            \"Shyam\",\r\n            \"Ghorpade\",\r\n            \"1234509876\",\r\n            \"Mumbai\",\r\n            1,\r\n            \"Hello1234\",\r\n            0xB793c1d9c9D5050859864DbD321Fc873e7942e54\r\n        );\r\n        consumerList[\"MH1234509876\"] = AssetLibrary.Consumer(\r\n            \"MH1234509876\",\r\n            2,\r\n            \"Ghanashyam\",\r\n            \"Deshpande\",\r\n            \"1234509876\",\r\n            \"Mumbai\",\r\n            1,\r\n            \"Hello1235\",\r\n            0xb7C6562BF283534A775d5198195bfD8d47D22647\r\n        );\r\n        consumerList[\"MH9876541230\"] = AssetLibrary.Consumer(\r\n            \"MH9876541230\",\r\n            1,\r\n            \"Dagdu\",\r\n            \"Parab\",\r\n            \"9876541230\",\r\n            \"Mumbai\",\r\n            2,\r\n            \"Hello1236\",\r\n            0xb6444A785Bc6d27d3fAcb648dc0714C39F569B24\r\n        );\r\n        consumerList[\"MH9876504321\"] = AssetLibrary.Consumer(\r\n            \"MH9876504321\",\r\n            3,\r\n            \"ABC\",\r\n            \"XYZ\",\r\n            \"9876504321\",\r\n            \"Mumbai\",\r\n            2,\r\n            \"Hello1237\",\r\n            0x97b814cdcD7F542f413E2CFef8AF97c6633ffF3D\r\n        );\r\n\r\n        vendorList[1] = AssetLibrary.Vendor(\r\n            1,\r\n            \"Siddhesh\",\r\n            \"Bagwe\",\r\n            \"1029384756\",\r\n            \"Mumbai\",\r\n            \"hello987\",\r\n            false,\r\n            0x675A7359e0d96b9A25DCA5d08e1f1Ee85B9cD24f\r\n        );\r\n        vendorList[2] = AssetLibrary.Vendor(\r\n            2,\r\n            \"Pooja\",\r\n            \"Kaulgud\",\r\n            \"9087564132\",\r\n            \"Mumbai\",\r\n            \"hello9876\",\r\n            false,\r\n            0x295b6AE0Efe05de0011E9316E27B560cCdCD3DDb\r\n        );\r\n\r\n        adminPassword = \"admin1234\";\r\n        rationCardList = [\r\n            \"MH1234567890\",\r\n            \"MH1234509876\",\r\n            \"MH1234509876\",\r\n            \"MH9876541230\",\r\n            \"MH9876504321\"\r\n        ];\r\n        vendorIDList = [1, 2];\r\n        adminAddress = 0x1964F1519FF7ACAa5E6b2462070cB0d6817FbA4E;\r\n    }\r\n\r\n    function getConsumer(string memory _ration)\r\n        public\r\n        view\r\n        returns (AssetLibrary.Consumer memory)\r\n    {\r\n        return consumerList[_ration];\r\n    }\r\n\r\n    function getVendor(uint256 _id)\r\n        public\r\n        view\r\n        returns (AssetLibrary.Vendor memory)\r\n    {\r\n        return vendorList[_id];\r\n    }\r\n\r\n    function getAllConsumers() public view returns (string[] memory) {\r\n        // if (byVendor) {\r\n        //     string[] memory consumers;\r\n        //     uint256 count = 0;\r\n        //     for (uint256 i = 0; i < rationCardList.length; i++) {\r\n        //         if (consumerList[rationCardList[i]].vendor_id == _id) {\r\n        //             consumers[count] = rationCardList[i];\r\n        //             count++;\r\n        //         }\r\n        //     }\r\n        //     return consumers;\r\n        // }\r\n\r\n        return rationCardList;\r\n    }\r\n\r\n    function getAllVendors() public view returns (uint256[] memory) {\r\n        return vendorIDList;\r\n    }\r\n\r\n    function getAllowance(string memory _ration)\r\n        public\r\n        view\r\n        returns (\r\n            uint256,\r\n            uint256,\r\n            uint256,\r\n            uint256\r\n        )\r\n    {\r\n        uint256 rice = allowanceList[_ration][\"Rice\"];\r\n        uint256 wheat = allowanceList[_ration][\"Wheat\"];\r\n        uint256 sugar = allowanceList[_ration][\"Sugar\"];\r\n        uint256 kerosene = allowanceList[_ration][\"Kerosene\"];\r\n\r\n        return (rice, wheat, sugar, kerosene);\r\n    }\r\n\r\n    function getStock(uint256 _id)\r\n        public\r\n        view\r\n        returns (\r\n            uint256,\r\n            uint256,\r\n            uint256,\r\n            uint256\r\n        )\r\n    {\r\n        uint256 rice = stockList[_id][\"Rice\"];\r\n        uint256 wheat = stockList[_id][\"Wheat\"];\r\n        uint256 sugar = stockList[_id][\"Sugar\"];\r\n        uint256 kerosene = stockList[_id][\"Kerosene\"];\r\n\r\n        return (rice, wheat, sugar, kerosene);\r\n    }\r\n\r\n    // (ration, 2, [5, 10, 5, 2] )\r\n\r\n    function updateAllowance(\r\n        string memory _ration,\r\n        uint256 _vendorID,\r\n        uint256[] memory quantity_commodity,\r\n        string memory timestamp\r\n    ) public {\r\n        allowanceList[_ration][\"Rice\"] -= quantity_commodity[0];\r\n        allowanceList[_ration][\"Wheat\"] -= quantity_commodity[1];\r\n        allowanceList[_ration][\"Sugar\"] -= quantity_commodity[2];\r\n        allowanceList[_ration][\"Kerosene\"] -= quantity_commodity[3];\r\n\r\n        stockList[_vendorID][\"Rice\"] -= quantity_commodity[0];\r\n        stockList[_vendorID][\"Wheat\"] -= quantity_commodity[1];\r\n        stockList[_vendorID][\"Sugar\"] -= quantity_commodity[2];\r\n        stockList[_vendorID][\"Kerosene\"] -= quantity_commodity[3];\r\n\r\n        transactionList[_ration].push(\r\n            AssetLibrary.Transaction(\r\n                _ration,\r\n                _vendorID,\r\n                quantity_commodity,\r\n                timestamp\r\n            )\r\n        );\r\n    }\r\n\r\n    function getTransactions(string memory _ration)\r\n        public\r\n        view\r\n        returns (AssetLibrary.Transaction[] memory)\r\n    {\r\n        return transactionList[_ration];\r\n    }\r\n\r\n    function refillAllowance(string memory _ration) public {\r\n        if (consumerList[_ration].ration_card_type == 1) {\r\n            allowanceList[_ration][\"Rice\"] = 5;\r\n            allowanceList[_ration][\"Wheat\"] = 10;\r\n            allowanceList[_ration][\"Sugar\"] = 1;\r\n            allowanceList[_ration][\"Kerosene\"] = 5;\r\n        } else if (consumerList[_ration].ration_card_type == 2) {\r\n            allowanceList[_ration][\"Rice\"] = 10;\r\n            allowanceList[_ration][\"Wheat\"] = 15;\r\n            allowanceList[_ration][\"Sugar\"] = 2;\r\n            allowanceList[_ration][\"Kerosene\"] = 7;\r\n        } else {\r\n            allowanceList[_ration][\"Rice\"] = 12;\r\n            allowanceList[_ration][\"Wheat\"] = 17;\r\n            allowanceList[_ration][\"Sugar\"] = 3;\r\n            allowanceList[_ration][\"Kerosene\"] = 10;\r\n        }\r\n    }\r\n\r\n    function refillStock(uint256 _vendorID) public {\r\n        stockList[_vendorID][\"Rice\"] = 500;\r\n        stockList[_vendorID][\"Wheat\"] = 1000;\r\n        stockList[_vendorID][\"Sugar\"] = 500;\r\n        stockList[_vendorID][\"Kerosene\"] = 500;\r\n    }\r\n\r\n    function blacklist(uint256 _id) public {\r\n        vendorList[_id].isBlacklisted = !vendorList[_id].isBlacklisted;\r\n    }\r\n\r\n    function updateCardType(string memory _ration, uint256 card_type) public {\r\n        consumerList[_ration].ration_card_type = card_type;\r\n    }\r\n\r\n    function addConsumer(\r\n        string memory ration_card,\r\n        uint256 ration_card_type,\r\n        string memory first_name,\r\n        string memory last_name,\r\n        string memory phone,\r\n        string memory location,\r\n        uint256 vendor_id,\r\n        string memory password,\r\n        address wallet_addr\r\n    ) public {\r\n        AssetLibrary.Consumer memory consumer = AssetLibrary.Consumer(\r\n            ration_card,\r\n            ration_card_type,\r\n            first_name,\r\n            last_name,\r\n            phone,\r\n            location,\r\n            vendor_id,\r\n            password,\r\n            wallet_addr\r\n        );\r\n\r\n        consumerList[ration_card] = consumer;\r\n    }\r\n\r\n    function addVendor(\r\n        uint256 vendor_id,\r\n        string memory first_name,\r\n        string memory last_name,\r\n        string memory phone,\r\n        string memory location,\r\n        string memory password,\r\n        bool isBlacklisted,\r\n        address wallet_addr\r\n    ) public {\r\n        AssetLibrary.Vendor memory vendor = AssetLibrary.Vendor(\r\n            vendor_id,\r\n            first_name,\r\n            last_name,\r\n            phone,\r\n            location,\r\n            password,\r\n            isBlacklisted,\r\n            wallet_addr\r\n        );\r\n\r\n        vendorList[vendor_id] = vendor;\r\n    }\r\n}\r\n",
  "sourcePath": "C:\\Users\\Aditi\\Desktop\\TY_Aditi\\Sem VI\\MiniProject\\SaNaaj\\contracts\\Sanaaj.sol",
  "compiler": {
    "name": "solc",
    "version": "0.5.16+commit.9c3226ce.Emscripten.clang"
  },
  "schemaVersion": "3.4.7",
  "updatedAt": "2022-04-20T09:33:17.528Z",
  "networkType": "ethereum",
  "devdoc": {
    "methods": {}
  },
  "userdoc": {
    "methods": {}
  }
}