{
  "contractName": "Sanaaj",
  "abi": [
    {
      "inputs": [
        {
          "internalType": "string",
          "name": "x",
          "type": "string"
        },
        {
          "internalType": "int256",
          "name": "p",
          "type": "int256"
        },
        {
          "internalType": "string",
          "name": "cust",
          "type": "string"
        },
        {
          "internalType": "string",
          "name": "merch",
          "type": "string"
        }
      ],
      "payable": false,
      "stateMutability": "nonpayable",
      "type": "constructor"
    },
    {
      "constant": false,
      "inputs": [
        {
          "internalType": "string",
          "name": "x",
          "type": "string"
        },
        {
          "internalType": "int256",
          "name": "p",
          "type": "int256"
        },
        {
          "internalType": "string",
          "name": "cust",
          "type": "string"
        },
        {
          "internalType": "string",
          "name": "merch",
          "type": "string"
        }
      ],
      "name": "set",
      "outputs": [],
      "payable": false,
      "stateMutability": "nonpayable",
      "type": "function"
    },
    {
      "constant": true,
      "inputs": [],
      "name": "get",
      "outputs": [
        {
          "internalType": "string",
          "name": "",
          "type": "string"
        },
        {
          "internalType": "int256",
          "name": "",
          "type": "int256"
        },
        {
          "internalType": "string",
          "name": "",
          "type": "string"
        },
        {
          "internalType": "string",
          "name": "",
          "type": "string"
        }
      ],
      "payable": false,
      "stateMutability": "view",
      "type": "function"
    },
    {
      "constant": true,
      "inputs": [
        {
          "internalType": "address",
          "name": "addr",
          "type": "address"
        }
      ],
      "name": "getBalance",
      "outputs": [
        {
          "internalType": "uint256",
          "name": "",
          "type": "uint256"
        }
      ],
      "payable": false,
      "stateMutability": "view",
      "type": "function"
    },
    {
      "constant": false,
      "inputs": [
        {
          "internalType": "uint256",
          "name": "amount",
          "type": "uint256"
        }
      ],
      "name": "restock",
      "outputs": [],
      "payable": false,
      "stateMutability": "nonpayable",
      "type": "function"
    },
    {
      "constant": false,
      "inputs": [
        {
          "internalType": "uint256",
          "name": "amount",
          "type": "uint256"
        }
      ],
      "name": "purchase",
      "outputs": [],
      "payable": true,
      "stateMutability": "payable",
      "type": "function"
    }
  ],
  "bytecode": "0x60806040523480156200001157600080fd5b5060405162000e0a38038062000e0a833981810160405260808110156200003757600080fd5b81019080805160405193929190846401000000008211156200005857600080fd5b838201915060208201858111156200006f57600080fd5b82518660018202830111640100000000821117156200008d57600080fd5b8083526020830192505050908051906020019080838360005b83811015620000c3578082015181840152602081019050620000a6565b50505050905090810190601f168015620000f15780820380516001836020036101000a031916815260200191505b5060405260200180519060200190929190805160405193929190846401000000008211156200011f57600080fd5b838201915060208201858111156200013657600080fd5b82518660018202830111640100000000821117156200015457600080fd5b8083526020830192505050908051906020019080838360005b838110156200018a5780820151818401526020810190506200016d565b50505050905090810190601f168015620001b85780820380516001836020036101000a031916815260200191505b5060405260200180516040519392919084640100000000821115620001dc57600080fd5b83820191506020820185811115620001f357600080fd5b82518660018202830111640100000000821117156200021157600080fd5b8083526020830192505050908051906020019080838360005b83811015620002475780820151818401526020810190506200022a565b50505050905090810190601f168015620002755780820380516001836020036101000a031916815260200191505b506040525050508360019080519060200190620002949291906200031c565b50826002819055508160039080519060200190620002b49291906200031c565b508060049080519060200190620002cd9291906200031c565b5060646000803073ffffffffffffffffffffffffffffffffffffffff1673ffffffffffffffffffffffffffffffffffffffff1681526020019081526020016000208190555050505050620003cb565b828054600181600116156101000203166002900490600052602060002090601f016020900481019282601f106200035f57805160ff191683800117855562000390565b8280016001018555821562000390579182015b828111156200038f57825182559160200191906001019062000372565b5b5090506200039f9190620003a3565b5090565b620003c891905b80821115620003c4576000816000905550600101620003aa565b5090565b90565b610a2f80620003db6000396000f3fe60806040526004361061004a5760003560e01c80636d4ce63c1461004f5780638ed2b70e146101be578063c21a702a146103be578063efef39a1146103f9578063f8b2cb4f14610427575b600080fd5b34801561005b57600080fd5b5061006461048c565b60405180806020018581526020018060200180602001848103845288818151815260200191508051906020019080838360005b838110156100b2578082015181840152602081019050610097565b50505050905090810190601f1680156100df5780820380516001836020036101000a031916815260200191505b50848103835286818151815260200191508051906020019080838360005b838110156101185780820151818401526020810190506100fd565b50505050905090810190601f1680156101455780820380516001836020036101000a031916815260200191505b50848103825285818151815260200191508051906020019080838360005b8381101561017e578082015181840152602081019050610163565b50505050905090810190601f1680156101ab5780820380516001836020036101000a031916815260200191505b5097505050505050505060405180910390f35b3480156101ca57600080fd5b506103bc600480360360808110156101e157600080fd5b81019080803590602001906401000000008111156101fe57600080fd5b82018360208201111561021057600080fd5b8035906020019184600183028401116401000000008311171561023257600080fd5b91908080601f016020809104026020016040519081016040528093929190818152602001838380828437600081840152601f19601f820116905080830192505050505050509192919290803590602001909291908035906020019064010000000081111561029f57600080fd5b8201836020820111156102b157600080fd5b803590602001918460018302840111640100000000831117156102d357600080fd5b91908080601f016020809104026020016040519081016040528093929190818152602001838380828437600081840152601f19601f8201169050808301925050505050505091929192908035906020019064010000000081111561033657600080fd5b82018360208201111561034857600080fd5b8035906020019184600183028401116401000000008311171561036a57600080fd5b91908080601f016020809104026020016040519081016040528093929190818152602001838380828437600081840152601f19601f82011690508083019250505050505050919291929050505061067e565b005b3480156103ca57600080fd5b506103f7600480360360208110156103e157600080fd5b81019080803590602001909291905050506106d0565b005b6104256004803603602081101561040f57600080fd5b810190808035906020019092919050505061071f565b005b34801561043357600080fd5b506104766004803603602081101561044a57600080fd5b81019080803573ffffffffffffffffffffffffffffffffffffffff1690602001909291905050506108b4565b6040518082815260200191505060405180910390f35b60606000606080600160025460036004838054600181600116156101000203166002900480601f0160208091040260200160405190810160405280929190818152602001828054600181600116156101000203166002900480156105315780601f1061050657610100808354040283529160200191610531565b820191906000526020600020905b81548152906001019060200180831161051457829003601f168201915b50505050509350818054600181600116156101000203166002900480601f0160208091040260200160405190810160405280929190818152602001828054600181600116156101000203166002900480156105cd5780601f106105a2576101008083540402835291602001916105cd565b820191906000526020600020905b8154815290600101906020018083116105b057829003601f168201915b50505050509150808054600181600116156101000203166002900480601f0160208091040260200160405190810160405280929190818152602001828054600181600116156101000203166002900480156106695780601f1061063e57610100808354040283529160200191610669565b820191906000526020600020905b81548152906001019060200180831161064c57829003601f168201915b50505050509050935093509350935090919293565b83600190805190602001906106949291906108fc565b508260028190555081600390805190602001906106b29291906108fc565b5080600490805190602001906106c99291906108fc565b5050505050565b806000803073ffffffffffffffffffffffffffffffffffffffff1673ffffffffffffffffffffffffffffffffffffffff1681526020019081526020016000206000828254019250508190555050565b671bc16d674ec800008102341015610782576040517f08c379a00000000000000000000000000000000000000000000000000000000081526004018080602001828103825260258152602001806109a26025913960400191505060405180910390fd5b806000803073ffffffffffffffffffffffffffffffffffffffff1673ffffffffffffffffffffffffffffffffffffffff168152602001908152602001600020541015610819576040517f08c379a00000000000000000000000000000000000000000000000000000000081526004018080602001828103825260348152602001806109c76034913960400191505060405180910390fd5b806000803073ffffffffffffffffffffffffffffffffffffffff1673ffffffffffffffffffffffffffffffffffffffff16815260200190815260200160002060008282540392505081905550806000803373ffffffffffffffffffffffffffffffffffffffff1673ffffffffffffffffffffffffffffffffffffffff1681526020019081526020016000206000828254019250508190555050565b60008060008373ffffffffffffffffffffffffffffffffffffffff1673ffffffffffffffffffffffffffffffffffffffff168152602001908152602001600020549050919050565b828054600181600116156101000203166002900490600052602060002090601f016020900481019282601f1061093d57805160ff191683800117855561096b565b8280016001018555821561096b579182015b8281111561096a57825182559160200191906001019061094f565b5b509050610978919061097c565b5090565b61099e91905b8082111561099a576000816000905550600101610982565b5090565b9056fe596f75206d75737420706179206174206c656173742032204554482070657220646f6e75744e6f7420656e6f75676820646f6e75747320696e2073746f636b20746f20636f6d706c6574652074686973207075726368617365a265627a7a72315820dc539f4653024ab3fa8f949ab5f57f208c1221642cb00556b8edce36a77f795964736f6c63430005100032",
  "source": "// SPDX-License-Identifier: MIT\r\npragma solidity >=0.4.21 <8.10.0;\r\n\r\ncontract Sanaaj {\r\n    struct Consumer {\r\n        uint256 id;\r\n        string first_name;\r\n        string last_name;\r\n        string phone;\r\n        string location;\r\n    }\r\n    mapping(address => uint256) balances;\r\n    string item;\r\n    int256 price;\r\n    string customer;\r\n    string merchant;\r\n\r\n    constructor(\r\n        string memory x,\r\n        int256 p,\r\n        string memory cust,\r\n        string memory merch\r\n    ) public {\r\n        item = x;\r\n        price = p;\r\n        customer = cust;\r\n        merchant = merch;\r\n        balances[address(this)] = 100;\r\n    }\r\n\r\n    function set(\r\n        string memory x,\r\n        int256 p,\r\n        string memory cust,\r\n        string memory merch\r\n    ) public {\r\n        item = x;\r\n        price = p;\r\n        customer = cust;\r\n        merchant = merch;\r\n    }\r\n\r\n    function get()\r\n        public\r\n        view\r\n        returns (\r\n            string memory,\r\n            int256,\r\n            string memory,\r\n            string memory\r\n        )\r\n    {\r\n        return (item, price, customer, merchant);\r\n    }\r\n\r\n    function getBalance(address addr) public view returns (uint256) {\r\n        return balances[addr];\r\n    }\r\n\r\n    function restock(uint256 amount) public {\r\n        balances[address(this)] += amount;\r\n    }\r\n\r\n    function purchase(uint256 amount) public payable {\r\n        require(\r\n            msg.value >= amount * 2 ether,\r\n            \"You must pay at least 2 ETH per donut\"\r\n        );\r\n        require(\r\n            balances[address(this)] >= amount,\r\n            \"Not enough donuts in stock to complete this purchase\"\r\n        );\r\n        balances[address(this)] -= amount;\r\n        balances[msg.sender] += amount;\r\n    }\r\n}\r\n",
  "sourcePath": "C:\\Users\\Chaitanya\\Personal\\Sem 6\\Mini Project\\SaNaaj\\contracts\\Sanaaj.sol",
  "compiler": {
    "name": "solc",
    "version": "0.5.16+commit.9c3226ce.Emscripten.clang"
  },
  "schemaVersion": "3.4.6",
  "updatedAt": "2022-04-13T19:14:24.215Z",
  "networkType": "ethereum",
  "devdoc": {
    "methods": {}
  },
  "userdoc": {
    "methods": {}
  }
}