{
  "contractName": "Sanaaj",
  "abi": [
    {
      "inputs": [],
      "payable": false,
      "stateMutability": "nonpayable",
      "type": "constructor"
    },
    {
      "constant": true,
      "inputs": [
        {
          "internalType": "string",
          "name": "",
          "type": "string"
        },
        {
          "internalType": "string",
          "name": "",
          "type": "string"
        }
      ],
      "name": "allowanceList",
      "outputs": [
        {
          "internalType": "uint256",
          "name": "",
          "type": "uint256"
        }
      ],
      "payable": false,
      "stateMutability": "view",
      "type": "function"
    },
    {
      "constant": true,
      "inputs": [
        {
          "internalType": "uint256",
          "name": "",
          "type": "uint256"
        }
      ],
      "name": "complaintList",
      "outputs": [
        {
          "internalType": "string",
          "name": "ration_id",
          "type": "string"
        },
        {
          "internalType": "uint256",
          "name": "vendor_id",
          "type": "uint256"
        },
        {
          "internalType": "string",
          "name": "complaint_content",
          "type": "string"
        },
        {
          "internalType": "string",
          "name": "time",
          "type": "string"
        }
      ],
      "payable": false,
      "stateMutability": "view",
      "type": "function"
    },
    {
      "constant": true,
      "inputs": [
        {
          "internalType": "string",
          "name": "",
          "type": "string"
        }
      ],
      "name": "consumerList",
      "outputs": [
        {
          "internalType": "string",
          "name": "ration_card",
          "type": "string"
        },
        {
          "internalType": "uint256",
          "name": "ration_card_type",
          "type": "uint256"
        },
        {
          "internalType": "string",
          "name": "first_name",
          "type": "string"
        },
        {
          "internalType": "string",
          "name": "last_name",
          "type": "string"
        },
        {
          "internalType": "string",
          "name": "phone",
          "type": "string"
        },
        {
          "internalType": "string",
          "name": "location",
          "type": "string"
        },
        {
          "internalType": "uint256",
          "name": "vendor_id",
          "type": "uint256"
        },
        {
          "internalType": "string",
          "name": "password",
          "type": "string"
        },
        {
          "internalType": "address",
          "name": "wallet_addr",
          "type": "address"
        }
      ],
      "payable": false,
      "stateMutability": "view",
      "type": "function"
    },
    {
      "constant": true,
      "inputs": [
        {
          "internalType": "string",
          "name": "",
          "type": "string"
        },
        {
          "internalType": "uint256",
          "name": "",
          "type": "uint256"
        }
      ],
      "name": "pendingTransactionList",
      "outputs": [
        {
          "internalType": "string",
          "name": "consumer_ration_id",
          "type": "string"
        },
        {
          "internalType": "uint256",
          "name": "vendor_id",
          "type": "uint256"
        },
        {
          "internalType": "string",
          "name": "timestamp",
          "type": "string"
        }
      ],
      "payable": false,
      "stateMutability": "view",
      "type": "function"
    },
    {
      "constant": true,
      "inputs": [
        {
          "internalType": "uint256",
          "name": "",
          "type": "uint256"
        },
        {
          "internalType": "string",
          "name": "",
          "type": "string"
        }
      ],
      "name": "stockList",
      "outputs": [
        {
          "internalType": "uint256",
          "name": "",
          "type": "uint256"
        }
      ],
      "payable": false,
      "stateMutability": "view",
      "type": "function"
    },
    {
      "constant": true,
      "inputs": [
        {
          "internalType": "string",
          "name": "",
          "type": "string"
        },
        {
          "internalType": "uint256",
          "name": "",
          "type": "uint256"
        }
      ],
      "name": "transactionList",
      "outputs": [
        {
          "internalType": "string",
          "name": "consumer_ration_id",
          "type": "string"
        },
        {
          "internalType": "uint256",
          "name": "vendor_id",
          "type": "uint256"
        },
        {
          "internalType": "string",
          "name": "timestamp",
          "type": "string"
        }
      ],
      "payable": false,
      "stateMutability": "view",
      "type": "function"
    },
    {
      "constant": true,
      "inputs": [
        {
          "internalType": "uint256",
          "name": "",
          "type": "uint256"
        }
      ],
      "name": "vendorList",
      "outputs": [
        {
          "internalType": "uint256",
          "name": "vendor_id",
          "type": "uint256"
        },
        {
          "internalType": "string",
          "name": "first_name",
          "type": "string"
        },
        {
          "internalType": "string",
          "name": "last_name",
          "type": "string"
        },
        {
          "internalType": "string",
          "name": "phone",
          "type": "string"
        },
        {
          "internalType": "string",
          "name": "location",
          "type": "string"
        },
        {
          "internalType": "string",
          "name": "password",
          "type": "string"
        },
        {
          "internalType": "bool",
          "name": "isBlacklisted",
          "type": "bool"
        },
        {
          "internalType": "address",
          "name": "wallet_addr",
          "type": "address"
        }
      ],
      "payable": false,
      "stateMutability": "view",
      "type": "function"
    },
    {
      "constant": true,
      "inputs": [],
      "name": "getAdminPassword",
      "outputs": [
        {
          "internalType": "string",
          "name": "",
          "type": "string"
        }
      ],
      "payable": false,
      "stateMutability": "view",
      "type": "function"
    },
    {
      "constant": true,
      "inputs": [
        {
          "internalType": "string",
          "name": "_ration",
          "type": "string"
        }
      ],
      "name": "getConsumer",
      "outputs": [
        {
          "components": [
            {
              "internalType": "string",
              "name": "ration_card",
              "type": "string"
            },
            {
              "internalType": "uint256",
              "name": "ration_card_type",
              "type": "uint256"
            },
            {
              "internalType": "string",
              "name": "first_name",
              "type": "string"
            },
            {
              "internalType": "string",
              "name": "last_name",
              "type": "string"
            },
            {
              "internalType": "string",
              "name": "phone",
              "type": "string"
            },
            {
              "internalType": "string",
              "name": "location",
              "type": "string"
            },
            {
              "internalType": "uint256",
              "name": "vendor_id",
              "type": "uint256"
            },
            {
              "internalType": "string",
              "name": "password",
              "type": "string"
            },
            {
              "internalType": "address",
              "name": "wallet_addr",
              "type": "address"
            }
          ],
          "internalType": "struct AssetLibrary.Consumer",
          "name": "",
          "type": "tuple"
        }
      ],
      "payable": false,
      "stateMutability": "view",
      "type": "function"
    },
    {
      "constant": true,
      "inputs": [
        {
          "internalType": "uint256",
          "name": "_id",
          "type": "uint256"
        }
      ],
      "name": "getVendor",
      "outputs": [
        {
          "components": [
            {
              "internalType": "uint256",
              "name": "vendor_id",
              "type": "uint256"
            },
            {
              "internalType": "string",
              "name": "first_name",
              "type": "string"
            },
            {
              "internalType": "string",
              "name": "last_name",
              "type": "string"
            },
            {
              "internalType": "string",
              "name": "phone",
              "type": "string"
            },
            {
              "internalType": "string",
              "name": "location",
              "type": "string"
            },
            {
              "internalType": "string",
              "name": "password",
              "type": "string"
            },
            {
              "internalType": "bool",
              "name": "isBlacklisted",
              "type": "bool"
            },
            {
              "internalType": "address",
              "name": "wallet_addr",
              "type": "address"
            }
          ],
          "internalType": "struct AssetLibrary.Vendor",
          "name": "",
          "type": "tuple"
        }
      ],
      "payable": false,
      "stateMutability": "view",
      "type": "function"
    },
    {
      "constant": true,
      "inputs": [],
      "name": "getAllConsumers",
      "outputs": [
        {
          "internalType": "string[]",
          "name": "",
          "type": "string[]"
        }
      ],
      "payable": false,
      "stateMutability": "view",
      "type": "function"
    },
    {
      "constant": true,
      "inputs": [],
      "name": "getAllVendors",
      "outputs": [
        {
          "internalType": "uint256[]",
          "name": "",
          "type": "uint256[]"
        }
      ],
      "payable": false,
      "stateMutability": "view",
      "type": "function"
    },
    {
      "constant": true,
      "inputs": [
        {
          "internalType": "string",
          "name": "_ration",
          "type": "string"
        }
      ],
      "name": "getAllowance",
      "outputs": [
        {
          "internalType": "uint256",
          "name": "",
          "type": "uint256"
        },
        {
          "internalType": "uint256",
          "name": "",
          "type": "uint256"
        },
        {
          "internalType": "uint256",
          "name": "",
          "type": "uint256"
        },
        {
          "internalType": "uint256",
          "name": "",
          "type": "uint256"
        }
      ],
      "payable": false,
      "stateMutability": "view",
      "type": "function"
    },
    {
      "constant": true,
      "inputs": [
        {
          "internalType": "uint256",
          "name": "_id",
          "type": "uint256"
        }
      ],
      "name": "getStock",
      "outputs": [
        {
          "internalType": "uint256",
          "name": "",
          "type": "uint256"
        },
        {
          "internalType": "uint256",
          "name": "",
          "type": "uint256"
        },
        {
          "internalType": "uint256",
          "name": "",
          "type": "uint256"
        },
        {
          "internalType": "uint256",
          "name": "",
          "type": "uint256"
        }
      ],
      "payable": false,
      "stateMutability": "view",
      "type": "function"
    },
    {
      "constant": false,
      "inputs": [
        {
          "internalType": "string",
          "name": "_ration",
          "type": "string"
        },
        {
          "internalType": "uint256",
          "name": "_vendorID",
          "type": "uint256"
        },
        {
          "internalType": "uint256[]",
          "name": "quantity_commodity",
          "type": "uint256[]"
        },
        {
          "internalType": "string",
          "name": "timestamp",
          "type": "string"
        }
      ],
      "name": "updateAllowance",
      "outputs": [],
      "payable": false,
      "stateMutability": "nonpayable",
      "type": "function"
    },
    {
      "constant": true,
      "inputs": [
        {
          "internalType": "string",
          "name": "_ration",
          "type": "string"
        }
      ],
      "name": "getTransactions",
      "outputs": [
        {
          "components": [
            {
              "internalType": "string",
              "name": "consumer_ration_id",
              "type": "string"
            },
            {
              "internalType": "uint256",
              "name": "vendor_id",
              "type": "uint256"
            },
            {
              "internalType": "uint256[]",
              "name": "quantity",
              "type": "uint256[]"
            },
            {
              "internalType": "string",
              "name": "timestamp",
              "type": "string"
            }
          ],
          "internalType": "struct AssetLibrary.Transaction[]",
          "name": "",
          "type": "tuple[]"
        }
      ],
      "payable": false,
      "stateMutability": "view",
      "type": "function"
    },
    {
      "constant": false,
      "inputs": [
        {
          "internalType": "string",
          "name": "_ration",
          "type": "string"
        }
      ],
      "name": "refillAllowance",
      "outputs": [],
      "payable": false,
      "stateMutability": "nonpayable",
      "type": "function"
    },
    {
      "constant": false,
      "inputs": [
        {
          "internalType": "uint256",
          "name": "_vendorID",
          "type": "uint256"
        }
      ],
      "name": "refillStock",
      "outputs": [],
      "payable": false,
      "stateMutability": "nonpayable",
      "type": "function"
    },
    {
      "constant": false,
      "inputs": [
        {
          "internalType": "uint256",
          "name": "_id",
          "type": "uint256"
        }
      ],
      "name": "blacklist",
      "outputs": [],
      "payable": false,
      "stateMutability": "nonpayable",
      "type": "function"
    },
    {
      "constant": false,
      "inputs": [
        {
          "internalType": "string",
          "name": "_ration",
          "type": "string"
        },
        {
          "internalType": "uint256",
          "name": "card_type",
          "type": "uint256"
        }
      ],
      "name": "updateCardType",
      "outputs": [],
      "payable": false,
      "stateMutability": "nonpayable",
      "type": "function"
    },
    {
      "constant": false,
      "inputs": [
        {
          "internalType": "string",
          "name": "ration_card",
          "type": "string"
        },
        {
          "internalType": "uint256",
          "name": "ration_card_type",
          "type": "uint256"
        },
        {
          "internalType": "string",
          "name": "first_name",
          "type": "string"
        },
        {
          "internalType": "string",
          "name": "last_name",
          "type": "string"
        },
        {
          "internalType": "string",
          "name": "phone",
          "type": "string"
        },
        {
          "internalType": "string",
          "name": "location",
          "type": "string"
        },
        {
          "internalType": "uint256",
          "name": "vendor_id",
          "type": "uint256"
        },
        {
          "internalType": "string",
          "name": "password",
          "type": "string"
        },
        {
          "internalType": "address",
          "name": "wallet_addr",
          "type": "address"
        }
      ],
      "name": "addConsumer",
      "outputs": [],
      "payable": false,
      "stateMutability": "nonpayable",
      "type": "function"
    },
    {
      "constant": false,
      "inputs": [
        {
          "internalType": "uint256",
          "name": "vendor_id",
          "type": "uint256"
        },
        {
          "internalType": "string",
          "name": "first_name",
          "type": "string"
        },
        {
          "internalType": "string",
          "name": "last_name",
          "type": "string"
        },
        {
          "internalType": "string",
          "name": "phone",
          "type": "string"
        },
        {
          "internalType": "string",
          "name": "location",
          "type": "string"
        },
        {
          "internalType": "string",
          "name": "password",
          "type": "string"
        },
        {
          "internalType": "bool",
          "name": "isBlacklisted",
          "type": "bool"
        },
        {
          "internalType": "address",
          "name": "wallet_addr",
          "type": "address"
        }
      ],
      "name": "addVendor",
      "outputs": [],
      "payable": false,
      "stateMutability": "nonpayable",
      "type": "function"
    },
    {
      "constant": false,
      "inputs": [
        {
          "internalType": "string",
          "name": "ration_id",
          "type": "string"
        },
        {
          "internalType": "uint256",
          "name": "vendor_id",
          "type": "uint256"
        },
        {
          "internalType": "string",
          "name": "complaint_content",
          "type": "string"
        },
        {
          "internalType": "string",
          "name": "time",
          "type": "string"
        }
      ],
      "name": "addComplaint",
      "outputs": [],
      "payable": false,
      "stateMutability": "nonpayable",
      "type": "function"
    },
    {
      "constant": true,
      "inputs": [],
      "name": "getAllComplaints",
      "outputs": [
        {
          "components": [
            {
              "internalType": "string",
              "name": "ration_id",
              "type": "string"
            },
            {
              "internalType": "uint256",
              "name": "vendor_id",
              "type": "uint256"
            },
            {
              "internalType": "string",
              "name": "complaint_content",
              "type": "string"
            },
            {
              "internalType": "string",
              "name": "time",
              "type": "string"
            }
          ],
          "internalType": "struct AssetLibrary.Complaint[]",
          "name": "",
          "type": "tuple[]"
        }
      ],
      "payable": false,
      "stateMutability": "view",
      "type": "function"
    },
    {
      "constant": false,
      "inputs": [
        {
          "internalType": "string",
          "name": "ration_id",
          "type": "string"
        },
        {
          "internalType": "string",
          "name": "new_password",
          "type": "string"
        }
      ],
      "name": "resetConsumerPassword",
      "outputs": [],
      "payable": false,
      "stateMutability": "nonpayable",
      "type": "function"
    },
    {
      "constant": false,
      "inputs": [
        {
          "internalType": "uint256",
          "name": "vendor_id",
          "type": "uint256"
        },
        {
          "internalType": "string",
          "name": "new_password",
          "type": "string"
        }
      ],
      "name": "resetVendorPassword",
      "outputs": [],
      "payable": false,
      "stateMutability": "nonpayable",
      "type": "function"
    },
    {
      "constant": true,
      "inputs": [
        {
          "internalType": "string",
          "name": "ration_id",
          "type": "string"
        },
        {
          "internalType": "string",
          "name": "password",
          "type": "string"
        }
      ],
      "name": "checkConsumerCredentials",
      "outputs": [
        {
          "internalType": "bool",
          "name": "",
          "type": "bool"
        }
      ],
      "payable": false,
      "stateMutability": "view",
      "type": "function"
    },
    {
      "constant": true,
      "inputs": [
        {
          "internalType": "uint256",
          "name": "vendor_id",
          "type": "uint256"
        },
        {
          "internalType": "string",
          "name": "password",
          "type": "string"
        }
      ],
      "name": "checkVendorCredentials",
      "outputs": [
        {
          "internalType": "bool",
          "name": "",
          "type": "bool"
        }
      ],
      "payable": false,
      "stateMutability": "view",
      "type": "function"
    },
    {
      "constant": true,
      "inputs": [
        {
          "internalType": "string",
          "name": "password",
          "type": "string"
        }
      ],
      "name": "checkAdminCredentials",
      "outputs": [
        {
          "internalType": "bool",
          "name": "",
          "type": "bool"
        }
      ],
      "payable": false,
      "stateMutability": "view",
      "type": "function"
    },
    {
      "constant": true,
      "inputs": [
        {
          "internalType": "bytes32",
          "name": "data",
          "type": "bytes32"
        }
      ],
      "name": "toHex",
      "outputs": [
        {
          "internalType": "string",
          "name": "",
          "type": "string"
        }
      ],
      "payable": false,
      "stateMutability": "pure",
      "type": "function"
    }
  ],
  "bytecode": "0x60806040523480156200001157600080fd5b506040518061012001604052806040518060400160405280600c81526020016b04d48313233343536373839360a41b8152508152602001600181526020016040518060400160405280600381526020016252616d60e81b81525081526020016040518060400160405280600881526020016747686f727061646560c01b81525081526020016040518060400160405280600a8152602001690313233343536373839360b41b8152508152602001604051806040016040528060068152602001654d756d62616960d01b81525081526020016001815260200160405180608001604052806042815260200162005a32604291398152739345baf04a62f6a91d20aa08121a16eb39308b70602090910152604051600190620001319062001286565b908152602001604051809103902060008201518160000190805190602001906200015d92919062000ff9565b5060208281015160018301556040830151805162000182926002850192019062000ff9565b5060608201518051620001a091600384019160209091019062000ff9565b5060808201518051620001be91600484019160209091019062000ff9565b5060a08201518051620001dc91600584019160209091019062000ff9565b5060c0820151600682015560e082015180516200020491600784019160209091019062000ff9565b506101008201518160080160006101000a8154816001600160a01b0302191690836001600160a01b031602179055509050506040518061012001604052806040518060400160405280600c81526020016b26a41899199a1a981c9b1b1b60a11b81525081526020016002815260200160405180604001604052806005815260200164536879616d60d81b81525081526020016040518060400160405280600881526020016747686f727061646560c01b81525081526020016040518060400160405280600a8152602001691899199a1a981c9c1b9b60b11b8152508152602001604051806040016040528060068152602001654d756d62616960d01b81525081526020016001815260200160405180608001604052806042815260200162005a7460429139815273b793c1d9c9d5050859864dbd321fc873e7942e546020909101526040516001906200035790620012c0565b908152602001604051809103902060008201518160000190805190602001906200038392919062000ff9565b50602082810151600183015560408301518051620003a8926002850192019062000ff9565b5060608201518051620003c691600384019160209091019062000ff9565b5060808201518051620003e491600484019160209091019062000ff9565b5060a082015180516200040291600584019160209091019062000ff9565b5060c0820151600682015560e082015180516200042a91600784019160209091019062000ff9565b506101008201518160080160006101000a8154816001600160a01b0302191690836001600160a01b031602179055509050506040518061012001604052806040518060400160405280600c81526020016b26a41899199a1a981c9c1b9b60a11b8152508152602001600281526020016040518060400160405280600a8152602001694768616e61736879616d60b01b8152508152602001604051806040016040528060098152602001684465736870616e646560b81b81525081526020016040518060400160405280600a8152602001691899199a1a981c9c1b9b60b11b8152508152602001604051806040016040528060068152602001654d756d62616960d01b8152508152602001600181526020016040518060800160405280604281526020016200592a60429139815273b7c6562bf283534a775d5198195bfd8d47d226476020909101526040516001906200058390620012a6565b90815260200160405180910390206000820151816000019080519060200190620005af92919062000ff9565b50602082810151600183015560408301518051620005d4926002850192019062000ff9565b5060608201518051620005f291600384019160209091019062000ff9565b50608082015180516200061091600484019160209091019062000ff9565b5060a082015180516200062e91600584019160209091019062000ff9565b5060c0820151600682015560e082015180516200065691600784019160209091019062000ff9565b506101008201518160080160006101000a8154816001600160a01b0302191690836001600160a01b031602179055509050506040518061012001604052806040518060400160405280600c81526020016b04d48393837363534313233360a41b81525081526020016001815260200160405180604001604052806005815260200164446167647560d81b8152508152602001604051806040016040528060058152602001642830b930b160d91b81525081526020016040518060400160405280600a8152602001690393837363534313233360b41b8152508152602001604051806040016040528060068152602001654d756d62616960d01b815250815260200160028152602001604051806080016040528060428152602001620059f060429139815273b6444a785bc6d27d3facb648dc0714c39f569b24602090910152604051600190620007a69062001299565b90815260200160405180910390206000820151816000019080519060200190620007d292919062000ff9565b50602082810151600183015560408301518051620007f7926002850192019062000ff9565b50606082015180516200081591600384019160209091019062000ff9565b50608082015180516200083391600484019160209091019062000ff9565b5060a082015180516200085191600584019160209091019062000ff9565b5060c0820151600682015560e082015180516200087991600784019160209091019062000ff9565b506101009190910151600890910180546001600160a01b0319166001600160a01b039092169190911790556040805161016081018252600c61012082019081526b4d483938373635303433323160a01b610140830152815260036020808301829052835180850185528281526241424360e81b818301528385015283518085018552918252622c2cad60e91b8282015260608084019290925283518085018552600a8152693938373635303433323160b01b8183015260808401528351808501855260068152654d756d62616960d01b8183015260a0840152600260c084015283519182018452838252919260e084019262005ab69083013981527397b814cdcd7f542f413e2cfef8af97c6633fff3d602090910152604051600190620009a090620012b3565b90815260200160405180910390206000820151816000019080519060200190620009cc92919062000ff9565b50602082810151600183015560408301518051620009f1926002850192019062000ff9565b506060820151805162000a0f91600384019160209091019062000ff9565b506080820151805162000a2d91600484019160209091019062000ff9565b5060a0820151805162000a4b91600584019160209091019062000ff9565b5060c0820151600682015560e0820151805162000a7391600784019160209091019062000ff9565b506101008201518160080160006101000a8154816001600160a01b0302191690836001600160a01b0316021790555090505060405180610100016040528060018152602001604051806040016040528060088152602001670a6d2c8c8d0cae6d60c31b815250815260200160405180604001604052806005815260200164426167776560d81b81525081526020016040518060400160405280600a8152602001691898191c999c1a1b9a9b60b11b8152508152602001604051806040016040528060068152602001654d756d62616960d01b81525081526020016040518060800160405280604281526020016200596c6042913981526000602080830182905273bc7b67cb47ba61de49cc9c3774e98d9c5edf0eb8604090930192909252600190526002815281517fe90b7bceb6e7df5418fb78d8ee546e97c83a08bbccc01a0644d599ccd2a7c2e0908155828201518051919262000bf8927fe90b7bceb6e7df5418fb78d8ee546e97c83a08bbccc01a0644d599ccd2a7c2e1929091019062000ff9565b506040820151805162000c1691600284019160209091019062000ff9565b506060820151805162000c3491600384019160209091019062000ff9565b506080820151805162000c5291600484019160209091019062000ff9565b5060a0820151805162000c7091600584019160209091019062000ff9565b5060c08201516006918201805460e09094015160ff1990941691151591909117610100600160a81b0319166101006001600160a01b03909416840217905560408051928301815260028352805180820182526005815264506f6f6a6160d81b6020808301919091528085019190915281518083018352600781526612d85d5b19dd5960ca1b818301528483015281518083018352600a8152691c981c1b9a9b1a18999960b11b8183015260608086019190915282518084018452938452654d756d62616960d01b8483015260808501939093528151928301825281835260a08401929190620058ea9083013981526000602080830182905273295b6ae0efe05de0011e9316e27b560ccdcd3ddb604090930192909252600290819052815281517f679795a0195a1b76cdebb7c51d74e058aee92919b8c3389af86ef24535e8a28c908155828201518051919262000ded927f679795a0195a1b76cdebb7c51d74e058aee92919b8c3389af86ef24535e8a28d929091019062000ff9565b506040820151805162000e0b91600284019160209091019062000ff9565b506060820151805162000e2991600384019160209091019062000ff9565b506080820151805162000e4791600484019160209091019062000ff9565b5060a0820151805162000e6591600584019160209091019062000ff9565b5060c08201516006909101805460e0909301516001600160a01b031661010002610100600160a81b031992151560ff19909416939093179190911691909117905560408051608081019091526042808252620059ae6020830139805162000ed591600b9160209091019062000ff9565b506040805160e081018252600c60a082018181526b04d48313233343536373839360a41b60c08401528252825180840184528181526b26a41899199a1a981c9b1b1b60a11b60208281019190915280840191909152835180850185528281526b26a41899199a1a981c9c1b9b60a11b8183015283850152835180850185528281526b04d48393837363534313233360a41b81830152606084015283518085019094529083526b4d483938373635303433323160a01b90830152608081019190915262000fa69060089060056200107e565b50604080518082019091526001815260026020820181905262000fcc91600991620010de565b50600a80546001600160a01b031916731964f1519ff7acaa5e6b2462070cb0d6817fba4e179055620012d2565b828054600181600116156101000203166002900490600052602060002090601f016020900481019282601f106200103c57805160ff19168380011785556200106c565b828001600101855582156200106c579182015b828111156200106c5782518255916020019190600101906200104f565b506200107a92915062001121565b5090565b828054828255906000526020600020908101928215620010d0579160200282015b82811115620010d05782518051620010bf91849160209091019062000ff9565b50916020019190600101906200109f565b506200107a92915062001141565b8280548282559060005260206000209081019282156200106c579160200282015b828111156200106c578251829060ff16905591602001919060010190620010ff565b6200113e91905b808211156200107a576000815560010162001128565b90565b6200113e91905b808211156200107a5760006200115f828262001169565b5060010162001148565b50805460018160011615610100020316600290046000825580601f10620011915750620011b1565b601f016020900490600052602060002090810190620011b1919062001121565b50565b6000620011c3600c83620012cd565b6b04d48313233343536373839360a41b8152600c0192915050565b6000620011ed600c83620012cd565b6b04d48393837363534313233360a41b8152600c0192915050565b600062001217600c83620012cd565b6b26a41899199a1a981c9c1b9b60a11b8152600c0192915050565b600062001241600c83620012cd565b6b4d483938373635303433323160a01b8152600c0192915050565b60006200126b600c83620012cd565b6b26a41899199a1a981c9b1b1b60a11b8152600c0192915050565b60006200129382620011b4565b92915050565b60006200129382620011de565b6000620012938262001208565b6000620012938262001232565b600062001293826200125c565b919050565b61460880620012e26000396000f3fe608060405234801561001057600080fd5b50600436106101da5760003560e01c80635146da221161010457806384090734116100a2578063bff499f211610071578063bff499f214610464578063c2898c3c14610477578063f20443e81461049f578063ff3dca65146104b2576101da565b806384090734146103ff5780638f9c469114610426578063a71b78e414610449578063a99859381461045c576101da565b80635e0b421e116100de5780635e0b421e146103a45780636453e876146103b957806365de1eb3146103cc5780637a763997146103ec576101da565b80635146da221461035e57806353b676e7146103715780635484967214610391576101da565b806329ed6f511161017c5780633ab7d09a1161014b5780633ab7d09a1461030557806349e894d8146103185780634ac3751c1461033857806350cbb1541461034b576101da565b806329ed6f51146102aa5780632b18160b146102ca5780633318bca1146102dd578063364dfb74146102f0576101da565b80630f2a0919116101b85780630f2a09191461023557806313830e041461024857806316fc08341461026a57806326ba9eed1461028a576101da565b806301cbbd31146101df5780630a8b4823146101f45780630dac953914610220575b600080fd5b6101f26101ed366004613885565b6104c5565b005b6102076102023660046136ff565b61058b565b604051610217949392919061447b565b60405180910390f35b610228610697565b604051610217919061422f565b6101f26102433660046136bb565b6108c6565b61025b61025636600461379a565b6108e9565b60405161021793929190614281565b61027d610278366004613733565b610a58565b60405161021791906143d3565b61029d6102983660046136ff565b610a92565b60405161021791906143b1565b6102bd6102b83660046136ff565b610e71565b6040516102179190614262565b6101f26102d8366004613a43565b610f3f565b6101f26102eb3660046138f6565b610f85565b6102f86110fc565b604051610217919061421e565b6102076103133660046136bb565b6111cb565b61032b6103263660046136bb565b611288565b6040516102179190614270565b6101f26103463660046137e0565b6112c7565b61025b61035936600461379a565b61160e565b6102bd61036c366004613733565b611636565b61038461037f3660046136ff565b611a8d565b6040516102179190614240565b6101f261039f366004613733565b611c8f565b6103ac611cde565b6040516102179190614251565b6101f26103c73660046136ff565b611d36565b6103df6103da3660046136bb565b61204a565b60405161021791906143c2565b6101f26103fa3660046136bb565b61237e565b61041261040d3660046136bb565b61243c565b6040516102179897969594939291906143e1565b6104396104343660046136bb565b61273d565b60405161021794939291906142b3565b6101f2610457366004613a62565b612921565b61032b612a73565b61027d610472366004613a43565b612b00565b61048a6104853660046136ff565b612b2e565b60405161021799989796959493929190614303565b6102bd6104ad366004613a43565b612ed1565b6101f26104c036600461379a565b613238565b6104cd613422565b506040805160808101825285815260208082018690529181018490526060810183905260078054600181018083556000929092528251805193949293859360049093027fa66cc928b5edb82af9bd49922954155ab7b0942694bea4ce44661d9a8736c688019261054192849291019061344a565b50602082810151600183015560408301518051610564926002850192019061344a565b506060820151805161058091600384019160209091019061344a565b505050505050505050565b60008060008060006003866040516105a391906141a9565b90815260200160405180910390206040516105bd906141fd565b908152602001604051809103902054905060006003876040516105e091906141a9565b90815260200160405180910390206040516105fa90614213565b9081526020016040518091039020549050600060038860405161061d91906141a9565b908152602001604051809103902060405161063790614208565b9081526020016040518091039020549050600060038960405161065a91906141a9565b9081526020016040518091039020604051610674906141c1565b908152604051908190036020019020549397509195509350909150509193509193565b60606007805480602002602001604051908101604052809291908181526020016000905b828210156108bc5760008481526020908190206040805160048602909201805460026001821615610100026000190190911604601f8101859004909402830160a090810190925260808301848152929390928492909184918401828280156107645780601f1061073957610100808354040283529160200191610764565b820191906000526020600020905b81548152906001019060200180831161074757829003601f168201915b5050505050815260200160018201548152602001600282018054600181600116156101000203166002900480601f0160208091040260200160405190810160405280929190818152602001828054600181600116156101000203166002900480156108105780601f106107e557610100808354040283529160200191610810565b820191906000526020600020905b8154815290600101906020018083116107f357829003601f168201915b505050918352505060038201805460408051602060026001851615610100026000190190941693909304601f81018490048402820184019092528181529382019392918301828280156108a45780601f10610879576101008083540402835291602001916108a4565b820191906000526020600020905b81548152906001019060200180831161088757829003601f168201915b505050505081525050815260200190600101906106bb565b5050505090505b90565b6000908152600260205260409020600601805460ff19811660ff90911615179055565b8151602081840181018051600582529282019185019190912091905280548290811061091157fe5b60009182526020918290206004919091020180546040805160026001841615610100026000190190931692909204601f8101859004850283018501909152808252919450925083918301828280156109aa5780601f1061097f576101008083540402835291602001916109aa565b820191906000526020600020905b81548152906001019060200180831161098d57829003601f168201915b505050505090806001015490806003018054600181600116156101000203166002900480601f016020809104026020016040519081016040528092919081815260200182805460018160011615610100020316600290048015610a4e5780601f10610a2357610100808354040283529160200191610a4e565b820191906000526020600020905b815481529060010190602001808311610a3157829003601f168201915b5050505050905083565b8151602081840181018051600382529282019482019490942091909352815180830184018051928152908401929093019190912091525481565b610a9a6134c8565b600182604051610aaa91906141a9565b9081526040805160209281900383018120805460026001821615610100026000190190911604601f810185900490940282016101409081019093526101208201848152919390928492918491840182828015610b475780601f10610b1c57610100808354040283529160200191610b47565b820191906000526020600020905b815481529060010190602001808311610b2a57829003601f168201915b5050505050815260200160018201548152602001600282018054600181600116156101000203166002900480601f016020809104026020016040519081016040528092919081815260200182805460018160011615610100020316600290048015610bf35780601f10610bc857610100808354040283529160200191610bf3565b820191906000526020600020905b815481529060010190602001808311610bd657829003601f168201915b505050918352505060038201805460408051602060026001851615610100026000190190941693909304601f8101849004840282018401909252818152938201939291830182828015610c875780601f10610c5c57610100808354040283529160200191610c87565b820191906000526020600020905b815481529060010190602001808311610c6a57829003601f168201915b505050918352505060048201805460408051602060026001851615610100026000190190941693909304601f8101849004840282018401909252818152938201939291830182828015610d1b5780601f10610cf057610100808354040283529160200191610d1b565b820191906000526020600020905b815481529060010190602001808311610cfe57829003601f168201915b505050918352505060058201805460408051602060026001851615610100026000190190941693909304601f8101849004840282018401909252818152938201939291830182828015610daf5780601f10610d8457610100808354040283529160200191610daf565b820191906000526020600020905b815481529060010190602001808311610d9257829003601f168201915b5050509183525050600682015460208083019190915260078301805460408051601f60026000196101006001871615020190941693909304928301859004850281018501825282815294019392830182828015610e4d5780601f10610e2257610100808354040283529160200191610e4d565b820191906000526020600020905b815481529060010190602001808311610e3057829003601f168201915b5050509183525050600891909101546001600160a01b031660209091015292915050565b60006060610ee5600284604051602001610e8b91906141a9565b60408051601f1981840301815290829052610ea5916141a9565b602060405180830381855afa158015610ec2573d6000803e3d6000fd5b5050506040513d601f19601f8201168201806040525061032691908101906136e1565b9050600b604051602001610ef991906141b5565b6040516020818303038152906040528051906020012081604051602001610f2091906141a9565b6040516020818303038152906040528051906020012014915050919050565b6060610f57600283604051602001610e8b91906141a9565b60008481526002602090815260409091208251929350610f7f9260059091019184019061344a565b50505050565b610f8d6134c8565b6040518061012001604052808b81526020018a8152602001898152602001888152602001878152602001868152602001858152602001610fd9600286604051602001610e8b91906141a9565b8152602001836001600160a01b031681525090508060018b604051610ffe91906141a9565b9081526020016040518091039020600082015181600001908051906020019061102892919061344a565b5060208281015160018301556040830151805161104b926002850192019061344a565b506060820151805161106791600384019160209091019061344a565b506080820151805161108391600484019160209091019061344a565b5060a0820151805161109f91600584019160209091019061344a565b5060c0820151600682015560e082015180516110c591600784019160209091019061344a565b506101009190910151600890910180546001600160a01b0319166001600160a01b0390921691909117905550505050505050505050565b60606008805480602002602001604051908101604052809291908181526020016000905b828210156108bc5760008481526020908190208301805460408051601f60026000196101006001871615020190941693909304928301859004850281018501909152818152928301828280156111b75780601f1061118c576101008083540402835291602001916111b7565b820191906000526020600020905b81548152906001019060200180831161119a57829003601f168201915b505050505081526020019060010190611120565b6000806000806000600460008781526020019081526020016000206040516111f2906141fd565b908152602001604051809103902054905060006004600088815260200190815260200160002060405161122490614213565b908152602001604051809103902054905060006004600089815260200190815260200160002060405161125690614208565b90815260200160405180910390205490506000600460008a8152602001908152602001600020604051610674906141c1565b606061129382613260565b6112a0608084901b613260565b6040516020016112b19291906141cc565b6040516020818303038152906040529050919050565b816000815181106112d457fe5b60200260200101516003856040516112ec91906141a9565b9081526020016040518091039020604051611306906141fd565b908152604051908190036020019020805491909103905581518290600190811061132c57fe5b602002602001015160038560405161134491906141a9565b908152602001604051809103902060405161135e90614213565b908152604051908190036020019020805491909103905581518290600290811061138457fe5b602002602001015160038560405161139c91906141a9565b90815260200160405180910390206040516113b690614208565b90815260405190819003602001902080549190910390558151829060039081106113dc57fe5b60200260200101516003856040516113f491906141a9565b908152602001604051809103902060405161140e906141c1565b90815260405190819003602001902080549190910390558151829060009061143257fe5b602002602001015160046000858152602001908152602001600020604051611459906141fd565b908152604051908190036020019020805491909103905581518290600190811061147f57fe5b6020026020010151600460008581526020019081526020016000206040516114a690614213565b90815260405190819003602001902080549190910390558151829060029081106114cc57fe5b6020026020010151600460008581526020019081526020016000206040516114f390614208565b908152604051908190036020019020805491909103905581518290600390811061151957fe5b602002602001015160046000858152602001908152602001600020604051611540906141c1565b9081526040519081900360200181208054929092039091556005906115669086906141a9565b90815260408051918290036020908101832060808401835287845283820187905291830185905260608301849052815460018101808455600093845292829020845180519495946004909302909101926115c59284929091019061344a565b506020828101516001830155604083015180516115e8926002850192019061351d565b506060820151805161160491600384019160209091019061344a565b5050505050505050565b8151602081840181018051600682529282019185019190912091905280548290811061091157fe5b60006116406134c8565b60018460405161165091906141a9565b9081526040805160209281900383018120805460026001821615610100026000190190911604601f8101859004909402820161014090810190935261012082018481529193909284929184918401828280156116ed5780601f106116c2576101008083540402835291602001916116ed565b820191906000526020600020905b8154815290600101906020018083116116d057829003601f168201915b5050505050815260200160018201548152602001600282018054600181600116156101000203166002900480601f0160208091040260200160405190810160405280929190818152602001828054600181600116156101000203166002900480156117995780601f1061176e57610100808354040283529160200191611799565b820191906000526020600020905b81548152906001019060200180831161177c57829003601f168201915b505050918352505060038201805460408051602060026001851615610100026000190190941693909304601f810184900484028201840190925281815293820193929183018282801561182d5780601f106118025761010080835404028352916020019161182d565b820191906000526020600020905b81548152906001019060200180831161181057829003601f168201915b505050918352505060048201805460408051602060026001851615610100026000190190941693909304601f81018490048402820184019092528181529382019392918301828280156118c15780601f10611896576101008083540402835291602001916118c1565b820191906000526020600020905b8154815290600101906020018083116118a457829003601f168201915b505050918352505060058201805460408051602060026001851615610100026000190190941693909304601f81018490048402820184019092528181529382019392918301828280156119555780601f1061192a57610100808354040283529160200191611955565b820191906000526020600020905b81548152906001019060200180831161193857829003601f168201915b5050509183525050600682015460208083019190915260078301805460408051601f600260001961010060018716150201909416939093049283018590048502810185018252828152940193928301828280156119f35780601f106119c8576101008083540402835291602001916119f3565b820191906000526020600020905b8154815290600101906020018083116119d657829003601f168201915b5050509183525050600891909101546001600160a01b0316602091820152604051919250606091611a2d91600291610e8b918891016141a9565b90508160e00151604051602001611a4491906141a9565b6040516020818303038152906040528051906020012081604051602001611a6b91906141a9565b6040516020818303038152906040528051906020012014925050505b92915050565b6060600582604051611a9f91906141a9565b9081526020016040518091039020805480602002602001604051908101604052809291908181526020016000905b82821015611c845760008481526020908190206040805160048602909201805460026001821615610100026000190190911604601f8101859004909402830160a09081019092526080830184815292939092849290918491840182828015611b765780601f10611b4b57610100808354040283529160200191611b76565b820191906000526020600020905b815481529060010190602001808311611b5957829003601f168201915b505050505081526020016001820154815260200160028201805480602002602001604051908101604052809291908181526020018280548015611bd857602002820191906000526020600020905b815481526020019060010190808311611bc4575b505050918352505060038201805460408051602060026001851615610100026000190190941693909304601f8101849004840282018401909252818152938201939291830182828015611c6c5780601f10611c4157610100808354040283529160200191611c6c565b820191906000526020600020905b815481529060010190602001808311611c4f57829003601f168201915b50505050508152505081526020019060010190611acd565b505050509050919050565b6060611ca7600283604051602001610e8b91906141a9565b905080600184604051611cba91906141a9565b90815260200160405180910390206007019080519060200190610f7f92919061344a565b60606009805480602002602001604051908101604052809291908181526020018280548015611d2c57602002820191906000526020600020905b815481526020019060010190808311611d18575b5050505050905090565b600181604051611d4691906141a9565b90815260200160405180910390206001015460011415611e5b576005600382604051611d7291906141a9565b9081526020016040518091039020604051611d8c906141fd565b908152602001604051809103902081905550600a600382604051611db091906141a9565b9081526020016040518091039020604051611dca90614213565b9081526020016040518091039020819055506001600382604051611dee91906141a9565b9081526020016040518091039020604051611e0890614208565b9081526020016040518091039020819055506005600382604051611e2c91906141a9565b9081526020016040518091039020604051611e46906141c1565b90815260405190819003602001902055612047565b600181604051611e6b91906141a9565b90815260200160405180910390206001015460021415611f5157600a600382604051611e9791906141a9565b9081526020016040518091039020604051611eb1906141fd565b908152602001604051809103902081905550600f600382604051611ed591906141a9565b9081526020016040518091039020604051611eef90614213565b9081526020016040518091039020819055506002600382604051611f1391906141a9565b9081526020016040518091039020604051611f2d90614208565b9081526020016040518091039020819055506007600382604051611e2c91906141a9565b600c600382604051611f6391906141a9565b9081526020016040518091039020604051611f7d906141fd565b9081526020016040518091039020819055506011600382604051611fa191906141a9565b9081526020016040518091039020604051611fbb90614213565b90815260200160405180910390208190555060038082604051611fde91906141a9565b9081526020016040518091039020604051611ff890614208565b908152602001604051809103902081905550600a60038260405161201c91906141a9565b9081526020016040518091039020604051612036906141c1565b908152604051908190036020019020555b50565b612052613557565b6000828152600260208181526040928390208351610100808201865282548252600180840180548851928116159093026000190190921695909504601f810185900485028601850190965285855290949193858401939092908301828280156120fc5780601f106120d1576101008083540402835291602001916120fc565b820191906000526020600020905b8154815290600101906020018083116120df57829003601f168201915b5050509183525050600282810180546040805160206001841615610100026000190190931694909404601f8101839004830285018301909152808452938101939083018282801561218e5780601f106121635761010080835404028352916020019161218e565b820191906000526020600020905b81548152906001019060200180831161217157829003601f168201915b505050918352505060038201805460408051602060026001851615610100026000190190941693909304601f81018490048402820184019092528181529382019392918301828280156122225780601f106121f757610100808354040283529160200191612222565b820191906000526020600020905b81548152906001019060200180831161220557829003601f168201915b505050918352505060048201805460408051602060026001851615610100026000190190941693909304601f81018490048402820184019092528181529382019392918301828280156122b65780601f1061228b576101008083540402835291602001916122b6565b820191906000526020600020905b81548152906001019060200180831161229957829003601f168201915b505050918352505060058201805460408051602060026001851615610100026000190190941693909304601f810184900484028201840190925281815293820193929183018282801561234a5780601f1061231f5761010080835404028352916020019161234a565b820191906000526020600020905b81548152906001019060200180831161232d57829003601f168201915b50505091835250506006919091015460ff81161515602083015261010090046001600160a01b031660409091015292915050565b6101f4600460008381526020019081526020016000206040516123a0906141fd565b9081526020016040518091039020819055506103e8600460008381526020019081526020016000206040516123d490614213565b9081526020016040518091039020819055506101f46004600083815260200190815260200160002060405161240890614208565b9081526020016040518091039020819055506101f460046000838152602001908152602001600020604051612036906141c1565b60026020818152600092835260409283902080546001808301805487519281161561010002600019011695909504601f81018590048502820185019096528581529094919390929091908301828280156124d75780601f106124ac576101008083540402835291602001916124d7565b820191906000526020600020905b8154815290600101906020018083116124ba57829003601f168201915b50505060028085018054604080516020601f60001961010060018716150201909416959095049283018590048502810185019091528181529596959450909250908301828280156125695780601f1061253e57610100808354040283529160200191612569565b820191906000526020600020905b81548152906001019060200180831161254c57829003601f168201915b5050505060038301805460408051602060026001851615610100026000190190941693909304601f81018490048402820184019092528181529495949350908301828280156125f95780601f106125ce576101008083540402835291602001916125f9565b820191906000526020600020905b8154815290600101906020018083116125dc57829003601f168201915b5050505060048301805460408051602060026001851615610100026000190190941693909304601f81018490048402820184019092528181529495949350908301828280156126895780601f1061265e57610100808354040283529160200191612689565b820191906000526020600020905b81548152906001019060200180831161266c57829003601f168201915b5050505060058301805460408051602060026001851615610100026000190190941693909304601f81018490048402820184019092528181529495949350908301828280156127195780601f106126ee57610100808354040283529160200191612719565b820191906000526020600020905b8154815290600101906020018083116126fc57829003601f168201915b5050506006909301549192505060ff8116906001600160a01b036101009091041688565b6007818154811061274a57fe5b60009182526020918290206004919091020180546040805160026001841615610100026000190190931692909204601f8101859004850283018501909152808252919350918391908301828280156127e35780601f106127b8576101008083540402835291602001916127e3565b820191906000526020600020905b8154815290600101906020018083116127c657829003601f168201915b505050505090806001015490806002018054600181600116156101000203166002900480601f0160208091040260200160405190810160405280929190818152602001828054600181600116156101000203166002900480156128875780601f1061285c57610100808354040283529160200191612887565b820191906000526020600020905b81548152906001019060200180831161286a57829003601f168201915b5050505060038301805460408051602060026001851615610100026000190190941693909304601f81018490048402820184019092528181529495949350908301828280156129175780601f106128ec57610100808354040283529160200191612917565b820191906000526020600020905b8154815290600101906020018083116128fa57829003601f168201915b5050505050905084565b612929613557565b6040518061010001604052808a8152602001898152602001888152602001878152602001868152602001612969600287604051602001610e8b91906141a9565b81528415156020808301919091526001600160a01b03851660409283015260008c8152600282529190912082518155828201518051939450849391926129b79260018501929091019061344a565b50604082015180516129d391600284019160209091019061344a565b50606082015180516129ef91600384019160209091019061344a565b5060808201518051612a0b91600484019160209091019061344a565b5060a08201518051612a2791600584019160209091019061344a565b5060c08201516006909101805460e0909301516001600160a01b031661010002610100600160a81b031992151560ff199094169390931791909116919091179055505050505050505050565b600b8054604080516020601f6002600019610100600188161502019095169490940493840181900481028201810190925282815260609390929091830182828015611d2c5780601f10612ad457610100808354040283529160200191611d2c565b820191906000526020600020905b815481529060010190602001808311612ae257509395945050505050565b6004602090815260009283526040909220815180830184018051928152908401929093019190912091525481565b8051602081830181018051600180835293830194830194909420939052825460408051600294831615610100026000190190921693909304601f8101839004830282018301909352828152918391830182828015612bcd5780601f10612ba257610100808354040283529160200191612bcd565b820191906000526020600020905b815481529060010190602001808311612bb057829003601f168201915b505050505090806001015490806002018054600181600116156101000203166002900480601f016020809104026020016040519081016040528092919081815260200182805460018160011615610100020316600290048015612c715780601f10612c4657610100808354040283529160200191612c71565b820191906000526020600020905b815481529060010190602001808311612c5457829003601f168201915b5050505060038301805460408051602060026001851615610100026000190190941693909304601f8101849004840282018401909252818152949594935090830182828015612d015780601f10612cd657610100808354040283529160200191612d01565b820191906000526020600020905b815481529060010190602001808311612ce457829003601f168201915b5050505060048301805460408051602060026001851615610100026000190190941693909304601f8101849004840282018401909252818152949594935090830182828015612d915780601f10612d6657610100808354040283529160200191612d91565b820191906000526020600020905b815481529060010190602001808311612d7457829003601f168201915b5050505060058301805460408051602060026001851615610100026000190190941693909304601f8101849004840282018401909252818152949594935090830182828015612e215780601f10612df657610100808354040283529160200191612e21565b820191906000526020600020905b815481529060010190602001808311612e0457829003601f168201915b50505050600683015460078401805460408051602060026001851615610100026000190190941693909304601f81018490048402820184019092528181529596939593945090830182828015612eb85780601f10612e8d57610100808354040283529160200191612eb8565b820191906000526020600020905b815481529060010190602001808311612e9b57829003601f168201915b505050600890930154919250506001600160a01b031689565b6000612edb613557565b6000848152600260208181526040928390208351610100808201865282548252600180840180548851928116159093026000190190921695909504601f81018590048502860185019096528585529094919385840193909290830182828015612f855780601f10612f5a57610100808354040283529160200191612f85565b820191906000526020600020905b815481529060010190602001808311612f6857829003601f168201915b5050509183525050600282810180546040805160206001841615610100026000190190931694909404601f810183900483028501830190915280845293810193908301828280156130175780601f10612fec57610100808354040283529160200191613017565b820191906000526020600020905b815481529060010190602001808311612ffa57829003601f168201915b505050918352505060038201805460408051602060026001851615610100026000190190941693909304601f81018490048402820184019092528181529382019392918301828280156130ab5780601f10613080576101008083540402835291602001916130ab565b820191906000526020600020905b81548152906001019060200180831161308e57829003601f168201915b505050918352505060048201805460408051602060026001851615610100026000190190941693909304601f810184900484028201840190925281815293820193929183018282801561313f5780601f106131145761010080835404028352916020019161313f565b820191906000526020600020905b81548152906001019060200180831161312257829003601f168201915b505050918352505060058201805460408051602060026001851615610100026000190190941693909304601f81018490048402820184019092528181529382019392918301828280156131d35780601f106131a8576101008083540402835291602001916131d3565b820191906000526020600020905b8154815290600101906020018083116131b657829003601f168201915b50505091835250506006919091015460ff811615156020808401919091526101009091046001600160a01b0316604092830152905191925060609161322191600291610e8b918891016141a9565b90508160a00151604051602001611a4491906141a9565b8060018360405161324991906141a9565b908152604051908190036020019020600101555050565b7f3030303030303030303030303030303030303030303030303030303030303030604082901c6fffffffffffffffff0000000000000000166001600160c01b03199290921691909117602081901c77ffffffff000000000000000000000000ffffffff00000000167fffffffff000000000000000000000000ffffffff0000000000000000000000009190911617601081901c7bffff000000000000ffff000000000000ffff000000000000ffff0000167fffff000000000000ffff000000000000ffff000000000000ffff0000000000009190911617600881811c7dff000000ff000000ff000000ff000000ff000000ff000000ff000000ff00167fff000000ff000000ff000000ff000000ff000000ff000000ff000000ff00000092909216919091179081901c7e0f000f000f000f000f000f000f000f000f000f000f000f000f000f000f000f167f0f000f000f000f000f000f000f000f000f000f000f000f000f000f000f000f00600492831c16177f0606060606060606060606060606060606060606060606060606060606060606810190911c7f0f0f0f0f0f0f0f0f0f0f0f0f0f0f0f0f0f0f0f0f0f0f0f0f0f0f0f0f0f0f0f0f16602702010190565b6040518060800160405280606081526020016000815260200160608152602001606081525090565b828054600181600116156101000203166002900490600052602060002090601f016020900481019282601f1061348b57805160ff19168380011785556134b8565b828001600101855582156134b8579182015b828111156134b857825182559160200191906001019061349d565b506134c49291506135a7565b5090565b604051806101200160405280606081526020016000815260200160608152602001606081526020016060815260200160608152602001600081526020016060815260200160006001600160a01b031681525090565b8280548282559060005260206000209081019282156134b857916020028201828111156134b857825182559160200191906001019061349d565b60405180610100016040528060008152602001606081526020016060815260200160608152602001606081526020016060815260200160001515815260200160006001600160a01b031681525090565b6108c391905b808211156134c457600081556001016135ad565b8035611a878161459f565b600082601f8301126135dd57600080fd5b81356135f06135eb826144d6565b6144b0565b9150818183526020840193506020810190508385602084028201111561361557600080fd5b60005b83811015613641578161362b8882613656565b8452506020928301929190910190600101613618565b5050505092915050565b8035611a87816145b3565b8035611a87816145bc565b8051611a87816145bc565b600082601f83011261367d57600080fd5b813561368b6135eb826144f6565b915080825260208301602083018583830111156136a757600080fd5b6136b283828461455d565b50505092915050565b6000602082840312156136cd57600080fd5b60006136d98484613656565b949350505050565b6000602082840312156136f357600080fd5b60006136d98484613661565b60006020828403121561371157600080fd5b81356001600160401b0381111561372757600080fd5b6136d98482850161366c565b6000806040838503121561374657600080fd5b82356001600160401b0381111561375c57600080fd5b6137688582860161366c565b92505060208301356001600160401b0381111561378457600080fd5b6137908582860161366c565b9150509250929050565b600080604083850312156137ad57600080fd5b82356001600160401b038111156137c357600080fd5b6137cf8582860161366c565b925050602061379085828601613656565b600080600080608085870312156137f657600080fd5b84356001600160401b0381111561380c57600080fd5b6138188782880161366c565b945050602061382987828801613656565b93505060408501356001600160401b0381111561384557600080fd5b613851878288016135cc565b92505060608501356001600160401b0381111561386d57600080fd5b6138798782880161366c565b91505092959194509250565b6000806000806080858703121561389b57600080fd5b84356001600160401b038111156138b157600080fd5b6138bd8782880161366c565b94505060206138ce87828801613656565b93505060408501356001600160401b038111156138ea57600080fd5b6138518782880161366c565b60008060008060008060008060006101208a8c03121561391557600080fd5b89356001600160401b0381111561392b57600080fd5b6139378c828d0161366c565b99505060206139488c828d01613656565b98505060408a01356001600160401b0381111561396457600080fd5b6139708c828d0161366c565b97505060608a01356001600160401b0381111561398c57600080fd5b6139988c828d0161366c565b96505060808a01356001600160401b038111156139b457600080fd5b6139c08c828d0161366c565b95505060a08a01356001600160401b038111156139dc57600080fd5b6139e88c828d0161366c565b94505060c06139f98c828d01613656565b93505060e08a01356001600160401b03811115613a1557600080fd5b613a218c828d0161366c565b925050610100613a338c828d016135c1565b9150509295985092959850929598565b60008060408385031215613a5657600080fd5b60006137688585613656565b600080600080600080600080610100898b031215613a7f57600080fd5b6000613a8b8b8b613656565b98505060208901356001600160401b03811115613aa757600080fd5b613ab38b828c0161366c565b97505060408901356001600160401b03811115613acf57600080fd5b613adb8b828c0161366c565b96505060608901356001600160401b03811115613af757600080fd5b613b038b828c0161366c565b95505060808901356001600160401b03811115613b1f57600080fd5b613b2b8b828c0161366c565b94505060a08901356001600160401b03811115613b4757600080fd5b613b538b828c0161366c565b93505060c0613b648b828c0161364b565b92505060e0613b758b828c016135c1565b9150509295985092959890939650565b6000613b918383613df3565b9392505050565b6000613b918383613f56565b6000613b91838361409e565b6000613bbc83836141a0565b505060200190565b613bcd81614541565b82525050565b6000613bde8261452f565b613be88185614533565b935083602082028501613bfa8561451d565b8060005b85811015613c345784840389528151613c178582613b85565b9450613c228361451d565b60209a909a0199925050600101613bfe565b5091979650505050505050565b6000613c4c8261452f565b613c568185614533565b935083602082028501613c688561451d565b8060005b85811015613c345784840389528151613c858582613b98565b9450613c908361451d565b60209a909a0199925050600101613c6c565b6000613cad8261452f565b613cb78185614533565b935083602082028501613cc98561451d565b8060005b85811015613c345784840389528151613ce68582613ba4565b9450613cf18361451d565b60209a909a0199925050600101613ccd565b6000613d0e8261452f565b613d188185614533565b9350613d238361451d565b8060005b83811015613d51578151613d3b8882613bb0565b9750613d468361451d565b925050600101613d27565b509495945050505050565b6000613d678261452f565b613d718185614533565b9350613d7c8361451d565b8060005b83811015613d51578151613d948882613bb0565b9750613d9f8361451d565b925050600101613d80565b613bcd8161454c565b613bcd613dbf826108c3565b6108c3565b6000613dcf8261452f565b613dd9818561453c565b9350613de9818560208601614569565b9290920192915050565b6000613dfe8261452f565b613e088185614533565b9350613e18818560208601614569565b613e2181614595565b9093019392505050565b600081546001811660008114613e485760018114613e6b57613eaa565b607f6002830416613e59818761453c565b60ff1984168152955085019250613eaa565b60028204613e79818761453c565b9550613e8485614523565b60005b82811015613ea357815488820152600190910190602001613e87565b5050850192505b505092915050565b6000613ebf60088361453c565b674b65726f73656e6560c01b815260080192915050565b6000613ee360028361453c565b61060f60f31b815260020192915050565b6000613f0160048361453c565b635269636560e01b815260040192915050565b6000613f2160058361453c565b6429bab3b0b960d91b815260050192915050565b6000613f4260058361453c565b6415da19585d60da1b815260050192915050565b8051608080845260009190840190613f6e8282613df3565b9150506020830151613f8360208601826141a0565b5060408301518482036040860152613f9b8282613df3565b91505060608301518482036060860152613fb58282613df3565b95945050505050565b805161012080845260009190840190613fd78282613df3565b9150506020830151613fec60208601826141a0565b50604083015184820360408601526140048282613df3565b9150506060830151848203606086015261401e8282613df3565b915050608083015184820360808601526140388282613df3565b91505060a083015184820360a08601526140528282613df3565b91505060c083015161406760c08601826141a0565b5060e083015184820360e086015261407f8282613df3565b915050610100830151614096610100860182613bc4565b509392505050565b80516080808452600091908401906140b68282613df3565b91505060208301516140cb60208601826141a0565b5060408301518482036040860152613f9b8282613d5c565b80516000906101008401906140f885826141a0565b50602083015184820360208601526141108282613df3565b9150506040830151848203604086015261412a8282613df3565b915050606083015184820360608601526141448282613df3565b9150506080830151848203608086015261415e8282613df3565b91505060a083015184820360a08601526141788282613df3565b91505060c083015161418d60c0860182613daa565b5060e083015161409660e0860182613bc4565b613bcd816108c3565b6000613b918284613dc4565b6000613b918284613e2b565b6000611a8782613eb2565b60006141d782613ed6565b91506141e38285613db3565b6020820191506141f38284613db3565b5060200192915050565b6000611a8782613ef4565b6000611a8782613f14565b6000611a8782613f35565b60208082528101613b918184613bd3565b60208082528101613b918184613c41565b60208082528101613b918184613ca2565b60208082528101613b918184613d03565b60208101611a878284613daa565b60208082528101613b918184613df3565b606080825281016142928186613df3565b90506142a160208301856141a0565b8181036040830152613fb58184613df3565b608080825281016142c48187613df3565b90506142d360208301866141a0565b81810360408301526142e58185613df3565b905081810360608301526142f98184613df3565b9695505050505050565b6101208082528101614315818c613df3565b9050614324602083018b6141a0565b8181036040830152614336818a613df3565b9050818103606083015261434a8189613df3565b9050818103608083015261435e8188613df3565b905081810360a08301526143728187613df3565b905061438160c08301866141a0565b81810360e08301526143938185613df3565b90506143a3610100830184613bc4565b9a9950505050505050505050565b60208082528101613b918184613fbe565b60208082528101613b9181846140e3565b60208101611a8782846141a0565b61010081016143f0828b6141a0565b8181036020830152614402818a613df3565b905081810360408301526144168189613df3565b9050818103606083015261442a8188613df3565b9050818103608083015261443e8187613df3565b905081810360a08301526144528186613df3565b905061446160c0830185613daa565b61446e60e0830184613bc4565b9998505050505050505050565b6080810161448982876141a0565b61449660208301866141a0565b6144a360408301856141a0565b613fb560608301846141a0565b6040518181016001600160401b03811182821017156144ce57600080fd5b604052919050565b60006001600160401b038211156144ec57600080fd5b5060209081020190565b60006001600160401b0382111561450c57600080fd5b506020601f91909101601f19160190565b60200190565b60009081526020902090565b5190565b90815260200190565b919050565b6000611a8782614551565b151590565b6001600160a01b031690565b82818337506000910152565b60005b8381101561458457818101518382015260200161456c565b83811115610f7f5750506000910152565b601f01601f191690565b6145a881614541565b811461204757600080fd5b6145a88161454c565b6145a8816108c356fea365627a7a72315820abf61e50f3f3127e952702aa393e2982a61d68a93ab6764e9e4262180d9cc0ea6c6578706572696d656e74616cf564736f6c634300051000403135616636303761646564343838656435666436643934633134636334343132626435383234356630363463653864613238623438363835376565636636303730786261613034383762653762323066306137633230383034613338373731363236656331623034343736613961633764376235356261316238306263326164326630783966363664633734636237376531363230393761333664646338343537393962363966376437323165343134366237663639633837336564396339363639376530786163393638396532323732343237303835653335623964336533653862656438386362333433343832386234336238366663303539366361643463366532373030786139646633376332643635636564393533363938626162376137326439613331623465376532356532646535363164316431323761386230366236643730663330783133343536336434653434306630653431386230663338326632336132636633303161663664376636343863636661653938393530313833343564373739613330783735636131626165633366333338323938396166666334636164623063633933663437653934366232343765336136353563366233366434336536346464326166616364376233666639373432323330663732303238363436383664343234323530643730393537626439396438343735323336663736643161396537383862",
  "source": "// SPDX-License-Identifier: MIT\r\npragma solidity >=0.4.21 <8.10.0;\r\npragma experimental ABIEncoderV2;\r\n\r\n// Saffron -- 1, white - 2, yellow -3\r\n// Rice - 4kg, sugar - 0.5kg, wheat - 10kg\r\n\r\nlibrary AssetLibrary {\r\n    struct Consumer {\r\n        string ration_card;\r\n        uint256 ration_card_type;\r\n        string first_name;\r\n        string last_name;\r\n        string phone;\r\n        string location;\r\n        uint256 vendor_id;\r\n        string password;\r\n        address wallet_addr;\r\n    }\r\n\r\n    struct Vendor {\r\n        uint256 vendor_id;\r\n        string first_name;\r\n        string last_name;\r\n        string phone;\r\n        string location;\r\n        string password;\r\n        bool isBlacklisted;\r\n        address wallet_addr;\r\n    }\r\n\r\n    struct Transaction {\r\n        string consumer_ration_id;\r\n        uint256 vendor_id;\r\n        uint256[] quantity;\r\n        string timestamp;\r\n    }\r\n\r\n    struct Complaint {\r\n        string ration_id;\r\n        uint256 vendor_id;\r\n        string complaint_content;\r\n        string time;\r\n    }\r\n}\r\n\r\ncontract Sanaaj {\r\n    uint256 transactionCount;\r\n    mapping(string => AssetLibrary.Consumer) public consumerList;\r\n    mapping(uint256 => AssetLibrary.Vendor) public vendorList;\r\n    mapping(string => mapping(string => uint256)) public allowanceList;\r\n    mapping(uint256 => mapping(string => uint256)) public stockList;\r\n    mapping(string => AssetLibrary.Transaction[]) public transactionList;\r\n    mapping(string => AssetLibrary.Transaction[]) public pendingTransactionList;\r\n    AssetLibrary.Complaint[] public complaintList;\r\n    string[] rationCardList;\r\n    uint256[] vendorIDList;\r\n    address adminAddress;\r\n    string adminPassword;\r\n\r\n    constructor() public {\r\n        consumerList[\"MH1234567890\"] = AssetLibrary.Consumer(\r\n            \"MH1234567890\",\r\n            1,\r\n            \"Ram\",\r\n            \"Ghorpade\",\r\n            \"1234567890\",\r\n            \"Mumbai\",\r\n            1,\r\n            \"0x134563d4e440f0e418b0f382f23a2cf301af6d7f648ccfae9895018345d779a3\", //\"Hello123\"\r\n            0x9345BaF04A62F6A91d20aa08121a16eB39308b70\r\n        );\r\n        consumerList[\"MH1234509666\"] = AssetLibrary.Consumer(\r\n            \"MH1234509666\",\r\n            2,\r\n            \"Shyam\",\r\n            \"Ghorpade\",\r\n            \"1234509876\",\r\n            \"Mumbai\",\r\n            1,\r\n            \"0x75ca1baec3f3382989affc4cadb0cc93f47e946b247e3a655c6b36d43e64dd2a\", //\"Hello1234\"\r\n            0xB793c1d9c9D5050859864DbD321Fc873e7942e54\r\n        );\r\n        consumerList[\"MH1234509876\"] = AssetLibrary.Consumer(\r\n            \"MH1234509876\",\r\n            2,\r\n            \"Ghanashyam\",\r\n            \"Deshpande\",\r\n            \"1234509876\",\r\n            \"Mumbai\",\r\n            1,\r\n            \"0xbaa0487be7b20f0a7c20804a38771626ec1b04476a9ac7d7b55ba1b80bc2ad2f\", //\"Hello1235\"\r\n            0xb7C6562BF283534A775d5198195bfD8d47D22647\r\n        );\r\n        consumerList[\"MH9876541230\"] = AssetLibrary.Consumer(\r\n            \"MH9876541230\",\r\n            1,\r\n            \"Dagdu\",\r\n            \"Parab\",\r\n            \"9876541230\",\r\n            \"Mumbai\",\r\n            2,\r\n            \"0xa9df37c2d65ced953698bab7a72d9a31b4e7e25e2de561d1d127a8b06b6d70f3\", //\"Hello1236\"\r\n            0xb6444A785Bc6d27d3fAcb648dc0714C39F569B24\r\n        );\r\n        consumerList[\"MH9876504321\"] = AssetLibrary.Consumer(\r\n            \"MH9876504321\",\r\n            3,\r\n            \"ABC\",\r\n            \"XYZ\",\r\n            \"9876504321\",\r\n            \"Mumbai\",\r\n            2,\r\n            \"facd7b3ff9742230f7202864686d424250d70957bd99d8475236f76d1a9e788b\", //\"Hello1237\"\r\n            0x97b814cdcD7F542f413E2CFef8AF97c6633ffF3D\r\n        );\r\n\r\n        vendorList[1] = AssetLibrary.Vendor(\r\n            1,\r\n            \"Siddhesh\",\r\n            \"Bagwe\",\r\n            \"1029384756\",\r\n            \"Mumbai\",\r\n            \"0x9f66dc74cb77e162097a36ddc845799b69f7d721e4146b7f69c873ed9c96697e\", //\"hello987\"\r\n            false,\r\n            0xbC7B67cB47ba61DE49cc9c3774E98D9C5EDF0eB8\r\n        );\r\n        vendorList[2] = AssetLibrary.Vendor(\r\n            2,\r\n            \"Pooja\",\r\n            \"Kaulgud\",\r\n            \"9087564132\",\r\n            \"Mumbai\",\r\n            \"15af607aded488ed5fd6d94c14cc4412bd58245f064ce8da28b486857eecf607\", //\"hello9876\"\r\n            false,\r\n            0x295b6AE0Efe05de0011E9316E27B560cCdCD3DDb\r\n        );\r\n\r\n        adminPassword = \"0xac9689e2272427085e35b9d3e3e8bed88cb3434828b43b86fc0596cad4c6e270\"; //\"admin1234\";\r\n        rationCardList = [\r\n            \"MH1234567890\",\r\n            \"MH1234509666\",\r\n            \"MH1234509876\",\r\n            \"MH9876541230\",\r\n            \"MH9876504321\"\r\n        ];\r\n        vendorIDList = [1, 2];\r\n        adminAddress = 0x1964F1519FF7ACAa5E6b2462070cB0d6817FbA4E;\r\n    }\r\n\r\n    function getAdminPassword() public view returns (string memory) {\r\n        return adminPassword;\r\n    }\r\n\r\n    function getConsumer(string memory _ration)\r\n        public\r\n        view\r\n        returns (AssetLibrary.Consumer memory)\r\n    {\r\n        return consumerList[_ration];\r\n    }\r\n\r\n    function getVendor(uint256 _id)\r\n        public\r\n        view\r\n        returns (AssetLibrary.Vendor memory)\r\n    {\r\n        return vendorList[_id];\r\n    }\r\n\r\n    function getAllConsumers() public view returns (string[] memory) {\r\n        // if (byVendor) {\r\n        //     string[] memory consumers;\r\n        //     uint256 count = 0;\r\n        //     for (uint256 i = 0; i < rationCardList.length; i++) {\r\n        //         if (consumerList[rationCardList[i]].vendor_id == _id) {\r\n        //             consumers[count] = rationCardList[i];\r\n        //             count++;\r\n        //         }\r\n        //     }\r\n        //     return consumers;\r\n        // }\r\n\r\n        return rationCardList;\r\n    }\r\n\r\n    function getAllVendors() public view returns (uint256[] memory) {\r\n        return vendorIDList;\r\n    }\r\n\r\n    function getAllowance(string memory _ration)\r\n        public\r\n        view\r\n        returns (\r\n            uint256,\r\n            uint256,\r\n            uint256,\r\n            uint256\r\n        )\r\n    {\r\n        uint256 rice = allowanceList[_ration][\"Rice\"];\r\n        uint256 wheat = allowanceList[_ration][\"Wheat\"];\r\n        uint256 sugar = allowanceList[_ration][\"Sugar\"];\r\n        uint256 kerosene = allowanceList[_ration][\"Kerosene\"];\r\n\r\n        return (rice, wheat, sugar, kerosene);\r\n    }\r\n\r\n    function getStock(uint256 _id)\r\n        public\r\n        view\r\n        returns (\r\n            uint256,\r\n            uint256,\r\n            uint256,\r\n            uint256\r\n        )\r\n    {\r\n        uint256 rice = stockList[_id][\"Rice\"];\r\n        uint256 wheat = stockList[_id][\"Wheat\"];\r\n        uint256 sugar = stockList[_id][\"Sugar\"];\r\n        uint256 kerosene = stockList[_id][\"Kerosene\"];\r\n\r\n        return (rice, wheat, sugar, kerosene);\r\n    }\r\n\r\n    // (ration, 2, [5, 10, 5, 2] )\r\n\r\n    function updateAllowance(\r\n        string memory _ration,\r\n        uint256 _vendorID,\r\n        uint256[] memory quantity_commodity,\r\n        string memory timestamp\r\n    ) public {\r\n        allowanceList[_ration][\"Rice\"] -= quantity_commodity[0];\r\n        allowanceList[_ration][\"Wheat\"] -= quantity_commodity[1];\r\n        allowanceList[_ration][\"Sugar\"] -= quantity_commodity[2];\r\n        allowanceList[_ration][\"Kerosene\"] -= quantity_commodity[3];\r\n\r\n        stockList[_vendorID][\"Rice\"] -= quantity_commodity[0];\r\n        stockList[_vendorID][\"Wheat\"] -= quantity_commodity[1];\r\n        stockList[_vendorID][\"Sugar\"] -= quantity_commodity[2];\r\n        stockList[_vendorID][\"Kerosene\"] -= quantity_commodity[3];\r\n\r\n        transactionList[_ration].push(\r\n            AssetLibrary.Transaction(\r\n                _ration,\r\n                _vendorID,\r\n                quantity_commodity,\r\n                timestamp\r\n            )\r\n        );\r\n    }\r\n\r\n    function getTransactions(string memory _ration)\r\n        public\r\n        view\r\n        returns (AssetLibrary.Transaction[] memory)\r\n    {\r\n        return transactionList[_ration];\r\n    }\r\n\r\n    function refillAllowance(string memory _ration) public {\r\n        if (consumerList[_ration].ration_card_type == 1) {\r\n            allowanceList[_ration][\"Rice\"] = 5;\r\n            allowanceList[_ration][\"Wheat\"] = 10;\r\n            allowanceList[_ration][\"Sugar\"] = 1;\r\n            allowanceList[_ration][\"Kerosene\"] = 5;\r\n        } else if (consumerList[_ration].ration_card_type == 2) {\r\n            allowanceList[_ration][\"Rice\"] = 10;\r\n            allowanceList[_ration][\"Wheat\"] = 15;\r\n            allowanceList[_ration][\"Sugar\"] = 2;\r\n            allowanceList[_ration][\"Kerosene\"] = 7;\r\n        } else {\r\n            allowanceList[_ration][\"Rice\"] = 12;\r\n            allowanceList[_ration][\"Wheat\"] = 17;\r\n            allowanceList[_ration][\"Sugar\"] = 3;\r\n            allowanceList[_ration][\"Kerosene\"] = 10;\r\n        }\r\n    }\r\n\r\n    function refillStock(uint256 _vendorID) public {\r\n        stockList[_vendorID][\"Rice\"] = 500;\r\n        stockList[_vendorID][\"Wheat\"] = 1000;\r\n        stockList[_vendorID][\"Sugar\"] = 500;\r\n        stockList[_vendorID][\"Kerosene\"] = 500;\r\n    }\r\n\r\n    function blacklist(uint256 _id) public {\r\n        vendorList[_id].isBlacklisted = !vendorList[_id].isBlacklisted;\r\n    }\r\n\r\n    function updateCardType(string memory _ration, uint256 card_type) public {\r\n        consumerList[_ration].ration_card_type = card_type;\r\n    }\r\n\r\n    function addConsumer(\r\n        string memory ration_card,\r\n        uint256 ration_card_type,\r\n        string memory first_name,\r\n        string memory last_name,\r\n        string memory phone,\r\n        string memory location,\r\n        uint256 vendor_id,\r\n        string memory password,\r\n        address wallet_addr\r\n    ) public {\r\n        // require(sha256(abi.encodePacked()) == sha256(abi.encodePacked()));\r\n        AssetLibrary.Consumer memory consumer = AssetLibrary.Consumer(\r\n            ration_card,\r\n            ration_card_type,\r\n            first_name,\r\n            last_name,\r\n            phone,\r\n            location,\r\n            vendor_id,\r\n            toHex(sha256(abi.encodePacked(password))),\r\n            wallet_addr\r\n        );\r\n\r\n        consumerList[ration_card] = consumer;\r\n    }\r\n\r\n    function addVendor(\r\n        uint256 vendor_id,\r\n        string memory first_name,\r\n        string memory last_name,\r\n        string memory phone,\r\n        string memory location,\r\n        string memory password,\r\n        bool isBlacklisted,\r\n        address wallet_addr\r\n    ) public {\r\n        AssetLibrary.Vendor memory vendor = AssetLibrary.Vendor(\r\n            vendor_id,\r\n            first_name,\r\n            last_name,\r\n            phone,\r\n            location,\r\n            toHex(sha256(abi.encodePacked(password))),\r\n            isBlacklisted,\r\n            wallet_addr\r\n        );\r\n\r\n        vendorList[vendor_id] = vendor;\r\n    }\r\n\r\n    function addComplaint(\r\n        string memory ration_id,\r\n        uint256 vendor_id,\r\n        string memory complaint_content,\r\n        string memory time\r\n    ) public {\r\n        AssetLibrary.Complaint memory complaint = AssetLibrary.Complaint(\r\n            ration_id,\r\n            vendor_id,\r\n            complaint_content,\r\n            time\r\n        );\r\n\r\n        complaintList.push(complaint);\r\n    }\r\n\r\n    function getAllComplaints()\r\n        public\r\n        view\r\n        returns (AssetLibrary.Complaint[] memory)\r\n    {\r\n        return complaintList;\r\n    }\r\n\r\n    function resetConsumerPassword(\r\n        string memory ration_id,\r\n        string memory new_password\r\n    ) public {\r\n        string memory password1 = toHex(sha256(abi.encodePacked(new_password)));\r\n        consumerList[ration_id].password = password1;\r\n    }\r\n\r\n    function resetVendorPassword(uint256 vendor_id, string memory new_password)\r\n        public\r\n    {\r\n        string memory password1 = toHex(sha256(abi.encodePacked(new_password)));\r\n        vendorList[vendor_id].password = password1;\r\n    }\r\n\r\n    function checkConsumerCredentials(\r\n        string memory ration_id,\r\n        string memory password\r\n    ) public view returns (bool) {\r\n        AssetLibrary.Consumer memory consumer = consumerList[ration_id];\r\n\r\n        string memory hashed_password = toHex(\r\n            sha256(abi.encodePacked(password))\r\n        );\r\n        return (keccak256(abi.encodePacked((hashed_password))) ==\r\n            keccak256(abi.encodePacked((consumer.password))));\r\n    }\r\n\r\n    function checkVendorCredentials(uint256 vendor_id, string memory password)\r\n        public\r\n        view\r\n        returns (bool)\r\n    {\r\n        AssetLibrary.Vendor memory vendor = vendorList[vendor_id];\r\n\r\n        string memory hashed_password = toHex(\r\n            sha256(abi.encodePacked(password))\r\n        );\r\n        return (keccak256(abi.encodePacked((hashed_password))) ==\r\n            keccak256(abi.encodePacked((vendor.password))));\r\n    }\r\n\r\n    function checkAdminCredentials(string memory password)\r\n        public\r\n        view\r\n        returns (bool)\r\n    {\r\n        string memory hashed_password = toHex(\r\n            sha256(abi.encodePacked(password))\r\n        );\r\n        return (keccak256(abi.encodePacked((hashed_password))) ==\r\n            keccak256(abi.encodePacked((adminPassword))));\r\n    }\r\n\r\n    function toHex(bytes32 data) public pure returns (string memory) {\r\n        return\r\n            string(\r\n                abi.encodePacked(\r\n                    \"0x\",\r\n                    toHex16(bytes16(data)),\r\n                    toHex16(bytes16(data << 128))\r\n                )\r\n            );\r\n    }\r\n\r\n    function toHex16(bytes16 data) internal pure returns (bytes32 result) {\r\n        result =\r\n            (bytes32(data) &\r\n                0xFFFFFFFFFFFFFFFF000000000000000000000000000000000000000000000000) |\r\n            ((bytes32(data) &\r\n                0x0000000000000000FFFFFFFFFFFFFFFF00000000000000000000000000000000) >>\r\n                64);\r\n        result =\r\n            (result &\r\n                0xFFFFFFFF000000000000000000000000FFFFFFFF000000000000000000000000) |\r\n            ((result &\r\n                0x00000000FFFFFFFF000000000000000000000000FFFFFFFF0000000000000000) >>\r\n                32);\r\n        result =\r\n            (result &\r\n                0xFFFF000000000000FFFF000000000000FFFF000000000000FFFF000000000000) |\r\n            ((result &\r\n                0x0000FFFF000000000000FFFF000000000000FFFF000000000000FFFF00000000) >>\r\n                16);\r\n        result =\r\n            (result &\r\n                0xFF000000FF000000FF000000FF000000FF000000FF000000FF000000FF000000) |\r\n            ((result &\r\n                0x00FF000000FF000000FF000000FF000000FF000000FF000000FF000000FF0000) >>\r\n                8);\r\n        result =\r\n            ((result &\r\n                0xF000F000F000F000F000F000F000F000F000F000F000F000F000F000F000F000) >>\r\n                4) |\r\n            ((result &\r\n                0x0F000F000F000F000F000F000F000F000F000F000F000F000F000F000F000F00) >>\r\n                8);\r\n        result = bytes32(\r\n            0x3030303030303030303030303030303030303030303030303030303030303030 +\r\n                uint256(result) +\r\n                (((uint256(result) +\r\n                    0x0606060606060606060606060606060606060606060606060606060606060606) >>\r\n                    4) &\r\n                    0x0F0F0F0F0F0F0F0F0F0F0F0F0F0F0F0F0F0F0F0F0F0F0F0F0F0F0F0F0F0F0F0F) *\r\n                39\r\n        );\r\n    }\r\n}\r\n",
  "sourcePath": "C:\\Users\\Chaitanya\\Personal\\Sem 6\\Mini Project\\SaNaaj\\contracts\\Sanaaj.sol",
  "compiler": {
    "name": "solc",
    "version": "0.5.16+commit.9c3226ce.Emscripten.clang"
  },
  "schemaVersion": "3.4.6",
  "updatedAt": "2022-04-21T16:01:03.220Z",
  "networkType": "ethereum",
  "devdoc": {
    "methods": {}
  },
  "userdoc": {
    "methods": {}
  }
}