{
  "contractName": "Sanaaj",
  "abi": [
    {
      "inputs": [],
      "payable": false,
      "stateMutability": "nonpayable",
      "type": "constructor"
    },
    {
      "constant": true,
      "inputs": [
        {
          "internalType": "string",
          "name": "",
          "type": "string"
        },
        {
          "internalType": "string",
          "name": "",
          "type": "string"
        }
      ],
      "name": "allowanceList",
      "outputs": [
        {
          "internalType": "uint256",
          "name": "",
          "type": "uint256"
        }
      ],
      "payable": false,
      "stateMutability": "view",
      "type": "function"
    },
    {
      "constant": true,
      "inputs": [
        {
          "internalType": "string",
          "name": "",
          "type": "string"
        }
      ],
      "name": "consumerList",
      "outputs": [
        {
          "internalType": "string",
          "name": "ration_card",
          "type": "string"
        },
        {
          "internalType": "uint256",
          "name": "ration_card_type",
          "type": "uint256"
        },
        {
          "internalType": "string",
          "name": "first_name",
          "type": "string"
        },
        {
          "internalType": "string",
          "name": "last_name",
          "type": "string"
        },
        {
          "internalType": "string",
          "name": "phone",
          "type": "string"
        },
        {
          "internalType": "string",
          "name": "location",
          "type": "string"
        },
        {
          "internalType": "uint256",
          "name": "vendor_id",
          "type": "uint256"
        },
        {
          "internalType": "string",
          "name": "password",
          "type": "string"
        },
        {
          "internalType": "address",
          "name": "wallet_addr",
          "type": "address"
        }
      ],
      "payable": false,
      "stateMutability": "view",
      "type": "function"
    },
    {
      "constant": true,
      "inputs": [
        {
          "internalType": "uint256",
          "name": "",
          "type": "uint256"
        },
        {
          "internalType": "string",
          "name": "",
          "type": "string"
        }
      ],
      "name": "stockList",
      "outputs": [
        {
          "internalType": "uint256",
          "name": "",
          "type": "uint256"
        }
      ],
      "payable": false,
      "stateMutability": "view",
      "type": "function"
    },
    {
      "constant": true,
      "inputs": [
        {
          "internalType": "string",
          "name": "",
          "type": "string"
        },
        {
          "internalType": "uint256",
          "name": "",
          "type": "uint256"
        }
      ],
      "name": "transactionList",
      "outputs": [
        {
          "internalType": "string",
          "name": "consumer_ration_id",
          "type": "string"
        },
        {
          "internalType": "uint256",
          "name": "vendor_id",
          "type": "uint256"
        },
        {
          "internalType": "string",
          "name": "timestamp",
          "type": "string"
        }
      ],
      "payable": false,
      "stateMutability": "view",
      "type": "function"
    },
    {
      "constant": true,
      "inputs": [
        {
          "internalType": "uint256",
          "name": "",
          "type": "uint256"
        }
      ],
      "name": "vendorList",
      "outputs": [
        {
          "internalType": "uint256",
          "name": "vendor_id",
          "type": "uint256"
        },
        {
          "internalType": "string",
          "name": "first_name",
          "type": "string"
        },
        {
          "internalType": "string",
          "name": "last_name",
          "type": "string"
        },
        {
          "internalType": "string",
          "name": "phone",
          "type": "string"
        },
        {
          "internalType": "string",
          "name": "location",
          "type": "string"
        },
        {
          "internalType": "string",
          "name": "password",
          "type": "string"
        },
        {
          "internalType": "bool",
          "name": "isBlacklisted",
          "type": "bool"
        },
        {
          "internalType": "address",
          "name": "wallet_addr",
          "type": "address"
        }
      ],
      "payable": false,
      "stateMutability": "view",
      "type": "function"
    },
    {
      "constant": true,
      "inputs": [
        {
          "internalType": "string",
          "name": "_ration",
          "type": "string"
        }
      ],
      "name": "getConsumer",
      "outputs": [
        {
          "components": [
            {
              "internalType": "string",
              "name": "ration_card",
              "type": "string"
            },
            {
              "internalType": "uint256",
              "name": "ration_card_type",
              "type": "uint256"
            },
            {
              "internalType": "string",
              "name": "first_name",
              "type": "string"
            },
            {
              "internalType": "string",
              "name": "last_name",
              "type": "string"
            },
            {
              "internalType": "string",
              "name": "phone",
              "type": "string"
            },
            {
              "internalType": "string",
              "name": "location",
              "type": "string"
            },
            {
              "internalType": "uint256",
              "name": "vendor_id",
              "type": "uint256"
            },
            {
              "internalType": "string",
              "name": "password",
              "type": "string"
            },
            {
              "internalType": "address",
              "name": "wallet_addr",
              "type": "address"
            }
          ],
          "internalType": "struct AssetLibrary.Consumer",
          "name": "",
          "type": "tuple"
        }
      ],
      "payable": false,
      "stateMutability": "view",
      "type": "function"
    },
    {
      "constant": true,
      "inputs": [
        {
          "internalType": "uint256",
          "name": "_id",
          "type": "uint256"
        }
      ],
      "name": "getVendor",
      "outputs": [
        {
          "components": [
            {
              "internalType": "uint256",
              "name": "vendor_id",
              "type": "uint256"
            },
            {
              "internalType": "string",
              "name": "first_name",
              "type": "string"
            },
            {
              "internalType": "string",
              "name": "last_name",
              "type": "string"
            },
            {
              "internalType": "string",
              "name": "phone",
              "type": "string"
            },
            {
              "internalType": "string",
              "name": "location",
              "type": "string"
            },
            {
              "internalType": "string",
              "name": "password",
              "type": "string"
            },
            {
              "internalType": "bool",
              "name": "isBlacklisted",
              "type": "bool"
            },
            {
              "internalType": "address",
              "name": "wallet_addr",
              "type": "address"
            }
          ],
          "internalType": "struct AssetLibrary.Vendor",
          "name": "",
          "type": "tuple"
        }
      ],
      "payable": false,
      "stateMutability": "view",
      "type": "function"
    },
    {
      "constant": true,
      "inputs": [],
      "name": "getAllConsumers",
      "outputs": [
        {
          "internalType": "string[]",
          "name": "",
          "type": "string[]"
        }
      ],
      "payable": false,
      "stateMutability": "view",
      "type": "function"
    },
    {
      "constant": true,
      "inputs": [],
      "name": "getAllVendors",
      "outputs": [
        {
          "internalType": "uint256[]",
          "name": "",
          "type": "uint256[]"
        }
      ],
      "payable": false,
      "stateMutability": "view",
      "type": "function"
    },
    {
      "constant": true,
      "inputs": [
        {
          "internalType": "string",
          "name": "_ration",
          "type": "string"
        }
      ],
      "name": "getAllowance",
      "outputs": [
        {
          "internalType": "uint256",
          "name": "",
          "type": "uint256"
        },
        {
          "internalType": "uint256",
          "name": "",
          "type": "uint256"
        },
        {
          "internalType": "uint256",
          "name": "",
          "type": "uint256"
        },
        {
          "internalType": "uint256",
          "name": "",
          "type": "uint256"
        }
      ],
      "payable": false,
      "stateMutability": "view",
      "type": "function"
    },
    {
      "constant": true,
      "inputs": [
        {
          "internalType": "uint256",
          "name": "_id",
          "type": "uint256"
        }
      ],
      "name": "getStock",
      "outputs": [
        {
          "internalType": "uint256",
          "name": "",
          "type": "uint256"
        },
        {
          "internalType": "uint256",
          "name": "",
          "type": "uint256"
        },
        {
          "internalType": "uint256",
          "name": "",
          "type": "uint256"
        },
        {
          "internalType": "uint256",
          "name": "",
          "type": "uint256"
        }
      ],
      "payable": false,
      "stateMutability": "view",
      "type": "function"
    },
    {
      "constant": false,
      "inputs": [
        {
          "internalType": "string",
          "name": "_ration",
          "type": "string"
        },
        {
          "internalType": "uint256",
          "name": "_vendorID",
          "type": "uint256"
        },
        {
          "internalType": "uint256[]",
          "name": "quantity_commodity",
          "type": "uint256[]"
        },
        {
          "internalType": "string",
          "name": "timestamp",
          "type": "string"
        }
      ],
      "name": "updateAllowance",
      "outputs": [],
      "payable": false,
      "stateMutability": "nonpayable",
      "type": "function"
    },
    {
      "constant": true,
      "inputs": [
        {
          "internalType": "string",
          "name": "_ration",
          "type": "string"
        }
      ],
      "name": "getTransactions",
      "outputs": [
        {
          "components": [
            {
              "internalType": "string",
              "name": "consumer_ration_id",
              "type": "string"
            },
            {
              "internalType": "uint256",
              "name": "vendor_id",
              "type": "uint256"
            },
            {
              "internalType": "uint256[]",
              "name": "quantity",
              "type": "uint256[]"
            },
            {
              "internalType": "string",
              "name": "timestamp",
              "type": "string"
            }
          ],
          "internalType": "struct AssetLibrary.Transaction[]",
          "name": "",
          "type": "tuple[]"
        }
      ],
      "payable": false,
      "stateMutability": "view",
      "type": "function"
    },
    {
      "constant": false,
      "inputs": [
        {
          "internalType": "string",
          "name": "_ration",
          "type": "string"
        }
      ],
      "name": "refillAllowance",
      "outputs": [],
      "payable": false,
      "stateMutability": "nonpayable",
      "type": "function"
    },
    {
      "constant": false,
      "inputs": [
        {
          "internalType": "uint256",
          "name": "_vendorID",
          "type": "uint256"
        }
      ],
      "name": "refillStock",
      "outputs": [],
      "payable": false,
      "stateMutability": "nonpayable",
      "type": "function"
    },
    {
      "constant": false,
      "inputs": [
        {
          "internalType": "uint256",
          "name": "_id",
          "type": "uint256"
        }
      ],
      "name": "blacklist",
      "outputs": [],
      "payable": false,
      "stateMutability": "nonpayable",
      "type": "function"
    },
    {
      "constant": false,
      "inputs": [
        {
          "internalType": "string",
          "name": "_ration",
          "type": "string"
        },
        {
          "internalType": "uint256",
          "name": "card_type",
          "type": "uint256"
        }
      ],
      "name": "updateCardType",
      "outputs": [],
      "payable": false,
      "stateMutability": "nonpayable",
      "type": "function"
    },
    {
      "constant": false,
      "inputs": [
        {
          "internalType": "string",
          "name": "ration_card",
          "type": "string"
        },
        {
          "internalType": "uint256",
          "name": "ration_card_type",
          "type": "uint256"
        },
        {
          "internalType": "string",
          "name": "first_name",
          "type": "string"
        },
        {
          "internalType": "string",
          "name": "last_name",
          "type": "string"
        },
        {
          "internalType": "string",
          "name": "phone",
          "type": "string"
        },
        {
          "internalType": "string",
          "name": "location",
          "type": "string"
        },
        {
          "internalType": "uint256",
          "name": "vendor_id",
          "type": "uint256"
        },
        {
          "internalType": "string",
          "name": "password",
          "type": "string"
        },
        {
          "internalType": "address",
          "name": "wallet_addr",
          "type": "address"
        }
      ],
      "name": "addConsumer",
      "outputs": [],
      "payable": false,
      "stateMutability": "nonpayable",
      "type": "function"
    },
    {
      "constant": false,
      "inputs": [
        {
          "internalType": "uint256",
          "name": "vendor_id",
          "type": "uint256"
        },
        {
          "internalType": "string",
          "name": "first_name",
          "type": "string"
        },
        {
          "internalType": "string",
          "name": "last_name",
          "type": "string"
        },
        {
          "internalType": "string",
          "name": "phone",
          "type": "string"
        },
        {
          "internalType": "string",
          "name": "location",
          "type": "string"
        },
        {
          "internalType": "string",
          "name": "password",
          "type": "string"
        },
        {
          "internalType": "bool",
          "name": "isBlacklisted",
          "type": "bool"
        },
        {
          "internalType": "address",
          "name": "wallet_addr",
          "type": "address"
        }
      ],
      "name": "addVendor",
      "outputs": [],
      "payable": false,
      "stateMutability": "nonpayable",
      "type": "function"
    }
  ],
  "bytecode": "0x60806040523480156200001157600080fd5b506040518061012001604052806040518060400160405280600c81526020017f4d483132333435363738393000000000000000000000000000000000000000008152508152602001600181526020016040518060400160405280600381526020017f52616d000000000000000000000000000000000000000000000000000000000081525081526020016040518060400160405280600881526020017f47686f727061646500000000000000000000000000000000000000000000000081525081526020016040518060400160405280600a81526020017f313233343536373839300000000000000000000000000000000000000000000081525081526020016040518060400160405280600681526020017f4d756d62616900000000000000000000000000000000000000000000000000008152508152602001600181526020016040518060400160405280600881526020017f48656c6c6f3132330000000000000000000000000000000000000000000000008152508152602001739345baf04a62f6a91d20aa08121a16eb39308b7073ffffffffffffffffffffffffffffffffffffffff168152506001604051620001cc9062001934565b90815260200160405180910390206000820151816000019080519060200190620001f8929190620015bb565b5060208201518160010155604082015181600201908051906020019062000221929190620015bb565b50606082015181600301908051906020019062000240929190620015bb565b5060808201518160040190805190602001906200025f929190620015bb565b5060a08201518160050190805190602001906200027e929190620015bb565b5060c0820151816006015560e0820151816007019080519060200190620002a7929190620015bb565b506101008201518160080160006101000a81548173ffffffffffffffffffffffffffffffffffffffff021916908373ffffffffffffffffffffffffffffffffffffffff1602179055509050506040518061012001604052806040518060400160405280600c81526020017f4d483132333435303938373600000000000000000000000000000000000000008152508152602001600281526020016040518060400160405280600581526020017f536879616d00000000000000000000000000000000000000000000000000000081525081526020016040518060400160405280600881526020017f47686f727061646500000000000000000000000000000000000000000000000081525081526020016040518060400160405280600a81526020017f313233343530393837360000000000000000000000000000000000000000000081525081526020016040518060400160405280600681526020017f4d756d62616900000000000000000000000000000000000000000000000000008152508152602001600181526020016040518060400160405280600981526020017f48656c6c6f313233340000000000000000000000000000000000000000000000815250815260200173b793c1d9c9d5050859864dbd321fc873e7942e5473ffffffffffffffffffffffffffffffffffffffff168152506001604051620004ad9062001962565b90815260200160405180910390206000820151816000019080519060200190620004d9929190620015bb565b5060208201518160010155604082015181600201908051906020019062000502929190620015bb565b50606082015181600301908051906020019062000521929190620015bb565b50608082015181600401908051906020019062000540929190620015bb565b5060a08201518160050190805190602001906200055f929190620015bb565b5060c0820151816006015560e082015181600701908051906020019062000588929190620015bb565b506101008201518160080160006101000a81548173ffffffffffffffffffffffffffffffffffffffff021916908373ffffffffffffffffffffffffffffffffffffffff1602179055509050506040518061012001604052806040518060400160405280600c81526020017f4d483132333435303938373600000000000000000000000000000000000000008152508152602001600281526020016040518060400160405280600a81526020017f4768616e61736879616d0000000000000000000000000000000000000000000081525081526020016040518060400160405280600981526020017f4465736870616e6465000000000000000000000000000000000000000000000081525081526020016040518060400160405280600a81526020017f313233343530393837360000000000000000000000000000000000000000000081525081526020016040518060400160405280600681526020017f4d756d62616900000000000000000000000000000000000000000000000000008152508152602001600181526020016040518060400160405280600981526020017f48656c6c6f313233350000000000000000000000000000000000000000000000815250815260200173b7c6562bf283534a775d5198195bfd8d47d2264773ffffffffffffffffffffffffffffffffffffffff1681525060016040516200078e9062001962565b90815260200160405180910390206000820151816000019080519060200190620007ba929190620015bb565b50602082015181600101556040820151816002019080519060200190620007e3929190620015bb565b50606082015181600301908051906020019062000802929190620015bb565b50608082015181600401908051906020019062000821929190620015bb565b5060a082015181600501908051906020019062000840929190620015bb565b5060c0820151816006015560e082015181600701908051906020019062000869929190620015bb565b506101008201518160080160006101000a81548173ffffffffffffffffffffffffffffffffffffffff021916908373ffffffffffffffffffffffffffffffffffffffff1602179055509050506040518061012001604052806040518060400160405280600c81526020017f4d483938373635343132333000000000000000000000000000000000000000008152508152602001600181526020016040518060400160405280600581526020017f446167647500000000000000000000000000000000000000000000000000000081525081526020016040518060400160405280600581526020017f506172616200000000000000000000000000000000000000000000000000000081525081526020016040518060400160405280600a81526020017f393837363534313233300000000000000000000000000000000000000000000081525081526020016040518060400160405280600681526020017f4d756d62616900000000000000000000000000000000000000000000000000008152508152602001600281526020016040518060400160405280600981526020017f48656c6c6f313233360000000000000000000000000000000000000000000000815250815260200173b6444a785bc6d27d3facb648dc0714c39f569b2473ffffffffffffffffffffffffffffffffffffffff16815250600160405162000a6f906200194b565b9081526020016040518091039020600082015181600001908051906020019062000a9b929190620015bb565b5060208201518160010155604082015181600201908051906020019062000ac4929190620015bb565b50606082015181600301908051906020019062000ae3929190620015bb565b50608082015181600401908051906020019062000b02929190620015bb565b5060a082015181600501908051906020019062000b21929190620015bb565b5060c0820151816006015560e082015181600701908051906020019062000b4a929190620015bb565b506101008201518160080160006101000a81548173ffffffffffffffffffffffffffffffffffffffff021916908373ffffffffffffffffffffffffffffffffffffffff1602179055509050506040518061012001604052806040518060400160405280600c81526020017f4d483938373635303433323100000000000000000000000000000000000000008152508152602001600381526020016040518060400160405280600381526020017f414243000000000000000000000000000000000000000000000000000000000081525081526020016040518060400160405280600381526020017f58595a000000000000000000000000000000000000000000000000000000000081525081526020016040518060400160405280600a81526020017f393837363530343332310000000000000000000000000000000000000000000081525081526020016040518060400160405280600681526020017f4d756d62616900000000000000000000000000000000000000000000000000008152508152602001600281526020016040518060400160405280600981526020017f48656c6c6f31323337000000000000000000000000000000000000000000000081525081526020017397b814cdcd7f542f413e2cfef8af97c6633fff3d73ffffffffffffffffffffffffffffffffffffffff16815250600160405162000d509062001979565b9081526020016040518091039020600082015181600001908051906020019062000d7c929190620015bb565b5060208201518160010155604082015181600201908051906020019062000da5929190620015bb565b50606082015181600301908051906020019062000dc4929190620015bb565b50608082015181600401908051906020019062000de3929190620015bb565b5060a082015181600501908051906020019062000e02929190620015bb565b5060c0820151816006015560e082015181600701908051906020019062000e2b929190620015bb565b506101008201518160080160006101000a81548173ffffffffffffffffffffffffffffffffffffffff021916908373ffffffffffffffffffffffffffffffffffffffff160217905550905050604051806101000160405280600181526020016040518060400160405280600881526020017f536964646865736800000000000000000000000000000000000000000000000081525081526020016040518060400160405280600581526020017f426167776500000000000000000000000000000000000000000000000000000081525081526020016040518060400160405280600a81526020017f313032393338343735360000000000000000000000000000000000000000000081525081526020016040518060400160405280600681526020017f4d756d626169000000000000000000000000000000000000000000000000000081525081526020016040518060400160405280600881526020017f68656c6c6f393837000000000000000000000000000000000000000000000000815250815260200160001515815260200173675a7359e0d96b9a25dca5d08e1f1ee85b9cd24f73ffffffffffffffffffffffffffffffffffffffff16815250600260006001815260200190815260200160002060008201518160000155602082015181600101908051906020019062001024929190620015bb565b50604082015181600201908051906020019062001043929190620015bb565b50606082015181600301908051906020019062001062929190620015bb565b50608082015181600401908051906020019062001081929190620015bb565b5060a0820151816005019080519060200190620010a0929190620015bb565b5060c08201518160060160006101000a81548160ff02191690831515021790555060e08201518160060160016101000a81548173ffffffffffffffffffffffffffffffffffffffff021916908373ffffffffffffffffffffffffffffffffffffffff160217905550905050604051806101000160405280600281526020016040518060400160405280600581526020017f506f6f6a6100000000000000000000000000000000000000000000000000000081525081526020016040518060400160405280600781526020017f4b61756c6775640000000000000000000000000000000000000000000000000081525081526020016040518060400160405280600a81526020017f393038373536343133320000000000000000000000000000000000000000000081525081526020016040518060400160405280600681526020017f4d756d626169000000000000000000000000000000000000000000000000000081525081526020016040518060400160405280600981526020017f68656c6c6f393837360000000000000000000000000000000000000000000000815250815260200160001515815260200173295b6ae0efe05de0011e9316e27b560ccdcd3ddb73ffffffffffffffffffffffffffffffffffffffff168152506002600060028152602001908152602001600020600082015181600001556020820151816001019080519060200190620012b8929190620015bb565b506040820151816002019080519060200190620012d7929190620015bb565b506060820151816003019080519060200190620012f6929190620015bb565b50608082015181600401908051906020019062001315929190620015bb565b5060a082015181600501908051906020019062001334929190620015bb565b5060c08201518160060160006101000a81548160ff02191690831515021790555060e08201518160060160016101000a81548173ffffffffffffffffffffffffffffffffffffffff021916908373ffffffffffffffffffffffffffffffffffffffff1602179055509050506040518060400160405280600981526020017f61646d696e31323334000000000000000000000000000000000000000000000081525060099080519060200190620013ec92919062001642565b506040518060a001604052806040518060400160405280600c81526020017f4d4831323334353637383930000000000000000000000000000000000000000081525081526020016040518060400160405280600c81526020017f4d4831323334353039383736000000000000000000000000000000000000000081525081526020016040518060400160405280600c81526020017f4d4831323334353039383736000000000000000000000000000000000000000081525081526020016040518060400160405280600c81526020017f4d4839383736353431323330000000000000000000000000000000000000000081525081526020016040518060400160405280600c81526020017f4d4839383736353034333231000000000000000000000000000000000000000081525081525060069060056200152f929190620016c9565b506040518060400160405280600160ff168152602001600260ff1681525060079060026200155f92919062001730565b50731964f1519ff7acaa5e6b2462070cb0d6817fba4e600860006101000a81548173ffffffffffffffffffffffffffffffffffffffff021916908373ffffffffffffffffffffffffffffffffffffffff1602179055506200199b565b828054600181600116156101000203166002900490600052602060002090601f016020900481019282601f10620015fe57805160ff19168380011785556200162f565b828001600101855582156200162f579182015b828111156200162e57825182559160200191906001019062001611565b5b5090506200163e919062001787565b5090565b828054600181600116156101000203166002900490600052602060002090601f016020900481019282601f106200168557805160ff1916838001178555620016b6565b82800160010185558215620016b6579182015b82811115620016b557825182559160200191906001019062001698565b5b509050620016c5919062001787565b5090565b8280548282559060005260206000209081019282156200171d579160200282015b828111156200171c5782518290805190602001906200170b929190620015bb565b5091602001919060010190620016ea565b5b5090506200172c9190620017af565b5090565b82805482825590600052602060002090810192821562001774579160200282015b8281111562001773578251829060ff1690559160200191906001019062001751565b5b50905062001783919062001787565b5090565b620017ac91905b80821115620017a85760008160009055506001016200178e565b5090565b90565b620017dd91905b80821115620017d95760008181620017cf9190620017e0565b50600101620017b6565b5090565b90565b50805460018160011615610100020316600290046000825580601f1062001808575062001829565b601f01602090049060005260206000209081019062001828919062001787565b5b50565b60006200183b600c8362001990565b91507f4d483132333435363738393000000000000000000000000000000000000000006000830152600c82019050919050565b60006200187d600c8362001990565b91507f4d483938373635343132333000000000000000000000000000000000000000006000830152600c82019050919050565b6000620018bf600c8362001990565b91507f4d483132333435303938373600000000000000000000000000000000000000006000830152600c82019050919050565b600062001901600c8362001990565b91507f4d483938373635303433323100000000000000000000000000000000000000006000830152600c82019050919050565b600062001941826200182c565b9150819050919050565b600062001958826200186e565b9150819050919050565b60006200196f82620018b0565b9150819050919050565b60006200198682620018f2565b9150819050919050565b600081905092915050565b613ae580620019ab6000396000f3fe608060405234801561001057600080fd5b50600436106101215760003560e01c806353b676e7116100ad57806384090734116100715780638409073414610346578063a71b78e41461037d578063bff499f214610399578063c2898c3c146103c9578063ff3dca651461040157610121565b806353b676e7146102905780635e0b421e146102c05780636453e876146102de57806365de1eb3146102fa5780637a7639971461032a57610121565b806326ba9eed116100f457806326ba9eed146101d75780633318bca114610207578063364dfb74146102235780633ab7d09a146102415780634ac3751c1461027457610121565b80630a8b4823146101265780630f2a09191461015957806313830e041461017557806316fc0834146101a7575b600080fd5b610140600480360361013b91908101906129d7565b61041d565b60405161015094939291906137a9565b60405180910390f35b610173600480360361016e9190810190612d2d565b61052e565b005b61018f600480360361018a9190810190612cd9565b610583565b60405161019e939291906135ad565b60405180910390f35b6101c160048036036101bc9190810190612c6d565b61070d565b6040516101ce91906136ed565b60405180910390f35b6101f160048036036101ec91908101906129d7565b61075e565b6040516101fe91906136a9565b60405180910390f35b610221600480360361021c9190810190612b17565b610bcd565b005b61022b610d65565b6040516102389190613547565b60405180910390f35b61025b60048036036102569190810190612d2d565b610e4e565b60405161026b94939291906137a9565b60405180910390f35b61028e60048036036102899190810190612a6c565b610f33565b005b6102aa60048036036102a591908101906129d7565b6112ab565b6040516102b79190613569565b60405180910390f35b6102c86114ce565b6040516102d5919061358b565b60405180910390f35b6102f860048036036102f391908101906129d7565b611526565b005b610314600480360361030f9190810190612d2d565b61186f565b60405161032191906136cb565b60405180910390f35b610344600480360361033f9190810190612d2d565b611c42565b005b610360600480360361035b9190810190612d2d565b611d15565b604051610374989796959493929190613708565b60405180910390f35b61039760048036036103929190810190612daa565b612082565b005b6103b360048036036103ae9190810190612d56565b612202565b6040516103c091906136ed565b60405180910390f35b6103e360048036036103de9190810190612996565b61223d565b6040516103f8999897969594939291906135f2565b60405180910390f35b61041b60048036036104169190810190612a18565b612651565b005b600080600080600060038660405161043591906134dc565b908152602001604051809103902060405161044f90613508565b9081526020016040518091039020549050600060038760405161047291906134dc565b908152602001604051809103902060405161048c90613532565b908152602001604051809103902054905060006003886040516104af91906134dc565b90815260200160405180910390206040516104c99061351d565b908152602001604051809103902054905060006003896040516104ec91906134dc565b9081526020016040518091039020604051610506906134f3565b9081526020016040518091039020549050838383839750975097509750505050509193509193565b6002600082815260200190815260200160002060060160009054906101000a900460ff16156002600083815260200190815260200160002060060160006101000a81548160ff02191690831515021790555050565b60058280516020810182018051848252602083016020850120818352809550505050505081815481106105b257fe5b906000526020600020906004020160009150915050806000018054600181600116156101000203166002900480601f01602080910402602001604051908101604052809291908181526020018280546001816001161561010002031660029004801561065f5780601f106106345761010080835404028352916020019161065f565b820191906000526020600020905b81548152906001019060200180831161064257829003601f168201915b505050505090806001015490806003018054600181600116156101000203166002900480601f0160208091040260200160405190810160405280929190818152602001828054600181600116156101000203166002900480156107035780601f106106d857610100808354040283529160200191610703565b820191906000526020600020905b8154815290600101906020018083116106e657829003601f168201915b5050505050905083565b60038280516020810182018051848252602083016020850120818352809550505050505081805160208101820180518482526020830160208501208183528095505050505050600091509150505481565b61076661267b565b60018260405161077691906134dc565b908152602001604051809103902060405180610120016040529081600082018054600181600116156101000203166002900480601f0160208091040260200160405190810160405280929190818152602001828054600181600116156101000203166002900480156108295780601f106107fe57610100808354040283529160200191610829565b820191906000526020600020905b81548152906001019060200180831161080c57829003601f168201915b5050505050815260200160018201548152602001600282018054600181600116156101000203166002900480601f0160208091040260200160405190810160405280929190818152602001828054600181600116156101000203166002900480156108d55780601f106108aa576101008083540402835291602001916108d5565b820191906000526020600020905b8154815290600101906020018083116108b857829003601f168201915b50505050508152602001600382018054600181600116156101000203166002900480601f0160208091040260200160405190810160405280929190818152602001828054600181600116156101000203166002900480156109775780601f1061094c57610100808354040283529160200191610977565b820191906000526020600020905b81548152906001019060200180831161095a57829003601f168201915b50505050508152602001600482018054600181600116156101000203166002900480601f016020809104026020016040519081016040528092919081815260200182805460018160011615610100020316600290048015610a195780601f106109ee57610100808354040283529160200191610a19565b820191906000526020600020905b8154815290600101906020018083116109fc57829003601f168201915b50505050508152602001600582018054600181600116156101000203166002900480601f016020809104026020016040519081016040528092919081815260200182805460018160011615610100020316600290048015610abb5780601f10610a9057610100808354040283529160200191610abb565b820191906000526020600020905b815481529060010190602001808311610a9e57829003601f168201915b5050505050815260200160068201548152602001600782018054600181600116156101000203166002900480601f016020809104026020016040519081016040528092919081815260200182805460018160011615610100020316600290048015610b675780601f10610b3c57610100808354040283529160200191610b67565b820191906000526020600020905b815481529060010190602001808311610b4a57829003601f168201915b505050505081526020016008820160009054906101000a900473ffffffffffffffffffffffffffffffffffffffff1673ffffffffffffffffffffffffffffffffffffffff1673ffffffffffffffffffffffffffffffffffffffff16815250509050919050565b610bd561267b565b6040518061012001604052808b81526020018a81526020018981526020018881526020018781526020018681526020018581526020018481526020018373ffffffffffffffffffffffffffffffffffffffff1681525090508060018b604051610c3e91906134dc565b90815260200160405180910390206000820151816000019080519060200190610c689291906126dd565b50602082015181600101556040820151816002019080519060200190610c8f9291906126dd565b506060820151816003019080519060200190610cac9291906126dd565b506080820151816004019080519060200190610cc99291906126dd565b5060a0820151816005019080519060200190610ce69291906126dd565b5060c0820151816006015560e0820151816007019080519060200190610d0d9291906126dd565b506101008201518160080160006101000a81548173ffffffffffffffffffffffffffffffffffffffff021916908373ffffffffffffffffffffffffffffffffffffffff16021790555090505050505050505050505050565b60606006805480602002602001604051908101604052809291908181526020016000905b82821015610e45578382906000526020600020018054600181600116156101000203166002900480601f016020809104026020016040519081016040528092919081815260200182805460018160011615610100020316600290048015610e315780601f10610e0657610100808354040283529160200191610e31565b820191906000526020600020905b815481529060010190602001808311610e1457829003601f168201915b505050505081526020019060010190610d89565b50505050905090565b600080600080600060046000878152602001908152602001600020604051610e7590613508565b9081526020016040518091039020549050600060046000888152602001908152602001600020604051610ea790613532565b9081526020016040518091039020549050600060046000898152602001908152602001600020604051610ed99061351d565b90815260200160405180910390205490506000600460008a8152602001908152602001600020604051610f0b906134f3565b9081526020016040518091039020549050838383839750975097509750505050509193509193565b81600081518110610f4057fe5b6020026020010151600385604051610f5891906134dc565b9081526020016040518091039020604051610f7290613508565b90815260200160405180910390206000828254039250508190555081600181518110610f9a57fe5b6020026020010151600385604051610fb291906134dc565b9081526020016040518091039020604051610fcc90613532565b90815260200160405180910390206000828254039250508190555081600281518110610ff457fe5b602002602001015160038560405161100c91906134dc565b90815260200160405180910390206040516110269061351d565b9081526020016040518091039020600082825403925050819055508160038151811061104e57fe5b602002602001015160038560405161106691906134dc565b9081526020016040518091039020604051611080906134f3565b908152602001604051809103902060008282540392505081905550816000815181106110a857fe5b6020026020010151600460008581526020019081526020016000206040516110cf90613508565b908152602001604051809103902060008282540392505081905550816001815181106110f757fe5b60200260200101516004600085815260200190815260200160002060405161111e90613532565b9081526020016040518091039020600082825403925050819055508160028151811061114657fe5b60200260200101516004600085815260200190815260200160002060405161116d9061351d565b9081526020016040518091039020600082825403925050819055508160038151811061119557fe5b6020026020010151600460008581526020019081526020016000206040516111bc906134f3565b9081526020016040518091039020600082825403925050819055506005846040516111e791906134dc565b908152602001604051809103902060405180608001604052808681526020018581526020018481526020018381525090806001815401808255809150509060018203906000526020600020906004020160009091929091909150600082015181600001908051906020019061125d9291906126dd565b5060208201518160010155604082015181600201908051906020019061128492919061275d565b5060608201518160030190805190602001906112a19291906126dd565b5050505050505050565b60606005826040516112bd91906134dc565b9081526020016040518091039020805480602002602001604051908101604052809291908181526020016000905b828210156114c35783829060005260206000209060040201604051806080016040529081600082018054600181600116156101000203166002900480601f0160208091040260200160405190810160405280929190818152602001828054600181600116156101000203166002900480156113a75780601f1061137c576101008083540402835291602001916113a7565b820191906000526020600020905b81548152906001019060200180831161138a57829003601f168201915b50505050508152602001600182015481526020016002820180548060200260200160405190810160405280929190818152602001828054801561140957602002820191906000526020600020905b8154815260200190600101908083116113f5575b50505050508152602001600382018054600181600116156101000203166002900480601f0160208091040260200160405190810160405280929190818152602001828054600181600116156101000203166002900480156114ab5780601f10611480576101008083540402835291602001916114ab565b820191906000526020600020905b81548152906001019060200180831161148e57829003601f168201915b505050505081525050815260200190600101906112eb565b505050509050919050565b6060600780548060200260200160405190810160405280929190818152602001828054801561151c57602002820191906000526020600020905b815481526020019060010190808311611508575b5050505050905090565b6001808260405161153791906134dc565b908152602001604051809103902060010154141561164c57600560038260405161156191906134dc565b908152602001604051809103902060405161157b90613508565b908152602001604051809103902081905550600a60038260405161159f91906134dc565b90815260200160405180910390206040516115b990613532565b90815260200160405180910390208190555060016003826040516115dd91906134dc565b90815260200160405180910390206040516115f79061351d565b908152602001604051809103902081905550600560038260405161161b91906134dc565b9081526020016040518091039020604051611635906134f3565b90815260200160405180910390208190555061186c565b600260018260405161165e91906134dc565b908152602001604051809103902060010154141561177357600a60038260405161168891906134dc565b90815260200160405180910390206040516116a290613508565b908152602001604051809103902081905550600f6003826040516116c691906134dc565b90815260200160405180910390206040516116e090613532565b908152602001604051809103902081905550600260038260405161170491906134dc565b908152602001604051809103902060405161171e9061351d565b908152602001604051809103902081905550600760038260405161174291906134dc565b908152602001604051809103902060405161175c906134f3565b90815260200160405180910390208190555061186b565b600c60038260405161178591906134dc565b908152602001604051809103902060405161179f90613508565b90815260200160405180910390208190555060116003826040516117c391906134dc565b90815260200160405180910390206040516117dd90613532565b9081526020016040518091039020819055506003808260405161180091906134dc565b908152602001604051809103902060405161181a9061351d565b908152602001604051809103902081905550600a60038260405161183e91906134dc565b9081526020016040518091039020604051611858906134f3565b9081526020016040518091039020819055505b5b50565b6118776127aa565b600260008381526020019081526020016000206040518061010001604052908160008201548152602001600182018054600181600116156101000203166002900480601f0160208091040260200160405190810160405280929190818152602001828054600181600116156101000203166002900480156119395780601f1061190e57610100808354040283529160200191611939565b820191906000526020600020905b81548152906001019060200180831161191c57829003601f168201915b50505050508152602001600282018054600181600116156101000203166002900480601f0160208091040260200160405190810160405280929190818152602001828054600181600116156101000203166002900480156119db5780601f106119b0576101008083540402835291602001916119db565b820191906000526020600020905b8154815290600101906020018083116119be57829003601f168201915b50505050508152602001600382018054600181600116156101000203166002900480601f016020809104026020016040519081016040528092919081815260200182805460018160011615610100020316600290048015611a7d5780601f10611a5257610100808354040283529160200191611a7d565b820191906000526020600020905b815481529060010190602001808311611a6057829003601f168201915b50505050508152602001600482018054600181600116156101000203166002900480601f016020809104026020016040519081016040528092919081815260200182805460018160011615610100020316600290048015611b1f5780601f10611af457610100808354040283529160200191611b1f565b820191906000526020600020905b815481529060010190602001808311611b0257829003601f168201915b50505050508152602001600582018054600181600116156101000203166002900480601f016020809104026020016040519081016040528092919081815260200182805460018160011615610100020316600290048015611bc15780601f10611b9657610100808354040283529160200191611bc1565b820191906000526020600020905b815481529060010190602001808311611ba457829003601f168201915b505050505081526020016006820160009054906101000a900460ff161515151581526020016006820160019054906101000a900473ffffffffffffffffffffffffffffffffffffffff1673ffffffffffffffffffffffffffffffffffffffff1673ffffffffffffffffffffffffffffffffffffffff16815250509050919050565b6101f460046000838152602001908152602001600020604051611c6490613508565b9081526020016040518091039020819055506103e860046000838152602001908152602001600020604051611c9890613532565b9081526020016040518091039020819055506101f460046000838152602001908152602001600020604051611ccc9061351d565b9081526020016040518091039020819055506101f460046000838152602001908152602001600020604051611d00906134f3565b90815260200160405180910390208190555050565b6002602052806000526040600020600091509050806000015490806001018054600181600116156101000203166002900480601f016020809104026020016040519081016040528092919081815260200182805460018160011615610100020316600290048015611dc75780601f10611d9c57610100808354040283529160200191611dc7565b820191906000526020600020905b815481529060010190602001808311611daa57829003601f168201915b505050505090806002018054600181600116156101000203166002900480601f016020809104026020016040519081016040528092919081815260200182805460018160011615610100020316600290048015611e655780601f10611e3a57610100808354040283529160200191611e65565b820191906000526020600020905b815481529060010190602001808311611e4857829003601f168201915b505050505090806003018054600181600116156101000203166002900480601f016020809104026020016040519081016040528092919081815260200182805460018160011615610100020316600290048015611f035780601f10611ed857610100808354040283529160200191611f03565b820191906000526020600020905b815481529060010190602001808311611ee657829003601f168201915b505050505090806004018054600181600116156101000203166002900480601f016020809104026020016040519081016040528092919081815260200182805460018160011615610100020316600290048015611fa15780601f10611f7657610100808354040283529160200191611fa1565b820191906000526020600020905b815481529060010190602001808311611f8457829003601f168201915b505050505090806005018054600181600116156101000203166002900480601f01602080910402602001604051908101604052809291908181526020018280546001816001161561010002031660029004801561203f5780601f106120145761010080835404028352916020019161203f565b820191906000526020600020905b81548152906001019060200180831161202257829003601f168201915b5050505050908060060160009054906101000a900460ff16908060060160019054906101000a900473ffffffffffffffffffffffffffffffffffffffff16905088565b61208a6127aa565b6040518061010001604052808a815260200189815260200188815260200187815260200186815260200185815260200184151581526020018373ffffffffffffffffffffffffffffffffffffffff16815250905080600260008b81526020019081526020016000206000820151816000015560208201518160010190805190602001906121189291906126dd565b5060408201518160020190805190602001906121359291906126dd565b5060608201518160030190805190602001906121529291906126dd565b50608082015181600401908051906020019061216f9291906126dd565b5060a082015181600501908051906020019061218c9291906126dd565b5060c08201518160060160006101000a81548160ff02191690831515021790555060e08201518160060160016101000a81548173ffffffffffffffffffffffffffffffffffffffff021916908373ffffffffffffffffffffffffffffffffffffffff160217905550905050505050505050505050565b600460205281600052604060002081805160208101820180518482526020830160208501208183528095505050505050600091509150505481565b600181805160208101820180518482526020830160208501208183528095505050505050600091509050806000018054600181600116156101000203166002900480601f0160208091040260200160405190810160405280929190818152602001828054600181600116156101000203166002900480156122ff5780601f106122d4576101008083540402835291602001916122ff565b820191906000526020600020905b8154815290600101906020018083116122e257829003601f168201915b505050505090806001015490806002018054600181600116156101000203166002900480601f0160208091040260200160405190810160405280929190818152602001828054600181600116156101000203166002900480156123a35780601f10612378576101008083540402835291602001916123a3565b820191906000526020600020905b81548152906001019060200180831161238657829003601f168201915b505050505090806003018054600181600116156101000203166002900480601f0160208091040260200160405190810160405280929190818152602001828054600181600116156101000203166002900480156124415780601f1061241657610100808354040283529160200191612441565b820191906000526020600020905b81548152906001019060200180831161242457829003601f168201915b505050505090806004018054600181600116156101000203166002900480601f0160208091040260200160405190810160405280929190818152602001828054600181600116156101000203166002900480156124df5780601f106124b4576101008083540402835291602001916124df565b820191906000526020600020905b8154815290600101906020018083116124c257829003601f168201915b505050505090806005018054600181600116156101000203166002900480601f01602080910402602001604051908101604052809291908181526020018280546001816001161561010002031660029004801561257d5780601f106125525761010080835404028352916020019161257d565b820191906000526020600020905b81548152906001019060200180831161256057829003601f168201915b505050505090806006015490806007018054600181600116156101000203166002900480601f0160208091040260200160405190810160405280929190818152602001828054600181600116156101000203166002900480156126215780601f106125f657610100808354040283529160200191612621565b820191906000526020600020905b81548152906001019060200180831161260457829003601f168201915b5050505050908060080160009054906101000a900473ffffffffffffffffffffffffffffffffffffffff16905089565b8060018360405161266291906134dc565b9081526020016040518091039020600101819055505050565b6040518061012001604052806060815260200160008152602001606081526020016060815260200160608152602001606081526020016000815260200160608152602001600073ffffffffffffffffffffffffffffffffffffffff1681525090565b828054600181600116156101000203166002900490600052602060002090601f016020900481019282601f1061271e57805160ff191683800117855561274c565b8280016001018555821561274c579182015b8281111561274b578251825591602001919060010190612730565b5b5090506127599190612807565b5090565b828054828255906000526020600020908101928215612799579160200282015b8281111561279857825182559160200191906001019061277d565b5b5090506127a69190612807565b5090565b604051806101000160405280600081526020016060815260200160608152602001606081526020016060815260200160608152602001600015158152602001600073ffffffffffffffffffffffffffffffffffffffff1681525090565b61282991905b8082111561282557600081600090555060010161280d565b5090565b90565b60008135905061283b81613a5d565b92915050565b600082601f83011261285257600080fd5b81356128656128608261381b565b6137ee565b9150818183526020840193506020810190508385602084028201111561288a57600080fd5b60005b838110156128ba57816128a08882612981565b84526020840193506020830192505060018101905061288d565b5050505092915050565b6000813590506128d381613a74565b92915050565b600082601f8301126128ea57600080fd5b81356128fd6128f882613843565b6137ee565b9150808252602083016020830185838301111561291957600080fd5b612924838284613a0a565b50505092915050565b600082601f83011261293e57600080fd5b813561295161294c8261386f565b6137ee565b9150808252602083016020830185838301111561296d57600080fd5b612978838284613a0a565b50505092915050565b60008135905061299081613a8b565b92915050565b6000602082840312156129a857600080fd5b600082013567ffffffffffffffff8111156129c257600080fd5b6129ce848285016128d9565b91505092915050565b6000602082840312156129e957600080fd5b600082013567ffffffffffffffff811115612a0357600080fd5b612a0f8482850161292d565b91505092915050565b60008060408385031215612a2b57600080fd5b600083013567ffffffffffffffff811115612a4557600080fd5b612a518582860161292d565b9250506020612a6285828601612981565b9150509250929050565b60008060008060808587031215612a8257600080fd5b600085013567ffffffffffffffff811115612a9c57600080fd5b612aa88782880161292d565b9450506020612ab987828801612981565b935050604085013567ffffffffffffffff811115612ad657600080fd5b612ae287828801612841565b925050606085013567ffffffffffffffff811115612aff57600080fd5b612b0b8782880161292d565b91505092959194509250565b60008060008060008060008060006101208a8c031215612b3657600080fd5b60008a013567ffffffffffffffff811115612b5057600080fd5b612b5c8c828d0161292d565b9950506020612b6d8c828d01612981565b98505060408a013567ffffffffffffffff811115612b8a57600080fd5b612b968c828d0161292d565b97505060608a013567ffffffffffffffff811115612bb357600080fd5b612bbf8c828d0161292d565b96505060808a013567ffffffffffffffff811115612bdc57600080fd5b612be88c828d0161292d565b95505060a08a013567ffffffffffffffff811115612c0557600080fd5b612c118c828d0161292d565b94505060c0612c228c828d01612981565b93505060e08a013567ffffffffffffffff811115612c3f57600080fd5b612c4b8c828d0161292d565b925050610100612c5d8c828d0161282c565b9150509295985092959850929598565b60008060408385031215612c8057600080fd5b600083013567ffffffffffffffff811115612c9a57600080fd5b612ca6858286016128d9565b925050602083013567ffffffffffffffff811115612cc357600080fd5b612ccf858286016128d9565b9150509250929050565b60008060408385031215612cec57600080fd5b600083013567ffffffffffffffff811115612d0657600080fd5b612d12858286016128d9565b9250506020612d2385828601612981565b9150509250929050565b600060208284031215612d3f57600080fd5b6000612d4d84828501612981565b91505092915050565b60008060408385031215612d6957600080fd5b6000612d7785828601612981565b925050602083013567ffffffffffffffff811115612d9457600080fd5b612da0858286016128d9565b9150509250929050565b600080600080600080600080610100898b031215612dc757600080fd5b6000612dd58b828c01612981565b985050602089013567ffffffffffffffff811115612df257600080fd5b612dfe8b828c0161292d565b975050604089013567ffffffffffffffff811115612e1b57600080fd5b612e278b828c0161292d565b965050606089013567ffffffffffffffff811115612e4457600080fd5b612e508b828c0161292d565b955050608089013567ffffffffffffffff811115612e6d57600080fd5b612e798b828c0161292d565b94505060a089013567ffffffffffffffff811115612e9657600080fd5b612ea28b828c0161292d565b93505060c0612eb38b828c016128c4565b92505060e0612ec48b828c0161282c565b9150509295985092959890939650565b6000612ee08383613127565b905092915050565b6000612ef48383613381565b905092915050565b6000612f0883836134be565b60208301905092915050565b612f1d816139c2565b82525050565b612f2c816139c2565b82525050565b6000612f3d826138db565b612f478185613951565b935083602082028501612f598561389b565b8060005b85811015612f955784840389528151612f768582612ed4565b9450612f818361391d565b925060208a01995050600181019050612f5d565b50829750879550505050505092915050565b6000612fb2826138e6565b612fbc8185613962565b935083602082028501612fce856138ab565b8060005b8581101561300a5784840389528151612feb8582612ee8565b9450612ff68361392a565b925060208a01995050600181019050612fd2565b50829750879550505050505092915050565b6000613027826138fc565b6130318185613984565b935061303c836138cb565b8060005b8381101561306d5781516130548882612efc565b975061305f83613944565b925050600181019050613040565b5085935050505092915050565b6000613085826138f1565b61308f8185613973565b935061309a836138bb565b8060005b838110156130cb5781516130b28882612efc565b97506130bd83613937565b92505060018101905061309e565b5085935050505092915050565b6130e1816139d4565b82525050565b6130f0816139d4565b82525050565b600061310182613912565b61310b81856139b7565b935061311b818560208601613a19565b80840191505092915050565b600061313282613907565b61313c8185613995565b935061314c818560208601613a19565b61315581613a4c565b840191505092915050565b600061316b82613907565b61317581856139a6565b9350613185818560208601613a19565b61318e81613a4c565b840191505092915050565b60006131a66008836139b7565b91507f4b65726f73656e650000000000000000000000000000000000000000000000006000830152600882019050919050565b60006131e66004836139b7565b91507f52696365000000000000000000000000000000000000000000000000000000006000830152600482019050919050565b60006132266005836139b7565b91507f53756761720000000000000000000000000000000000000000000000000000006000830152600582019050919050565b60006132666005836139b7565b91507f57686561740000000000000000000000000000000000000000000000000000006000830152600582019050919050565b60006101208301600083015184820360008601526132b78282613127565b91505060208301516132cc60208601826134be565b50604083015184820360408601526132e48282613127565b915050606083015184820360608601526132fe8282613127565b915050608083015184820360808601526133188282613127565b91505060a083015184820360a08601526133328282613127565b91505060c083015161334760c08601826134be565b5060e083015184820360e086015261335f8282613127565b915050610100830151613376610100860182612f14565b508091505092915050565b6000608083016000830151848203600086015261339e8282613127565b91505060208301516133b360208601826134be565b50604083015184820360408601526133cb828261307a565b915050606083015184820360608601526133e58282613127565b9150508091505092915050565b60006101008301600083015161340b60008601826134be565b50602083015184820360208601526134238282613127565b9150506040830151848203604086015261343d8282613127565b915050606083015184820360608601526134578282613127565b915050608083015184820360808601526134718282613127565b91505060a083015184820360a086015261348b8282613127565b91505060c08301516134a060c08601826130d8565b5060e08301516134b360e0860182612f14565b508091505092915050565b6134c781613a00565b82525050565b6134d681613a00565b82525050565b60006134e882846130f6565b915081905092915050565b60006134fe82613199565b9150819050919050565b6000613513826131d9565b9150819050919050565b600061352882613219565b9150819050919050565b600061353d82613259565b9150819050919050565b600060208201905081810360008301526135618184612f32565b905092915050565b600060208201905081810360008301526135838184612fa7565b905092915050565b600060208201905081810360008301526135a5818461301c565b905092915050565b600060608201905081810360008301526135c78186613160565b90506135d660208301856134cd565b81810360408301526135e88184613160565b9050949350505050565b600061012082019050818103600083015261360d818c613160565b905061361c602083018b6134cd565b818103604083015261362e818a613160565b905081810360608301526136428189613160565b905081810360808301526136568188613160565b905081810360a083015261366a8187613160565b905061367960c08301866134cd565b81810360e083015261368b8185613160565b905061369b610100830184612f23565b9a9950505050505050505050565b600060208201905081810360008301526136c38184613299565b905092915050565b600060208201905081810360008301526136e581846133f2565b905092915050565b600060208201905061370260008301846134cd565b92915050565b60006101008201905061371e600083018b6134cd565b8181036020830152613730818a613160565b905081810360408301526137448189613160565b905081810360608301526137588188613160565b9050818103608083015261376c8187613160565b905081810360a08301526137808186613160565b905061378f60c08301856130e7565b61379c60e0830184612f23565b9998505050505050505050565b60006080820190506137be60008301876134cd565b6137cb60208301866134cd565b6137d860408301856134cd565b6137e560608301846134cd565b95945050505050565b6000604051905081810181811067ffffffffffffffff8211171561381157600080fd5b8060405250919050565b600067ffffffffffffffff82111561383257600080fd5b602082029050602081019050919050565b600067ffffffffffffffff82111561385a57600080fd5b601f19601f8301169050602081019050919050565b600067ffffffffffffffff82111561388657600080fd5b601f19601f8301169050602081019050919050565b6000819050602082019050919050565b6000819050602082019050919050565b6000819050602082019050919050565b6000819050602082019050919050565b600081519050919050565b600081519050919050565b600081519050919050565b600081519050919050565b600081519050919050565b600081519050919050565b6000602082019050919050565b6000602082019050919050565b6000602082019050919050565b6000602082019050919050565b600082825260208201905092915050565b600082825260208201905092915050565b600082825260208201905092915050565b600082825260208201905092915050565b600082825260208201905092915050565b600082825260208201905092915050565b600081905092915050565b60006139cd826139e0565b9050919050565b60008115159050919050565b600073ffffffffffffffffffffffffffffffffffffffff82169050919050565b6000819050919050565b82818337600083830152505050565b60005b83811015613a37578082015181840152602081019050613a1c565b83811115613a46576000848401525b50505050565b6000601f19601f8301169050919050565b613a66816139c2565b8114613a7157600080fd5b50565b613a7d816139d4565b8114613a8857600080fd5b50565b613a9481613a00565b8114613a9f57600080fd5b5056fea365627a7a72315820d382f706f0c3192866939300fa1d3df5bfe4b1a4fee8c64bdcafc71c388109666c6578706572696d656e74616cf564736f6c63430005100040",
  "source": "// SPDX-License-Identifier: MIT\r\npragma solidity >=0.4.21 <8.10.0;\r\npragma experimental ABIEncoderV2;\r\n\r\n// Saffron -- 1, white - 2, yellow -3\r\n// Rice - 4kg, sugar - 0.5kg, wheat - 10kg\r\n\r\nlibrary AssetLibrary {\r\n    struct Consumer {\r\n        string ration_card;\r\n        uint256 ration_card_type;\r\n        string first_name;\r\n        string last_name;\r\n        string phone;\r\n        string location;\r\n        uint256 vendor_id;\r\n        string password;\r\n        address wallet_addr;\r\n    }\r\n\r\n    struct Vendor {\r\n        uint256 vendor_id;\r\n        string first_name;\r\n        string last_name;\r\n        string phone;\r\n        string location;\r\n        string password;\r\n        bool isBlacklisted;\r\n        address wallet_addr;\r\n    }\r\n\r\n    struct Transaction {\r\n        string consumer_ration_id;\r\n        uint256 vendor_id;\r\n        uint256[] quantity;\r\n        string timestamp;\r\n    }\r\n}\r\n\r\ncontract Sanaaj {\r\n    uint256 transactionCount;\r\n    mapping(string => AssetLibrary.Consumer) public consumerList;\r\n    mapping(uint256 => AssetLibrary.Vendor) public vendorList;\r\n    mapping(string => mapping(string => uint256)) public allowanceList;\r\n    mapping(uint256 => mapping(string => uint256)) public stockList;\r\n    mapping(string => AssetLibrary.Transaction[]) public transactionList;\r\n    string[] rationCardList;\r\n    uint256[] vendorIDList;\r\n    address adminAddress;\r\n    string adminPassword;\r\n\r\n    constructor() public {\r\n        consumerList[\"MH1234567890\"] = AssetLibrary.Consumer(\r\n            \"MH1234567890\",\r\n            1,\r\n            \"Ram\",\r\n            \"Ghorpade\",\r\n            \"1234567890\",\r\n            \"Mumbai\",\r\n            1,\r\n            \"Hello123\",\r\n            0x9345BaF04A62F6A91d20aa08121a16eB39308b70\r\n        );\r\n        consumerList[\"MH1234509876\"] = AssetLibrary.Consumer(\r\n            \"MH1234509876\",\r\n            2,\r\n            \"Shyam\",\r\n            \"Ghorpade\",\r\n            \"1234509876\",\r\n            \"Mumbai\",\r\n            1,\r\n            \"Hello1234\",\r\n            0xB793c1d9c9D5050859864DbD321Fc873e7942e54\r\n        );\r\n        consumerList[\"MH1234509876\"] = AssetLibrary.Consumer(\r\n            \"MH1234509876\",\r\n            2,\r\n            \"Ghanashyam\",\r\n            \"Deshpande\",\r\n            \"1234509876\",\r\n            \"Mumbai\",\r\n            1,\r\n            \"Hello1235\",\r\n            0xb7C6562BF283534A775d5198195bfD8d47D22647\r\n        );\r\n        consumerList[\"MH9876541230\"] = AssetLibrary.Consumer(\r\n            \"MH9876541230\",\r\n            1,\r\n            \"Dagdu\",\r\n            \"Parab\",\r\n            \"9876541230\",\r\n            \"Mumbai\",\r\n            2,\r\n            \"Hello1236\",\r\n            0xb6444A785Bc6d27d3fAcb648dc0714C39F569B24\r\n        );\r\n        consumerList[\"MH9876504321\"] = AssetLibrary.Consumer(\r\n            \"MH9876504321\",\r\n            3,\r\n            \"ABC\",\r\n            \"XYZ\",\r\n            \"9876504321\",\r\n            \"Mumbai\",\r\n            2,\r\n            \"Hello1237\",\r\n            0x97b814cdcD7F542f413E2CFef8AF97c6633ffF3D\r\n        );\r\n\r\n        vendorList[1] = AssetLibrary.Vendor(\r\n            1,\r\n            \"Siddhesh\",\r\n            \"Bagwe\",\r\n            \"1029384756\",\r\n            \"Mumbai\",\r\n            \"hello987\",\r\n            false,\r\n            0x675A7359e0d96b9A25DCA5d08e1f1Ee85B9cD24f\r\n        );\r\n        vendorList[2] = AssetLibrary.Vendor(\r\n            2,\r\n            \"Pooja\",\r\n            \"Kaulgud\",\r\n            \"9087564132\",\r\n            \"Mumbai\",\r\n            \"hello9876\",\r\n            false,\r\n            0x295b6AE0Efe05de0011E9316E27B560cCdCD3DDb\r\n        );\r\n\r\n        adminPassword = \"admin1234\";\r\n        rationCardList = [\r\n            \"MH1234567890\",\r\n            \"MH1234509876\",\r\n            \"MH1234509876\",\r\n            \"MH9876541230\",\r\n            \"MH9876504321\"\r\n        ];\r\n        vendorIDList = [1, 2];\r\n        adminAddress = 0x1964F1519FF7ACAa5E6b2462070cB0d6817FbA4E;\r\n    }\r\n\r\n    function getConsumer(string memory _ration)\r\n        public\r\n        view\r\n        returns (AssetLibrary.Consumer memory)\r\n    {\r\n        return consumerList[_ration];\r\n    }\r\n\r\n    function getVendor(uint256 _id)\r\n        public\r\n        view\r\n        returns (AssetLibrary.Vendor memory)\r\n    {\r\n        return vendorList[_id];\r\n    }\r\n\r\n    function getAllConsumers() public view returns (string[] memory) {\r\n        // if (byVendor) {\r\n        //     string[] memory consumers;\r\n        //     uint256 count = 0;\r\n        //     for (uint256 i = 0; i < rationCardList.length; i++) {\r\n        //         if (consumerList[rationCardList[i]].vendor_id == _id) {\r\n        //             consumers[count] = rationCardList[i];\r\n        //             count++;\r\n        //         }\r\n        //     }\r\n        //     return consumers;\r\n        // }\r\n\r\n        return rationCardList;\r\n    }\r\n\r\n    function getAllVendors() public view returns (uint256[] memory) {\r\n        return vendorIDList;\r\n    }\r\n\r\n    function getAllowance(string memory _ration)\r\n        public\r\n        view\r\n        returns (\r\n            uint256,\r\n            uint256,\r\n            uint256,\r\n            uint256\r\n        )\r\n    {\r\n        uint256 rice = allowanceList[_ration][\"Rice\"];\r\n        uint256 wheat = allowanceList[_ration][\"Wheat\"];\r\n        uint256 sugar = allowanceList[_ration][\"Sugar\"];\r\n        uint256 kerosene = allowanceList[_ration][\"Kerosene\"];\r\n\r\n        return (rice, wheat, sugar, kerosene);\r\n    }\r\n\r\n    function getStock(uint256 _id)\r\n        public\r\n        view\r\n        returns (\r\n            uint256,\r\n            uint256,\r\n            uint256,\r\n            uint256\r\n        )\r\n    {\r\n        uint256 rice = stockList[_id][\"Rice\"];\r\n        uint256 wheat = stockList[_id][\"Wheat\"];\r\n        uint256 sugar = stockList[_id][\"Sugar\"];\r\n        uint256 kerosene = stockList[_id][\"Kerosene\"];\r\n\r\n        return (rice, wheat, sugar, kerosene);\r\n    }\r\n\r\n    // (ration, 2, [5, 10, 5, 2] )\r\n\r\n    function updateAllowance(\r\n        string memory _ration,\r\n        uint256 _vendorID,\r\n        uint256[] memory quantity_commodity,\r\n        string memory timestamp\r\n    ) public {\r\n        allowanceList[_ration][\"Rice\"] -= quantity_commodity[0];\r\n        allowanceList[_ration][\"Wheat\"] -= quantity_commodity[1];\r\n        allowanceList[_ration][\"Sugar\"] -= quantity_commodity[2];\r\n        allowanceList[_ration][\"Kerosene\"] -= quantity_commodity[3];\r\n\r\n        stockList[_vendorID][\"Rice\"] -= quantity_commodity[0];\r\n        stockList[_vendorID][\"Wheat\"] -= quantity_commodity[1];\r\n        stockList[_vendorID][\"Sugar\"] -= quantity_commodity[2];\r\n        stockList[_vendorID][\"Kerosene\"] -= quantity_commodity[3];\r\n\r\n        transactionList[_ration].push(\r\n            AssetLibrary.Transaction(\r\n                _ration,\r\n                _vendorID,\r\n                quantity_commodity,\r\n                timestamp\r\n            )\r\n        );\r\n    }\r\n\r\n    function getTransactions(string memory _ration)\r\n        public\r\n        view\r\n        returns (AssetLibrary.Transaction[] memory)\r\n    {\r\n        return transactionList[_ration];\r\n    }\r\n\r\n    function refillAllowance(string memory _ration) public {\r\n        if (consumerList[_ration].ration_card_type == 1) {\r\n            allowanceList[_ration][\"Rice\"] = 5;\r\n            allowanceList[_ration][\"Wheat\"] = 10;\r\n            allowanceList[_ration][\"Sugar\"] = 1;\r\n            allowanceList[_ration][\"Kerosene\"] = 5;\r\n        } else if (consumerList[_ration].ration_card_type == 2) {\r\n            allowanceList[_ration][\"Rice\"] = 10;\r\n            allowanceList[_ration][\"Wheat\"] = 15;\r\n            allowanceList[_ration][\"Sugar\"] = 2;\r\n            allowanceList[_ration][\"Kerosene\"] = 7;\r\n        } else {\r\n            allowanceList[_ration][\"Rice\"] = 12;\r\n            allowanceList[_ration][\"Wheat\"] = 17;\r\n            allowanceList[_ration][\"Sugar\"] = 3;\r\n            allowanceList[_ration][\"Kerosene\"] = 10;\r\n        }\r\n    }\r\n\r\n    function refillStock(uint256 _vendorID) public {\r\n        stockList[_vendorID][\"Rice\"] = 500;\r\n        stockList[_vendorID][\"Wheat\"] = 1000;\r\n        stockList[_vendorID][\"Sugar\"] = 500;\r\n        stockList[_vendorID][\"Kerosene\"] = 500;\r\n    }\r\n\r\n    function blacklist(uint256 _id) public {\r\n        vendorList[_id].isBlacklisted = !vendorList[_id].isBlacklisted;\r\n    }\r\n\r\n    function updateCardType(string memory _ration, uint256 card_type) public {\r\n        consumerList[_ration].ration_card_type = card_type;\r\n    }\r\n\r\n    function addConsumer(\r\n        string memory ration_card,\r\n        uint256 ration_card_type,\r\n        string memory first_name,\r\n        string memory last_name,\r\n        string memory phone,\r\n        string memory location,\r\n        uint256 vendor_id,\r\n        string memory password,\r\n        address wallet_addr\r\n    ) public {\r\n        AssetLibrary.Consumer memory consumer = AssetLibrary.Consumer(\r\n            ration_card,\r\n            ration_card_type,\r\n            first_name,\r\n            last_name,\r\n            phone,\r\n            location,\r\n            vendor_id,\r\n            password,\r\n            wallet_addr\r\n        );\r\n\r\n        consumerList[ration_card] = consumer;\r\n    }\r\n\r\n    function addVendor(\r\n        uint256 vendor_id,\r\n        string memory first_name,\r\n        string memory last_name,\r\n        string memory phone,\r\n        string memory location,\r\n        string memory password,\r\n        bool isBlacklisted,\r\n        address wallet_addr\r\n    ) public {\r\n        AssetLibrary.Vendor memory vendor = AssetLibrary.Vendor(\r\n            vendor_id,\r\n            first_name,\r\n            last_name,\r\n            phone,\r\n            location,\r\n            password,\r\n            isBlacklisted,\r\n            wallet_addr\r\n        );\r\n\r\n        vendorList[vendor_id] = vendor;\r\n    }\r\n}\r\n",
  "sourcePath": "C:\\Users\\Chaitanya\\Personal\\Sem 6\\Mini Project\\SaNaaj\\contracts\\Sanaaj.sol",
  "compiler": {
    "name": "solc",
    "version": "0.5.16+commit.9c3226ce.Emscripten.clang"
  },
  "schemaVersion": "3.4.6",
  "updatedAt": "2022-04-20T08:16:40.405Z",
  "networkType": "ethereum",
  "devdoc": {
    "methods": {}
  },
  "userdoc": {
    "methods": {}
  }
}