{
  "contractName": "Test",
  "abi": [
    {
      "inputs": [],
      "payable": false,
      "stateMutability": "nonpayable",
      "type": "constructor"
    },
    {
      "constant": true,
      "inputs": [
        {
          "internalType": "string",
          "name": "",
          "type": "string"
        }
      ],
      "name": "consumerList",
      "outputs": [
        {
          "internalType": "uint256",
          "name": "id",
          "type": "uint256"
        },
        {
          "internalType": "string",
          "name": "first_name",
          "type": "string"
        },
        {
          "internalType": "string",
          "name": "last_name",
          "type": "string"
        },
        {
          "internalType": "string",
          "name": "phone",
          "type": "string"
        },
        {
          "internalType": "string",
          "name": "location",
          "type": "string"
        },
        {
          "internalType": "int256",
          "name": "allowance",
          "type": "int256"
        }
      ],
      "payable": false,
      "stateMutability": "view",
      "type": "function"
    },
    {
      "constant": true,
      "inputs": [
        {
          "internalType": "address",
          "name": "",
          "type": "address"
        }
      ],
      "name": "phoneNumberList",
      "outputs": [
        {
          "internalType": "string",
          "name": "",
          "type": "string"
        }
      ],
      "payable": false,
      "stateMutability": "view",
      "type": "function"
    },
    {
      "constant": true,
      "inputs": [
        {
          "internalType": "string",
          "name": "_phone",
          "type": "string"
        }
      ],
      "name": "getConsumer",
      "outputs": [
        {
          "components": [
            {
              "internalType": "uint256",
              "name": "id",
              "type": "uint256"
            },
            {
              "internalType": "string",
              "name": "first_name",
              "type": "string"
            },
            {
              "internalType": "string",
              "name": "last_name",
              "type": "string"
            },
            {
              "internalType": "string",
              "name": "phone",
              "type": "string"
            },
            {
              "internalType": "string",
              "name": "location",
              "type": "string"
            },
            {
              "internalType": "int256",
              "name": "allowance",
              "type": "int256"
            }
          ],
          "internalType": "struct AssetLibrary.Consumer",
          "name": "",
          "type": "tuple"
        }
      ],
      "payable": false,
      "stateMutability": "view",
      "type": "function"
    },
    {
      "constant": false,
      "inputs": [
        {
          "internalType": "string",
          "name": "_phone",
          "type": "string"
        },
        {
          "internalType": "int256",
          "name": "amount",
          "type": "int256"
        }
      ],
      "name": "updateAllowance",
      "outputs": [],
      "payable": false,
      "stateMutability": "nonpayable",
      "type": "function"
    },
    {
      "constant": true,
      "inputs": [
        {
          "internalType": "address",
          "name": "_addr",
          "type": "address"
        }
      ],
      "name": "getPhoneNumber",
      "outputs": [
        {
          "internalType": "string",
          "name": "",
          "type": "string"
        }
      ],
      "payable": false,
      "stateMutability": "view",
      "type": "function"
    }
  ],
  "bytecode": "0x60806040523480156200001157600080fd5b506040518060400160405280600a81526020017f313233343536373839300000000000000000000000000000000000000000000081525060016000739345baf04a62f6a91d20aa08121a16eb39308b7073ffffffffffffffffffffffffffffffffffffffff1673ffffffffffffffffffffffffffffffffffffffff1681526020019081526020016000209080519060200190620000b092919062000bb7565b506040518060400160405280600a81526020017f39303837363534333231000000000000000000000000000000000000000000008152506001600073b793c1d9c9d5050859864dbd321fc873e7942e5473ffffffffffffffffffffffffffffffffffffffff1673ffffffffffffffffffffffffffffffffffffffff16815260200190815260200160002090805190602001906200014f92919062000bb7565b506040518060400160405280600a81526020017f37383930313233343536000000000000000000000000000000000000000000008152506001600073b7c6562bf283534a775d5198195bfd8d47d2264773ffffffffffffffffffffffffffffffffffffffff1673ffffffffffffffffffffffffffffffffffffffff1681526020019081526020016000209080519060200190620001ee92919062000bb7565b506040518060400160405280600a81526020017f36373839303132333435000000000000000000000000000000000000000000008152506001600073b6444a785bc6d27d3facb648dc0714c39f569b2473ffffffffffffffffffffffffffffffffffffffff1673ffffffffffffffffffffffffffffffffffffffff16815260200190815260200160002090805190602001906200028d92919062000bb7565b506040518060400160405280600a81526020017f3938373635343033323100000000000000000000000000000000000000000000815250600160007397b814cdcd7f542f413e2cfef8af97c6633fff3d73ffffffffffffffffffffffffffffffffffffffff1673ffffffffffffffffffffffffffffffffffffffff16815260200190815260200160002090805190602001906200032c92919062000bb7565b506040518060c00160405280600181526020016040518060400160405280600381526020017f52616d000000000000000000000000000000000000000000000000000000000081525081526020016040518060400160405280600881526020017f47686f727061646500000000000000000000000000000000000000000000000081525081526020016040518060400160405280600a81526020017f313233343536373839300000000000000000000000000000000000000000000081525081526020016040518060400160405280600681526020017f4d756d6261690000000000000000000000000000000000000000000000000000815250815260200160c88152506000604051620004409062000e4e565b90815260200160405180910390206000820151816000015560208201518160010190805190602001906200047692919062000c3e565b5060408201518160020190805190602001906200049592919062000c3e565b506060820151816003019080519060200190620004b492919062000c3e565b506080820151816004019080519060200190620004d392919062000c3e565b5060a082015181600501559050506040518060c00160405280600281526020016040518060400160405280600581526020017f536879616d00000000000000000000000000000000000000000000000000000081525081526020016040518060400160405280600981526020017f4465736870616e6465000000000000000000000000000000000000000000000081525081526020016040518060400160405280600a81526020017f393038373635343332310000000000000000000000000000000000000000000081525081526020016040518060400160405280600681526020017f4d756d6261690000000000000000000000000000000000000000000000000000815250815260200160c88152506000604051620005f49062000e37565b90815260200160405180910390206000820151816000015560208201518160010190805190602001906200062a92919062000c3e565b5060408201518160020190805190602001906200064992919062000c3e565b5060608201518160030190805190602001906200066892919062000c3e565b5060808201518160040190805190602001906200068792919062000c3e565b5060a082015181600501559050506040518060c00160405280600381526020016040518060400160405280600781526020017f417469736861790000000000000000000000000000000000000000000000000081525081526020016040518060400160405280600781526020017f4761636879616c0000000000000000000000000000000000000000000000000081525081526020016040518060400160405280600a81526020017f373839303132333435360000000000000000000000000000000000000000000081525081526020016040518060400160405280600681526020017f4d756d6261690000000000000000000000000000000000000000000000000000815250815260200160c88152506000604051620007a89062000e93565b9081526020016040518091039020600082015181600001556020820151816001019080519060200190620007de92919062000c3e565b506040820151816002019080519060200190620007fd92919062000c3e565b5060608201518160030190805190602001906200081c92919062000c3e565b5060808201518160040190805190602001906200083b92919062000c3e565b5060a082015181600501559050506040518060c00160405280600481526020016040518060400160405280600781526020017f536875626872610000000000000000000000000000000000000000000000000081525081526020016040518060400160405280600781526020017f50616e646872650000000000000000000000000000000000000000000000000081525081526020016040518060400160405280600a81526020017f363738393031323334350000000000000000000000000000000000000000000081525081526020016040518060400160405280600681526020017f4d756d6261690000000000000000000000000000000000000000000000000000815250815260200160c881525060006040516200095c9062000e7c565b90815260200160405180910390206000820151816000015560208201518160010190805190602001906200099292919062000c3e565b506040820151816002019080519060200190620009b192919062000c3e565b506060820151816003019080519060200190620009d092919062000c3e565b506080820151816004019080519060200190620009ef92919062000c3e565b5060a082015181600501559050506040518060c00160405280600581526020016040518060400160405280600681526020017f54616d61616d000000000000000000000000000000000000000000000000000081525081526020016040518060400160405280600a81526020017f4d7564646573687761720000000000000000000000000000000000000000000081525081526020016040518060400160405280600a81526020017f393837363534303332310000000000000000000000000000000000000000000081525081526020016040518060400160405280600681526020017f4d756d6261690000000000000000000000000000000000000000000000000000815250815260200160c8815250600060405162000b109062000e65565b908152602001604051809103902060008201518160000155602082015181600101908051906020019062000b4692919062000c3e565b50604082015181600201908051906020019062000b6592919062000c3e565b50606082015181600301908051906020019062000b8492919062000c3e565b50608082015181600401908051906020019062000ba392919062000c3e565b5060a0820151816005015590505062000eb5565b828054600181600116156101000203166002900490600052602060002090601f016020900481019282601f1062000bfa57805160ff191683800117855562000c2b565b8280016001018555821562000c2b579182015b8281111562000c2a57825182559160200191906001019062000c0d565b5b50905062000c3a919062000cc5565b5090565b828054600181600116156101000203166002900490600052602060002090601f016020900481019282601f1062000c8157805160ff191683800117855562000cb2565b8280016001018555821562000cb2579182015b8281111562000cb157825182559160200191906001019062000c94565b5b50905062000cc1919062000cc5565b5090565b62000cea91905b8082111562000ce657600081600090555060010162000ccc565b5090565b90565b600062000cfc600a8362000eaa565b91507f39303837363534333231000000000000000000000000000000000000000000006000830152600a82019050919050565b600062000d3e600a8362000eaa565b91507f31323334353637383930000000000000000000000000000000000000000000006000830152600a82019050919050565b600062000d80600a8362000eaa565b91507f39383736353430333231000000000000000000000000000000000000000000006000830152600a82019050919050565b600062000dc2600a8362000eaa565b91507f36373839303132333435000000000000000000000000000000000000000000006000830152600a82019050919050565b600062000e04600a8362000eaa565b91507f37383930313233343536000000000000000000000000000000000000000000006000830152600a82019050919050565b600062000e448262000ced565b9150819050919050565b600062000e5b8262000d2f565b9150819050919050565b600062000e728262000d71565b9150819050919050565b600062000e898262000db3565b9150819050919050565b600062000ea08262000df5565b9150819050919050565b600081905092915050565b610f108062000ec56000396000f3fe608060405234801561001057600080fd5b50600436106100575760003560e01c8063252c158f1461005c57806326ba9eed1461008c578063b24af36c146100bc578063c2898c3c146100d8578063fe2b2f011461010d575b600080fd5b6100766004803603610071919081019061098f565b61013d565b6040516100839190610c7d565b60405180910390f35b6100a660048036036100a191908101906109f9565b61021e565b6040516100b39190610c9f565b60405180910390f35b6100d660048036036100d19190810190610a3a565b6104f2565b005b6100f260048036036100ed91908101906109b8565b610525565b60405161010496959493929190610cc1565b60405180910390f35b6101276004803603610122919081019061098f565b6107d7565b6040516101349190610c5b565b60405180910390f35b6060600160008373ffffffffffffffffffffffffffffffffffffffff1673ffffffffffffffffffffffffffffffffffffffff1681526020019081526020016000208054600181600116156101000203166002900480601f0160208091040260200160405190810160405280929190818152602001828054600181600116156101000203166002900480156102125780601f106101e757610100808354040283529160200191610212565b820191906000526020600020905b8154815290600101906020018083116101f557829003601f168201915b50505050509050919050565b610226610887565b6000826040516102369190610c44565b90815260200160405180910390206040518060c001604052908160008201548152602001600182018054600181600116156101000203166002900480601f0160208091040260200160405190810160405280929190818152602001828054600181600116156101000203166002900480156102f25780601f106102c7576101008083540402835291602001916102f2565b820191906000526020600020905b8154815290600101906020018083116102d557829003601f168201915b50505050508152602001600282018054600181600116156101000203166002900480601f0160208091040260200160405190810160405280929190818152602001828054600181600116156101000203166002900480156103945780601f1061036957610100808354040283529160200191610394565b820191906000526020600020905b81548152906001019060200180831161037757829003601f168201915b50505050508152602001600382018054600181600116156101000203166002900480601f0160208091040260200160405190810160405280929190818152602001828054600181600116156101000203166002900480156104365780601f1061040b57610100808354040283529160200191610436565b820191906000526020600020905b81548152906001019060200180831161041957829003601f168201915b50505050508152602001600482018054600181600116156101000203166002900480601f0160208091040260200160405190810160405280929190818152602001828054600181600116156101000203166002900480156104d85780601f106104ad576101008083540402835291602001916104d8565b820191906000526020600020905b8154815290600101906020018083116104bb57829003601f168201915b505050505081526020016005820154815250509050919050565b806000836040516105039190610c44565b9081526020016040518091039020600501600082825401925050819055505050565b600081805160208101820180518482526020830160208501208183528095505050505050600091509050806000015490806001018054600181600116156101000203166002900480601f0160208091040260200160405190810160405280929190818152602001828054600181600116156101000203166002900480156105ed5780601f106105c2576101008083540402835291602001916105ed565b820191906000526020600020905b8154815290600101906020018083116105d057829003601f168201915b505050505090806002018054600181600116156101000203166002900480601f01602080910402602001604051908101604052809291908181526020018280546001816001161561010002031660029004801561068b5780601f106106605761010080835404028352916020019161068b565b820191906000526020600020905b81548152906001019060200180831161066e57829003601f168201915b505050505090806003018054600181600116156101000203166002900480601f0160208091040260200160405190810160405280929190818152602001828054600181600116156101000203166002900480156107295780601f106106fe57610100808354040283529160200191610729565b820191906000526020600020905b81548152906001019060200180831161070c57829003601f168201915b505050505090806004018054600181600116156101000203166002900480601f0160208091040260200160405190810160405280929190818152602001828054600181600116156101000203166002900480156107c75780601f1061079c576101008083540402835291602001916107c7565b820191906000526020600020905b8154815290600101906020018083116107aa57829003601f168201915b5050505050908060050154905086565b60016020528060005260406000206000915090508054600181600116156101000203166002900480601f01602080910402602001604051908101604052809291908181526020018280546001816001161561010002031660029004801561087f5780601f106108545761010080835404028352916020019161087f565b820191906000526020600020905b81548152906001019060200180831161086257829003601f168201915b505050505081565b6040518060c001604052806000815260200160608152602001606081526020016060815260200160608152602001600081525090565b6000813590506108cc81610e9f565b92915050565b6000813590506108e181610eb6565b92915050565b600082601f8301126108f857600080fd5b813561090b61090682610d6b565b610d3e565b9150808252602083016020830185838301111561092757600080fd5b610932838284610e4c565b50505092915050565b600082601f83011261094c57600080fd5b813561095f61095a82610d97565b610d3e565b9150808252602083016020830185838301111561097b57600080fd5b610986838284610e4c565b50505092915050565b6000602082840312156109a157600080fd5b60006109af848285016108bd565b91505092915050565b6000602082840312156109ca57600080fd5b600082013567ffffffffffffffff8111156109e457600080fd5b6109f0848285016108e7565b91505092915050565b600060208284031215610a0b57600080fd5b600082013567ffffffffffffffff811115610a2557600080fd5b610a318482850161093b565b91505092915050565b60008060408385031215610a4d57600080fd5b600083013567ffffffffffffffff811115610a6757600080fd5b610a738582860161093b565b9250506020610a84858286016108d2565b9150509250929050565b610a9781610e18565b82525050565b610aa681610e18565b82525050565b6000610ab782610dce565b610ac18185610dea565b9350610ad1818560208601610e5b565b610ada81610e8e565b840191505092915050565b6000610af082610dce565b610afa8185610dfb565b9350610b0a818560208601610e5b565b80840191505092915050565b6000610b2182610dc3565b610b2b8185610dd9565b9350610b3b818560208601610e5b565b610b4481610e8e565b840191505092915050565b6000610b5a82610dc3565b610b648185610dea565b9350610b74818560208601610e5b565b610b7d81610e8e565b840191505092915050565b600060c083016000830151610ba06000860182610c26565b5060208301518482036020860152610bb88282610b16565b91505060408301518482036040860152610bd28282610b16565b91505060608301518482036060860152610bec8282610b16565b91505060808301518482036080860152610c068282610b16565b91505060a0830151610c1b60a0860182610a8e565b508091505092915050565b610c2f81610e42565b82525050565b610c3e81610e42565b82525050565b6000610c508284610ae5565b915081905092915050565b60006020820190508181036000830152610c758184610b4f565b905092915050565b60006020820190508181036000830152610c978184610aac565b905092915050565b60006020820190508181036000830152610cb98184610b88565b905092915050565b600060c082019050610cd66000830189610c35565b8181036020830152610ce88188610b4f565b90508181036040830152610cfc8187610b4f565b90508181036060830152610d108186610b4f565b90508181036080830152610d248185610b4f565b9050610d3360a0830184610a9d565b979650505050505050565b6000604051905081810181811067ffffffffffffffff82111715610d6157600080fd5b8060405250919050565b600067ffffffffffffffff821115610d8257600080fd5b601f19601f8301169050602081019050919050565b600067ffffffffffffffff821115610dae57600080fd5b601f19601f8301169050602081019050919050565b600081519050919050565b600081519050919050565b600082825260208201905092915050565b600082825260208201905092915050565b600081905092915050565b6000610e1182610e22565b9050919050565b6000819050919050565b600073ffffffffffffffffffffffffffffffffffffffff82169050919050565b6000819050919050565b82818337600083830152505050565b60005b83811015610e79578082015181840152602081019050610e5e565b83811115610e88576000848401525b50505050565b6000601f19601f8301169050919050565b610ea881610e06565b8114610eb357600080fd5b50565b610ebf81610e18565b8114610eca57600080fd5b5056fea365627a7a723158205f6b21a56b69429ec3b51ddce51a40477342a8320d788c89b1ee0dd2c927b3306c6578706572696d656e74616cf564736f6c63430005100040",
  "source": "// SPDX-License-Identifier: MIT\r\npragma solidity >=0.4.21 <8.10.0;\r\npragma experimental ABIEncoderV2;\r\n\r\nlibrary AssetLibrary {\r\n    struct Consumer {\r\n        uint256 id;\r\n        string first_name;\r\n        string last_name;\r\n        string phone;\r\n        string location;\r\n        int256 allowance;\r\n    }\r\n\r\n    struct Merchant {\r\n        uint256 id;\r\n        string first_name;\r\n        string last_name;\r\n        string phone;\r\n        string location;\r\n    }\r\n}\r\n\r\ncontract Test {\r\n    mapping(string => AssetLibrary.Consumer) public consumerList;\r\n    mapping(address => string) public phoneNumberList;\r\n\r\n    constructor() public {\r\n        phoneNumberList[\r\n            0x9345BaF04A62F6A91d20aa08121a16eB39308b70\r\n        ] = \"1234567890\";\r\n        phoneNumberList[\r\n            0xB793c1d9c9D5050859864DbD321Fc873e7942e54\r\n        ] = \"9087654321\";\r\n        phoneNumberList[\r\n            0xb7C6562BF283534A775d5198195bfD8d47D22647\r\n        ] = \"7890123456\";\r\n        phoneNumberList[\r\n            0xb6444A785Bc6d27d3fAcb648dc0714C39F569B24\r\n        ] = \"6789012345\";\r\n        phoneNumberList[\r\n            0x97b814cdcD7F542f413E2CFef8AF97c6633ffF3D\r\n        ] = \"9876540321\";\r\n\r\n        consumerList[\"1234567890\"] = AssetLibrary.Consumer(\r\n            1,\r\n            \"Ram\",\r\n            \"Ghorpade\",\r\n            \"1234567890\",\r\n            \"Mumbai\",\r\n            200\r\n        );\r\n        consumerList[\"9087654321\"] = AssetLibrary.Consumer(\r\n            2,\r\n            \"Shyam\",\r\n            \"Deshpande\",\r\n            \"9087654321\",\r\n            \"Mumbai\",\r\n            200\r\n        );\r\n        consumerList[\"7890123456\"] = AssetLibrary.Consumer(\r\n            3,\r\n            \"Atishay\",\r\n            \"Gachyal\",\r\n            \"7890123456\",\r\n            \"Mumbai\",\r\n            200\r\n        );\r\n        consumerList[\"6789012345\"] = AssetLibrary.Consumer(\r\n            4,\r\n            \"Shubhra\",\r\n            \"Pandhre\",\r\n            \"6789012345\",\r\n            \"Mumbai\",\r\n            200\r\n        );\r\n        consumerList[\"9876540321\"] = AssetLibrary.Consumer(\r\n            5,\r\n            \"Tamaam\",\r\n            \"Muddeshwar\",\r\n            \"9876540321\",\r\n            \"Mumbai\",\r\n            200\r\n        );\r\n    }\r\n\r\n    function getConsumer(string memory _phone)\r\n        public\r\n        view\r\n        returns (AssetLibrary.Consumer memory)\r\n    {\r\n        return consumerList[_phone];\r\n    }\r\n\r\n    // function getAll() public view returns (AssetLibrary.Consumer[] memory) {\r\n    //     AssetLibrary.Consumer[] memory ret = new AssetLibrary.Consumer[](5);\r\n    //     for (uint256 i = 0; i < 5; i++) {\r\n    //         ret[i] = consumerList[i];\r\n    //     }\r\n    //     return ret;\r\n    // }\r\n\r\n    function updateAllowance(string memory _phone, int256 amount) public {\r\n        consumerList[_phone].allowance += amount;\r\n    }\r\n\r\n    function getPhoneNumber(address _addr) public view returns (string memory) {\r\n        return phoneNumberList[_addr];\r\n    }\r\n}\r\n",
  "sourcePath": "C:\\Users\\Chaitanya\\Personal\\Sem 6\\Mini Project\\SaNaaj\\contracts\\Test.sol",
  "compiler": {
    "name": "solc",
    "version": "0.5.16+commit.9c3226ce.Emscripten.clang"
  },
  "schemaVersion": "3.4.6",
  "updatedAt": "2022-04-13T19:14:24.222Z",
  "networkType": "ethereum",
  "devdoc": {
    "methods": {}
  },
  "userdoc": {
    "methods": {}
  }
}